{
  "_format": "hh-sol-artifact-1",
  "contractName": "VirtualRouter",
  "sourceName": "contracts/VirtualRouter.sol",
  "abi": [
    {
      "inputs": [
        {
          "internalType": "address",
          "name": "weth_",
          "type": "address"
        },
        {
          "internalType": "address",
          "name": "registry_",
          "type": "address"
        }
      ],
      "stateMutability": "nonpayable",
      "type": "constructor"
    },
    {
      "anonymous": false,
      "inputs": [
        {
          "indexed": true,
          "internalType": "address",
          "name": "from",
          "type": "address"
        },
        {
          "indexed": true,
          "internalType": "address",
          "name": "optionToken",
          "type": "address"
        },
        {
          "indexed": false,
          "internalType": "uint256",
          "name": "quantity",
          "type": "uint256"
        }
      ],
      "name": "Closed",
      "type": "event"
    },
    {
      "anonymous": false,
      "inputs": [
        {
          "indexed": true,
          "internalType": "address",
          "name": "from",
          "type": "address"
        },
        {
          "indexed": true,
          "internalType": "address",
          "name": "optionToken",
          "type": "address"
        },
        {
          "indexed": false,
          "internalType": "uint256",
          "name": "quantity",
          "type": "uint256"
        }
      ],
      "name": "Exercised",
      "type": "event"
    },
    {
      "anonymous": false,
      "inputs": [
        {
          "indexed": true,
          "internalType": "address",
          "name": "from",
          "type": "address"
        },
        {
          "indexed": true,
          "internalType": "address",
          "name": "optionToken",
          "type": "address"
        },
        {
          "indexed": false,
          "internalType": "uint256",
          "name": "longQuantity",
          "type": "uint256"
        },
        {
          "indexed": false,
          "internalType": "uint256",
          "name": "shortQuantity",
          "type": "uint256"
        }
      ],
      "name": "Minted",
      "type": "event"
    },
    {
      "anonymous": false,
      "inputs": [
        {
          "indexed": true,
          "internalType": "address",
          "name": "from",
          "type": "address"
        },
        {
          "indexed": true,
          "internalType": "address",
          "name": "longOption",
          "type": "address"
        },
        {
          "indexed": true,
          "internalType": "address",
          "name": "shortOption",
          "type": "address"
        },
        {
          "indexed": false,
          "internalType": "uint256",
          "name": "quantity",
          "type": "uint256"
        }
      ],
      "name": "OpenedDebitSpread",
      "type": "event"
    },
    {
      "anonymous": false,
      "inputs": [
        {
          "indexed": true,
          "internalType": "address",
          "name": "previousOwner",
          "type": "address"
        },
        {
          "indexed": true,
          "internalType": "address",
          "name": "newOwner",
          "type": "address"
        }
      ],
      "name": "OwnershipTransferred",
      "type": "event"
    },
    {
      "anonymous": false,
      "inputs": [
        {
          "indexed": true,
          "internalType": "address",
          "name": "from",
          "type": "address"
        },
        {
          "indexed": true,
          "internalType": "address",
          "name": "optionToken",
          "type": "address"
        },
        {
          "indexed": false,
          "internalType": "uint256",
          "name": "quantity",
          "type": "uint256"
        }
      ],
      "name": "Redeemed",
      "type": "event"
    },
    {
      "anonymous": false,
      "inputs": [
        {
          "indexed": true,
          "internalType": "address",
          "name": "from",
          "type": "address"
        },
        {
          "indexed": true,
          "internalType": "address",
          "name": "optionAddress",
          "type": "address"
        },
        {
          "indexed": false,
          "internalType": "uint256",
          "name": "quantity",
          "type": "uint256"
        }
      ],
      "name": "VirtualMinted",
      "type": "event"
    },
    {
      "inputs": [
        {
          "internalType": "address",
          "name": "optionAddress",
          "type": "address"
        },
        {
          "internalType": "uint256",
          "name": "quantity",
          "type": "uint256"
        }
      ],
      "name": "calculateStrikePayment",
      "outputs": [
        {
          "internalType": "uint256",
          "name": "",
          "type": "uint256"
        }
      ],
      "stateMutability": "view",
      "type": "function"
    },
    {
      "inputs": [
        {
          "internalType": "address",
          "name": "optionAddress",
          "type": "address"
        }
      ],
      "name": "deployVirtualOption",
      "outputs": [
        {
          "internalType": "address",
          "name": "",
          "type": "address"
        }
      ],
      "stateMutability": "nonpayable",
      "type": "function"
    },
    {
      "inputs": [
        {
          "internalType": "address",
          "name": "asset",
          "type": "address"
        },
        {
          "internalType": "address",
          "name": "virtualAsset",
          "type": "address"
        }
      ],
      "name": "issueVirtual",
      "outputs": [],
      "stateMutability": "nonpayable",
      "type": "function"
    },
    {
      "inputs": [
        {
          "internalType": "address",
          "name": "longOption",
          "type": "address"
        },
        {
          "internalType": "address",
          "name": "shortOption",
          "type": "address"
        },
        {
          "internalType": "uint256",
          "name": "quantity",
          "type": "uint256"
        },
        {
          "internalType": "address",
          "name": "receiver",
          "type": "address"
        }
      ],
      "name": "openDebitSpread",
      "outputs": [],
      "stateMutability": "nonpayable",
      "type": "function"
    },
    {
      "inputs": [],
      "name": "owner",
      "outputs": [
        {
          "internalType": "address",
          "name": "",
          "type": "address"
        }
      ],
      "stateMutability": "view",
      "type": "function"
    },
    {
      "inputs": [],
      "name": "registry",
      "outputs": [
        {
          "internalType": "contract IRegistry",
          "name": "",
          "type": "address"
        }
      ],
      "stateMutability": "view",
      "type": "function"
    },
    {
      "inputs": [],
      "name": "renounceOwnership",
      "outputs": [],
      "stateMutability": "nonpayable",
      "type": "function"
    },
    {
      "inputs": [
        {
          "internalType": "contract IOption",
          "name": "optionToken",
          "type": "address"
        },
        {
          "internalType": "uint256",
          "name": "closeQuantity",
          "type": "uint256"
        },
        {
          "internalType": "address",
          "name": "receiver",
          "type": "address"
        }
      ],
      "name": "safeClose",
      "outputs": [
        {
          "internalType": "uint256",
          "name": "",
          "type": "uint256"
        },
        {
          "internalType": "uint256",
          "name": "",
          "type": "uint256"
        },
        {
          "internalType": "uint256",
          "name": "",
          "type": "uint256"
        }
      ],
      "stateMutability": "nonpayable",
      "type": "function"
    },
    {
      "inputs": [
        {
          "internalType": "contract IOption",
          "name": "optionToken",
          "type": "address"
        },
        {
          "internalType": "uint256",
          "name": "closeQuantity",
          "type": "uint256"
        },
        {
          "internalType": "address",
          "name": "receiver",
          "type": "address"
        }
      ],
      "name": "safeCloseForETH",
      "outputs": [
        {
          "internalType": "uint256",
          "name": "",
          "type": "uint256"
        },
        {
          "internalType": "uint256",
          "name": "",
          "type": "uint256"
        },
        {
          "internalType": "uint256",
          "name": "",
          "type": "uint256"
        }
      ],
      "stateMutability": "nonpayable",
      "type": "function"
    },
    {
      "inputs": [
        {
          "internalType": "contract IOption",
          "name": "optionToken",
          "type": "address"
        },
        {
          "internalType": "uint256",
          "name": "exerciseQuantity",
          "type": "uint256"
        },
        {
          "internalType": "address",
          "name": "receiver",
          "type": "address"
        }
      ],
      "name": "safeExercise",
      "outputs": [
        {
          "internalType": "uint256",
          "name": "",
          "type": "uint256"
        },
        {
          "internalType": "uint256",
          "name": "",
          "type": "uint256"
        }
      ],
      "stateMutability": "nonpayable",
      "type": "function"
    },
    {
      "inputs": [
        {
          "internalType": "contract IOption",
          "name": "optionToken",
          "type": "address"
        },
        {
          "internalType": "uint256",
          "name": "exerciseQuantity",
          "type": "uint256"
        },
        {
          "internalType": "address",
          "name": "receiver",
          "type": "address"
        }
      ],
      "name": "safeExerciseForETH",
      "outputs": [
        {
          "internalType": "uint256",
          "name": "",
          "type": "uint256"
        },
        {
          "internalType": "uint256",
          "name": "",
          "type": "uint256"
        }
      ],
      "stateMutability": "nonpayable",
      "type": "function"
    },
    {
      "inputs": [
        {
          "internalType": "contract IOption",
          "name": "optionToken",
          "type": "address"
        },
        {
          "internalType": "address",
          "name": "receiver",
          "type": "address"
        }
      ],
      "name": "safeExerciseWithETH",
      "outputs": [
        {
          "internalType": "uint256",
          "name": "",
          "type": "uint256"
        },
        {
          "internalType": "uint256",
          "name": "",
          "type": "uint256"
        }
      ],
      "stateMutability": "payable",
      "type": "function"
    },
    {
      "inputs": [
        {
          "internalType": "contract IOption",
          "name": "optionToken",
          "type": "address"
        },
        {
          "internalType": "uint256",
          "name": "mintQuantity",
          "type": "uint256"
        },
        {
          "internalType": "address",
          "name": "receiver",
          "type": "address"
        }
      ],
      "name": "safeMint",
      "outputs": [
        {
          "internalType": "uint256",
          "name": "",
          "type": "uint256"
        },
        {
          "internalType": "uint256",
          "name": "",
          "type": "uint256"
        }
      ],
      "stateMutability": "nonpayable",
      "type": "function"
    },
    {
      "inputs": [
        {
          "internalType": "contract IOption",
          "name": "optionToken",
          "type": "address"
        },
        {
          "internalType": "address",
          "name": "receiver",
          "type": "address"
        }
      ],
      "name": "safeMintWithETH",
      "outputs": [
        {
          "internalType": "uint256",
          "name": "",
          "type": "uint256"
        },
        {
          "internalType": "uint256",
          "name": "",
          "type": "uint256"
        }
      ],
      "stateMutability": "payable",
      "type": "function"
    },
    {
      "inputs": [
        {
          "internalType": "contract IOption",
          "name": "optionToken",
          "type": "address"
        },
        {
          "internalType": "uint256",
          "name": "redeemQuantity",
          "type": "uint256"
        },
        {
          "internalType": "address",
          "name": "receiver",
          "type": "address"
        }
      ],
      "name": "safeRedeem",
      "outputs": [
        {
          "internalType": "uint256",
          "name": "",
          "type": "uint256"
        }
      ],
      "stateMutability": "nonpayable",
      "type": "function"
    },
    {
      "inputs": [
        {
          "internalType": "contract IOption",
          "name": "optionToken",
          "type": "address"
        },
        {
          "internalType": "uint256",
          "name": "redeemQuantity",
          "type": "uint256"
        },
        {
          "internalType": "address",
          "name": "receiver",
          "type": "address"
        }
      ],
      "name": "safeRedeemForETH",
      "outputs": [
        {
          "internalType": "uint256",
          "name": "",
          "type": "uint256"
        }
      ],
      "stateMutability": "nonpayable",
      "type": "function"
    },
    {
      "inputs": [
        {
          "internalType": "contract IOption",
          "name": "optionToken",
          "type": "address"
        },
        {
          "internalType": "uint256",
          "name": "unwindQuantity",
          "type": "uint256"
        },
        {
          "internalType": "address",
          "name": "receiver",
          "type": "address"
        }
      ],
      "name": "safeUnwind",
      "outputs": [
        {
          "internalType": "uint256",
          "name": "",
          "type": "uint256"
        },
        {
          "internalType": "uint256",
          "name": "",
          "type": "uint256"
        },
        {
          "internalType": "uint256",
          "name": "",
          "type": "uint256"
        }
      ],
      "stateMutability": "nonpayable",
      "type": "function"
    },
    {
      "inputs": [
        {
          "internalType": "address",
          "name": "newOwner",
          "type": "address"
        }
      ],
      "name": "transferOwnership",
      "outputs": [],
      "stateMutability": "nonpayable",
      "type": "function"
    },
    {
      "inputs": [
        {
          "internalType": "address",
          "name": "optionAddress",
          "type": "address"
        },
        {
          "internalType": "uint256",
          "name": "quantity",
          "type": "uint256"
        },
        {
          "internalType": "address",
          "name": "receiver",
          "type": "address"
        }
      ],
      "name": "virtualExercise",
      "outputs": [],
      "stateMutability": "nonpayable",
      "type": "function"
    },
    {
      "inputs": [
        {
          "internalType": "address",
          "name": "optionAddress",
          "type": "address"
        },
        {
          "internalType": "uint256",
          "name": "quantity",
          "type": "uint256"
        },
        {
          "internalType": "address",
          "name": "receiver",
          "type": "address"
        }
      ],
      "name": "virtualMint",
      "outputs": [
        {
          "internalType": "address",
          "name": "",
          "type": "address"
        }
      ],
      "stateMutability": "nonpayable",
      "type": "function"
    },
    {
      "inputs": [
        {
          "internalType": "address",
          "name": "from",
          "type": "address"
        },
        {
          "internalType": "address",
          "name": "optionAddress",
          "type": "address"
        },
        {
          "internalType": "uint256",
          "name": "quantity",
          "type": "uint256"
        },
        {
          "internalType": "address",
          "name": "receiver",
          "type": "address"
        }
      ],
      "name": "virtualMintFrom",
      "outputs": [
        {
          "internalType": "address",
          "name": "",
          "type": "address"
        }
      ],
      "stateMutability": "nonpayable",
      "type": "function"
    },
    {
      "inputs": [
        {
          "internalType": "address",
          "name": "",
          "type": "address"
        }
      ],
      "name": "virtualOptions",
      "outputs": [
        {
          "internalType": "address",
          "name": "",
          "type": "address"
        }
      ],
      "stateMutability": "view",
      "type": "function"
    },
    {
      "inputs": [],
      "name": "weth",
      "outputs": [
        {
          "internalType": "contract IWETH",
          "name": "",
          "type": "address"
        }
      ],
      "stateMutability": "view",
      "type": "function"
    },
    {
      "stateMutability": "payable",
      "type": "receive"
    }
  ],
  "bytecode": "0x60806040523480156200001157600080fd5b50604051620039b6380380620039b6833981810160405260408110156200003757600080fd5b508051602090910151806000620000566001600160e01b036200013016565b600080546001600160a01b0319166001600160a01b0383169081178255604051929350917f8be0079c531659141344cd1fd0a4f28419497f9722a3daafe3b4186f6b6457e0908290a35060018055600280546001600160a01b0319166001600160a01b03928316179055600554161562000109576040805162461bcd60e51b815260206004820152600f60248201526e11549497d253925512505312569151608a1b604482015290519081900360640190fd5b50600580546001600160a01b0319166001600160a01b039290921691909117905562000134565b3390565b61387280620001446000396000f3fe6080604052600436106101445760003560e01c806378764985116100b6578063a751820e1161006f578063a751820e1461053e578063b6b865d514610571578063b8a6bb3b146105b4578063c9c9163e146105f7578063f0ca1d561461063a578063f2fde38b146106835761015f565b806378764985146104325780637b1039991461047557806380e42f8e1461048a5780638549780b146104b85780638da5cb5b146104e6578063a1d8778f146104fb5761015f565b80633c51df7c116101085780633c51df7c146102ea5780633fc8cef31461034f57806350e2f0ba1461036457806369a067b8146103a75780636db8ce24146103da578063715018a61461041d5761015f565b8063045bf4cd14610164578063087b06321461019f578063154fa089146101fb57806320e469d61461025c5780633218a3ad1461029f5761015f565b3661015f576005546001600160a01b0316331461015d57fe5b005b600080fd5b34801561017057600080fd5b5061015d6004803603604081101561018757600080fd5b506001600160a01b03813581169160200135166106b6565b3480156101ab57600080fd5b506101e2600480360360608110156101c257600080fd5b506001600160a01b0381358116916020810135916040909101351661074d565b6040805192835260208301919091528051918290030190f35b34801561020757600080fd5b5061023e6004803603606081101561021e57600080fd5b506001600160a01b03813581169160208101359160409091013516610d3f565b60408051938452602084019290925282820152519081900360600190f35b34801561026857600080fd5b506101e26004803603606081101561027f57600080fd5b506001600160a01b03813581169160208101359160409091013516610d4b565b3480156102ab57600080fd5b506102d8600480360360408110156102c257600080fd5b506001600160a01b038135169060200135611016565b60408051918252519081900360200190f35b3480156102f657600080fd5b506103336004803603608081101561030d57600080fd5b506001600160a01b0381358116916020810135821691604082013591606001351661111e565b604080516001600160a01b039092168252519081900360200190f35b34801561035b57600080fd5b506103336111a6565b34801561037057600080fd5b5061023e6004803603606081101561038757600080fd5b506001600160a01b038135811691602081013591604090910135166111b5565b3480156103b357600080fd5b50610333600480360360208110156103ca57600080fd5b50356001600160a01b031661123a565b3480156103e657600080fd5b506101e2600480360360608110156103fd57600080fd5b506001600160a01b038135811691602081013591604090910135166113b8565b34801561042957600080fd5b5061015d6114ef565b34801561043e57600080fd5b506103336004803603606081101561045557600080fd5b506001600160a01b038135811691602081013591604090910135166115a3565b34801561048157600080fd5b50610333611629565b6101e2600480360360408110156104a057600080fd5b506001600160a01b0381358116916020013516611638565b6101e2600480360360408110156104ce57600080fd5b506001600160a01b038135811691602001351661192d565b3480156104f257600080fd5b50610333611b19565b34801561050757600080fd5b506102d86004803603606081101561051e57600080fd5b506001600160a01b03813581169160208101359160409091013516611b28565b34801561054a57600080fd5b506103336004803603602081101561056157600080fd5b50356001600160a01b0316611ed8565b34801561057d57600080fd5b5061015d6004803603606081101561059457600080fd5b506001600160a01b03813581169160208101359160409091013516611ef3565b3480156105c057600080fd5b5061023e600480360360608110156105d757600080fd5b506001600160a01b038135811691602081013591604090910135166123d9565b34801561060357600080fd5b506102d86004803603606081101561061a57600080fd5b506001600160a01b0381358116916020810135916040909101351661291e565b34801561064657600080fd5b5061015d6004803603608081101561065d57600080fd5b506001600160a01b03813581169160208101358216916040820135916060013516612988565b34801561068f57600080fd5b5061015d600480360360208110156106a657600080fd5b50356001600160a01b0316612e8e565b6040805163485cc95560e01b81526001600160a01b03848116600483015230602483015291519183169163485cc9559160448082019260009290919082900301818387803b15801561070757600080fd5b505af115801561071b573d6000803e3d6000fd5b505050506001600160a01b03918216600090815260046020526040902080546001600160a01b03191691909216179055565b6000808360008111610791576040805162461bcd60e51b81526020600482015260086024820152674552525f5a45524f60c01b604482015290519081900360640190fd5b6001600160a01b038087166000818152600360209081526040808320548151632207afe960e11b8152915195169492939263440f5fd292600480840193919291829003018186803b1580156107e557600080fd5b505afa1580156107f9573d6000803e3d6000fd5b505050506040513d602081101561080f57600080fd5b50516040805163a1a4076160e01b815290519192506000916001600160a01b038b169163a1a40761916004808301926020929190829003018186803b15801561085757600080fd5b505afa15801561086b573d6000803e3d6000fd5b505050506040513d602081101561088157600080fd5b505190506000610891848a612f98565b604080516323b872dd60e01b81523360048201526001600160a01b03871660248201819052604482018d9052915192935090916323b872dd916064808201926020929091908290030181600087803b1580156108ec57600080fd5b505af1158015610900573d6000803e3d6000fd5b505050506040513d602081101561091657600080fd5b5061092190506137e3565b506001600160a01b038083166000908152600460208181526040808420815180840183529054861680825282516340c10f1960e01b8152968b1694870194909452602486018790529051909492936340c10f19936044808201949392918390030190829087803b15801561099457600080fd5b505af11580156109a8573d6000803e3d6000fd5b505050506040513d60208110156109be57600080fd5b50506040805160008082526020820190925281906001600160a01b0388169063787eae309030908f906040518463ffffffff1660e01b815260040180846001600160a01b03166001600160a01b0316815260200183815260200180602001828103825283818151815260200191508051906020019080838360005b83811015610a51578181015183820152602001610a39565b50505050905090810190601f168015610a7e5780820380516001836020036101000a031916815260200191505b509450505050506040805180830381600087803b158015610a9e57600080fd5b505af1158015610ab2573d6000803e3d6000fd5b505050506040513d6040811015610ac857600080fd5b5080516020909101519092509050610ade6137e3565b60046000886001600160a01b03166001600160a01b031681526020019081526020016000206040518060200160405290816000820160009054906101000a90046001600160a01b03166001600160a01b03166001600160a01b031681525050905080600001516001600160a01b0316639dc29fac308f6040518363ffffffff1660e01b815260040180836001600160a01b03166001600160a01b0316815260200182815260200192505050602060405180830381600087803b158015610ba357600080fd5b505af1158015610bb7573d6000803e3d6000fd5b505050506040513d6020811015610bcd57600080fd5b5050604080516323b872dd60e01b81523360048201523060248201526044810187905290516001600160a01b038816916323b872dd9160648083019260209291908290030181600087803b158015610c2457600080fd5b505af1158015610c38573d6000803e3d6000fd5b505050506040513d6020811015610c4e57600080fd5b810190808051906020019092919050505050866001600160a01b031663a9059cbb8d8f6040518363ffffffff1660e01b815260040180836001600160a01b03166001600160a01b0316815260200182815260200192505050602060405180830381600087803b158015610cc057600080fd5b505af1158015610cd4573d6000803e3d6000fd5b505050506040513d6020811015610cea57600080fd5b5050604080518e815290516001600160a01b038a169133917f3cea488905b3fa93b6aaaf21e913395e548b6e79dbe6099a527f6aa8059b23d19181900360200190a350909c909b509950505050505050505050565b50600092839250829150565b6000808360008111610d8f576040805162461bcd60e51b81526020600482015260086024820152674552525f5a45524f60c01b604482015290519081900360640190fd5b6000866001600160a01b031663440f5fd26040518163ffffffff1660e01b815260040160206040518083038186803b158015610dca57600080fd5b505afa158015610dde573d6000803e3d6000fd5b505050506040513d6020811015610df457600080fd5b5051604080516323b872dd60e01b81523360048201523060248201526044810189905290519192506001600160a01b038316916323b872dd916064808201926020929091908290030181600087803b158015610e4f57600080fd5b505af1158015610e63573d6000803e3d6000fd5b505050506040513d6020811015610e7957600080fd5b50506001600160a01b0380881660009081526003602052604090205416610e9e6137e3565b506001600160a01b038083166000908152600460208181526040808420815180840183529054861680825282516340c10f1960e01b815296881694870194909452602486018d90529051909492936340c10f19936044808201949392918390030190829087803b158015610f1157600080fd5b505af1158015610f25573d6000803e3d6000fd5b505050506040513d6020811015610f3b57600080fd5b50506001600160a01b038216337f03f17d66ad3bf18e9412eb06582908831508cdb9b8da9cddb1431f645a5b86328a610f748d82612f98565b6040805192835260208301919091528051918290030190a360408051633ea6b5f160e21b81526001600160a01b03898116600483015282519085169263fa9ad7c492602480820193918290030181600087803b158015610fd357600080fd5b505af1158015610fe7573d6000803e3d6000fd5b505050506040513d6040811015610ffd57600080fd5b508051602090910151909a909950975050505050505050565b600080836001600160a01b031663b592a1386040518163ffffffff1660e01b815260040160206040518083038186803b15801561105257600080fd5b505afa158015611066573d6000803e3d6000fd5b505050506040513d602081101561107c57600080fd5b505160408051627f0cfd60e11b815290519192506000916001600160a01b0387169162fe19fa916004808301926020929190829003018186803b1580156110c257600080fd5b505afa1580156110d6573d6000803e3d6000fd5b505050506040513d60208110156110ec57600080fd5b50519050600061111283611106878563ffffffff61307f16565b9063ffffffff6130df16565b93505050505b92915050565b60008061112c858585613121565b905061119d86866001600160a01b031663440f5fd26040518163ffffffff1660e01b815260040160206040518083038186803b15801561116b57600080fd5b505afa15801561117f573d6000803e3d6000fd5b505050506040513d602081101561119557600080fd5b50518661333a565b95945050505050565b6005546001600160a01b031681565b600080600084600081116111fb576040805162461bcd60e51b81526020600482015260086024820152674552525f5a45524f60c01b604482015290519081900360640190fd5b600080600061120b8a8a306123d9565b600554929550909350915061122a906001600160a01b0316898b6133c4565b9199909850909650945050505050565b600080600080600080866001600160a01b031663a5ea11da6040518163ffffffff1660e01b815260040160c06040518083038186803b15801561127c57600080fd5b505afa158015611290573d6000803e3d6000fd5b505050506040513d60c08110156112a657600080fd5b5080516020808301516060840151608085015160a0909501516002546001600160a01b03808716600090815260048088526040808320548489168452818420548251639180928f60e01b815291861693820193909352918416602483015260448201879052606482018b90526084820186905251989e50959c50939a5096985090965090941692639180928f9260a48084019391929182900301818787803b15801561135157600080fd5b505af1158015611365573d6000803e3d6000fd5b505050506040513d602081101561137b57600080fd5b50516001600160a01b03988916600090815260036020526040902080546001600160a01b0319169982169990991790985550959695505050505050565b60008083600081116113fc576040805162461bcd60e51b81526020600482015260086024820152674552525f5a45524f60c01b604482015290519081900360640190fd5b6000866001600160a01b031663440f5fd26040518163ffffffff1660e01b815260040160206040518083038186803b15801561143757600080fd5b505afa15801561144b573d6000803e3d6000fd5b505050506040513d602081101561146157600080fd5b50516005549091506001600160a01b038083169116146114b7576040805162461bcd60e51b815260206004820152600c60248201526b08aa4a4be9c9ea8beae8aa8960a31b604482015290519081900360640190fd5b6000806114c589893061074d565b60055491935091506114e1906001600160a01b0316888a6133c4565b909890975095505050505050565b6114f76134ce565b6000546001600160a01b03908116911614611559576040805162461bcd60e51b815260206004820181905260248201527f4f776e61626c653a2063616c6c6572206973206e6f7420746865206f776e6572604482015290519081900360640190fd5b600080546040516001600160a01b03909116907f8be0079c531659141344cd1fd0a4f28419497f9722a3daafe3b4186f6b6457e0908390a3600080546001600160a01b0319169055565b6000806115b1858585613121565b9050611621856001600160a01b031663440f5fd26040518163ffffffff1660e01b815260040160206040518083038186803b1580156115ef57600080fd5b505afa158015611603573d6000803e3d6000fd5b505050506040513d602081101561161957600080fd5b5051856134d2565b949350505050565b6002546001600160a01b031681565b600080346000811161167c576040805162461bcd60e51b81526020600482015260086024820152674552525f5a45524f60c01b604482015290519081900360640190fd5b6000856001600160a01b031663a1a407616040518163ffffffff1660e01b815260040160206040518083038186803b1580156116b757600080fd5b505afa1580156116cb573d6000803e3d6000fd5b505050506040513d60208110156116e157600080fd5b50516005549091506001600160a01b03808316911614611737576040805162461bcd60e51b815260206004820152600c60248201526b08aa4a4be9c9ea8beae8aa8960a31b604482015290519081900360640190fd5b3460006117448883613551565b60055490915061175e906001600160a01b03168934613600565b604080516323b872dd60e01b81523360048201526001600160a01b038a16602482018190526044820184905291516323b872dd916064808201926020929091908290030181600087803b1580156117b457600080fd5b505af11580156117c8573d6000803e3d6000fd5b505050506040513d60208110156117de57600080fd5b50506040805182815290516001600160a01b038a169133917f3cea488905b3fa93b6aaaf21e913395e548b6e79dbe6099a527f6aa8059b23d19181900360200190a36040805160008082526020820192839052630787eae360e41b83526001600160a01b038a81166024840190815260448401869052606060648501908152845160848601819052928e169563787eae30958e9589959194939260a486019290918190849084905b8381101561189e578181015183820152602001611886565b50505050905090810190601f1680156118cb5780820380516001836020036101000a031916815260200191505b509450505050506040805180830381600087803b1580156118eb57600080fd5b505af11580156118ff573d6000803e3d6000fd5b505050506040513d604081101561191557600080fd5b50805160209091015190999098509650505050505050565b6000803460008111611971576040805162461bcd60e51b81526020600482015260086024820152674552525f5a45524f60c01b604482015290519081900360640190fd5b6000856001600160a01b031663440f5fd26040518163ffffffff1660e01b815260040160206040518083038186803b1580156119ac57600080fd5b505afa1580156119c0573d6000803e3d6000fd5b505050506040513d60208110156119d657600080fd5b50516005549091506001600160a01b03808316911614611a2c576040805162461bcd60e51b815260206004820152600c60248201526b08aa4a4be9c9ea8beae8aa8960a31b604482015290519081900360640190fd5b600554611a43906001600160a01b03168734613600565b6001600160a01b038616337f03f17d66ad3bf18e9412eb06582908831508cdb9b8da9cddb1431f645a5b863234611a7a8a82612f98565b6040805192835260208301919091528051918290030190a360408051633ea6b5f160e21b81526001600160a01b03878116600483015282519089169263fa9ad7c492602480820193918290030181600087803b158015611ad957600080fd5b505af1158015611aed573d6000803e3d6000fd5b505050506040513d6040811015611b0357600080fd5b5080516020909101519097909650945050505050565b6000546001600160a01b031690565b60008260008111611b6b576040805162461bcd60e51b81526020600482015260086024820152674552525f5a45524f60c01b604482015290519081900360640190fd5b6001600160a01b03808616600090815260036020908152604091829020548251632f310bad60e01b815292519316928392632f310bad926004808301939192829003018186803b158015611bbe57600080fd5b505afa158015611bd2573d6000803e3d6000fd5b505050506040513d6020811015611be857600080fd5b5051604080516323b872dd60e01b81523360048201526001600160a01b03848116602483015260448201899052915191909216916323b872dd9160648083019260209291908290030181600087803b158015611c4357600080fd5b505af1158015611c57573d6000803e3d6000fd5b505050506040513d6020811015611c6d57600080fd5b50506040805163a1a4076160e01b815290516000916001600160a01b0389169163a1a4076191600480820192602092909190829003018186803b158015611cb357600080fd5b505afa158015611cc7573d6000803e3d6000fd5b505050506040513d6020811015611cdd57600080fd5b50519050611ce96137e3565b506001600160a01b038082166000908152600460208181526040808420815180840183529054861681528151635e86929d60e01b8152309481019490945290519094871692635e86929d92602480830193919282900301818787803b158015611d5157600080fd5b505af1158015611d65573d6000803e3d6000fd5b505050506040513d6020811015611d7b57600080fd5b5051825160408051632770a7eb60e21b8152306004820152602481018c905290519293506001600160a01b0390911691639dc29fac916044808201926020929091908290030181600087803b158015611dd357600080fd5b505af1158015611de7573d6000803e3d6000fd5b505050506040513d6020811015611dfd57600080fd5b50506040805189815290516001600160a01b038b169133917f27d4634c833b7622a0acddbf7f746183625f105945e95c723ad1d5a9f2a0b6fc9181900360200190a3826001600160a01b031663a9059cbb88836040518363ffffffff1660e01b815260040180836001600160a01b03166001600160a01b0316815260200182815260200192505050602060405180830381600087803b158015611e9f57600080fd5b505af1158015611eb3573d6000803e3d6000fd5b505050506040513d6020811015611ec957600080fd5b50909998505050505050505050565b6003602052600090815260409020546001600160a01b031681565b6001600160a01b038084166000908152600360205260409020541680611f53576040805162461bcd60e51b815260206004820152601060248201526f11549497d393d517d111541313d6515160821b604482015290519081900360640190fd5b6000846001600160a01b031663440f5fd26040518163ffffffff1660e01b815260040160206040518083038186803b158015611f8e57600080fd5b505afa158015611fa2573d6000803e3d6000fd5b505050506040513d6020811015611fb857600080fd5b50516040805163a1a4076160e01b815290519192506000916001600160a01b0388169163a1a40761916004808301926020929190829003018186803b15801561200057600080fd5b505afa158015612014573d6000803e3d6000fd5b505050506040513d602081101561202a57600080fd5b5051604080516323b872dd60e01b81523360048201526001600160a01b0386166024820181905260448201899052915192935090916323b872dd916064808201926020929091908290030181600087803b15801561208757600080fd5b505af115801561209b573d6000803e3d6000fd5b505050506040513d60208110156120b157600080fd5b50600090506120c08787611016565b6001600160a01b0380841660009081526004602081815260408084205481516340c10f1960e01b81528b871694810194909452602484018790529051959650909316936340c10f199360448084019491938390030190829087803b15801561212757600080fd5b505af115801561213b573d6000803e3d6000fd5b505050506040513d602081101561215157600080fd5b50506040805160008082526020820192839052630787eae360e41b83523060248301818152604484018b90526060606485019081528451608486018190526001600160a01b038b169663787eae309694958e9594939260a4860192918190849084905b838110156121cc5781810151838201526020016121b4565b50505050905090810190601f1680156121f95780820380516001836020036101000a031916815260200191505b509450505050506040805180830381600087803b15801561221957600080fd5b505af115801561222d573d6000803e3d6000fd5b505050506040513d604081101561224357600080fd5b50506001600160a01b038084166000908152600460208181526040808420548151632770a7eb60e21b81523094810194909452602484018c90529051941693639dc29fac936044808501948390030190829087803b1580156122a457600080fd5b505af11580156122b8573d6000803e3d6000fd5b505050506040513d60208110156122ce57600080fd5b50506040805163a9059cbb60e01b81526001600160a01b0387811660048301526024820189905291519185169163a9059cbb916044808201926020929091908290030181600087803b15801561232357600080fd5b505af1158015612337573d6000803e3d6000fd5b505050506040513d602081101561234d57600080fd5b5050604080516323b872dd60e01b81523360048201523060248201526044810183905290516001600160a01b038416916323b872dd9160648083019260209291908290030181600087803b1580156123a457600080fd5b505af11580156123b8573d6000803e3d6000fd5b505050506040513d60208110156123ce57600080fd5b505050505050505050565b6000806000846000811161241f576040805162461bcd60e51b81526020600482015260086024820152674552525f5a45524f60c01b604482015290519081900360640190fd5b6001600160a01b03808816600090815260036020526040812054909116906124478989612f98565b9050816001600160a01b0316632f310bad6040518163ffffffff1660e01b815260040160206040518083038186803b15801561248257600080fd5b505afa158015612496573d6000803e3d6000fd5b505050506040513d60208110156124ac57600080fd5b5051604080516323b872dd60e01b81523360048201526001600160a01b03858116602483015260448201859052915191909216916323b872dd9160648083019260209291908290030181600087803b15801561250757600080fd5b505af115801561251b573d6000803e3d6000fd5b505050506040513d602081101561253157600080fd5b50506040805162972d6f60e61b8152905142916001600160a01b038516916325cb5bc091600480820192602092909190829003018186803b15801561257557600080fd5b505afa158015612589573d6000803e3d6000fd5b505050506040513d602081101561259f57600080fd5b50511061262957604080516323b872dd60e01b81523360048201526001600160a01b03841660248201819052604482018b905291516323b872dd916064808201926020929091908290030181600087803b1580156125fc57600080fd5b505af1158015612610573d6000803e3d6000fd5b505050506040513d602081101561262657600080fd5b50505b6000806000846001600160a01b03166383499805306040518263ffffffff1660e01b815260040180826001600160a01b03166001600160a01b03168152602001915050606060405180830381600087803b15801561268657600080fd5b505af115801561269a573d6000803e3d6000fd5b505050506040513d60608110156126b057600080fd5b8101908080519060200190929190805190602001909291908051906020019092919050505092509250925060008c6001600160a01b031663440f5fd26040518163ffffffff1660e01b815260040160206040518083038186803b15801561271657600080fd5b505afa15801561272a573d6000803e3d6000fd5b505050506040513d602081101561274057600080fd5b5051905061274c6137e3565b60046000836001600160a01b03166001600160a01b031681526020019081526020016000206040518060200160405290816000820160009054906101000a90046001600160a01b03166001600160a01b03166001600160a01b031681525050905080600001516001600160a01b0316639dc29fac308f6040518363ffffffff1660e01b815260040180836001600160a01b03166001600160a01b0316815260200182815260200192505050602060405180830381600087803b15801561281157600080fd5b505af1158015612825573d6000803e3d6000fd5b505050506040513d602081101561283b57600080fd5b5050604080518e815290516001600160a01b0389169133917f62d095e2c4513ab737ede7cbd30334eccb10424cbc543ebb5c458b5174cddcd59181900360200190a3816001600160a01b031663a9059cbb8d856040518363ffffffff1660e01b815260040180836001600160a01b03166001600160a01b0316815260200182815260200192505050602060405180830381600087803b1580156128dd57600080fd5b505af11580156128f1573d6000803e3d6000fd5b505050506040513d602081101561290757600080fd5b50949e939d50919b50919950505050505050505050565b60008260008111612961576040805162461bcd60e51b81526020600482015260086024820152674552525f5a45524f60c01b604482015290519081900360640190fd5b600061296e868630611b28565b60055490915061119d906001600160a01b031685876133c4565b6001600160a01b038085166000908152600360209081526040808320548785168452818420548251627f0cfd60e11b8152925191861695169392859262fe19fa9260048083019392829003018186803b1580156129e457600080fd5b505afa1580156129f8573d6000803e3d6000fd5b505050506040513d6020811015612a0e57600080fd5b505160408051627f0cfd60e11b815290519192506000916001600160a01b0385169162fe19fa916004808301926020929190829003018186803b158015612a5457600080fd5b505afa158015612a68573d6000803e3d6000fd5b505050506040513d6020811015612a7e57600080fd5b5051905081811015612acb576040805162461bcd60e51b815260206004820152601160248201527011549497d0d49151125517d4d414915051607a1b604482015290519081900360640190fd5b6000612add828463ffffffff6136a516565b90506000600460008a6001600160a01b031663440f5fd26040518163ffffffff1660e01b815260040160206040518083038186803b158015612b1e57600080fd5b505afa158015612b32573d6000803e3d6000fd5b505050506040513d6020811015612b4857600080fd5b50516001600160a01b03908116825260208281019390935260409182016000908120805484516340c10f1960e01b81528b85166004820152602481018f90529451919650909216936340c10f19936044808201949293918390030190829087803b158015612bb557600080fd5b505af1158015612bc9573d6000803e3d6000fd5b505050506040513d6020811015612bdf57600080fd5b505060408051633ea6b5f160e21b815230600482015281516001600160a01b0388169263fa9ad7c492602480820193918290030181600087803b158015612c2557600080fd5b505af1158015612c39573d6000803e3d6000fd5b505050506040513d6040811015612c4f57600080fd5b50506040805163a9059cbb60e01b81526001600160a01b038981166004830152602482018b905291519187169163a9059cbb916044808201926020929091908290030181600087803b158015612ca457600080fd5b505af1158015612cb8573d6000803e3d6000fd5b505050506040513d6020811015612cce57600080fd5b505060408051632f310bad60e01b815290516001600160a01b03871691632f310bad916004808301926020929190829003018186803b158015612d1057600080fd5b505afa158015612d24573d6000803e3d6000fd5b505050506040513d6020811015612d3a57600080fd5b50516040805163a9059cbb60e01b81526001600160a01b038a81166004830152602482018690529151919092169163a9059cbb9160448083019260209291908290030181600087803b158015612d8f57600080fd5b505af1158015612da3573d6000803e3d6000fd5b505050506040513d6020811015612db957600080fd5b5050604080516323b872dd60e01b8152336004820152306024820152604481018a905290516001600160a01b038816916323b872dd9160648083019260209291908290030181600087803b158015612e1057600080fd5b505af1158015612e24573d6000803e3d6000fd5b505050506040513d6020811015612e3a57600080fd5b50506040805189815290516001600160a01b03808c1692908d169133917f33a45968f4205599a1893a1cca6f79ccfbb725c57197feee1fb493c45f3f376c919081900360200190a450505050505050505050565b612e966134ce565b6000546001600160a01b03908116911614612ef8576040805162461bcd60e51b815260206004820181905260248201527f4f776e61626c653a2063616c6c6572206973206e6f7420746865206f776e6572604482015290519081900360640190fd5b6001600160a01b038116612f3d5760405162461bcd60e51b81526004018080602001828103825260268152602001806137f66026913960400191505060405180910390fd5b600080546040516001600160a01b03808516939216917f8be0079c531659141344cd1fd0a4f28419497f9722a3daafe3b4186f6b6457e091a3600080546001600160a01b0319166001600160a01b0392909216919091179055565b600080611621846001600160a01b031663b592a1386040518163ffffffff1660e01b815260040160206040518083038186803b158015612fd757600080fd5b505afa158015612feb573d6000803e3d6000fd5b505050506040513d602081101561300157600080fd5b505160408051627f0cfd60e11b81529051611106916001600160a01b0389169162fe19fa91600480820192602092909190829003018186803b15801561304657600080fd5b505afa15801561305a573d6000803e3d6000fd5b505050506040513d602081101561307057600080fd5b5051869063ffffffff61307f16565b60008261308e57506000611118565b8282028284828161309b57fe5b04146130d85760405162461bcd60e51b815260040180806020018281038252602181526020018061381c6021913960400191505060405180910390fd5b9392505050565b60006130d883836040518060400160405280601a81526020017f536166654d6174683a206469766973696f6e206279207a65726f0000000000008152506136e7565b6001600160a01b0380841660009081526003602052604081205490911680613183576040805162461bcd60e51b815260206004820152601060248201526f11549497d393d517d111541313d6515160821b604482015290519081900360640190fd5b6000856001600160a01b031663440f5fd26040518163ffffffff1660e01b815260040160206040518083038186803b1580156131be57600080fd5b505afa1580156131d2573d6000803e3d6000fd5b505050506040513d60208110156131e857600080fd5b50516001600160a01b038082166000908152600460208181526040808420805482516340c10f1960e01b81528a881695810195909552602485018d90529151969750959416936340c10f19936044808501948390030190829087803b15801561325057600080fd5b505af1158015613264573d6000803e3d6000fd5b505050506040513d602081101561327a57600080fd5b505060408051633ea6b5f160e21b81526001600160a01b03878116600483015282519086169263fa9ad7c492602480820193918290030181600087803b1580156132c357600080fd5b505af11580156132d7573d6000803e3d6000fd5b505050506040513d60408110156132ed57600080fd5b50506040805187815290516001600160a01b0389169133917fe368fed5c4ce1d1a4b7bad8fcb733fa62ac9d46e8f4d8a400c6d8bf07b16a3649181900360200190a3509095945050505050565b604080516323b872dd60e01b81526001600160a01b038581166004830152306024830152604482018490529151918416916323b872dd916064808201926020929091908290030181600087803b15801561339357600080fd5b505af11580156133a7573d6000803e3d6000fd5b505050506040513d60208110156133bd57600080fd5b5050505050565b826001600160a01b0316632e1a7d4d826040518263ffffffff1660e01b815260040180828152602001915050600060405180830381600087803b15801561340a57600080fd5b505af115801561341e573d6000803e3d6000fd5b5050604051600092506001600160a01b038516915083908381818185875af1925050503d806000811461346d576040519150601f19603f3d011682016040523d82523d6000602084013e613472565b606091505b50509050806134c8576040805162461bcd60e51b815260206004820152601e60248201527f5072696d697469766556313a204552525f53454e44494e475f45544845520000604482015290519081900360640190fd5b50505050565b3390565b604080516323b872dd60e01b81523360048201523060248201526044810183905290516001600160a01b038416916323b872dd9160648083019260209291908290030181600087803b15801561352757600080fd5b505af115801561353b573d6000803e3d6000fd5b505050506040513d60208110156134c857600080fd5b600080611621846001600160a01b031662fe19fa6040518163ffffffff1660e01b815260040160206040518083038186803b15801561358f57600080fd5b505afa1580156135a3573d6000803e3d6000fd5b505050506040513d60208110156135b957600080fd5b5051604080516316b2542760e31b81529051611106916001600160a01b0389169163b592a13891600480820192602092909190829003018186803b15801561304657600080fd5b826001600160a01b031663d0e30db0826040518263ffffffff1660e01b81526004016000604051808303818588803b15801561363b57600080fd5b505af115801561364f573d6000803e3d6000fd5b50506040805163a9059cbb60e01b81526001600160a01b038781166004830152602482018790529151918816945063a9059cbb935060448082019350602092918290030181600087803b15801561339357600080fd5b60006130d883836040518060400160405280601e81526020017f536166654d6174683a207375627472616374696f6e206f766572666c6f770000815250613789565b600081836137735760405162461bcd60e51b81526004018080602001828103825283818151815260200191508051906020019080838360005b83811015613738578181015183820152602001613720565b50505050905090810190601f1680156137655780820380516001836020036101000a031916815260200191505b509250505060405180910390fd5b50600083858161377f57fe5b0495945050505050565b600081848411156137db5760405162461bcd60e51b8152602060048201818152835160248401528351909283926044909101919085019080838360008315613738578181015183820152602001613720565b505050900390565b6040805160208101909152600081529056fe4f776e61626c653a206e6577206f776e657220697320746865207a65726f2061646472657373536166654d6174683a206d756c7469706c69636174696f6e206f766572666c6f77a2646970667358221220247cf086e3c71af12859124850d7581bbec3037856a04bba5d6daa0ab6b859bd64736f6c63430006020033",
  "linkReferences": {},
  "deployedLinkReferences": {}
}