{
  "_format": "hh-sol-artifact-1",
  "contractName": "BaseVenue",
  "sourceName": "contracts/BaseVenue.sol",
  "abi": [
    {
      "inputs": [
        {
          "internalType": "address",
          "name": "weth_",
          "type": "address"
        },
        {
          "internalType": "address",
          "name": "house_",
          "type": "address"
        }
      ],
      "stateMutability": "nonpayable",
      "type": "constructor"
    },
    {
      "inputs": [
        {
          "internalType": "address",
          "name": "token",
          "type": "address"
        },
        {
          "internalType": "address",
          "name": "spender",
          "type": "address"
        }
      ],
      "name": "checkApproved",
      "outputs": [],
      "stateMutability": "nonpayable",
      "type": "function"
    },
    {
      "inputs": [],
      "name": "house",
      "outputs": [
        {
          "internalType": "contract IHouse",
          "name": "",
          "type": "address"
        }
      ],
      "stateMutability": "view",
      "type": "function"
    },
    {
      "inputs": [
        {
          "internalType": "address",
          "name": "",
          "type": "address"
        },
        {
          "internalType": "address",
          "name": "",
          "type": "address"
        }
      ],
      "name": "isMaxApproved",
      "outputs": [
        {
          "internalType": "bool",
          "name": "",
          "type": "bool"
        }
      ],
      "stateMutability": "view",
      "type": "function"
    },
    {
      "inputs": [],
      "name": "weth",
      "outputs": [
        {
          "internalType": "contract IWETH",
          "name": "",
          "type": "address"
        }
      ],
      "stateMutability": "view",
      "type": "function"
    },
    {
      "stateMutability": "payable",
      "type": "receive"
    }
  ],
  "bytecode": "0x608060405234801561001057600080fd5b5060405161040c38038061040c8339818101604052604081101561003357600080fd5b508051602090910151600080546001600160a01b038085166001600160a01b031992831617909255600180549284169290911691909117905561007f82826001600160e01b0361008616565b505061016e565b6001600160a01b0380831660009081526002602090815260408083209385168352929052205460ff16156100b95761016a565b6040805163095ea7b360e01b81526001600160a01b038381166004830152600019602483015291519184169163095ea7b3916044808201926020929091908290030181600087803b15801561010d57600080fd5b505af1158015610121573d6000803e3d6000fd5b505050506040513d602081101561013757600080fd5b50506001600160a01b038083166000908152600260209081526040808320938516835292905220805460ff191660011790555b5050565b61028f8061017d6000396000f3fe6080604052600436106100435760003560e01c80631f33b925146100635780633fc8cef31461009e578063d4bd76f0146100cf578063ff9b3acf1461011e5761005e565b3661005e576000546001600160a01b0316331461005c57fe5b005b600080fd5b34801561006f57600080fd5b5061005c6004803603604081101561008657600080fd5b506001600160a01b0381358116916020013516610133565b3480156100aa57600080fd5b506100b361021b565b604080516001600160a01b039092168252519081900360200190f35b3480156100db57600080fd5b5061010a600480360360408110156100f257600080fd5b506001600160a01b038135811691602001351661022a565b604080519115158252519081900360200190f35b34801561012a57600080fd5b506100b361024a565b6001600160a01b0380831660009081526002602090815260408083209385168352929052205460ff161561016657610217565b6040805163095ea7b360e01b81526001600160a01b038381166004830152600019602483015291519184169163095ea7b3916044808201926020929091908290030181600087803b1580156101ba57600080fd5b505af11580156101ce573d6000803e3d6000fd5b505050506040513d60208110156101e457600080fd5b50506001600160a01b038083166000908152600260209081526040808320938516835292905220805460ff191660011790555b5050565b6000546001600160a01b031681565b600260209081526000928352604080842090915290825290205460ff1681565b6001546001600160a01b03168156fea2646970667358221220633ad7458416402c3c5aad6174bbc7023f3f02ea18b54f875e0478bb9923cd2764736f6c63430006020033",
  "linkReferences": {},
  "deployedLinkReferences": {}
}