{
  "_format": "hh-sol-artifact-1",
  "contractName": "Capitol",
  "sourceName": "contracts/Capitol.sol",
  "abi": [
    {
      "inputs": [],
      "stateMutability": "nonpayable",
      "type": "constructor"
    },
    {
      "anonymous": false,
      "inputs": [
        {
          "indexed": true,
          "internalType": "address",
          "name": "previousOwner",
          "type": "address"
        },
        {
          "indexed": true,
          "internalType": "address",
          "name": "newOwner",
          "type": "address"
        }
      ],
      "name": "OwnershipTransferred",
      "type": "event"
    },
    {
      "inputs": [
        {
          "internalType": "address",
          "name": "venue_",
          "type": "address"
        },
        {
          "internalType": "string",
          "name": "name",
          "type": "string"
        },
        {
          "internalType": "string",
          "name": "apiVersion",
          "type": "string"
        },
        {
          "internalType": "bool",
          "name": "isEndorsed",
          "type": "bool"
        }
      ],
      "name": "addVenue",
      "outputs": [],
      "stateMutability": "nonpayable",
      "type": "function"
    },
    {
      "inputs": [
        {
          "internalType": "uint256",
          "name": "",
          "type": "uint256"
        }
      ],
      "name": "allVenues",
      "outputs": [
        {
          "internalType": "contract IVenue",
          "name": "",
          "type": "address"
        }
      ],
      "stateMutability": "view",
      "type": "function"
    },
    {
      "inputs": [
        {
          "internalType": "address",
          "name": "venue_",
          "type": "address"
        }
      ],
      "name": "endorse",
      "outputs": [],
      "stateMutability": "nonpayable",
      "type": "function"
    },
    {
      "inputs": [
        {
          "internalType": "address",
          "name": "venue_",
          "type": "address"
        }
      ],
      "name": "getIsEndorsed",
      "outputs": [
        {
          "internalType": "bool",
          "name": "",
          "type": "bool"
        }
      ],
      "stateMutability": "view",
      "type": "function"
    },
    {
      "inputs": [
        {
          "internalType": "address",
          "name": "venue_",
          "type": "address"
        }
      ],
      "name": "getVenueAttributes",
      "outputs": [
        {
          "internalType": "string",
          "name": "",
          "type": "string"
        },
        {
          "internalType": "string",
          "name": "",
          "type": "string"
        },
        {
          "internalType": "bool",
          "name": "",
          "type": "bool"
        }
      ],
      "stateMutability": "view",
      "type": "function"
    },
    {
      "inputs": [],
      "name": "getVenuesLength",
      "outputs": [
        {
          "internalType": "uint256",
          "name": "",
          "type": "uint256"
        }
      ],
      "stateMutability": "view",
      "type": "function"
    },
    {
      "inputs": [],
      "name": "owner",
      "outputs": [
        {
          "internalType": "address",
          "name": "",
          "type": "address"
        }
      ],
      "stateMutability": "view",
      "type": "function"
    },
    {
      "inputs": [],
      "name": "renounceOwnership",
      "outputs": [],
      "stateMutability": "nonpayable",
      "type": "function"
    },
    {
      "inputs": [
        {
          "internalType": "address",
          "name": "newOwner",
          "type": "address"
        }
      ],
      "name": "transferOwnership",
      "outputs": [],
      "stateMutability": "nonpayable",
      "type": "function"
    },
    {
      "inputs": [
        {
          "internalType": "address",
          "name": "",
          "type": "address"
        }
      ],
      "name": "venueState",
      "outputs": [
        {
          "internalType": "string",
          "name": "name",
          "type": "string"
        },
        {
          "internalType": "string",
          "name": "apiVersion",
          "type": "string"
        },
        {
          "internalType": "bool",
          "name": "isEndorsed",
          "type": "bool"
        }
      ],
      "stateMutability": "view",
      "type": "function"
    }
  ],
  "bytecode": "0x608060405234801561001057600080fd5b5060006100246001600160e01b0361007316565b600080546001600160a01b0319166001600160a01b0383169081178255604051929350917f8be0079c531659141344cd1fd0a4f28419497f9722a3daafe3b4186f6b6457e0908290a350610077565b3390565b610e34806100866000396000f3fe608060405234801561001057600080fd5b506004361061009e5760003560e01c80637da56fa3116100665780637da56fa31461033b578063881daaa5146103755780638da5cb5b1461039b578063d36ca105146103bf578063f2fde38b146103dc5761009e565b80632f0e6088146100a35780635f9e2b42146101b25780636ea5511f146102f3578063715018a61461031957806379bb202d14610321575b600080fd5b6100c9600480360360208110156100b957600080fd5b50356001600160a01b0316610402565b60405180806020018060200184151515158152602001838103835286818151815260200191508051906020019080838360005b838110156101145781810151838201526020016100fc565b50505050905090810190601f1680156101415780820380516001836020036101000a031916815260200191505b50838103825285518152855160209182019187019080838360005b8381101561017457818101518382015260200161015c565b50505050905090810190601f1680156101a15780820380516001836020036101000a031916815260200191505b509550505050505060405180910390f35b6102f1600480360360808110156101c857600080fd5b6001600160a01b0382351691908101906040810160208201356401000000008111156101f357600080fd5b82018360208201111561020557600080fd5b8035906020019184600183028401116401000000008311171561022757600080fd5b91908080601f016020809104026020016040519081016040528093929190818152602001838380828437600092019190915250929594936020810193503591505064010000000081111561027a57600080fd5b82018360208201111561028c57600080fd5b803590602001918460018302840111640100000000831117156102ae57600080fd5b91908080601f0160208091040260200160405190810160405280939291908181526020018383808284376000920191909152509295505050503515159050610545565b005b6102f16004803603602081101561030957600080fd5b50356001600160a01b0316610649565b6102f161081b565b6103296108bd565b60408051918252519081900360200190f35b6103616004803603602081101561035157600080fd5b50356001600160a01b03166108c4565b604080519115158252519081900360200190f35b6100c96004803603602081101561038b57600080fd5b50356001600160a01b0316610a3f565b6103a3610bcb565b604080516001600160a01b039092168252519081900360200190f35b6103a3600480360360208110156103d557600080fd5b5035610bda565b6102f1600480360360208110156103f257600080fd5b50356001600160a01b0316610c01565b60016020818152600092835260409283902080548451600294821615610100026000190190911693909304601f81018390048302840183019094528383529283918301828280156104945780601f1061046957610100808354040283529160200191610494565b820191906000526020600020905b81548152906001019060200180831161047757829003601f168201915b505050505090806001018054600181600116156101000203166002900480601f0160208091040260200160405190810160405280929190818152602001828054600181600116156101000203166002900480156105325780601f1061050757610100808354040283529160200191610532565b820191906000526020600020905b81548152906001019060200180831161051557829003601f168201915b5050506002909301549192505060ff1683565b61054d610cf9565b6000546001600160a01b0390811691161461059d576040805162461bcd60e51b81526020600482018190526024820152600080516020610ddf833981519152604482015290519081900360640190fd5b6001600160a01b0384166000908152600160209081526040909120845190916105ca918391870190610cfd565b5082516105e09060018301906020860190610cfd565b506002908101805460ff19169215159290921790915580546001810182556000919091527f405787fa12a823e0f2b7631cc41b3ba8828b3321ca811111fa75cd3aa3bb5ace0180546001600160a01b0319166001600160a01b0394909416939093179092555050565b610651610cf9565b6000546001600160a01b039081169116146106a1576040805162461bcd60e51b81526020600482018190526024820152600080516020610ddf833981519152604482015290519081900360640190fd5b6106a9610d7b565b6001600160a01b0382166000908152600160208181526040928390208351815460029481161561010002600019011693909304601f8101839004909202830160809081019094526060830182815292939092849290918491908401828280156107535780601f1061072857610100808354040283529160200191610753565b820191906000526020600020905b81548152906001019060200180831161073657829003601f168201915b50505050508152602001600182018054600181600116156101000203166002900480601f0160208091040260200160405190810160405280929190818152602001828054600181600116156101000203166002900480156107f55780601f106107ca576101008083540402835291602001916107f5565b820191906000526020600020905b8154815290600101906020018083116107d857829003601f168201915b50505091835250506002919091015460ff16151560209091015260016040909101525050565b610823610cf9565b6000546001600160a01b03908116911614610873576040805162461bcd60e51b81526020600482018190526024820152600080516020610ddf833981519152604482015290519081900360640190fd5b600080546040516001600160a01b03909116907f8be0079c531659141344cd1fd0a4f28419497f9722a3daafe3b4186f6b6457e0908390a3600080546001600160a01b0319169055565b6002545b90565b60006108ce610d7b565b6001600160a01b0383166000908152600160208181526040928390208351815460029481161561010002600019011693909304601f8101839004909202830160809081019094526060830182815292939092849290918491908401828280156109785780601f1061094d57610100808354040283529160200191610978565b820191906000526020600020905b81548152906001019060200180831161095b57829003601f168201915b50505050508152602001600182018054600181600116156101000203166002900480601f016020809104026020016040519081016040528092919081815260200182805460018160011615610100020316600290048015610a1a5780601f106109ef57610100808354040283529160200191610a1a565b820191906000526020600020905b8154815290600101906020018083116109fd57829003601f168201915b50505091835250506002919091015460ff161515602090910152604001519392505050565b6060806000610a4c610d7b565b6001600160a01b0385166000908152600160208181526040928390208351815460029481161561010002600019011693909304601f810183900490920283016080908101909452606083018281529293909284929091849190840182828015610af65780601f10610acb57610100808354040283529160200191610af6565b820191906000526020600020905b815481529060010190602001808311610ad957829003601f168201915b50505050508152602001600182018054600181600116156101000203166002900480601f016020809104026020016040519081016040528092919081815260200182805460018160011615610100020316600290048015610b985780601f10610b6d57610100808354040283529160200191610b98565b820191906000526020600020905b815481529060010190602001808311610b7b57829003601f168201915b50505091835250506002919091015460ff1615156020918201528151908201516040909201519097919650945092505050565b6000546001600160a01b031690565b60028181548110610be757fe5b6000918252602090912001546001600160a01b0316905081565b610c09610cf9565b6000546001600160a01b03908116911614610c59576040805162461bcd60e51b81526020600482018190526024820152600080516020610ddf833981519152604482015290519081900360640190fd5b6001600160a01b038116610c9e5760405162461bcd60e51b8152600401808060200182810382526026815260200180610db96026913960400191505060405180910390fd5b600080546040516001600160a01b03808516939216917f8be0079c531659141344cd1fd0a4f28419497f9722a3daafe3b4186f6b6457e091a3600080546001600160a01b0319166001600160a01b0392909216919091179055565b3390565b828054600181600116156101000203166002900490600052602060002090601f016020900481019282601f10610d3e57805160ff1916838001178555610d6b565b82800160010185558215610d6b579182015b82811115610d6b578251825591602001919060010190610d50565b50610d77929150610d9e565b5090565b604051806060016040528060608152602001606081526020016000151581525090565b6108c191905b80821115610d775760008155600101610da456fe4f776e61626c653a206e6577206f776e657220697320746865207a65726f20616464726573734f776e61626c653a2063616c6c6572206973206e6f7420746865206f776e6572a2646970667358221220817417b25d8e2db4dd5c5d491a60d23623c66c739429c4685fa6e60dad96bbcb64736f6c63430006020033",
  "linkReferences": {},
  "deployedLinkReferences": {}
}