{
  "_format": "hh-sol-artifact-1",
  "contractName": "Accelerator",
  "sourceName": "contracts/extensions/Accelerator.sol",
  "abi": [
    {
      "inputs": [
        {
          "internalType": "address",
          "name": "energy_",
          "type": "address"
        }
      ],
      "stateMutability": "nonpayable",
      "type": "constructor"
    },
    {
      "inputs": [
        {
          "internalType": "address",
          "name": "",
          "type": "address"
        },
        {
          "internalType": "address",
          "name": "",
          "type": "address"
        }
      ],
      "name": "bank",
      "outputs": [
        {
          "internalType": "uint256",
          "name": "",
          "type": "uint256"
        }
      ],
      "stateMutability": "view",
      "type": "function"
    },
    {
      "inputs": [
        {
          "internalType": "address",
          "name": "receiver",
          "type": "address"
        },
        {
          "internalType": "uint256",
          "name": "quantity",
          "type": "uint256"
        }
      ],
      "name": "draw",
      "outputs": [
        {
          "internalType": "uint256",
          "name": "",
          "type": "uint256"
        }
      ],
      "stateMutability": "nonpayable",
      "type": "function"
    },
    {
      "inputs": [],
      "name": "energy",
      "outputs": [
        {
          "internalType": "contract IEnergy",
          "name": "",
          "type": "address"
        }
      ],
      "stateMutability": "view",
      "type": "function"
    }
  ],
  "bytecode": "0x608060405234801561001057600080fd5b506040516102263803806102268339818101604052602081101561003357600080fd5b5051600080546001600160a01b039092166001600160a01b03199092169190911790556101c1806100656000396000f3fe608060405234801561001057600080fd5b50600436106100415760003560e01c806340e67a82146100465780634a03707c14610086578063aa849244146100b2575b600080fd5b6100746004803603604081101561005c57600080fd5b506001600160a01b03813581169160200135166100d6565b60408051918252519081900360200190f35b6100746004803603604081101561009c57600080fd5b506001600160a01b0381351690602001356100f3565b6100ba61017c565b604080516001600160a01b039092168252519081900360200190f35b600160209081526000928352604080842090915290825290205481565b6000805460408051631280dc1f60e21b81526001600160a01b0386811660048301526024820186905291519190921691634a03707c91604480830192602092919082900301818787803b15801561014957600080fd5b505af115801561015d573d6000803e3d6000fd5b505050506040513d602081101561017357600080fd5b50519392505050565b6000546001600160a01b03168156fea2646970667358221220f149dbdd9f1d253052df4ec2e13262b49e8e38e94468aedd494bb30f9ab3334564736f6c63430006020033",
  "linkReferences": {},
  "deployedLinkReferences": {}
}