{
  "_format": "hh-sol-artifact-1",
  "contractName": "Accelerator",
  "sourceName": "contracts/extensions/Accelerator.sol",
  "abi": [
    {
      "inputs": [
        {
          "internalType": "address",
          "name": "target",
          "type": "address"
        },
        {
          "internalType": "bytes",
          "name": "params",
          "type": "bytes"
        }
      ],
      "name": "executeCall",
      "outputs": [],
      "stateMutability": "payable",
      "type": "function"
    }
  ],
  "bytecode": "0x608060405234801561001057600080fd5b506101c8806100206000396000f3fe60806040526004361061001e5760003560e01c8063bca8c7b514610023575b600080fd5b6100a36004803603604081101561003957600080fd5b6001600160a01b03823516919081019060408101602082013564010000000081111561006457600080fd5b82018360208201111561007657600080fd5b8035906020019184600183028401116401000000008311171561009857600080fd5b5090925090506100a5565b005b60006060846001600160a01b0316348585604051808383808284376040519201945060009350909150508083038185875af1925050503d8060008114610107576040519150601f19603f3d011682016040523d82523d6000602084013e61010c565b606091505b509150915081801561013a57508051158061013a575080806020019051602081101561013757600080fd5b50515b61018b576040805162461bcd60e51b815260206004820152601b60248201527f416363656c657261746f723a20455845435554494f4e5f4641494c0000000000604482015290519081900360640190fd5b505050505056fea2646970667358221220cde3b918b02bb39a27bf1c284ba5bfddd1cb8e138ae55152210dc4cddc67bd6164736f6c63430006020033",
  "linkReferences": {},
  "deployedLinkReferences": {}
}