{
  "_format": "hh-sol-artifact-1",
  "contractName": "Virtualizer",
  "sourceName": "contracts/Virtualizer.sol",
  "abi": [
    {
      "inputs": [
        {
          "internalType": "address",
          "name": "registry_",
          "type": "address"
        }
      ],
      "stateMutability": "nonpayable",
      "type": "constructor"
    },
    {
      "anonymous": false,
      "inputs": [
        {
          "indexed": true,
          "internalType": "address",
          "name": "previousOwner",
          "type": "address"
        },
        {
          "indexed": true,
          "internalType": "address",
          "name": "newOwner",
          "type": "address"
        }
      ],
      "name": "OwnershipTransferred",
      "type": "event"
    },
    {
      "inputs": [
        {
          "internalType": "address",
          "name": "optionAddress",
          "type": "address"
        }
      ],
      "name": "deployVirtualOption",
      "outputs": [
        {
          "internalType": "address",
          "name": "",
          "type": "address"
        }
      ],
      "stateMutability": "nonpayable",
      "type": "function"
    },
    {
      "inputs": [
        {
          "internalType": "address",
          "name": "asset",
          "type": "address"
        },
        {
          "internalType": "address",
          "name": "virtualAsset",
          "type": "address"
        }
      ],
      "name": "issueVirtual",
      "outputs": [],
      "stateMutability": "nonpayable",
      "type": "function"
    },
    {
      "inputs": [],
      "name": "owner",
      "outputs": [
        {
          "internalType": "address",
          "name": "",
          "type": "address"
        }
      ],
      "stateMutability": "view",
      "type": "function"
    },
    {
      "inputs": [],
      "name": "registry",
      "outputs": [
        {
          "internalType": "contract IRegistry",
          "name": "",
          "type": "address"
        }
      ],
      "stateMutability": "view",
      "type": "function"
    },
    {
      "inputs": [],
      "name": "renounceOwnership",
      "outputs": [],
      "stateMutability": "nonpayable",
      "type": "function"
    },
    {
      "inputs": [
        {
          "internalType": "address",
          "name": "newOwner",
          "type": "address"
        }
      ],
      "name": "transferOwnership",
      "outputs": [],
      "stateMutability": "nonpayable",
      "type": "function"
    },
    {
      "inputs": [
        {
          "internalType": "address",
          "name": "",
          "type": "address"
        }
      ],
      "name": "virtualOptions",
      "outputs": [
        {
          "internalType": "address",
          "name": "",
          "type": "address"
        }
      ],
      "stateMutability": "view",
      "type": "function"
    }
  ],
  "bytecode": "0x608060405234801561001057600080fd5b506040516106923803806106928339818101604052602081101561003357600080fd5b505160006100486001600160e01b036100bb16565b600080546001600160a01b0319166001600160a01b0383169081178255604051929350917f8be0079c531659141344cd1fd0a4f28419497f9722a3daafe3b4186f6b6457e0908290a35060018055600280546001600160a01b0319166001600160a01b03929092169190911790556100bf565b3390565b6105c4806100ce6000396000f3fe608060405234801561001057600080fd5b506004361061007d5760003560e01c80637b1039991161005b5780637b103999146100fc5780638da5cb5b14610104578063a751820e1461010c578063f2fde38b146101325761007d565b8063045bf4cd1461008257806369a067b8146100b2578063715018a6146100f4575b600080fd5b6100b06004803603604081101561009857600080fd5b506001600160a01b0381358116916020013516610158565b005b6100d8600480360360208110156100c857600080fd5b50356001600160a01b03166101ef565b604080516001600160a01b039092168252519081900360200190f35b6100b061036d565b6100d8610421565b6100d8610430565b6100d86004803603602081101561012257600080fd5b50356001600160a01b031661043f565b6100b06004803603602081101561014857600080fd5b50356001600160a01b031661045a565b6040805163485cc95560e01b81526001600160a01b03848116600483015230602483015291519183169163485cc9559160448082019260009290919082900301818387803b1580156101a957600080fd5b505af11580156101bd573d6000803e3d6000fd5b505050506001600160a01b03918216600090815260046020526040902080546001600160a01b03191691909216179055565b600080600080600080866001600160a01b031663a5ea11da6040518163ffffffff1660e01b815260040160c06040518083038186803b15801561023157600080fd5b505afa158015610245573d6000803e3d6000fd5b505050506040513d60c081101561025b57600080fd5b5080516020808301516060840151608085015160a0909501516002546001600160a01b03808716600090815260048088526040808320548489168452818420548251639180928f60e01b815291861693820193909352918416602483015260448201879052606482018b90526084820186905251989e50959c50939a5096985090965090941692639180928f9260a48084019391929182900301818787803b15801561030657600080fd5b505af115801561031a573d6000803e3d6000fd5b505050506040513d602081101561033057600080fd5b50516001600160a01b03988916600090815260036020526040902080546001600160a01b0319169982169990991790985550959695505050505050565b610375610564565b6000546001600160a01b039081169116146103d7576040805162461bcd60e51b815260206004820181905260248201527f4f776e61626c653a2063616c6c6572206973206e6f7420746865206f776e6572604482015290519081900360640190fd5b600080546040516001600160a01b03909116907f8be0079c531659141344cd1fd0a4f28419497f9722a3daafe3b4186f6b6457e0908390a3600080546001600160a01b0319169055565b6002546001600160a01b031681565b6000546001600160a01b031690565b6003602052600090815260409020546001600160a01b031681565b610462610564565b6000546001600160a01b039081169116146104c4576040805162461bcd60e51b815260206004820181905260248201527f4f776e61626c653a2063616c6c6572206973206e6f7420746865206f776e6572604482015290519081900360640190fd5b6001600160a01b0381166105095760405162461bcd60e51b81526004018080602001828103825260268152602001806105696026913960400191505060405180910390fd5b600080546040516001600160a01b03808516939216917f8be0079c531659141344cd1fd0a4f28419497f9722a3daafe3b4186f6b6457e091a3600080546001600160a01b0319166001600160a01b0392909216919091179055565b339056fe4f776e61626c653a206e6577206f776e657220697320746865207a65726f2061646472657373a2646970667358221220941e244816d9036980103afcd1a3fe1190b2c20d3b8cb2fd9c7c89b14cef15ef64736f6c63430006020033",
  "linkReferences": {},
  "deployedLinkReferences": {}
}