{
  "_format": "hh-sol-artifact-1",
  "contractName": "UniswapVenueTest",
  "sourceName": "contracts/test/UniswapVenueTest.sol",
  "abi": [
    {
      "inputs": [
        {
          "internalType": "address",
          "name": "weth_",
          "type": "address"
        },
        {
          "internalType": "address",
          "name": "registry_",
          "type": "address"
        },
        {
          "internalType": "address",
          "name": "house_",
          "type": "address"
        },
        {
          "internalType": "address",
          "name": "capitol_",
          "type": "address"
        },
        {
          "internalType": "address",
          "name": "router_",
          "type": "address"
        },
        {
          "internalType": "address",
          "name": "factory_",
          "type": "address"
        }
      ],
      "stateMutability": "nonpayable",
      "type": "constructor"
    },
    {
      "anonymous": false,
      "inputs": [
        {
          "indexed": true,
          "internalType": "address",
          "name": "from",
          "type": "address"
        },
        {
          "indexed": false,
          "internalType": "uint256",
          "name": "quantity",
          "type": "uint256"
        },
        {
          "indexed": false,
          "internalType": "uint256",
          "name": "premium",
          "type": "uint256"
        }
      ],
      "name": "BoughtOptions",
      "type": "event"
    },
    {
      "anonymous": false,
      "inputs": [
        {
          "indexed": true,
          "internalType": "address",
          "name": "from",
          "type": "address"
        },
        {
          "indexed": true,
          "internalType": "address",
          "name": "optionToken",
          "type": "address"
        },
        {
          "indexed": false,
          "internalType": "uint256",
          "name": "quantity",
          "type": "uint256"
        }
      ],
      "name": "Closed",
      "type": "event"
    },
    {
      "anonymous": false,
      "inputs": [
        {
          "indexed": true,
          "internalType": "address",
          "name": "from",
          "type": "address"
        },
        {
          "indexed": true,
          "internalType": "address",
          "name": "optionToken",
          "type": "address"
        },
        {
          "indexed": false,
          "internalType": "uint256",
          "name": "quantity",
          "type": "uint256"
        }
      ],
      "name": "Exercised",
      "type": "event"
    },
    {
      "anonymous": false,
      "inputs": [
        {
          "indexed": true,
          "internalType": "address",
          "name": "from",
          "type": "address"
        }
      ],
      "name": "Initialized",
      "type": "event"
    },
    {
      "anonymous": false,
      "inputs": [
        {
          "indexed": true,
          "internalType": "address",
          "name": "from",
          "type": "address"
        },
        {
          "indexed": true,
          "internalType": "address",
          "name": "optionToken",
          "type": "address"
        },
        {
          "indexed": false,
          "internalType": "uint256",
          "name": "longQuantity",
          "type": "uint256"
        },
        {
          "indexed": false,
          "internalType": "uint256",
          "name": "shortQuantity",
          "type": "uint256"
        }
      ],
      "name": "Minted",
      "type": "event"
    },
    {
      "anonymous": false,
      "inputs": [
        {
          "indexed": true,
          "internalType": "address",
          "name": "from",
          "type": "address"
        },
        {
          "indexed": true,
          "internalType": "address",
          "name": "longOption",
          "type": "address"
        },
        {
          "indexed": true,
          "internalType": "address",
          "name": "shortOption",
          "type": "address"
        },
        {
          "indexed": false,
          "internalType": "uint256",
          "name": "quantity",
          "type": "uint256"
        }
      ],
      "name": "OpenedDebitSpread",
      "type": "event"
    },
    {
      "anonymous": false,
      "inputs": [
        {
          "indexed": true,
          "internalType": "address",
          "name": "previousOwner",
          "type": "address"
        },
        {
          "indexed": true,
          "internalType": "address",
          "name": "newOwner",
          "type": "address"
        }
      ],
      "name": "OwnershipTransferred",
      "type": "event"
    },
    {
      "anonymous": false,
      "inputs": [
        {
          "indexed": true,
          "internalType": "address",
          "name": "from",
          "type": "address"
        },
        {
          "indexed": true,
          "internalType": "address",
          "name": "optionToken",
          "type": "address"
        },
        {
          "indexed": false,
          "internalType": "uint256",
          "name": "quantity",
          "type": "uint256"
        }
      ],
      "name": "Redeemed",
      "type": "event"
    },
    {
      "anonymous": false,
      "inputs": [
        {
          "indexed": true,
          "internalType": "address",
          "name": "from",
          "type": "address"
        },
        {
          "indexed": false,
          "internalType": "uint256",
          "name": "quantity",
          "type": "uint256"
        },
        {
          "indexed": false,
          "internalType": "uint256",
          "name": "payout",
          "type": "uint256"
        }
      ],
      "name": "SoldOptions",
      "type": "event"
    },
    {
      "anonymous": false,
      "inputs": [
        {
          "indexed": true,
          "internalType": "address",
          "name": "from",
          "type": "address"
        },
        {
          "indexed": true,
          "internalType": "address",
          "name": "optionAddress",
          "type": "address"
        },
        {
          "indexed": false,
          "internalType": "uint256",
          "name": "quantity",
          "type": "uint256"
        }
      ],
      "name": "VirtualMinted",
      "type": "event"
    },
    {
      "anonymous": false,
      "inputs": [
        {
          "indexed": true,
          "internalType": "address",
          "name": "from",
          "type": "address"
        },
        {
          "indexed": false,
          "internalType": "uint256",
          "name": "quantity",
          "type": "uint256"
        }
      ],
      "name": "WroteOption",
      "type": "event"
    },
    {
      "inputs": [
        {
          "internalType": "address",
          "name": "optionAddress",
          "type": "address"
        },
        {
          "internalType": "uint256",
          "name": "quantityOptions",
          "type": "uint256"
        },
        {
          "internalType": "uint256",
          "name": "amountBMax",
          "type": "uint256"
        },
        {
          "internalType": "uint256",
          "name": "amountBMin",
          "type": "uint256"
        },
        {
          "internalType": "address",
          "name": "to",
          "type": "address"
        },
        {
          "internalType": "uint256",
          "name": "deadline",
          "type": "uint256"
        }
      ],
      "name": "addShortLiquidityWithETH",
      "outputs": [
        {
          "internalType": "uint256",
          "name": "",
          "type": "uint256"
        },
        {
          "internalType": "uint256",
          "name": "",
          "type": "uint256"
        },
        {
          "internalType": "uint256",
          "name": "",
          "type": "uint256"
        }
      ],
      "stateMutability": "payable",
      "type": "function"
    },
    {
      "inputs": [
        {
          "internalType": "address",
          "name": "optionAddress",
          "type": "address"
        },
        {
          "internalType": "uint256",
          "name": "quantity",
          "type": "uint256"
        }
      ],
      "name": "calculateStrikePayment",
      "outputs": [
        {
          "internalType": "uint256",
          "name": "",
          "type": "uint256"
        }
      ],
      "stateMutability": "view",
      "type": "function"
    },
    {
      "inputs": [],
      "name": "capitol",
      "outputs": [
        {
          "internalType": "contract ICapitol",
          "name": "",
          "type": "address"
        }
      ],
      "stateMutability": "view",
      "type": "function"
    },
    {
      "inputs": [
        {
          "internalType": "address",
          "name": "optionAddress",
          "type": "address"
        }
      ],
      "name": "deployVirtualOption",
      "outputs": [
        {
          "internalType": "address",
          "name": "",
          "type": "address"
        }
      ],
      "stateMutability": "nonpayable",
      "type": "function"
    },
    {
      "inputs": [
        {
          "internalType": "address[]",
          "name": "options",
          "type": "address[]"
        },
        {
          "internalType": "uint256[]",
          "name": "maxAmounts",
          "type": "uint256[]"
        },
        {
          "internalType": "uint256[]",
          "name": "minAmounts",
          "type": "uint256[]"
        },
        {
          "internalType": "address",
          "name": "receiver",
          "type": "address"
        },
        {
          "internalType": "uint256",
          "name": "deadline",
          "type": "uint256"
        }
      ],
      "name": "deposit",
      "outputs": [
        {
          "internalType": "uint256",
          "name": "",
          "type": "uint256"
        }
      ],
      "stateMutability": "nonpayable",
      "type": "function"
    },
    {
      "inputs": [
        {
          "internalType": "address",
          "name": "optionAddress",
          "type": "address"
        },
        {
          "internalType": "uint256",
          "name": "quantityOptions",
          "type": "uint256"
        },
        {
          "internalType": "uint256",
          "name": "amountBMax",
          "type": "uint256"
        },
        {
          "internalType": "uint256",
          "name": "amountBMin",
          "type": "uint256"
        },
        {
          "internalType": "address",
          "name": "to",
          "type": "address"
        },
        {
          "internalType": "uint256",
          "name": "deadline",
          "type": "uint256"
        }
      ],
      "name": "depositLeveraged",
      "outputs": [],
      "stateMutability": "nonpayable",
      "type": "function"
    },
    {
      "inputs": [],
      "name": "factory",
      "outputs": [
        {
          "internalType": "contract IUniswapV2Factory",
          "name": "",
          "type": "address"
        }
      ],
      "stateMutability": "view",
      "type": "function"
    },
    {
      "inputs": [
        {
          "internalType": "address",
          "name": "optionAddress",
          "type": "address"
        },
        {
          "internalType": "uint256",
          "name": "flashLoanQuantity",
          "type": "uint256"
        },
        {
          "internalType": "uint256",
          "name": "minPayout",
          "type": "uint256"
        },
        {
          "internalType": "address",
          "name": "to",
          "type": "address"
        }
      ],
      "name": "flashCloseLongOptionsThenSwap",
      "outputs": [
        {
          "internalType": "uint256",
          "name": "",
          "type": "uint256"
        },
        {
          "internalType": "uint256",
          "name": "",
          "type": "uint256"
        }
      ],
      "stateMutability": "nonpayable",
      "type": "function"
    },
    {
      "inputs": [
        {
          "internalType": "address",
          "name": "optionAddress",
          "type": "address"
        },
        {
          "internalType": "uint256",
          "name": "flashLoanQuantity",
          "type": "uint256"
        },
        {
          "internalType": "uint256",
          "name": "minPayout",
          "type": "uint256"
        },
        {
          "internalType": "address",
          "name": "to",
          "type": "address"
        }
      ],
      "name": "flashCloseLongOptionsThenSwapForETH",
      "outputs": [
        {
          "internalType": "uint256",
          "name": "",
          "type": "uint256"
        },
        {
          "internalType": "uint256",
          "name": "",
          "type": "uint256"
        }
      ],
      "stateMutability": "nonpayable",
      "type": "function"
    },
    {
      "inputs": [
        {
          "internalType": "address",
          "name": "optionAddress",
          "type": "address"
        },
        {
          "internalType": "uint256",
          "name": "flashLoanQuantity",
          "type": "uint256"
        },
        {
          "internalType": "uint256",
          "name": "maxPremium",
          "type": "uint256"
        },
        {
          "internalType": "address",
          "name": "to",
          "type": "address"
        }
      ],
      "name": "flashMintShortOptionsThenSwap",
      "outputs": [
        {
          "internalType": "uint256",
          "name": "",
          "type": "uint256"
        },
        {
          "internalType": "uint256",
          "name": "",
          "type": "uint256"
        }
      ],
      "stateMutability": "payable",
      "type": "function"
    },
    {
      "inputs": [
        {
          "internalType": "address",
          "name": "optionAddress",
          "type": "address"
        },
        {
          "internalType": "uint256",
          "name": "flashLoanQuantity",
          "type": "uint256"
        },
        {
          "internalType": "uint256",
          "name": "maxPremium",
          "type": "uint256"
        },
        {
          "internalType": "address",
          "name": "to",
          "type": "address"
        }
      ],
      "name": "flashMintShortOptionsThenSwapWithETH",
      "outputs": [
        {
          "internalType": "uint256",
          "name": "",
          "type": "uint256"
        },
        {
          "internalType": "uint256",
          "name": "",
          "type": "uint256"
        }
      ],
      "stateMutability": "payable",
      "type": "function"
    },
    {
      "inputs": [
        {
          "internalType": "contract IOption",
          "name": "optionToken",
          "type": "address"
        },
        {
          "internalType": "uint256",
          "name": "quantity",
          "type": "uint256"
        }
      ],
      "name": "getClosePremium",
      "outputs": [
        {
          "internalType": "uint256",
          "name": "",
          "type": "uint256"
        },
        {
          "internalType": "uint256",
          "name": "",
          "type": "uint256"
        }
      ],
      "stateMutability": "view",
      "type": "function"
    },
    {
      "inputs": [],
      "name": "getIsEndorsed",
      "outputs": [
        {
          "internalType": "bool",
          "name": "",
          "type": "bool"
        }
      ],
      "stateMutability": "view",
      "type": "function"
    },
    {
      "inputs": [],
      "name": "getName",
      "outputs": [
        {
          "internalType": "string",
          "name": "",
          "type": "string"
        }
      ],
      "stateMutability": "view",
      "type": "function"
    },
    {
      "inputs": [
        {
          "internalType": "contract IOption",
          "name": "optionToken",
          "type": "address"
        },
        {
          "internalType": "uint256",
          "name": "quantity",
          "type": "uint256"
        }
      ],
      "name": "getOpenPremium",
      "outputs": [
        {
          "internalType": "uint256",
          "name": "",
          "type": "uint256"
        },
        {
          "internalType": "uint256",
          "name": "",
          "type": "uint256"
        }
      ],
      "stateMutability": "view",
      "type": "function"
    },
    {
      "inputs": [],
      "name": "getVersion",
      "outputs": [
        {
          "internalType": "string",
          "name": "",
          "type": "string"
        }
      ],
      "stateMutability": "view",
      "type": "function"
    },
    {
      "inputs": [],
      "name": "house",
      "outputs": [
        {
          "internalType": "contract IHouse",
          "name": "",
          "type": "address"
        }
      ],
      "stateMutability": "view",
      "type": "function"
    },
    {
      "inputs": [
        {
          "internalType": "address",
          "name": "asset",
          "type": "address"
        },
        {
          "internalType": "address",
          "name": "virtualAsset",
          "type": "address"
        }
      ],
      "name": "issueVirtual",
      "outputs": [],
      "stateMutability": "nonpayable",
      "type": "function"
    },
    {
      "inputs": [
        {
          "internalType": "address",
          "name": "longOption",
          "type": "address"
        },
        {
          "internalType": "address",
          "name": "shortOption",
          "type": "address"
        },
        {
          "internalType": "uint256",
          "name": "quantity",
          "type": "uint256"
        },
        {
          "internalType": "address",
          "name": "receiver",
          "type": "address"
        }
      ],
      "name": "openDebitSpread",
      "outputs": [],
      "stateMutability": "nonpayable",
      "type": "function"
    },
    {
      "inputs": [],
      "name": "owner",
      "outputs": [
        {
          "internalType": "address",
          "name": "",
          "type": "address"
        }
      ],
      "stateMutability": "view",
      "type": "function"
    },
    {
      "inputs": [
        {
          "internalType": "address",
          "name": "option",
          "type": "address"
        }
      ],
      "name": "pool",
      "outputs": [
        {
          "internalType": "address",
          "name": "",
          "type": "address"
        }
      ],
      "stateMutability": "view",
      "type": "function"
    },
    {
      "inputs": [],
      "name": "registry",
      "outputs": [
        {
          "internalType": "contract IRegistry",
          "name": "",
          "type": "address"
        }
      ],
      "stateMutability": "view",
      "type": "function"
    },
    {
      "inputs": [
        {
          "internalType": "address",
          "name": "optionAddress",
          "type": "address"
        },
        {
          "internalType": "uint256",
          "name": "liquidity",
          "type": "uint256"
        },
        {
          "internalType": "uint256",
          "name": "amountAMin",
          "type": "uint256"
        },
        {
          "internalType": "uint256",
          "name": "amountBMin",
          "type": "uint256"
        },
        {
          "internalType": "address",
          "name": "to",
          "type": "address"
        },
        {
          "internalType": "uint256",
          "name": "deadline",
          "type": "uint256"
        }
      ],
      "name": "removeShortLiquidityThenCloseOptionsForETH",
      "outputs": [
        {
          "internalType": "uint256",
          "name": "",
          "type": "uint256"
        },
        {
          "internalType": "uint256",
          "name": "",
          "type": "uint256"
        }
      ],
      "stateMutability": "nonpayable",
      "type": "function"
    },
    {
      "inputs": [
        {
          "internalType": "address",
          "name": "optionAddress",
          "type": "address"
        },
        {
          "internalType": "uint256",
          "name": "liquidity",
          "type": "uint256"
        },
        {
          "internalType": "uint256",
          "name": "amountAMin",
          "type": "uint256"
        },
        {
          "internalType": "uint256",
          "name": "amountBMin",
          "type": "uint256"
        },
        {
          "internalType": "address",
          "name": "to",
          "type": "address"
        },
        {
          "internalType": "uint256",
          "name": "deadline",
          "type": "uint256"
        },
        {
          "internalType": "uint8",
          "name": "v",
          "type": "uint8"
        },
        {
          "internalType": "bytes32",
          "name": "r",
          "type": "bytes32"
        },
        {
          "internalType": "bytes32",
          "name": "s",
          "type": "bytes32"
        }
      ],
      "name": "removeShortLiquidityThenCloseOptionsForETHWithPermit",
      "outputs": [
        {
          "internalType": "uint256",
          "name": "",
          "type": "uint256"
        },
        {
          "internalType": "uint256",
          "name": "",
          "type": "uint256"
        }
      ],
      "stateMutability": "nonpayable",
      "type": "function"
    },
    {
      "inputs": [
        {
          "internalType": "address",
          "name": "optionAddress",
          "type": "address"
        },
        {
          "internalType": "uint256",
          "name": "liquidity",
          "type": "uint256"
        },
        {
          "internalType": "uint256",
          "name": "amountAMin",
          "type": "uint256"
        },
        {
          "internalType": "uint256",
          "name": "amountBMin",
          "type": "uint256"
        },
        {
          "internalType": "address",
          "name": "to",
          "type": "address"
        },
        {
          "internalType": "uint256",
          "name": "deadline",
          "type": "uint256"
        },
        {
          "internalType": "uint8",
          "name": "v",
          "type": "uint8"
        },
        {
          "internalType": "bytes32",
          "name": "r",
          "type": "bytes32"
        },
        {
          "internalType": "bytes32",
          "name": "s",
          "type": "bytes32"
        }
      ],
      "name": "removeShortLiquidityThenCloseOptionsWithPermit",
      "outputs": [
        {
          "internalType": "uint256",
          "name": "",
          "type": "uint256"
        },
        {
          "internalType": "uint256",
          "name": "",
          "type": "uint256"
        }
      ],
      "stateMutability": "nonpayable",
      "type": "function"
    },
    {
      "inputs": [],
      "name": "renounceOwnership",
      "outputs": [],
      "stateMutability": "nonpayable",
      "type": "function"
    },
    {
      "inputs": [],
      "name": "router",
      "outputs": [
        {
          "internalType": "contract IUniswapV2Router02",
          "name": "",
          "type": "address"
        }
      ],
      "stateMutability": "view",
      "type": "function"
    },
    {
      "inputs": [
        {
          "internalType": "contract IOption",
          "name": "optionToken",
          "type": "address"
        },
        {
          "internalType": "uint256",
          "name": "closeQuantity",
          "type": "uint256"
        },
        {
          "internalType": "address",
          "name": "receiver",
          "type": "address"
        }
      ],
      "name": "safeClose",
      "outputs": [
        {
          "internalType": "uint256",
          "name": "",
          "type": "uint256"
        },
        {
          "internalType": "uint256",
          "name": "",
          "type": "uint256"
        },
        {
          "internalType": "uint256",
          "name": "",
          "type": "uint256"
        }
      ],
      "stateMutability": "nonpayable",
      "type": "function"
    },
    {
      "inputs": [
        {
          "internalType": "contract IOption",
          "name": "optionToken",
          "type": "address"
        },
        {
          "internalType": "uint256",
          "name": "closeQuantity",
          "type": "uint256"
        },
        {
          "internalType": "address",
          "name": "receiver",
          "type": "address"
        }
      ],
      "name": "safeCloseForETH",
      "outputs": [
        {
          "internalType": "uint256",
          "name": "",
          "type": "uint256"
        },
        {
          "internalType": "uint256",
          "name": "",
          "type": "uint256"
        },
        {
          "internalType": "uint256",
          "name": "",
          "type": "uint256"
        }
      ],
      "stateMutability": "nonpayable",
      "type": "function"
    },
    {
      "inputs": [
        {
          "internalType": "contract IOption",
          "name": "optionToken",
          "type": "address"
        },
        {
          "internalType": "uint256",
          "name": "exerciseQuantity",
          "type": "uint256"
        },
        {
          "internalType": "address",
          "name": "receiver",
          "type": "address"
        }
      ],
      "name": "safeExercise",
      "outputs": [
        {
          "internalType": "uint256",
          "name": "",
          "type": "uint256"
        },
        {
          "internalType": "uint256",
          "name": "",
          "type": "uint256"
        }
      ],
      "stateMutability": "nonpayable",
      "type": "function"
    },
    {
      "inputs": [
        {
          "internalType": "contract IOption",
          "name": "optionToken",
          "type": "address"
        },
        {
          "internalType": "uint256",
          "name": "exerciseQuantity",
          "type": "uint256"
        },
        {
          "internalType": "address",
          "name": "receiver",
          "type": "address"
        }
      ],
      "name": "safeExerciseForETH",
      "outputs": [
        {
          "internalType": "uint256",
          "name": "",
          "type": "uint256"
        },
        {
          "internalType": "uint256",
          "name": "",
          "type": "uint256"
        }
      ],
      "stateMutability": "nonpayable",
      "type": "function"
    },
    {
      "inputs": [
        {
          "internalType": "contract IOption",
          "name": "optionToken",
          "type": "address"
        },
        {
          "internalType": "address",
          "name": "receiver",
          "type": "address"
        }
      ],
      "name": "safeExerciseWithETH",
      "outputs": [
        {
          "internalType": "uint256",
          "name": "",
          "type": "uint256"
        },
        {
          "internalType": "uint256",
          "name": "",
          "type": "uint256"
        }
      ],
      "stateMutability": "payable",
      "type": "function"
    },
    {
      "inputs": [
        {
          "internalType": "contract IOption",
          "name": "optionToken",
          "type": "address"
        },
        {
          "internalType": "uint256",
          "name": "mintQuantity",
          "type": "uint256"
        },
        {
          "internalType": "address",
          "name": "receiver",
          "type": "address"
        }
      ],
      "name": "safeMint",
      "outputs": [
        {
          "internalType": "uint256",
          "name": "",
          "type": "uint256"
        },
        {
          "internalType": "uint256",
          "name": "",
          "type": "uint256"
        }
      ],
      "stateMutability": "nonpayable",
      "type": "function"
    },
    {
      "inputs": [
        {
          "internalType": "contract IOption",
          "name": "optionToken",
          "type": "address"
        },
        {
          "internalType": "address",
          "name": "receiver",
          "type": "address"
        }
      ],
      "name": "safeMintWithETH",
      "outputs": [
        {
          "internalType": "uint256",
          "name": "",
          "type": "uint256"
        },
        {
          "internalType": "uint256",
          "name": "",
          "type": "uint256"
        }
      ],
      "stateMutability": "payable",
      "type": "function"
    },
    {
      "inputs": [
        {
          "internalType": "contract IOption",
          "name": "optionToken",
          "type": "address"
        },
        {
          "internalType": "uint256",
          "name": "redeemQuantity",
          "type": "uint256"
        },
        {
          "internalType": "address",
          "name": "receiver",
          "type": "address"
        }
      ],
      "name": "safeRedeem",
      "outputs": [
        {
          "internalType": "uint256",
          "name": "",
          "type": "uint256"
        }
      ],
      "stateMutability": "nonpayable",
      "type": "function"
    },
    {
      "inputs": [
        {
          "internalType": "contract IOption",
          "name": "optionToken",
          "type": "address"
        },
        {
          "internalType": "uint256",
          "name": "redeemQuantity",
          "type": "uint256"
        },
        {
          "internalType": "address",
          "name": "receiver",
          "type": "address"
        }
      ],
      "name": "safeRedeemForETH",
      "outputs": [
        {
          "internalType": "uint256",
          "name": "",
          "type": "uint256"
        }
      ],
      "stateMutability": "nonpayable",
      "type": "function"
    },
    {
      "inputs": [
        {
          "internalType": "contract IOption",
          "name": "optionToken",
          "type": "address"
        },
        {
          "internalType": "uint256",
          "name": "unwindQuantity",
          "type": "uint256"
        },
        {
          "internalType": "address",
          "name": "receiver",
          "type": "address"
        }
      ],
      "name": "safeUnwind",
      "outputs": [
        {
          "internalType": "uint256",
          "name": "",
          "type": "uint256"
        },
        {
          "internalType": "uint256",
          "name": "",
          "type": "uint256"
        },
        {
          "internalType": "uint256",
          "name": "",
          "type": "uint256"
        }
      ],
      "stateMutability": "nonpayable",
      "type": "function"
    },
    {
      "inputs": [
        {
          "internalType": "contract IOption[]",
          "name": "options",
          "type": "address[]"
        },
        {
          "internalType": "uint256[]",
          "name": "quantities",
          "type": "uint256[]"
        },
        {
          "internalType": "uint256[]",
          "name": "maxAmounts",
          "type": "uint256[]"
        }
      ],
      "name": "swapFromETHToOptions",
      "outputs": [
        {
          "internalType": "bool",
          "name": "",
          "type": "bool"
        }
      ],
      "stateMutability": "payable",
      "type": "function"
    },
    {
      "inputs": [
        {
          "internalType": "contract IOption[]",
          "name": "options",
          "type": "address[]"
        },
        {
          "internalType": "uint256[]",
          "name": "quantities",
          "type": "uint256[]"
        },
        {
          "internalType": "uint256[]",
          "name": "minAmounts",
          "type": "uint256[]"
        }
      ],
      "name": "swapFromOptionsToETH",
      "outputs": [
        {
          "internalType": "bool",
          "name": "",
          "type": "bool"
        }
      ],
      "stateMutability": "nonpayable",
      "type": "function"
    },
    {
      "inputs": [
        {
          "internalType": "contract IOption[]",
          "name": "options",
          "type": "address[]"
        },
        {
          "internalType": "uint256[]",
          "name": "quantities",
          "type": "uint256[]"
        },
        {
          "internalType": "uint256[]",
          "name": "minAmounts",
          "type": "uint256[]"
        }
      ],
      "name": "swapFromOptionsToUnderlying",
      "outputs": [
        {
          "internalType": "bool",
          "name": "",
          "type": "bool"
        }
      ],
      "stateMutability": "nonpayable",
      "type": "function"
    },
    {
      "inputs": [
        {
          "internalType": "contract IOption[]",
          "name": "options",
          "type": "address[]"
        },
        {
          "internalType": "uint256[]",
          "name": "quantities",
          "type": "uint256[]"
        },
        {
          "internalType": "uint256[]",
          "name": "maxAmounts",
          "type": "uint256[]"
        }
      ],
      "name": "swapFromUnderlyingToOptions",
      "outputs": [
        {
          "internalType": "bool",
          "name": "",
          "type": "bool"
        }
      ],
      "stateMutability": "nonpayable",
      "type": "function"
    },
    {
      "inputs": [
        {
          "internalType": "address",
          "name": "newOwner",
          "type": "address"
        }
      ],
      "name": "transferOwnership",
      "outputs": [],
      "stateMutability": "nonpayable",
      "type": "function"
    },
    {
      "inputs": [
        {
          "internalType": "address",
          "name": "sender",
          "type": "address"
        },
        {
          "internalType": "uint256",
          "name": "amount0",
          "type": "uint256"
        },
        {
          "internalType": "uint256",
          "name": "amount1",
          "type": "uint256"
        },
        {
          "internalType": "bytes",
          "name": "data",
          "type": "bytes"
        }
      ],
      "name": "uniswapV2Call",
      "outputs": [],
      "stateMutability": "nonpayable",
      "type": "function"
    },
    {
      "inputs": [
        {
          "internalType": "address",
          "name": "optionAddress",
          "type": "address"
        },
        {
          "internalType": "uint256",
          "name": "quantity",
          "type": "uint256"
        },
        {
          "internalType": "address",
          "name": "receiver",
          "type": "address"
        }
      ],
      "name": "virtualExercise",
      "outputs": [],
      "stateMutability": "nonpayable",
      "type": "function"
    },
    {
      "inputs": [
        {
          "internalType": "address",
          "name": "optionAddress",
          "type": "address"
        },
        {
          "internalType": "uint256",
          "name": "quantity",
          "type": "uint256"
        },
        {
          "internalType": "address",
          "name": "receiver",
          "type": "address"
        }
      ],
      "name": "virtualMint",
      "outputs": [
        {
          "internalType": "address",
          "name": "",
          "type": "address"
        }
      ],
      "stateMutability": "nonpayable",
      "type": "function"
    },
    {
      "inputs": [
        {
          "internalType": "address",
          "name": "from",
          "type": "address"
        },
        {
          "internalType": "address",
          "name": "optionAddress",
          "type": "address"
        },
        {
          "internalType": "uint256",
          "name": "quantity",
          "type": "uint256"
        },
        {
          "internalType": "address",
          "name": "receiver",
          "type": "address"
        }
      ],
      "name": "virtualMintFrom",
      "outputs": [
        {
          "internalType": "address",
          "name": "",
          "type": "address"
        }
      ],
      "stateMutability": "nonpayable",
      "type": "function"
    },
    {
      "inputs": [
        {
          "internalType": "address",
          "name": "",
          "type": "address"
        }
      ],
      "name": "virtualOptions",
      "outputs": [
        {
          "internalType": "address",
          "name": "",
          "type": "address"
        }
      ],
      "stateMutability": "view",
      "type": "function"
    },
    {
      "inputs": [],
      "name": "weth",
      "outputs": [
        {
          "internalType": "contract IWETH",
          "name": "",
          "type": "address"
        }
      ],
      "stateMutability": "view",
      "type": "function"
    },
    {
      "inputs": [
        {
          "internalType": "address[]",
          "name": "options",
          "type": "address[]"
        },
        {
          "internalType": "uint256[]",
          "name": "quantities",
          "type": "uint256[]"
        },
        {
          "internalType": "uint256[]",
          "name": "minAmounts",
          "type": "uint256[]"
        },
        {
          "internalType": "address",
          "name": "receiver",
          "type": "address"
        },
        {
          "internalType": "uint256",
          "name": "deadline",
          "type": "uint256"
        }
      ],
      "name": "withdraw",
      "outputs": [
        {
          "internalType": "uint256",
          "name": "",
          "type": "uint256"
        }
      ],
      "stateMutability": "nonpayable",
      "type": "function"
    },
    {
      "inputs": [
        {
          "internalType": "address[]",
          "name": "options",
          "type": "address[]"
        },
        {
          "internalType": "uint256[]",
          "name": "quantities",
          "type": "uint256[]"
        },
        {
          "internalType": "uint256[]",
          "name": "minAmounts",
          "type": "uint256[]"
        },
        {
          "internalType": "address",
          "name": "receiver",
          "type": "address"
        },
        {
          "internalType": "uint256",
          "name": "deadline",
          "type": "uint256"
        }
      ],
      "name": "withdrawDouble",
      "outputs": [],
      "stateMutability": "nonpayable",
      "type": "function"
    },
    {
      "inputs": [
        {
          "internalType": "contract IOption[]",
          "name": "options",
          "type": "address[]"
        },
        {
          "internalType": "uint256[]",
          "name": "quantities",
          "type": "uint256[]"
        },
        {
          "internalType": "uint256[]",
          "name": "minAmounts",
          "type": "uint256[]"
        }
      ],
      "name": "writeOptions",
      "outputs": [
        {
          "internalType": "bool",
          "name": "",
          "type": "bool"
        }
      ],
      "stateMutability": "nonpayable",
      "type": "function"
    },
    {
      "stateMutability": "payable",
      "type": "receive"
    }
  ],
  "bytecode": "0x6080604052600680546001600160a01b0319908116735c69bee701ef814a2b6a3edd4b1652cb9cc5aa6f1790915560078054909116737a250d5630b4cf539739df2c5dacb4c659f2488d1790553480156200005957600080fd5b506040516200982238038062009822833981810160405260c08110156200007f57600080fd5b508051602082015160408301516060840151608085015160a0909501519394929391929091858585858383806000620000c06001600160e01b036200021916565b600080546001600160a01b0319166001600160a01b0383169081178255604051929350917f8be0079c531659141344cd1fd0a4f28419497f9722a3daafe3b4186f6b6457e0908290a35060018055600280546001600160a01b0319166001600160a01b03928316179055600554161562000173576040805162461bcd60e51b815260206004820152600f60248201526e11549497d253925512505312569151608a1b604482015290519081900360640190fd5b50600580546001600160a01b03199081166001600160a01b03938416179091556008805482168584161790556009805490911691831691909117905560405133907f908408e307fc569b417f6cbec5d5a06f44a0a505ac0479b47d421a4b2fd6a1e690600090a25050600680546001600160a01b039485166001600160a01b0319918216179091556007805495909416941693909317909155506200021d945050505050565b3390565b6195f5806200022d6000396000f3fe6080604052600436106102e75760003560e01c80637e519f0011610190578063c45a0155116100dc578063e77dd29811610095578063f2fde38b1161006f578063f2fde38b14611a7c578063f74c1d4814611aaf578063f887ea4014611af6578063ff9b3acf14611b0b57610302565b8063e77dd298146116cf578063ee241e4b14611881578063f0ca1d5614611a3357610302565b8063c45a015514611294578063c9c9163e146112a9578063d0d853b9146112ec578063dd2c704e14611332578063dea580831461136b578063e16fc3591461151d57610302565b806393de3bc311610149578063a5d3034b11610123578063a5d3034b1461101b578063a751820e146111db578063b6b865d51461120e578063b8a6bb3b1461125157610302565b806393de3bc314610dde5780639695036214610e18578063a1d8778f14610fd857610302565b80637e519f0014610b5557806380e42f8e14610cfa5780638549780b14610d2857806389ec4de914610d565780638da5cb5b14610d90578063904f91dc14610da557610302565b80633c51df7c1161024f5780635f416e9a116102085780636db8ce24116101e25780636db8ce2414610aa5578063715018a614610ae85780637876498514610afd5780637b10399914610b4057610302565b80635f416e9a1461086b578063682bfc6b14610a2b57806369a067b814610a7257610302565b80633c51df7c146106cd5780633fc8cef3146107165780634e712c5d1461072b57806350e2f0ba14610795578063573123a9146107d857806358db2a521461084257610302565b8063156522a8116102a1578063156522a81461055157806317a067ca1461058457806317d7de7c146105d75780631c1808d5146105ec57806320e469d61461063f5780633218a3ad1461068257610302565b8062cbf59114610307578063045bf4cd14610338578063087b0632146103735780630d8e6e2c146103cf57806310d1e85c14610459578063154fa089146104f057610302565b36610302576005546001600160a01b0316331461030057fe5b005b600080fd5b34801561031357600080fd5b5061031c611b20565b604080516001600160a01b039092168252519081900360200190f35b34801561034457600080fd5b506103006004803603604081101561035b57600080fd5b506001600160a01b0381358116916020013516611b2f565b34801561037f57600080fd5b506103b66004803603606081101561039657600080fd5b506001600160a01b03813581169160208101359160409091013516611bc6565b6040805192835260208301919091528051918290030190f35b3480156103db57600080fd5b506103e46121b8565b6040805160208082528351818301528351919283929083019185019080838360005b8381101561041e578181015183820152602001610406565b50505050905090810190601f16801561044b5780820380516001836020036101000a031916815260200191505b509250505060405180910390f35b34801561046557600080fd5b506103006004803603608081101561047c57600080fd5b6001600160a01b038235169160208101359160408201359190810190608081016060820135600160201b8111156104b257600080fd5b8201836020820111156104c457600080fd5b803590602001918460018302840111600160201b831117156104e557600080fd5b5090925090506123a5565b3480156104fc57600080fd5b506105336004803603606081101561051357600080fd5b506001600160a01b038135811691602081013591604090910135166125f8565b60408051938452602084019290925282820152519081900360600190f35b34801561055d57600080fd5b5061031c6004803603602081101561057457600080fd5b50356001600160a01b0316612604565b34801561059057600080fd5b506103b6600480360360c08110156105a757600080fd5b506001600160a01b0381358116916020810135916040820135916060810135916080820135169060a0013561276e565b3480156105e357600080fd5b506103e461282d565b3480156105f857600080fd5b50610300600480360360c081101561060f57600080fd5b506001600160a01b0381358116916020810135916040820135916060810135916080820135169060a00135612a1a565b34801561064b57600080fd5b506103b66004803603606081101561066257600080fd5b506001600160a01b03813581169160208101359160409091013516612a3f565b34801561068e57600080fd5b506106bb600480360360408110156106a557600080fd5b506001600160a01b038135169060200135612d0a565b60408051918252519081900360200190f35b3480156106d957600080fd5b5061031c600480360360808110156106f057600080fd5b506001600160a01b03813581169160208101358216916040820135916060013516612e12565b34801561072257600080fd5b5061031c612e9a565b34801561073757600080fd5b506103b6600480360361012081101561074f57600080fd5b506001600160a01b0381358116916020810135916040820135916060810135916080820135169060a08101359060ff60c0820135169060e0810135906101000135612ea9565b3480156107a157600080fd5b50610533600480360360608110156107b857600080fd5b506001600160a01b038135811691602081013591604090910135166130e1565b3480156107e457600080fd5b506103b660048036036101208110156107fc57600080fd5b506001600160a01b0381358116916020810135916040820135916060810135916080820135169060a08101359060ff60c0820135169060e0810135906101000135613166565b34801561084e57600080fd5b50610857613380565b604080519115158252519081900360200190f35b34801561087757600080fd5b50610300600480360360a081101561088e57600080fd5b810190602081018135600160201b8111156108a857600080fd5b8201836020820111156108ba57600080fd5b803590602001918460208302840111600160201b831117156108db57600080fd5b9190808060200260200160405190810160405280939291908181526020018383602002808284376000920191909152509295949360208101935035915050600160201b81111561092a57600080fd5b82018360208201111561093c57600080fd5b803590602001918460208302840111600160201b8311171561095d57600080fd5b9190808060200260200160405190810160405280939291908181526020018383602002808284376000920191909152509295949360208101935035915050600160201b8111156109ac57600080fd5b8201836020820111156109be57600080fd5b803590602001918460208302840111600160201b831117156109df57600080fd5b919080806020026020016040519081016040528093929190818152602001838360200280828437600092019190915250929550506001600160a01b0383351693505050602001356133fc565b348015610a3757600080fd5b506103b660048036036080811015610a4e57600080fd5b506001600160a01b0381358116916020810135916040820135916060013516613403565b348015610a7e57600080fd5b5061031c60048036036020811015610a9557600080fd5b50356001600160a01b0316613648565b348015610ab157600080fd5b506103b660048036036060811015610ac857600080fd5b506001600160a01b038135811691602081013591604090910135166137c6565b348015610af457600080fd5b506103006138fd565b348015610b0957600080fd5b5061031c60048036036060811015610b2057600080fd5b506001600160a01b038135811691602081013591604090910135166139b1565b348015610b4c57600080fd5b5061031c613a39565b61085760048036036060811015610b6b57600080fd5b810190602081018135600160201b811115610b8557600080fd5b820183602082011115610b9757600080fd5b803590602001918460208302840111600160201b83111715610bb857600080fd5b9190808060200260200160405190810160405280939291908181526020018383602002808284376000920191909152509295949360208101935035915050600160201b811115610c0757600080fd5b820183602082011115610c1957600080fd5b803590602001918460208302840111600160201b83111715610c3a57600080fd5b9190808060200260200160405190810160405280939291908181526020018383602002808284376000920191909152509295949360208101935035915050600160201b811115610c8957600080fd5b820183602082011115610c9b57600080fd5b803590602001918460208302840111600160201b83111715610cbc57600080fd5b919080806020026020016040519081016040528093929190818152602001838360200280828437600092019190915250929550613a48945050505050565b6103b660048036036040811015610d1057600080fd5b506001600160a01b0381358116916020013516613c71565b6103b660048036036040811015610d3e57600080fd5b506001600160a01b0381358116916020013516613f66565b6103b660048036036080811015610d6c57600080fd5b506001600160a01b0381358116916020810135916040820135916060013516614152565b348015610d9c57600080fd5b5061031c61442a565b348015610db157600080fd5b506103b660048036036040811015610dc857600080fd5b506001600160a01b038135169060200135614439565b6103b660048036036080811015610df457600080fd5b506001600160a01b0381358116916020810135916040820135916060013516614460565b348015610e2457600080fd5b506106bb600480360360a0811015610e3b57600080fd5b810190602081018135600160201b811115610e5557600080fd5b820183602082011115610e6757600080fd5b803590602001918460208302840111600160201b83111715610e8857600080fd5b9190808060200260200160405190810160405280939291908181526020018383602002808284376000920191909152509295949360208101935035915050600160201b811115610ed757600080fd5b820183602082011115610ee957600080fd5b803590602001918460208302840111600160201b83111715610f0a57600080fd5b9190808060200260200160405190810160405280939291908181526020018383602002808284376000920191909152509295949360208101935035915050600160201b811115610f5957600080fd5b820183602082011115610f6b57600080fd5b803590602001918460208302840111600160201b83111715610f8c57600080fd5b919080806020026020016040519081016040528093929190818152602001838360200280828437600092019190915250929550506001600160a01b038335169350505060200135614855565b348015610fe457600080fd5b506106bb60048036036060811015610ffb57600080fd5b506001600160a01b038135811691602081013591604090910135166149a6565b34801561102757600080fd5b506106bb600480360360a081101561103e57600080fd5b810190602081018135600160201b81111561105857600080fd5b82018360208201111561106a57600080fd5b803590602001918460208302840111600160201b8311171561108b57600080fd5b9190808060200260200160405190810160405280939291908181526020018383602002808284376000920191909152509295949360208101935035915050600160201b8111156110da57600080fd5b8201836020820111156110ec57600080fd5b803590602001918460208302840111600160201b8311171561110d57600080fd5b9190808060200260200160405190810160405280939291908181526020018383602002808284376000920191909152509295949360208101935035915050600160201b81111561115c57600080fd5b82018360208201111561116e57600080fd5b803590602001918460208302840111600160201b8311171561118f57600080fd5b919080806020026020016040519081016040528093929190818152602001838360200280828437600092019190915250929550506001600160a01b038335169350505060200135614d56565b3480156111e757600080fd5b5061031c600480360360208110156111fe57600080fd5b50356001600160a01b0316614e4c565b34801561121a57600080fd5b506103006004803603606081101561123157600080fd5b506001600160a01b03813581169160208101359160409091013516614e67565b34801561125d57600080fd5b506105336004803603606081101561127457600080fd5b506001600160a01b03813581169160208101359160409091013516615342565b3480156112a057600080fd5b5061031c615887565b3480156112b557600080fd5b506106bb600480360360608110156112cc57600080fd5b506001600160a01b03813581169160208101359160409091013516615896565b610533600480360360c081101561130257600080fd5b506001600160a01b0381358116916020810135916040820135916060810135916080820135169060a00135615900565b34801561133e57600080fd5b506103b66004803603604081101561135557600080fd5b506001600160a01b038135169060200135615f15565b34801561137757600080fd5b506108576004803603606081101561138e57600080fd5b810190602081018135600160201b8111156113a857600080fd5b8201836020820111156113ba57600080fd5b803590602001918460208302840111600160201b831117156113db57600080fd5b9190808060200260200160405190810160405280939291908181526020018383602002808284376000920191909152509295949360208101935035915050600160201b81111561142a57600080fd5b82018360208201111561143c57600080fd5b803590602001918460208302840111600160201b8311171561145d57600080fd5b9190808060200260200160405190810160405280939291908181526020018383602002808284376000920191909152509295949360208101935035915050600160201b8111156114ac57600080fd5b8201836020820111156114be57600080fd5b803590602001918460208302840111600160201b831117156114df57600080fd5b919080806020026020016040519081016040528093929190818152602001838360200280828437600092019190915250929550615f31945050505050565b34801561152957600080fd5b506108576004803603606081101561154057600080fd5b810190602081018135600160201b81111561155a57600080fd5b82018360208201111561156c57600080fd5b803590602001918460208302840111600160201b8311171561158d57600080fd5b9190808060200260200160405190810160405280939291908181526020018383602002808284376000920191909152509295949360208101935035915050600160201b8111156115dc57600080fd5b8201836020820111156115ee57600080fd5b803590602001918460208302840111600160201b8311171561160f57600080fd5b9190808060200260200160405190810160405280939291908181526020018383602002808284376000920191909152509295949360208101935035915050600160201b81111561165e57600080fd5b82018360208201111561167057600080fd5b803590602001918460208302840111600160201b8311171561169157600080fd5b9190808060200260200160405190810160405280939291908181526020018383602002808284376000920191909152509295506160d9945050505050565b3480156116db57600080fd5b50610857600480360360608110156116f257600080fd5b810190602081018135600160201b81111561170c57600080fd5b82018360208201111561171e57600080fd5b803590602001918460208302840111600160201b8311171561173f57600080fd5b9190808060200260200160405190810160405280939291908181526020018383602002808284376000920191909152509295949360208101935035915050600160201b81111561178e57600080fd5b8201836020820111156117a057600080fd5b803590602001918460208302840111600160201b831117156117c157600080fd5b9190808060200260200160405190810160405280939291908181526020018383602002808284376000920191909152509295949360208101935035915050600160201b81111561181057600080fd5b82018360208201111561182257600080fd5b803590602001918460208302840111600160201b8311171561184357600080fd5b91908080602002602001604051908101604052809392919081815260200183836020028082843760009201919091525092955061626f945050505050565b34801561188d57600080fd5b50610857600480360360608110156118a457600080fd5b810190602081018135600160201b8111156118be57600080fd5b8201836020820111156118d057600080fd5b803590602001918460208302840111600160201b831117156118f157600080fd5b9190808060200260200160405190810160405280939291908181526020018383602002808284376000920191909152509295949360208101935035915050600160201b81111561194057600080fd5b82018360208201111561195257600080fd5b803590602001918460208302840111600160201b8311171561197357600080fd5b9190808060200260200160405190810160405280939291908181526020018383602002808284376000920191909152509295949360208101935035915050600160201b8111156119c257600080fd5b8201836020820111156119d457600080fd5b803590602001918460208302840111600160201b831117156119f557600080fd5b919080806020026020016040519081016040528093929190818152602001838360200280828437600092019190915250929550616405945050505050565b348015611a3f57600080fd5b5061030060048036036080811015611a5657600080fd5b506001600160a01b03813581169160208101358216916040820135916060013516616563565b348015611a8857600080fd5b5061030060048036036020811015611a9f57600080fd5b50356001600160a01b0316616a69565b348015611abb57600080fd5b506103b660048036036080811015611ad257600080fd5b506001600160a01b0381358116916020810135916040820135916060013516616b73565b348015611b0257600080fd5b5061031c616db5565b348015611b1757600080fd5b5061031c616dc4565b6009546001600160a01b031681565b6040805163485cc95560e01b81526001600160a01b03848116600483015230602483015291519183169163485cc9559160448082019260009290919082900301818387803b158015611b8057600080fd5b505af1158015611b94573d6000803e3d6000fd5b505050506001600160a01b03918216600090815260046020526040902080546001600160a01b03191691909216179055565b6000808360008111611c0a576040805162461bcd60e51b81526020600482015260086024820152674552525f5a45524f60c01b604482015290519081900360640190fd5b6001600160a01b038087166000818152600360209081526040808320548151632207afe960e11b8152915195169492939263440f5fd292600480840193919291829003018186803b158015611c5e57600080fd5b505afa158015611c72573d6000803e3d6000fd5b505050506040513d6020811015611c8857600080fd5b50516040805163a1a4076160e01b815290519192506000916001600160a01b038b169163a1a40761916004808301926020929190829003018186803b158015611cd057600080fd5b505afa158015611ce4573d6000803e3d6000fd5b505050506040513d6020811015611cfa57600080fd5b505190506000611d0a848a616dd3565b604080516323b872dd60e01b81523360048201526001600160a01b03871660248201819052604482018d9052915192935090916323b872dd916064808201926020929091908290030181600087803b158015611d6557600080fd5b505af1158015611d79573d6000803e3d6000fd5b505050506040513d6020811015611d8f57600080fd5b50611d9a9050619389565b506001600160a01b038083166000908152600460208181526040808420815180840183529054861680825282516340c10f1960e01b8152968b1694870194909452602486018790529051909492936340c10f19936044808201949392918390030190829087803b158015611e0d57600080fd5b505af1158015611e21573d6000803e3d6000fd5b505050506040513d6020811015611e3757600080fd5b50506040805160008082526020820190925281906001600160a01b0388169063787eae309030908f906040518463ffffffff1660e01b815260040180846001600160a01b03166001600160a01b0316815260200183815260200180602001828103825283818151815260200191508051906020019080838360005b83811015611eca578181015183820152602001611eb2565b50505050905090810190601f168015611ef75780820380516001836020036101000a031916815260200191505b509450505050506040805180830381600087803b158015611f1757600080fd5b505af1158015611f2b573d6000803e3d6000fd5b505050506040513d6040811015611f4157600080fd5b5080516020909101519092509050611f57619389565b60046000886001600160a01b03166001600160a01b031681526020019081526020016000206040518060200160405290816000820160009054906101000a90046001600160a01b03166001600160a01b03166001600160a01b031681525050905080600001516001600160a01b0316639dc29fac308f6040518363ffffffff1660e01b815260040180836001600160a01b03166001600160a01b0316815260200182815260200192505050602060405180830381600087803b15801561201c57600080fd5b505af1158015612030573d6000803e3d6000fd5b505050506040513d602081101561204657600080fd5b5050604080516323b872dd60e01b81523360048201523060248201526044810187905290516001600160a01b038816916323b872dd9160648083019260209291908290030181600087803b15801561209d57600080fd5b505af11580156120b1573d6000803e3d6000fd5b505050506040513d60208110156120c757600080fd5b810190808051906020019092919050505050866001600160a01b031663a9059cbb8d8f6040518363ffffffff1660e01b815260040180836001600160a01b03166001600160a01b0316815260200182815260200192505050602060405180830381600087803b15801561213957600080fd5b505af115801561214d573d6000803e3d6000fd5b505050506040513d602081101561216357600080fd5b5050604080518e815290516001600160a01b038a169133917f3cea488905b3fa93b6aaaf21e913395e548b6e79dbe6099a527f6aa8059b23d19181900360200190a350909c909b509950505050505050505050565b6009546040805163881daaa560e01b8152306004820152905160609283926001600160a01b039091169163881daaa591602480820192600092909190829003018186803b15801561220857600080fd5b505afa15801561221c573d6000803e3d6000fd5b505050506040513d6000823e601f3d908101601f19168201604052606081101561224557600080fd5b8101908080516040519392919084600160201b82111561226457600080fd5b90830190602082018581111561227957600080fd5b8251600160201b81118282018810171561229257600080fd5b82525081516020918201929091019080838360005b838110156122bf5781810151838201526020016122a7565b50505050905090810190601f1680156122ec5780820380516001836020036101000a031916815260200191505b5060405260200180516040519392919084600160201b82111561230e57600080fd5b90830190602082018581111561232357600080fd5b8251600160201b81118282018810171561233c57600080fd5b82525081516020918201929091019080838360005b83811015612369578181015183820152602001612351565b50505050905090810190601f1680156123965780820380516001836020036101000a031916815260200191505b50604052509194505050505090565b6000336001600160a01b0316630dfe16816040518163ffffffff1660e01b815260040160206040518083038186803b1580156123e057600080fd5b505afa1580156123f4573d6000803e3d6000fd5b505050506040513d602081101561240a57600080fd5b50516040805163d21220a760e01b81529051919250600091339163d21220a7916004808301926020929190829003018186803b15801561244957600080fd5b505afa15801561245d573d6000803e3d6000fd5b505050506040513d602081101561247357600080fd5b50516006546040805163e6a4390560e01b81526001600160a01b0386811660048301528085166024830152915193945091169163e6a4390591604480820192602092909190829003018186803b1580156124cc57600080fd5b505afa1580156124e0573d6000803e3d6000fd5b505050506040513d60208110156124f657600080fd5b50516001600160a01b0316331461250957fe5b60006060306001600160a01b03168686604051808383808284376040519201945060009350909150508083038183865af19150503d8060008114612569576040519150601f19603f3d011682016040523d82523d6000602084013e61256e565b606091505b509150915081801561259c57508051158061259c575080806020019051602081101561259957600080fd5b50515b6125ed576040805162461bcd60e51b815260206004820152601760248201527f4552525f554e495357415056325f43414c4c5f4641494c000000000000000000604482015290519081900360640190fd5b505050505050505050565b50600092839250829150565b600080826001600160a01b031663440f5fd26040518163ffffffff1660e01b815260040160206040518083038186803b15801561264057600080fd5b505afa158015612654573d6000803e3d6000fd5b505050506040513d602081101561266a57600080fd5b505160408051632f310bad60e01b815290519192506000916001600160a01b03861691632f310bad916004808301926020929190829003018186803b1580156126b257600080fd5b505afa1580156126c6573d6000803e3d6000fd5b505050506040513d60208110156126dc57600080fd5b50516006546040805163e6a4390560e01b81526001600160a01b03868116600483015280851660248301529151939450600093919092169163e6a43905916044808301926020929190829003018186803b15801561273957600080fd5b505afa15801561274d573d6000803e3d6000fd5b505050506040513d602081101561276357600080fd5b505195945050505050565b6000806000806127828a8a8a8a308a616ec2565b600554919350915061279e906001600160a01b031687846174e6565b61281e86828c6001600160a01b0316632f310bad6040518163ffffffff1660e01b815260040160206040518083038186803b1580156127dc57600080fd5b505afa1580156127f0573d6000803e3d6000fd5b505050506040513d602081101561280657600080fd5b50516001600160a01b0316919063ffffffff6175f016565b90999098509650505050505050565b6009546040805163881daaa560e01b8152306004820152905160609283926001600160a01b039091169163881daaa591602480820192600092909190829003018186803b15801561287d57600080fd5b505afa158015612891573d6000803e3d6000fd5b505050506040513d6000823e601f3d908101601f1916820160405260608110156128ba57600080fd5b8101908080516040519392919084600160201b8211156128d957600080fd5b9083019060208201858111156128ee57600080fd5b8251600160201b81118282018810171561290757600080fd5b82525081516020918201929091019080838360005b8381101561293457818101518382015260200161291c565b50505050905090810190601f1680156129615780820380516001836020036101000a031916815260200191505b5060405260200180516040519392919084600160201b82111561298357600080fd5b90830190602082018581111561299857600080fd5b8251600160201b8111828201881017156129b157600080fd5b82525081516020918201929091019080838360005b838110156129de5781810151838201526020016129c6565b50505050905090810190601f168015612a0b5780820380516001836020036101000a031916815260200191505b50604052509294505050505090565b60006040518060800160405280604d815260200161952f604d91395050505050505050565b6000808360008111612a83576040805162461bcd60e51b81526020600482015260086024820152674552525f5a45524f60c01b604482015290519081900360640190fd5b6000866001600160a01b031663440f5fd26040518163ffffffff1660e01b815260040160206040518083038186803b158015612abe57600080fd5b505afa158015612ad2573d6000803e3d6000fd5b505050506040513d6020811015612ae857600080fd5b5051604080516323b872dd60e01b81523360048201523060248201526044810189905290519192506001600160a01b038316916323b872dd916064808201926020929091908290030181600087803b158015612b4357600080fd5b505af1158015612b57573d6000803e3d6000fd5b505050506040513d6020811015612b6d57600080fd5b50506001600160a01b0380881660009081526003602052604090205416612b92619389565b506001600160a01b038083166000908152600460208181526040808420815180840183529054861680825282516340c10f1960e01b815296881694870194909452602486018d90529051909492936340c10f19936044808201949392918390030190829087803b158015612c0557600080fd5b505af1158015612c19573d6000803e3d6000fd5b505050506040513d6020811015612c2f57600080fd5b50506001600160a01b038216337f03f17d66ad3bf18e9412eb06582908831508cdb9b8da9cddb1431f645a5b86328a612c688d82616dd3565b6040805192835260208301919091528051918290030190a360408051633ea6b5f160e21b81526001600160a01b03898116600483015282519085169263fa9ad7c492602480820193918290030181600087803b158015612cc757600080fd5b505af1158015612cdb573d6000803e3d6000fd5b505050506040513d6040811015612cf157600080fd5b508051602090910151909a909950975050505050505050565b600080836001600160a01b031663b592a1386040518163ffffffff1660e01b815260040160206040518083038186803b158015612d4657600080fd5b505afa158015612d5a573d6000803e3d6000fd5b505050506040513d6020811015612d7057600080fd5b505160408051627f0cfd60e11b815290519192506000916001600160a01b0387169162fe19fa916004808301926020929190829003018186803b158015612db657600080fd5b505afa158015612dca573d6000803e3d6000fd5b505050506040513d6020811015612de057600080fd5b505190506000612e0683612dfa878563ffffffff61764716565b9063ffffffff6176a016565b93505050505b92915050565b600080612e208585856176e2565b9050612e9186866001600160a01b031663440f5fd26040518163ffffffff1660e01b815260040160206040518083038186803b158015612e5f57600080fd5b505afa158015612e73573d6000803e3d6000fd5b505050506040513d6020811015612e8957600080fd5b5051866178fb565b95945050505050565b6005546001600160a01b031681565b60408051632f310bad60e01b8152905160009182918c918c9189918b918a918a918a9189916001600160a01b038a1691632f310bad916004808301926020929190829003018186803b158015612efe57600080fd5b505afa158015612f12573d6000803e3d6000fd5b505050506040513d6020811015612f2857600080fd5b505160408051632207afe960e11b815290519192506000916001600160a01b038b169163440f5fd2916004808301926020929190829003018186803b158015612f7057600080fd5b505afa158015612f84573d6000803e3d6000fd5b505050506040513d6020811015612f9a57600080fd5b50516006546040805163e6a4390560e01b81526001600160a01b0386811660048301528085166024830152915193945091169163e6a4390591604480820192602092909190829003018186803b158015612ff357600080fd5b505afa158015613007573d6000803e3d6000fd5b505050506040513d602081101561301d57600080fd5b50516040805163d505accf60e01b81523360048201523060248201526000196044820152606481018a905260ff8816608482015260a4810187905260c4810186905290516001600160a01b039092169163d505accf9160e48082019260009290919082900301818387803b15801561309457600080fd5b505af11580156130a8573d6000803e3d6000fd5b50505050505050505060008d905060008d90506130c986868484878961276e565b97509750505050505050995099975050505050505050565b60008060008460008111613127576040805162461bcd60e51b81526020600482015260086024820152674552525f5a45524f60c01b604482015290519081900360640190fd5b60008060006131378a8a30615342565b6005549295509093509150613156906001600160a01b0316898b6174e6565b9199909850909650945050505050565b60408051632f310bad60e01b8152905160009182918c918c9189918d918d918d918c918c918c918b916001600160a01b038c1691632f310bad916004808301926020929190829003018186803b1580156131bf57600080fd5b505afa1580156131d3573d6000803e3d6000fd5b505050506040513d60208110156131e957600080fd5b505160408051632207afe960e11b815290519192506000916001600160a01b038d169163440f5fd2916004808301926020929190829003018186803b15801561323157600080fd5b505afa158015613245573d6000803e3d6000fd5b505050506040513d602081101561325b57600080fd5b50516006546040805163e6a4390560e01b81526001600160a01b0386811660048301528085166024830152915193945091169163e6a4390591604480820192602092909190829003018186803b1580156132b457600080fd5b505afa1580156132c8573d6000803e3d6000fd5b505050506040513d60208110156132de57600080fd5b50516040805163d505accf60e01b81523360048201523060248201526000196044820152606481018c905260ff8816608482015260a4810187905260c4810186905290516001600160a01b039092169163d505accf9160e48082019260009290919082900301818387803b15801561335557600080fd5b505af1158015613369573d6000803e3d6000fd5b5050505050505050506130c9868685858589616ec2565b60095460408051637da56fa360e01b815230600482015290516000926001600160a01b031691637da56fa3916024808301926020929190829003018186803b1580156133cb57600080fd5b505afa1580156133df573d6000803e3d6000fd5b505050506040513d60208110156133f557600080fd5b5051905090565b5050505050565b600080333014613449576040805162461bcd60e51b815260206004820152600c60248201526b22a9292fa727aa2fa9a2a62360a11b604482015290519081900360640190fd5b6001600160a01b03831661349a576040805162461bcd60e51b81526020600482015260136024820152724552525f544f5f414444524553535f5a45524f60681b604482015290519081900360640190fd5b6001600160a01b0383163314156134ec576040805162461bcd60e51b815260206004820152601160248201527022a9292faa27afa6a9a3afa9a2a72222a960791b604482015290519081900360640190fd5b6000866001600160a01b031663440f5fd26040518163ffffffff1660e01b815260040160206040518083038186803b15801561352757600080fd5b505afa15801561353b573d6000803e3d6000fd5b505050506040513d602081101561355157600080fd5b505160408051632f310bad60e01b815290519192506000916001600160a01b038a1691632f310bad916004808301926020929190829003018186803b15801561359957600080fd5b505afa1580156135ad573d6000803e3d6000fd5b505050506040513d60208110156135c357600080fd5b505190506000806135d68a8a8a8a61797e565b9092509050801561281e578781101561362e576040805162461bcd60e51b815260206004820152601560248201527422a9292fa82922a6a4aaa6afaaa72222a92fa6a4a760591b604482015290519081900360640190fd5b61281e6001600160a01b038516888363ffffffff6175f016565b600080600080600080866001600160a01b031663a5ea11da6040518163ffffffff1660e01b815260040160c06040518083038186803b15801561368a57600080fd5b505afa15801561369e573d6000803e3d6000fd5b505050506040513d60c08110156136b457600080fd5b5080516020808301516060840151608085015160a0909501516002546001600160a01b03808716600090815260048088526040808320548489168452818420548251639180928f60e01b815291861693820193909352918416602483015260448201879052606482018b90526084820186905251989e50959c50939a5096985090965090941692639180928f9260a48084019391929182900301818787803b15801561375f57600080fd5b505af1158015613773573d6000803e3d6000fd5b505050506040513d602081101561378957600080fd5b50516001600160a01b03988916600090815260036020526040902080546001600160a01b0319169982169990991790985550959695505050505050565b600080836000811161380a576040805162461bcd60e51b81526020600482015260086024820152674552525f5a45524f60c01b604482015290519081900360640190fd5b6000866001600160a01b031663440f5fd26040518163ffffffff1660e01b815260040160206040518083038186803b15801561384557600080fd5b505afa158015613859573d6000803e3d6000fd5b505050506040513d602081101561386f57600080fd5b50516005549091506001600160a01b038083169116146138c5576040805162461bcd60e51b815260206004820152600c60248201526b08aa4a4be9c9ea8beae8aa8960a31b604482015290519081900360640190fd5b6000806138d3898930611bc6565b60055491935091506138ef906001600160a01b0316888a6174e6565b909890975095505050505050565b613905617d10565b6000546001600160a01b03908116911614613967576040805162461bcd60e51b815260206004820181905260248201527f4f776e61626c653a2063616c6c6572206973206e6f7420746865206f776e6572604482015290519081900360640190fd5b600080546040516001600160a01b03909116907f8be0079c531659141344cd1fd0a4f28419497f9722a3daafe3b4186f6b6457e0908390a3600080546001600160a01b0319169055565b6000806139bf8585856176e2565b9050613a2f856001600160a01b031663440f5fd26040518163ffffffff1660e01b815260040160206040518083038186803b1580156139fd57600080fd5b505afa158015613a11573d6000803e3d6000fd5b505050506040513d6020811015613a2757600080fd5b505185617d14565b90505b9392505050565b6002546001600160a01b031681565b60003460008111613a8b576040805162461bcd60e51b81526020600482015260086024820152674552525f5a45524f60c01b604482015290519081900360640190fd5b60006040518060800160405280604581526020016194a060459139805160209091012086519091506000805b82811015613aef57613ae5878281518110613ace57fe5b602002602001015183617d9390919063ffffffff16565b9150600101613ab7565b50348114613b44576040805162461bcd60e51b815260206004820152601f60248201527f556e697377617056656e75653a20544f54414c5f4d41585f5052454d49554d00604482015290519081900360640190fd5b865186518382148015613b5657508082145b613b95576040805162461bcd60e51b815260206004820152601b60248201526000805160206194e5833981519152604482015290519081900360640190fd5b60005b84811015613c605760008b8281518110613bae57fe5b6020026020010151905060008b8381518110613bc657fe5b6020026020010151905060008b8481518110613bde57fe5b602090810291909101810151604080516001600160a01b03871660248201526044810186905260648101839052336084808301919091528251808303909101815260a490910190915291820180516001600160e01b03166001600160e01b03198d161790529150613c50848483617ded565b505060019092019150613b989050565b5060019a9950505050505050505050565b6000803460008111613cb5576040805162461bcd60e51b81526020600482015260086024820152674552525f5a45524f60c01b604482015290519081900360640190fd5b6000856001600160a01b031663a1a407616040518163ffffffff1660e01b815260040160206040518083038186803b158015613cf057600080fd5b505afa158015613d04573d6000803e3d6000fd5b505050506040513d6020811015613d1a57600080fd5b50516005549091506001600160a01b03808316911614613d70576040805162461bcd60e51b815260206004820152600c60248201526b08aa4a4be9c9ea8beae8aa8960a31b604482015290519081900360640190fd5b346000613d7d888361815c565b600554909150613d97906001600160a01b0316893461820b565b604080516323b872dd60e01b81523360048201526001600160a01b038a16602482018190526044820184905291516323b872dd916064808201926020929091908290030181600087803b158015613ded57600080fd5b505af1158015613e01573d6000803e3d6000fd5b505050506040513d6020811015613e1757600080fd5b50506040805182815290516001600160a01b038a169133917f3cea488905b3fa93b6aaaf21e913395e548b6e79dbe6099a527f6aa8059b23d19181900360200190a36040805160008082526020820192839052630787eae360e41b83526001600160a01b038a81166024840190815260448401869052606060648501908152845160848601819052928e169563787eae30958e9589959194939260a486019290918190849084905b83811015613ed7578181015183820152602001613ebf565b50505050905090810190601f168015613f045780820380516001836020036101000a031916815260200191505b509450505050506040805180830381600087803b158015613f2457600080fd5b505af1158015613f38573d6000803e3d6000fd5b505050506040513d6040811015613f4e57600080fd5b50805160209091015190999098509650505050505050565b6000803460008111613faa576040805162461bcd60e51b81526020600482015260086024820152674552525f5a45524f60c01b604482015290519081900360640190fd5b6000856001600160a01b031663440f5fd26040518163ffffffff1660e01b815260040160206040518083038186803b158015613fe557600080fd5b505afa158015613ff9573d6000803e3d6000fd5b505050506040513d602081101561400f57600080fd5b50516005549091506001600160a01b03808316911614614065576040805162461bcd60e51b815260206004820152600c60248201526b08aa4a4be9c9ea8beae8aa8960a31b604482015290519081900360640190fd5b60055461407c906001600160a01b0316873461820b565b6001600160a01b038616337f03f17d66ad3bf18e9412eb06582908831508cdb9b8da9cddb1431f645a5b8632346140b38a82616dd3565b6040805192835260208301919091528051918290030190a360408051633ea6b5f160e21b81526001600160a01b03878116600483015282519089169263fa9ad7c492602480820193918290030181600087803b15801561411257600080fd5b505af1158015614126573d6000803e3d6000fd5b505050506040513d604081101561413c57600080fd5b5080516020909101519097909650945050505050565b600080333014614198576040805162461bcd60e51b815260206004820152600c60248201526b22a9292fa727aa2fa9a2a62360a11b604482015290519081900360640190fd5b6001600160a01b0383166141e9576040805162461bcd60e51b81526020600482015260136024820152724552525f544f5f414444524553535f5a45524f60681b604482015290519081900360640190fd5b6001600160a01b03831633141561423b576040805162461bcd60e51b815260206004820152601160248201527022a9292faa27afa6a9a3afa9a2a72222a960791b604482015290519081900360640190fd5b6000866001600160a01b031663440f5fd26040518163ffffffff1660e01b815260040160206040518083038186803b15801561427657600080fd5b505afa15801561428a573d6000803e3d6000fd5b505050506040513d60208110156142a057600080fd5b505160408051632f310bad60e01b815290519192506000916001600160a01b038a1691632f310bad916004808301926020929190829003018186803b1580156142e857600080fd5b505afa1580156142fc573d6000803e3d6000fd5b505050506040513d602081101561431257600080fd5b50516006546040805163e6a4390560e01b81526001600160a01b03868116600483015280851660248301529151939450600093919092169163e6a43905916044808301926020929190829003018186803b15801561436f57600080fd5b505afa158015614383573d6000803e3d6000fd5b505050506040513d602081101561439957600080fd5b5051905060006143aa8a8a896182b0565b9050801561441c5781818910156143ff576040805162461bcd60e51b815260206004820152601460248201527308aa4a4bea0a48a9a92aa9abe9eac8aa4be9a82b60631b604482015290519081900360640190fd5b61441a6001600160a01b03861689858563ffffffff61857c16565b505b979997985050505050505050565b6000546001600160a01b031690565b6007546000908190614455906001600160a01b031685856185d6565b915091509250929050565b6000803330146144a6576040805162461bcd60e51b815260206004820152600c60248201526b22a9292fa727aa2fa9a2a62360a11b604482015290519081900360640190fd5b6001600160a01b0383166144f7576040805162461bcd60e51b81526020600482015260136024820152724552525f544f5f414444524553535f5a45524f60681b604482015290519081900360640190fd5b6001600160a01b038316331415614549576040805162461bcd60e51b815260206004820152601160248201527022a9292faa27afa6a9a3afa9a2a72222a960791b604482015290519081900360640190fd5b6000866001600160a01b031663440f5fd26040518163ffffffff1660e01b815260040160206040518083038186803b15801561458457600080fd5b505afa158015614598573d6000803e3d6000fd5b505050506040513d60208110156145ae57600080fd5b505160408051632f310bad60e01b815290519192506000916001600160a01b038a1691632f310bad916004808301926020929190829003018186803b1580156145f657600080fd5b505afa15801561460a573d6000803e3d6000fd5b505050506040513d602081101561462057600080fd5b50516006546040805163e6a4390560e01b81526001600160a01b03868116600483015280851660248301529151939450600093919092169163e6a43905916044808301926020929190829003018186803b15801561467d57600080fd5b505afa158015614691573d6000803e3d6000fd5b505050506040513d60208110156146a757600080fd5b5051905060006146b88a8a896182b0565b9050801561441c57818189101561470d576040805162461bcd60e51b815260206004820152601460248201527308aa4a4bea0a48a9a92aa9abe9eac8aa4be9a82b60631b604482015290519081900360640190fd5b600560009054906101000a90046001600160a01b03166001600160a01b031663d0e30db0836040518263ffffffff1660e01b81526004016000604051808303818588803b15801561475d57600080fd5b505af1158015614771573d6000803e3d6000fd5b505060055461479593506001600160a01b031691508590508463ffffffff6175f016565b8189111561441a5760006001600160a01b0389166147b98b8563ffffffff61890016565b604051600081818185875af1925050503d80600081146147f5576040519150601f19603f3d011682016040523d82523d6000602084013e6147fa565b606091505b5050905080614844576040805162461bcd60e51b815260206004820152601160248201527022a9292fa9a2a72224a723afa2aa2422a960791b604482015290519081900360640190fd5b50989a909950975050505050505050565b845184518451600092919061487182600263ffffffff6176a016565b8314801561487e57508082145b6148bd576040805162461bcd60e51b815260206004820152601b60248201526000805160206194e5833981519152604482015290519081900360640190fd5b60005b838110156149965760008a82815181106148d657fe5b6020026020010151905060008a83815181106148ee57fe5b6020026020010151905060008b846001018151811061490957fe5b60200260200101519050600061491f8484616dd3565b90508b858151811061492d57fe5b602002602001015181146149725760405162461bcd60e51b81526004018080602001828103825260218152602001806194206021913960400191505060405180910390fd5b60008c866001018151811061498357fe5b5050600190950194506148c09350505050565b5060019998505050505050505050565b600082600081116149e9576040805162461bcd60e51b81526020600482015260086024820152674552525f5a45524f60c01b604482015290519081900360640190fd5b6001600160a01b03808616600090815260036020908152604091829020548251632f310bad60e01b815292519316928392632f310bad926004808301939192829003018186803b158015614a3c57600080fd5b505afa158015614a50573d6000803e3d6000fd5b505050506040513d6020811015614a6657600080fd5b5051604080516323b872dd60e01b81523360048201526001600160a01b03848116602483015260448201899052915191909216916323b872dd9160648083019260209291908290030181600087803b158015614ac157600080fd5b505af1158015614ad5573d6000803e3d6000fd5b505050506040513d6020811015614aeb57600080fd5b50506040805163a1a4076160e01b815290516000916001600160a01b0389169163a1a4076191600480820192602092909190829003018186803b158015614b3157600080fd5b505afa158015614b45573d6000803e3d6000fd5b505050506040513d6020811015614b5b57600080fd5b50519050614b67619389565b506001600160a01b038082166000908152600460208181526040808420815180840183529054861681528151635e86929d60e01b8152309481019490945290519094871692635e86929d92602480830193919282900301818787803b158015614bcf57600080fd5b505af1158015614be3573d6000803e3d6000fd5b505050506040513d6020811015614bf957600080fd5b5051825160408051632770a7eb60e21b8152306004820152602481018c905290519293506001600160a01b0390911691639dc29fac916044808201926020929091908290030181600087803b158015614c5157600080fd5b505af1158015614c65573d6000803e3d6000fd5b505050506040513d6020811015614c7b57600080fd5b50506040805189815290516001600160a01b038b169133917f27d4634c833b7622a0acddbf7f746183625f105945e95c723ad1d5a9f2a0b6fc9181900360200190a3826001600160a01b031663a9059cbb88836040518363ffffffff1660e01b815260040180836001600160a01b03166001600160a01b0316815260200182815260200192505050602060405180830381600087803b158015614d1d57600080fd5b505af1158015614d31573d6000803e3d6000fd5b505050506040513d6020811015614d4757600080fd5b50909998505050505050505050565b84518451845160009291908183148015614d7f5750614d7c81600263ffffffff6176a016565b82145b614dbe576040805162461bcd60e51b815260206004820152601b60248201526000805160206194e5833981519152604482015290519081900360640190fd5b60005b838110156149965760008a8281518110614dd757fe5b6020026020010151905060008a8381518110614def57fe5b6020026020010151905060008a8481518110614e0757fe5b6020026020010151905060008b8560010181518110614e2257fe5b60200260200101519050614e3a848484848f8f616ec2565b505060019094019350614dc192505050565b6003602052600090815260409020546001600160a01b031681565b6001600160a01b038084166000908152600360205260409020541680614ec7576040805162461bcd60e51b815260206004820152601060248201526f11549497d393d517d111541313d6515160821b604482015290519081900360640190fd5b6000846001600160a01b031663440f5fd26040518163ffffffff1660e01b815260040160206040518083038186803b158015614f0257600080fd5b505afa158015614f16573d6000803e3d6000fd5b505050506040513d6020811015614f2c57600080fd5b50516040805163a1a4076160e01b815290519192506000916001600160a01b0388169163a1a40761916004808301926020929190829003018186803b158015614f7457600080fd5b505afa158015614f88573d6000803e3d6000fd5b505050506040513d6020811015614f9e57600080fd5b5051604080516323b872dd60e01b81523360048201526001600160a01b0386166024820181905260448201899052915192935090916323b872dd916064808201926020929091908290030181600087803b158015614ffb57600080fd5b505af115801561500f573d6000803e3d6000fd5b505050506040513d602081101561502557600080fd5b50600090506150348787612d0a565b6001600160a01b0380841660009081526004602081815260408084205481516340c10f1960e01b81528b871694810194909452602484018790529051959650909316936340c10f199360448084019491938390030190829087803b15801561509b57600080fd5b505af11580156150af573d6000803e3d6000fd5b505050506040513d60208110156150c557600080fd5b50506040805160008082526020820192839052630787eae360e41b83523060248301818152604484018b90526060606485019081528451608486018190526001600160a01b038b169663787eae309694958e9594939260a4860192918190849084905b83811015615140578181015183820152602001615128565b50505050905090810190601f16801561516d5780820380516001836020036101000a031916815260200191505b509450505050506040805180830381600087803b15801561518d57600080fd5b505af11580156151a1573d6000803e3d6000fd5b505050506040513d60408110156151b757600080fd5b50506001600160a01b038084166000908152600460208181526040808420548151632770a7eb60e21b81523094810194909452602484018c90529051941693639dc29fac936044808501948390030190829087803b15801561521857600080fd5b505af115801561522c573d6000803e3d6000fd5b505050506040513d602081101561524257600080fd5b50506040805163a9059cbb60e01b81526001600160a01b0387811660048301526024820189905291519185169163a9059cbb916044808201926020929091908290030181600087803b15801561529757600080fd5b505af11580156152ab573d6000803e3d6000fd5b505050506040513d60208110156152c157600080fd5b5050604080516323b872dd60e01b81523360048201523060248201526044810183905290516001600160a01b038416916323b872dd9160648083019260209291908290030181600087803b15801561531857600080fd5b505af115801561532c573d6000803e3d6000fd5b505050506040513d60208110156125ed57600080fd5b60008060008460008111615388576040805162461bcd60e51b81526020600482015260086024820152674552525f5a45524f60c01b604482015290519081900360640190fd5b6001600160a01b03808816600090815260036020526040812054909116906153b08989616dd3565b9050816001600160a01b0316632f310bad6040518163ffffffff1660e01b815260040160206040518083038186803b1580156153eb57600080fd5b505afa1580156153ff573d6000803e3d6000fd5b505050506040513d602081101561541557600080fd5b5051604080516323b872dd60e01b81523360048201526001600160a01b03858116602483015260448201859052915191909216916323b872dd9160648083019260209291908290030181600087803b15801561547057600080fd5b505af1158015615484573d6000803e3d6000fd5b505050506040513d602081101561549a57600080fd5b50506040805162972d6f60e61b8152905142916001600160a01b038516916325cb5bc091600480820192602092909190829003018186803b1580156154de57600080fd5b505afa1580156154f2573d6000803e3d6000fd5b505050506040513d602081101561550857600080fd5b50511061559257604080516323b872dd60e01b81523360048201526001600160a01b03841660248201819052604482018b905291516323b872dd916064808201926020929091908290030181600087803b15801561556557600080fd5b505af1158015615579573d6000803e3d6000fd5b505050506040513d602081101561558f57600080fd5b50505b6000806000846001600160a01b03166383499805306040518263ffffffff1660e01b815260040180826001600160a01b03166001600160a01b03168152602001915050606060405180830381600087803b1580156155ef57600080fd5b505af1158015615603573d6000803e3d6000fd5b505050506040513d606081101561561957600080fd5b8101908080519060200190929190805190602001909291908051906020019092919050505092509250925060008c6001600160a01b031663440f5fd26040518163ffffffff1660e01b815260040160206040518083038186803b15801561567f57600080fd5b505afa158015615693573d6000803e3d6000fd5b505050506040513d60208110156156a957600080fd5b505190506156b5619389565b60046000836001600160a01b03166001600160a01b031681526020019081526020016000206040518060200160405290816000820160009054906101000a90046001600160a01b03166001600160a01b03166001600160a01b031681525050905080600001516001600160a01b0316639dc29fac308f6040518363ffffffff1660e01b815260040180836001600160a01b03166001600160a01b0316815260200182815260200192505050602060405180830381600087803b15801561577a57600080fd5b505af115801561578e573d6000803e3d6000fd5b505050506040513d60208110156157a457600080fd5b5050604080518e815290516001600160a01b0389169133917f62d095e2c4513ab737ede7cbd30334eccb10424cbc543ebb5c458b5174cddcd59181900360200190a3816001600160a01b031663a9059cbb8d856040518363ffffffff1660e01b815260040180836001600160a01b03166001600160a01b0316815260200182815260200192505050602060405180830381600087803b15801561584657600080fd5b505af115801561585a573d6000803e3d6000fd5b505050506040513d602081101561587057600080fd5b50949e939d50919b50919950505050505050505050565b6006546001600160a01b031681565b600082600081116158d9576040805162461bcd60e51b81526020600482015260086024820152674552525f5a45524f60c01b604482015290519081900360640190fd5b60006158e68686306149a6565b600554909150612e91906001600160a01b031685876174e6565b6000808034615915898963ffffffff617d9316565b101561595d576040805162461bcd60e51b815260206004820152601260248201527108aa4a4be9c9ea8be8a9c9eaa8e90be8aa8960731b604482015290519081900360640190fd5b6000806000600560009054906101000a90046001600160a01b03166001600160a01b031663d0e30db08c6040518263ffffffff1660e01b81526004016000604051808303818588803b1580156159b257600080fd5b505af11580156159c6573d6000803e3d6000fd5b5050505050600560009054906101000a90046001600160a01b03166001600160a01b031663a9059cbb8d8d6040518363ffffffff1660e01b815260040180836001600160a01b03166001600160a01b0316815260200182815260200192505050602060405180830381600087803b158015615a4057600080fd5b505af1158015615a54573d6000803e3d6000fd5b505050506040513d6020811015615a6a57600080fd5b81019080805190602001909291905050505060008c6001600160a01b031663fa9ad7c4306040518263ffffffff1660e01b815260040180826001600160a01b03166001600160a01b031681526020019150506040805180830381600087803b158015615ad557600080fd5b505af1158015615ae9573d6000803e3d6000fd5b505050506040513d6040811015615aff57600080fd5b50602001519050615b206001600160a01b038e16338e63ffffffff6175f016565b60008d90506000816001600160a01b031663440f5fd26040518163ffffffff1660e01b815260040160206040518083038186803b158015615b6057600080fd5b505afa158015615b74573d6000803e3d6000fd5b505050506040513d6020811015615b8a57600080fd5b505160408051632f310bad60e01b8152905191925084918f918f918f918f916001600160a01b03891691632f310bad916004808301926020929190829003018186803b158015615bd957600080fd5b505afa158015615bed573d6000803e3d6000fd5b505050506040513d6020811015615c0357600080fd5b50516007546040805163095ea7b360e01b81526001600160a01b03928316600482015260001960248201529051919092169163095ea7b39160448083019260209291908290030181600087803b158015615c5c57600080fd5b505af1158015615c70573d6000803e3d6000fd5b505050506040513d6020811015615c8657600080fd5b50506007546040805163095ea7b360e01b81526001600160a01b039283166004820152600019602482015290519188169163095ea7b3916044808201926020929091908290030181600087803b158015615cdf57600080fd5b505af1158015615cf3573d6000803e3d6000fd5b505050506040513d6020811015615d0957600080fd5b505060075460408051632f310bad60e01b815290516001600160a01b039283169263f305d719928892918c1691632f310bad91600480820192602092909190829003018186803b158015615d5c57600080fd5b505afa158015615d70573d6000803e3d6000fd5b505050506040513d6020811015615d8657600080fd5b5051604080516001600160e01b031960e086901b1681526001600160a01b039283166004820152602481018b9052604481018b905260648101899052918716608483015260a482018690525160c480830192606092919082900301818588803b158015615df257600080fd5b505af1158015615e06573d6000803e3d6000fd5b50505050506040513d6060811015615e1d57600080fd5b5080516020820151604090920151909c50909a509850878b14615e3c57fe5b60008a8511615e4c576000615e5c565b615e5c858c63ffffffff61890016565b90508015615ef757604051600090339083908381818185875af1925050503d8060008114615ea6576040519150601f19603f3d011682016040523d82523d6000602084013e615eab565b606091505b5050905080615ef5576040805162461bcd60e51b815260206004820152601160248201527022a9292fa9a2a72224a723afa2aa2422a960791b604482015290519081900360640190fd5b505b50999c50979a50959850505050505050505096509650969350505050565b6007546000908190614455906001600160a01b03168585618942565b600060026001541415615f79576040805162461bcd60e51b815260206004820152601f602482015260008051602061939c833981519152604482015290519081900360640190fd5b6002600181905550600060405180608001604052806044815260200161957c60449139805160209091012085518551855192935090918183148015615fbd57508082145b615ffc576040805162461bcd60e51b815260206004820152601b60248201526000805160206194e5833981519152604482015290519081900360640190fd5b60005b838110156160c757600089828151811061601557fe5b60200260200101519050600089838151811061602d57fe5b60200260200101519050600089848151811061604557fe5b602090810291909101810151604080516001600160a01b03871660248201526044810186905260648101839052336084808301919091528251808303909101815260a490910190915291820180516001600160e01b03166001600160e01b03198c1617905291506160b7848483618e14565b505060019092019150615fff9050565b50506001808055979650505050505050565b600060026001541415616121576040805162461bcd60e51b815260206004820152601f602482015260008051602061939c833981519152604482015290519081900360640190fd5b600260018190555060006040518060600160405280603e81526020016193e2603e913980516020909101208551855185519293509091818314801561616557508082145b6161a4576040805162461bcd60e51b815260206004820152601b60248201526000805160206194e5833981519152604482015290519081900360640190fd5b60005b838110156160c75760008982815181106161bd57fe5b6020026020010151905060008983815181106161d557fe5b6020026020010151905060008984815181106161ed57fe5b602090810291909101810151604080516001600160a01b03871660248201526044810186905260648101839052336084808301919091528251808303909101815260a490910190915291820180516001600160e01b03166001600160e01b03198c16179052915061625f848483618e14565b5050600190920191506161a79050565b6000600260015414156162b7576040805162461bcd60e51b815260206004820152601f602482015260008051602061939c833981519152604482015290519081900360640190fd5b600260018190555060006040518060600160405280603e8152602001619441603e91398051602090910120855185518551929350909181831480156162fb57508082145b61633a576040805162461bcd60e51b815260206004820152601b60248201526000805160206194e5833981519152604482015290519081900360640190fd5b60005b838110156160c757600089828151811061635357fe5b60200260200101519050600089838151811061636b57fe5b60200260200101519050600089848151811061638357fe5b602090810291909101810151604080516001600160a01b03871660248201526044810186905260648101839052336084808301919091528251808303909101815260a490910190915291820180516001600160e01b03166001600160e01b03198c1617905291506163f5848483617ded565b50506001909201915061633d9050565b8251825182516000929190818314801561641e57508082145b61645d576040805162461bcd60e51b815260206004820152601b60248201526000805160206194e5833981519152604482015290519081900360640190fd5b6000805b8481101561654b57600089828151811061647757fe5b60200260200101519050600089838151811061648f57fe5b6020026020010151905060008984815181106164a757fe5b6020026020010151905060006164be848433612a3f565b91505085616505576040805162461bcd60e51b815260206004820152600f60248201526e4552525f464c4153485f434c4f534560881b604482015290519081900360640190fd5b60408051848152905133917f4150f3753a230033657cb8a559a7d2a6a6110a7326d898ac1f07de6ae5c6785b919081900360200190a25050600190920191506164619050565b506165578888886160d9565b98975050505050505050565b6001600160a01b038085166000908152600360209081526040808320548785168452818420548251627f0cfd60e11b8152925191861695169392859262fe19fa9260048083019392829003018186803b1580156165bf57600080fd5b505afa1580156165d3573d6000803e3d6000fd5b505050506040513d60208110156165e957600080fd5b505160408051627f0cfd60e11b815290519192506000916001600160a01b0385169162fe19fa916004808301926020929190829003018186803b15801561662f57600080fd5b505afa158015616643573d6000803e3d6000fd5b505050506040513d602081101561665957600080fd5b50519050818110156166a6576040805162461bcd60e51b815260206004820152601160248201527011549497d0d49151125517d4d414915051607a1b604482015290519081900360640190fd5b60006166b8828463ffffffff61890016565b90506000600460008a6001600160a01b031663440f5fd26040518163ffffffff1660e01b815260040160206040518083038186803b1580156166f957600080fd5b505afa15801561670d573d6000803e3d6000fd5b505050506040513d602081101561672357600080fd5b50516001600160a01b03908116825260208281019390935260409182016000908120805484516340c10f1960e01b81528b85166004820152602481018f90529451919650909216936340c10f19936044808201949293918390030190829087803b15801561679057600080fd5b505af11580156167a4573d6000803e3d6000fd5b505050506040513d60208110156167ba57600080fd5b505060408051633ea6b5f160e21b815230600482015281516001600160a01b0388169263fa9ad7c492602480820193918290030181600087803b15801561680057600080fd5b505af1158015616814573d6000803e3d6000fd5b505050506040513d604081101561682a57600080fd5b50506040805163a9059cbb60e01b81526001600160a01b038981166004830152602482018b905291519187169163a9059cbb916044808201926020929091908290030181600087803b15801561687f57600080fd5b505af1158015616893573d6000803e3d6000fd5b505050506040513d60208110156168a957600080fd5b505060408051632f310bad60e01b815290516001600160a01b03871691632f310bad916004808301926020929190829003018186803b1580156168eb57600080fd5b505afa1580156168ff573d6000803e3d6000fd5b505050506040513d602081101561691557600080fd5b50516040805163a9059cbb60e01b81526001600160a01b038a81166004830152602482018690529151919092169163a9059cbb9160448083019260209291908290030181600087803b15801561696a57600080fd5b505af115801561697e573d6000803e3d6000fd5b505050506040513d602081101561699457600080fd5b5050604080516323b872dd60e01b8152336004820152306024820152604481018a905290516001600160a01b038816916323b872dd9160648083019260209291908290030181600087803b1580156169eb57600080fd5b505af11580156169ff573d6000803e3d6000fd5b505050506040513d6020811015616a1557600080fd5b50506040805189815290516001600160a01b03808c1692908d169133917f33a45968f4205599a1893a1cca6f79ccfbb725c57197feee1fb493c45f3f376c919081900360200190a450505050505050505050565b616a71617d10565b6000546001600160a01b03908116911614616ad3576040805162461bcd60e51b815260206004820181905260248201527f4f776e61626c653a2063616c6c6572206973206e6f7420746865206f776e6572604482015290519081900360640190fd5b6001600160a01b038116616b185760405162461bcd60e51b81526004018080602001828103825260268152602001806193bc6026913960400191505060405180910390fd5b600080546040516001600160a01b03808516939216917f8be0079c531659141344cd1fd0a4f28419497f9722a3daafe3b4186f6b6457e091a3600080546001600160a01b0319166001600160a01b0392909216919091179055565b600080333014616bb9576040805162461bcd60e51b815260206004820152600c60248201526b22a9292fa727aa2fa9a2a62360a11b604482015290519081900360640190fd5b6001600160a01b038316616c0a576040805162461bcd60e51b81526020600482015260136024820152724552525f544f5f414444524553535f5a45524f60681b604482015290519081900360640190fd5b6001600160a01b038316331415616c5c576040805162461bcd60e51b815260206004820152601160248201527022a9292faa27afa6a9a3afa9a2a72222a960791b604482015290519081900360640190fd5b6000866001600160a01b031663440f5fd26040518163ffffffff1660e01b815260040160206040518083038186803b158015616c9757600080fd5b505afa158015616cab573d6000803e3d6000fd5b505050506040513d6020811015616cc157600080fd5b505160408051632f310bad60e01b815290519192506000916001600160a01b038a1691632f310bad916004808301926020929190829003018186803b158015616d0957600080fd5b505afa158015616d1d573d6000803e3d6000fd5b505050506040513d6020811015616d3357600080fd5b50519050600080616d468a8a8a8a61797e565b9092509050801561281e5787811015616d9e576040805162461bcd60e51b815260206004820152601560248201527422a9292fa82922a6a4aaa6afaaa72222a92fa6a4a760591b604482015290519081900360640190fd5b60055461281e906001600160a01b031688836174e6565b6007546001600160a01b031681565b6008546001600160a01b031681565b600080616eba846001600160a01b031663b592a1386040518163ffffffff1660e01b815260040160206040518083038186803b158015616e1257600080fd5b505afa158015616e26573d6000803e3d6000fd5b505050506040513d6020811015616e3c57600080fd5b505160408051627f0cfd60e11b81529051612dfa916001600160a01b0389169162fe19fa91600480820192602092909190829003018186803b158015616e8157600080fd5b505afa158015616e95573d6000803e3d6000fd5b505050506040513d6020811015616eab57600080fd5b5051869063ffffffff61764716565b949350505050565b60008060026001541415616f0b576040805162461bcd60e51b815260206004820152601f602482015260008051602061939c833981519152604482015290519081900360640190fd5b600260018190555060008890506000816001600160a01b0316632f310bad6040518163ffffffff1660e01b815260040160206040518083038186803b158015616f5357600080fd5b505afa158015616f67573d6000803e3d6000fd5b505050506040513d6020811015616f7d57600080fd5b505160408051632207afe960e11b815290519192506000916001600160a01b0385169163440f5fd2916004808301926020929190829003018186803b158015616fc557600080fd5b505afa158015616fd9573d6000803e3d6000fd5b505050506040513d6020811015616fef57600080fd5b5051604080516370a0823160e01b815230600482015290519192506000916001600160a01b038516916370a08231916024808301926020929190829003018186803b15801561703d57600080fd5b505afa158015617051573d6000803e3d6000fd5b505050506040513d602081101561706757600080fd5b50516006546040805163e6a4390560e01b81526001600160a01b038781166004830152868116602483015291519394508e938e938e938d938f9361711893339330938b93919092169163e6a43905916044808301926020929190829003018186803b1580156170d557600080fd5b505afa1580156170e9573d6000803e3d6000fd5b505050506040513d60208110156170ff57600080fd5b50516001600160a01b031692919063ffffffff61857c16565b6006546040805163e6a4390560e01b81526001600160a01b038b811660048301528a811660248301529151919092169163e6a43905916044808301926020929190829003018186803b15801561716d57600080fd5b505afa158015617181573d6000803e3d6000fd5b505050506040513d602081101561719757600080fd5b50516007546040805163095ea7b360e01b81526001600160a01b03928316600482015260001960248201529051919092169163095ea7b39160448083019260209291908290030181600087803b1580156171f057600080fd5b505af1158015617204573d6000803e3d6000fd5b505050506040513d602081101561721a57600080fd5b505060075460408051635d5155ef60e11b81526001600160a01b038b811660048301528a811660248301526044820189905260648201889052608482018790523060a483015260c482018690528251600094859492169263baa2abde9260e480830193919282900301818787803b15801561729457600080fd5b505af11580156172a8573d6000803e3d6000fd5b505050506040513d60408110156172be57600080fd5b50805160209182015160408051632f310bad60e01b81529051929550909350617310928e9286926001600160a01b03851692632f310bad92600480840193829003018186803b1580156127dc57600080fd5b600061731c8c8461815c565b90506173396001600160a01b038d16338e8463ffffffff61857c16565b60008c6001600160a01b03166383499805866040518263ffffffff1660e01b815260040180826001600160a01b03166001600160a01b03168152602001915050606060405180830381600087803b15801561739357600080fd5b505af11580156173a7573d6000803e3d6000fd5b505050506040513d60608110156173bd57600080fd5b81019080805190602001909291908051906020019092919080519060200190929190505050925050506174788a8d6001600160a01b03166370a08231306040518263ffffffff1660e01b815260040180826001600160a01b03166001600160a01b0316815260200191505060206040518083038186803b15801561744057600080fd5b505afa158015617454573d6000803e3d6000fd5b505050506040513d602081101561746a57600080fd5b50519063ffffffff61890016565b9950891561749a5761749a6001600160a01b038d16868c63ffffffff6175f016565b6174b46001600160a01b038c16868563ffffffff6175f016565b6174c4838263ffffffff617d9316565b9e50989c50505050505050505050505050600180559097909650945050505050565b826001600160a01b0316632e1a7d4d826040518263ffffffff1660e01b815260040180828152602001915050600060405180830381600087803b15801561752c57600080fd5b505af1158015617540573d6000803e3d6000fd5b5050604051600092506001600160a01b038516915083908381818185875af1925050503d806000811461758f576040519150601f19603f3d011682016040523d82523d6000602084013e617594565b606091505b50509050806175ea576040805162461bcd60e51b815260206004820152601e60248201527f5072696d697469766556313a204552525f53454e44494e475f45544845520000604482015290519081900360640190fd5b50505050565b604080516001600160a01b038416602482015260448082018490528251808303909101815260649091019091526020810180516001600160e01b031663a9059cbb60e01b17905261764290849061904a565b505050565b60008261765657506000612e0c565b8282028284828161766357fe5b0414613a325760405162461bcd60e51b815260040180806020018281038252602181526020018061947f6021913960400191505060405180910390fd5b6000613a3283836040518060400160405280601a81526020017f536166654d6174683a206469766973696f6e206279207a65726f0000000000008152506190fb565b6001600160a01b0380841660009081526003602052604081205490911680617744576040805162461bcd60e51b815260206004820152601060248201526f11549497d393d517d111541313d6515160821b604482015290519081900360640190fd5b6000856001600160a01b031663440f5fd26040518163ffffffff1660e01b815260040160206040518083038186803b15801561777f57600080fd5b505afa158015617793573d6000803e3d6000fd5b505050506040513d60208110156177a957600080fd5b50516001600160a01b038082166000908152600460208181526040808420805482516340c10f1960e01b81528a881695810195909552602485018d90529151969750959416936340c10f19936044808501948390030190829087803b15801561781157600080fd5b505af1158015617825573d6000803e3d6000fd5b505050506040513d602081101561783b57600080fd5b505060408051633ea6b5f160e21b81526001600160a01b03878116600483015282519086169263fa9ad7c492602480820193918290030181600087803b15801561788457600080fd5b505af1158015617898573d6000803e3d6000fd5b505050506040513d60408110156178ae57600080fd5b50506040805187815290516001600160a01b0389169133917fe368fed5c4ce1d1a4b7bad8fcb733fa62ac9d46e8f4d8a400c6d8bf07b16a3649181900360200190a3509095945050505050565b604080516323b872dd60e01b81526001600160a01b038581166004830152306024830152604482018490529151918416916323b872dd916064808201926020929091908290030181600087803b15801561795457600080fd5b505af1158015617968573d6000803e3d6000fd5b505050506040513d60208110156133fc57600080fd5b6000806000866001600160a01b031663440f5fd26040518163ffffffff1660e01b815260040160206040518083038186803b1580156179bc57600080fd5b505afa1580156179d0573d6000803e3d6000fd5b505050506040513d60208110156179e657600080fd5b505160408051632f310bad60e01b815290519192506000916001600160a01b038a1691632f310bad916004808301926020929190829003018186803b158015617a2e57600080fd5b505afa158015617a42573d6000803e3d6000fd5b505050506040513d6020811015617a5857600080fd5b50516006546040805163e6a4390560e01b81526001600160a01b03868116600483015280851660248301529151939450600093919092169163e6a43905916044808301926020929190829003018186803b158015617ab557600080fd5b505afa158015617ac9573d6000803e3d6000fd5b505050506040513d6020811015617adf57600080fd5b50519050617afd6001600160a01b0383168a8a63ffffffff6175f016565b6000617b098a8a61815c565b9050428a6001600160a01b03166325cb5bc06040518163ffffffff1660e01b815260040160206040518083038186803b158015617b4557600080fd5b505afa158015617b59573d6000803e3d6000fd5b505050506040513d6020811015617b6f57600080fd5b505110617b9157617b916001600160a01b038b16888c8463ffffffff61857c16565b60408051638349980560e01b815230600482015290516000916001600160a01b038d169163834998059160248082019260609290919082900301818787803b158015617bdc57600080fd5b505af1158015617bf0573d6000803e3d6000fd5b505050506040513d6060811015617c0657600080fd5b50604001519050600080617c1a8d8d614439565b90925090508115617c3857617c35838363ffffffff61890016565b92505b8215617c5857617c586001600160a01b038816868563ffffffff6175f016565b8015617cc457818b1115617ca9576040805162461bcd60e51b815260206004820152601360248201527211549497d39151d05512559157d4105653d555606a1b604482015290519081900360640190fd5b617cc46001600160a01b0388168b878463ffffffff61857c16565b6040805184815260208101849052815133927f9855e21a2d346668539605f4663dd77f88f589a5ec76575f67cec6ca7dbd0e1b928290030190a250909b909a5098505050505050505050565b3390565b604080516323b872dd60e01b81523360048201523060248201526044810183905290516001600160a01b038416916323b872dd9160648083019260209291908290030181600087803b158015617d6957600080fd5b505af1158015617d7d573d6000803e3d6000fd5b505050506040513d60208110156175ea57600080fd5b600082820183811015613a32576040805162461bcd60e51b815260206004820152601b60248201527f536166654d6174683a206164646974696f6e206f766572666c6f770000000000604482015290519081900360640190fd5b6000836001600160a01b0316632f310bad6040518163ffffffff1660e01b815260040160206040518083038186803b158015617e2857600080fd5b505afa158015617e3c573d6000803e3d6000fd5b505050506040513d6020811015617e5257600080fd5b505160408051632207afe960e11b815290519192506000916001600160a01b0387169163440f5fd2916004808301926020929190829003018186803b158015617e9a57600080fd5b505afa158015617eae573d6000803e3d6000fd5b505050506040513d6020811015617ec457600080fd5b50516006546040805163e6a4390560e01b81526001600160a01b03868116600483015280851660248301529151939450600093919092169163e6a43905916044808301926020929190829003018186803b158015617f2157600080fd5b505afa158015617f35573d6000803e3d6000fd5b505050506040513d6020811015617f4b57600080fd5b505160408051630dfe168160e01b815290519192506000916001600160a01b038086169290851691630dfe168191600480820192602092909190829003018186803b158015617f9957600080fd5b505afa158015617fad573d6000803e3d6000fd5b505050506040513d6020811015617fc357600080fd5b50516001600160a01b031614617fda576000617fdc565b855b90506000836001600160a01b0316836001600160a01b0316630dfe16816040518163ffffffff1660e01b815260040160206040518083038186803b15801561802357600080fd5b505afa158015618037573d6000803e3d6000fd5b505050506040513d602081101561804d57600080fd5b50516001600160a01b0316146180635786618066565b60005b9050826001600160a01b031663022c0d9f8383308a6040518563ffffffff1660e01b815260040180858152602001848152602001836001600160a01b03166001600160a01b0316815260200180602001828103825283818151815260200191508051906020019080838360005b838110156180eb5781810151838201526020016180d3565b50505050905090810190601f1680156181185780820380516001836020036101000a031916815260200191505b5095505050505050600060405180830381600087803b15801561813a57600080fd5b505af115801561814e573d6000803e3d6000fd5b505050505050505050505050565b600080616eba846001600160a01b031662fe19fa6040518163ffffffff1660e01b815260040160206040518083038186803b15801561819a57600080fd5b505afa1580156181ae573d6000803e3d6000fd5b505050506040513d60208110156181c457600080fd5b5051604080516316b2542760e31b81529051612dfa916001600160a01b0389169163b592a13891600480820192602092909190829003018186803b158015616e8157600080fd5b826001600160a01b031663d0e30db0826040518263ffffffff1660e01b81526004016000604051808303818588803b15801561824657600080fd5b505af115801561825a573d6000803e3d6000fd5b50506040805163a9059cbb60e01b81526001600160a01b038781166004830152602482018790529151918816945063a9059cbb935060448082019350602092918290030181600087803b15801561795457600080fd5b600080846001600160a01b031663440f5fd26040518163ffffffff1660e01b815260040160206040518083038186803b1580156182ec57600080fd5b505afa158015618300573d6000803e3d6000fd5b505050506040513d602081101561831657600080fd5b505160408051632f310bad60e01b815290519192506000916001600160a01b03881691632f310bad916004808301926020929190829003018186803b15801561835e57600080fd5b505afa158015618372573d6000803e3d6000fd5b505050506040513d602081101561838857600080fd5b50516006546040805163e6a4390560e01b81526001600160a01b03868116600483015280851660248301529151939450600093919092169163e6a43905916044808301926020929190829003018186803b1580156183e557600080fd5b505afa1580156183f9573d6000803e3d6000fd5b505050506040513d602081101561840f57600080fd5b5051905061842d6001600160a01b038416888863ffffffff6175f016565b60408051633ea6b5f160e21b8152306004820152815160009283926001600160a01b038c169263fa9ad7c49260248084019391929182900301818787803b15801561847757600080fd5b505af115801561848b573d6000803e3d6000fd5b505050506040513d60408110156184a157600080fd5b50805160209091015190925090506000806184bc8b8b615f15565b909250905080156184da576184d7838263ffffffff61890016565b92505b82156184fa576184fa6001600160a01b038716868563ffffffff6175f016565b801561851a5761851a6001600160a01b0387168a8363ffffffff6175f016565b6185346001600160a01b038c168a8c63ffffffff6175f016565b604080518b815260208101849052815133927f48064e0e33062807e98d03fd7a280f08fedf11d022db0be6950169dc70e88411928290030190a2509998505050505050505050565b604080516001600160a01b0380861660248301528416604482015260648082018490528251808303909101815260849091019091526020810180516001600160e01b03166323b872dd60e01b1790526175ea90859061904a565b604080516002808252606080830184526000938493919290602083019080388339019050509050846001600160a01b031663440f5fd26040518163ffffffff1660e01b815260040160206040518083038186803b15801561863657600080fd5b505afa15801561864a573d6000803e3d6000fd5b505050506040513d602081101561866057600080fd5b50518151829060009061866f57fe5b60200260200101906001600160a01b031690816001600160a01b031681525050846001600160a01b0316632f310bad6040518163ffffffff1660e01b815260040160206040518083038186803b1580156186c857600080fd5b505afa1580156186dc573d6000803e3d6000fd5b505050506040513d60208110156186f257600080fd5b505181518290600190811061870357fe5b60200260200101906001600160a01b031690816001600160a01b031681525050600061872f868661815c565b90506000806060896001600160a01b0316631f00ca7489876040518363ffffffff1660e01b81526004018083815260200180602001828103825283818151815260200191508051906020019060200280838360005b8381101561879c578181015183820152602001618784565b50505050905001935050505060006040518083038186803b1580156187c057600080fd5b505afa1580156187d4573d6000803e3d6000fd5b505050506040513d6000823e601f3d908101601f1916820160405260208110156187fd57600080fd5b8101908080516040519392919084600160201b82111561881c57600080fd5b90830190602082018581111561883157600080fd5b82518660208202830111600160201b8211171561884d57600080fd5b82525081516020918201928201910280838360005b8381101561887a578181015183820152602001618862565b50505050905001604052505050905060008160008151811061889857fe5b602002602001015190508085116188b05760006188c0565b6188c0858263ffffffff61890016565b925060008582116188d25760006188e2565b6188e2828763ffffffff61890016565b905080156188ee578094505b50919a92995091975050505050505050565b6000613a3283836040518060400160405280601e81526020017f536166654d6174683a207375627472616374696f6e206f766572666c6f77000081525061919d565b604080516002808252606080830184526000938493919290602083019080388339019050509050846001600160a01b0316632f310bad6040518163ffffffff1660e01b815260040160206040518083038186803b1580156189a257600080fd5b505afa1580156189b6573d6000803e3d6000fd5b505050506040513d60208110156189cc57600080fd5b5051815182906000906189db57fe5b60200260200101906001600160a01b031690816001600160a01b031681525050846001600160a01b031663440f5fd26040518163ffffffff1660e01b815260040160206040518083038186803b158015618a3457600080fd5b505afa158015618a48573d6000803e3d6000fd5b505050506040513d6020811015618a5e57600080fd5b5051815182906001908110618a6f57fe5b60200260200101906001600160a01b031690816001600160a01b0316815250506000618a9b8686616dd3565b90506000806060896001600160a01b0316631f00ca7489876040518363ffffffff1660e01b81526004018083815260200180602001828103825283818151815260200191508051906020019060200280838360005b83811015618b08578181015183820152602001618af0565b50505050905001935050505060006040518083038186803b158015618b2c57600080fd5b505afa158015618b40573d6000803e3d6000fd5b505050506040513d6000823e601f3d908101601f191682016040526020811015618b6957600080fd5b8101908080516040519392919084600160201b821115618b8857600080fd5b908301906020820185811115618b9d57600080fd5b82518660208202830111600160201b82111715618bb957600080fd5b82525081516020918201928201910280838360005b83811015618be6578181015183820152602001618bce565b505050509050016040525050509050600081600081518110618c0457fe5b602002602001015190506000858211618c1e576000618c2e565b618c2e828763ffffffff61890016565b9050818611618c3e576000618c4e565b618c4e868363ffffffff61890016565b93508015618e025760608c6001600160a01b031663d06ca61f838a6040518363ffffffff1660e01b81526004018083815260200180602001828103825283818151815260200191508051906020019060200280838360005b83811015618cbe578181015183820152602001618ca6565b50505050905001935050505060006040518083038186803b158015618ce257600080fd5b505afa158015618cf6573d6000803e3d6000fd5b505050506040513d6000823e601f3d908101601f191682016040526020811015618d1f57600080fd5b8101908080516040519392919084600160201b821115618d3e57600080fd5b908301906020820185811115618d5357600080fd5b82518660208202830111600160201b82111715618d6f57600080fd5b82525081516020918201928201910280838360005b83811015618d9c578181015183820152602001618d84565b505050509050016040525050509050618dfe620186a0612dfa618dde61012d85600181518110618dc857fe5b602002602001015161764790919063ffffffff16565b618df2620186a086600181518110618dc857fe5b9063ffffffff617d9316565b9550505b50929a91995090975050505050505050565b6000836001600160a01b0316632f310bad6040518163ffffffff1660e01b815260040160206040518083038186803b158015618e4f57600080fd5b505afa158015618e63573d6000803e3d6000fd5b505050506040513d6020811015618e7957600080fd5b505160408051632207afe960e11b815290519192506000916001600160a01b0387169163440f5fd2916004808301926020929190829003018186803b158015618ec157600080fd5b505afa158015618ed5573d6000803e3d6000fd5b505050506040513d6020811015618eeb57600080fd5b50516006546040805163e6a4390560e01b81526001600160a01b03868116600483015280851660248301529151939450600093919092169163e6a43905916044808301926020929190829003018186803b158015618f4857600080fd5b505afa158015618f5c573d6000803e3d6000fd5b505050506040513d6020811015618f7257600080fd5b505160408051630dfe168160e01b815290519192506000916001600160a01b038087169290851691630dfe168191600480820192602092909190829003018186803b158015618fc057600080fd5b505afa158015618fd4573d6000803e3d6000fd5b505050506040513d6020811015618fea57600080fd5b50516001600160a01b031614619001576000619003565b855b90506000846001600160a01b0316836001600160a01b0316630dfe16816040518163ffffffff1660e01b815260040160206040518083038186803b15801561802357600080fd5b606061909f826040518060400160405280602081526020017f5361666545524332303a206c6f772d6c6576656c2063616c6c206661696c6564815250856001600160a01b03166191f79092919063ffffffff16565b805190915015617642578080602001905160208110156190be57600080fd5b50516176425760405162461bcd60e51b815260040180806020018281038252602a815260200180619505602a913960400191505060405180910390fd5b600081836191875760405162461bcd60e51b81526004018080602001828103825283818151815260200191508051906020019080838360005b8381101561914c578181015183820152602001619134565b50505050905090810190601f1680156191795780820380516001836020036101000a031916815260200191505b509250505060405180910390fd5b50600083858161919357fe5b0495945050505050565b600081848411156191ef5760405162461bcd60e51b815260206004820181815283516024840152835190928392604490910191908501908083836000831561914c578181015183820152602001619134565b505050900390565b6060613a2f84846000858561920b8561931d565b61925c576040805162461bcd60e51b815260206004820152601d60248201527f416464726573733a2063616c6c20746f206e6f6e2d636f6e7472616374000000604482015290519081900360640190fd5b60006060866001600160a01b031685876040518082805190602001908083835b6020831061929b5780518252601f19909201916020918201910161927c565b6001836020036101000a03801982511681845116808217855250505050505090500191505060006040518083038185875af1925050503d80600081146192fd576040519150601f19603f3d011682016040523d82523d6000602084013e619302565b606091505b5091509150619312828286619323565b979650505050505050565b3b151590565b60608315619332575081613a32565b8251156193425782518084602001fd5b60405162461bcd60e51b815260206004820181815284516024840152845185939192839260440191908501908083836000831561914c578181015183820152602001619134565b6040805160208101909152600081529056fe5265656e7472616e637947756172643a207265656e7472616e742063616c6c004f776e61626c653a206e6577206f776e657220697320746865207a65726f2061646472657373666c617368436c6f73654c6f6e674f7074696f6e735468656e5377617028616464726573732c75696e743235362c75696e743235362c6164647265737329556e697377617056656e75653a2053484f52545f4f5054494f4e535f494e505554666c6173684d696e7453686f72744f7074696f6e735468656e5377617028616464726573732c75696e743235362c75696e743235362c6164647265737329536166654d6174683a206d756c7469706c69636174696f6e206f766572666c6f77666c6173684d696e7453686f72744f7074696f6e735468656e537761705769746845544828616464726573732c75696e743235362c75696e743235362c6164647265737329556e697377617056656e75653a2041525241595f4c454e4754485300000000005361666545524332303a204552433230206f7065726174696f6e20646964206e6f7420737563636565646164644c697175696469747928616464726573732c616464726573732c75696e743235362c75696e743235362c75696e743235362c75696e743235362c616464726573732c75696e7432353629666c617368436c6f73654c6f6e674f7074696f6e735468656e53776170466f7245544828616464726573732c75696e743235362c75696e743235362c6164647265737329a26469706673582212207257c4f35b0297c2a302df1c0d8c2ec9a3f30f872a31bccca8e67dca0c075f1d64736f6c63430006020033",
  "linkReferences": {},
  "deployedLinkReferences": {}
}