{
  "_format": "hh-sol-artifact-1",
  "contractName": "SushiSwapVenueTest",
  "sourceName": "contracts/test/SushiSwapVenueTest.sol",
  "abi": [
    {
      "inputs": [
        {
          "internalType": "address",
          "name": "weth_",
          "type": "address"
        },
        {
          "internalType": "address",
          "name": "house_",
          "type": "address"
        },
        {
          "internalType": "address",
          "name": "capitol_",
          "type": "address"
        },
        {
          "internalType": "address",
          "name": "router_",
          "type": "address"
        },
        {
          "internalType": "address",
          "name": "factory_",
          "type": "address"
        }
      ],
      "stateMutability": "nonpayable",
      "type": "constructor"
    },
    {
      "anonymous": false,
      "inputs": [
        {
          "indexed": true,
          "internalType": "address",
          "name": "from",
          "type": "address"
        }
      ],
      "name": "Initialized",
      "type": "event"
    },
    {
      "inputs": [
        {
          "internalType": "address",
          "name": "optionAddress",
          "type": "address"
        },
        {
          "internalType": "uint256",
          "name": "quantityOptions",
          "type": "uint256"
        },
        {
          "internalType": "uint256",
          "name": "amountBMax",
          "type": "uint256"
        },
        {
          "internalType": "uint256",
          "name": "amountBMin",
          "type": "uint256"
        },
        {
          "internalType": "address",
          "name": "to",
          "type": "address"
        },
        {
          "internalType": "uint256",
          "name": "deadline",
          "type": "uint256"
        }
      ],
      "name": "addShortLiquidityWithUnderlying",
      "outputs": [
        {
          "internalType": "uint256",
          "name": "",
          "type": "uint256"
        },
        {
          "internalType": "uint256",
          "name": "",
          "type": "uint256"
        },
        {
          "internalType": "uint256",
          "name": "",
          "type": "uint256"
        }
      ],
      "stateMutability": "payable",
      "type": "function"
    },
    {
      "inputs": [],
      "name": "capitol",
      "outputs": [
        {
          "internalType": "contract ICapitol",
          "name": "",
          "type": "address"
        }
      ],
      "stateMutability": "view",
      "type": "function"
    },
    {
      "inputs": [
        {
          "internalType": "address",
          "name": "token",
          "type": "address"
        },
        {
          "internalType": "address",
          "name": "spender",
          "type": "address"
        }
      ],
      "name": "checkApproved",
      "outputs": [],
      "stateMutability": "nonpayable",
      "type": "function"
    },
    {
      "inputs": [
        {
          "internalType": "address[]",
          "name": "options",
          "type": "address[]"
        },
        {
          "internalType": "uint256[]",
          "name": "maxAmounts",
          "type": "uint256[]"
        },
        {
          "internalType": "uint256[]",
          "name": "minAmounts",
          "type": "uint256[]"
        },
        {
          "internalType": "address",
          "name": "receiver",
          "type": "address"
        },
        {
          "internalType": "uint256",
          "name": "deadline",
          "type": "uint256"
        }
      ],
      "name": "deposit",
      "outputs": [
        {
          "internalType": "uint256",
          "name": "",
          "type": "uint256"
        }
      ],
      "stateMutability": "nonpayable",
      "type": "function"
    },
    {
      "inputs": [],
      "name": "factory",
      "outputs": [
        {
          "internalType": "contract IUniswapV2Factory",
          "name": "",
          "type": "address"
        }
      ],
      "stateMutability": "view",
      "type": "function"
    },
    {
      "inputs": [
        {
          "internalType": "address",
          "name": "option",
          "type": "address"
        }
      ],
      "name": "getApprovedPool",
      "outputs": [
        {
          "internalType": "address",
          "name": "",
          "type": "address"
        }
      ],
      "stateMutability": "nonpayable",
      "type": "function"
    },
    {
      "inputs": [],
      "name": "getIsEndorsed",
      "outputs": [
        {
          "internalType": "bool",
          "name": "",
          "type": "bool"
        }
      ],
      "stateMutability": "view",
      "type": "function"
    },
    {
      "inputs": [],
      "name": "getName",
      "outputs": [
        {
          "internalType": "string",
          "name": "",
          "type": "string"
        }
      ],
      "stateMutability": "view",
      "type": "function"
    },
    {
      "inputs": [],
      "name": "getVersion",
      "outputs": [
        {
          "internalType": "string",
          "name": "",
          "type": "string"
        }
      ],
      "stateMutability": "view",
      "type": "function"
    },
    {
      "inputs": [],
      "name": "house",
      "outputs": [
        {
          "internalType": "contract IHouse",
          "name": "",
          "type": "address"
        }
      ],
      "stateMutability": "view",
      "type": "function"
    },
    {
      "inputs": [
        {
          "internalType": "address",
          "name": "",
          "type": "address"
        },
        {
          "internalType": "address",
          "name": "",
          "type": "address"
        }
      ],
      "name": "isMaxApproved",
      "outputs": [
        {
          "internalType": "bool",
          "name": "",
          "type": "bool"
        }
      ],
      "stateMutability": "view",
      "type": "function"
    },
    {
      "inputs": [
        {
          "internalType": "address",
          "name": "option",
          "type": "address"
        }
      ],
      "name": "pool",
      "outputs": [
        {
          "internalType": "address",
          "name": "",
          "type": "address"
        }
      ],
      "stateMutability": "view",
      "type": "function"
    },
    {
      "inputs": [],
      "name": "router",
      "outputs": [
        {
          "internalType": "contract IUniswapV2Router02",
          "name": "",
          "type": "address"
        }
      ],
      "stateMutability": "view",
      "type": "function"
    },
    {
      "inputs": [],
      "name": "weth",
      "outputs": [
        {
          "internalType": "contract IWETH",
          "name": "",
          "type": "address"
        }
      ],
      "stateMutability": "view",
      "type": "function"
    },
    {
      "inputs": [
        {
          "internalType": "address[]",
          "name": "options",
          "type": "address[]"
        },
        {
          "internalType": "uint256[]",
          "name": "quantities",
          "type": "uint256[]"
        },
        {
          "internalType": "uint256[]",
          "name": "minAmounts",
          "type": "uint256[]"
        },
        {
          "internalType": "address",
          "name": "receiver",
          "type": "address"
        },
        {
          "internalType": "uint256",
          "name": "deadline",
          "type": "uint256"
        }
      ],
      "name": "withdraw",
      "outputs": [
        {
          "internalType": "uint256",
          "name": "",
          "type": "uint256"
        }
      ],
      "stateMutability": "nonpayable",
      "type": "function"
    },
    {
      "stateMutability": "payable",
      "type": "receive"
    }
  ],
  "bytecode": "0x6080604052600380546001600160a01b0319908116735c69bee701ef814a2b6a3edd4b1652cb9cc5aa6f1790915560048054909116737a250d5630b4cf539739df2c5dacb4c659f2488d1790553480156200005957600080fd5b5060405162002baa38038062002baa833981810160405260a08110156200007f57600080fd5b508051602082015160408301516060840151608090940151600080546001600160a01b038087166001600160a01b0319928316179092556001805492861692909116919091179055929391929091908484848282620000e882826001600160e01b036200018116565b5050600180546001600160a01b038085166001600160a01b031992831617909255600580549284169290911691909117905560405133907f908408e307fc569b417f6cbec5d5a06f44a0a505ac0479b47d421a4b2fd6a1e690600090a25050600380546001600160a01b039384166001600160a01b03199182161790915560048054949093169316929092179055506200026e92505050565b6001600160a01b0380831660009081526002602090815260408083209385168352929052205460ff1615620001b6576200026a565b6040805163095ea7b360e01b81526001600160a01b038381166004830152600019602483015291519184169163095ea7b3916044808201926020929091908290030181600087803b1580156200020b57600080fd5b505af115801562000220573d6000803e3d6000fd5b505050506040513d60208110156200023757600080fd5b50506001600160a01b038083166000908152600260209081526040808320938516835292905220805460ff191660011790555b5050565b61292c806200027e6000396000f3fe6080604052600436106100eb5760003560e01c806358db2a521161008a578063c45a015511610059578063c45a0155146106b0578063d4bd76f0146106c5578063f887ea4014610700578063ff9b3acf1461071557610106565b806358db2a52146102c25780637bb03902146102eb578063969503621461031e578063a5d3034b146104f057610106565b806317d7de7c116100c657806317d7de7c146101f95780631f33b9251461020e5780632e16cab3146102495780633fc8cef3146102ad57610106565b8062cbf5911461010b5780630d8e6e2c1461013c578063156522a8146101c657610106565b36610106576000546001600160a01b0316331461010457fe5b005b600080fd5b34801561011757600080fd5b5061012061072a565b604080516001600160a01b039092168252519081900360200190f35b34801561014857600080fd5b50610151610739565b6040805160208082528351818301528351919283929083019185019080838360005b8381101561018b578181015183820152602001610173565b50505050905090810190601f1680156101b85780820380516001836020036101000a031916815260200191505b509250505060405180910390f35b3480156101d257600080fd5b50610120600480360360208110156101e957600080fd5b50356001600160a01b0316610926565b34801561020557600080fd5b50610151610a90565b34801561021a57600080fd5b506101046004803603604081101561023157600080fd5b506001600160a01b0381358116916020013516610c7d565b61028f600480360360c081101561025f57600080fd5b506001600160a01b0381358116916020810135916040820135916060810135916080820135169060a00135610d65565b60408051938452602084019290925282820152519081900360600190f35b3480156102b957600080fd5b50610120610e85565b3480156102ce57600080fd5b506102d7610e94565b604080519115158252519081900360200190f35b3480156102f757600080fd5b506101206004803603602081101561030e57600080fd5b50356001600160a01b0316610f10565b34801561032a57600080fd5b506104de600480360360a081101561034157600080fd5b810190602081018135600160201b81111561035b57600080fd5b82018360208201111561036d57600080fd5b803590602001918460208302840111600160201b8311171561038e57600080fd5b9190808060200260200160405190810160405280939291908181526020018383602002808284376000920191909152509295949360208101935035915050600160201b8111156103dd57600080fd5b8201836020820111156103ef57600080fd5b803590602001918460208302840111600160201b8311171561041057600080fd5b9190808060200260200160405190810160405280939291908181526020018383602002808284376000920191909152509295949360208101935035915050600160201b81111561045f57600080fd5b82018360208201111561047157600080fd5b803590602001918460208302840111600160201b8311171561049257600080fd5b919080806020026020016040519081016040528093929190818152602001838360200280828437600092019190915250929550506001600160a01b0383351693505050602001356110c1565b60408051918252519081900360200190f35b3480156104fc57600080fd5b506104de600480360360a081101561051357600080fd5b810190602081018135600160201b81111561052d57600080fd5b82018360208201111561053f57600080fd5b803590602001918460208302840111600160201b8311171561056057600080fd5b9190808060200260200160405190810160405280939291908181526020018383602002808284376000920191909152509295949360208101935035915050600160201b8111156105af57600080fd5b8201836020820111156105c157600080fd5b803590602001918460208302840111600160201b831117156105e257600080fd5b9190808060200260200160405190810160405280939291908181526020018383602002808284376000920191909152509295949360208101935035915050600160201b81111561063157600080fd5b82018360208201111561064357600080fd5b803590602001918460208302840111600160201b8311171561066457600080fd5b919080806020026020016040519081016040528093929190818152602001838360200280828437600092019190915250929550506001600160a01b0383351693505050602001356113ae565b3480156106bc57600080fd5b50610120611590565b3480156106d157600080fd5b506102d7600480360360408110156106e857600080fd5b506001600160a01b038135811691602001351661159f565b34801561070c57600080fd5b506101206115bf565b34801561072157600080fd5b506101206115ce565b6005546001600160a01b031681565b6005546040805163881daaa560e01b8152306004820152905160609283926001600160a01b039091169163881daaa591602480820192600092909190829003018186803b15801561078957600080fd5b505afa15801561079d573d6000803e3d6000fd5b505050506040513d6000823e601f3d908101601f1916820160405260608110156107c657600080fd5b8101908080516040519392919084600160201b8211156107e557600080fd5b9083019060208201858111156107fa57600080fd5b8251600160201b81118282018810171561081357600080fd5b82525081516020918201929091019080838360005b83811015610840578181015183820152602001610828565b50505050905090810190601f16801561086d5780820380516001836020036101000a031916815260200191505b5060405260200180516040519392919084600160201b82111561088f57600080fd5b9083019060208201858111156108a457600080fd5b8251600160201b8111828201881017156108bd57600080fd5b82525081516020918201929091019080838360005b838110156108ea5781810151838201526020016108d2565b50505050905090810190601f1680156109175780820380516001836020036101000a031916815260200191505b50604052509194505050505090565b600080826001600160a01b031663440f5fd26040518163ffffffff1660e01b815260040160206040518083038186803b15801561096257600080fd5b505afa158015610976573d6000803e3d6000fd5b505050506040513d602081101561098c57600080fd5b505160408051632f310bad60e01b815290519192506000916001600160a01b03861691632f310bad916004808301926020929190829003018186803b1580156109d457600080fd5b505afa1580156109e8573d6000803e3d6000fd5b505050506040513d60208110156109fe57600080fd5b50516003546040805163e6a4390560e01b81526001600160a01b03868116600483015280851660248301529151939450600093919092169163e6a43905916044808301926020929190829003018186803b158015610a5b57600080fd5b505afa158015610a6f573d6000803e3d6000fd5b505050506040513d6020811015610a8557600080fd5b505195945050505050565b6005546040805163881daaa560e01b8152306004820152905160609283926001600160a01b039091169163881daaa591602480820192600092909190829003018186803b158015610ae057600080fd5b505afa158015610af4573d6000803e3d6000fd5b505050506040513d6000823e601f3d908101601f191682016040526060811015610b1d57600080fd5b8101908080516040519392919084600160201b821115610b3c57600080fd5b908301906020820185811115610b5157600080fd5b8251600160201b811182820188101715610b6a57600080fd5b82525081516020918201929091019080838360005b83811015610b97578181015183820152602001610b7f565b50505050905090810190601f168015610bc45780820380516001836020036101000a031916815260200191505b5060405260200180516040519392919084600160201b821115610be657600080fd5b908301906020820185811115610bfb57600080fd5b8251600160201b811182820188101715610c1457600080fd5b82525081516020918201929091019080838360005b83811015610c41578181015183820152602001610c29565b50505050905090810190601f168015610c6e5780820380516001836020036101000a031916815260200191505b50604052509294505050505090565b6001600160a01b0380831660009081526002602090815260408083209385168352929052205460ff1615610cb057610d61565b6040805163095ea7b360e01b81526001600160a01b038381166004830152600019602483015291519184169163095ea7b3916044808201926020929091908290030181600087803b158015610d0457600080fd5b505af1158015610d18573d6000803e3d6000fd5b505050506040513d6020811015610d2e57600080fd5b50506001600160a01b038083166000908152600260209081526040808320938516835292905220805460ff191660011790555b5050565b600080600080610d748a610926565b9050610d7e61288c565b60405180608001604052808b81526020018a81526020018981526020018781525090506000806000610db08e856115dd565b925092509250610dc08582611973565b610e2d8e6001600160a01b031663440f5fd26040518163ffffffff1660e01b815260040160206040518083038186803b158015610dfc57600080fd5b505afa158015610e10573d6000803e3d6000fd5b505050506040513d6020811015610e2657600080fd5b5051611a09565b610e698e6001600160a01b0316632f310bad6040518163ffffffff1660e01b815260040160206040518083038186803b158015610dfc57600080fd5b610e71611b88565b919d909c50909a5098505050505050505050565b6000546001600160a01b031681565b60055460408051637da56fa360e01b815230600482015290516000926001600160a01b031691637da56fa3916024808301926020929190829003018186803b158015610edf57600080fd5b505afa158015610ef3573d6000803e3d6000fd5b505050506040513d6020811015610f0957600080fd5b5051905090565b600080826001600160a01b031663440f5fd26040518163ffffffff1660e01b815260040160206040518083038186803b158015610f4c57600080fd5b505afa158015610f60573d6000803e3d6000fd5b505050506040513d6020811015610f7657600080fd5b505160408051632f310bad60e01b815290519192506000916001600160a01b03861691632f310bad916004808301926020929190829003018186803b158015610fbe57600080fd5b505afa158015610fd2573d6000803e3d6000fd5b505050506040513d6020811015610fe857600080fd5b50516003546040805163e6a4390560e01b81526001600160a01b03868116600483015280851660248301529151939450600093919092169163e6a43905916044808301926020929190829003018186803b15801561104557600080fd5b505afa158015611059573d6000803e3d6000fd5b505050506040513d602081101561106f57600080fd5b505160045490915061108b9084906001600160a01b0316610c7d565b6004546110a29083906001600160a01b0316610c7d565b6004546110b99082906001600160a01b0316610c7d565b949350505050565b84518451845160009291906110dd82600263ffffffff611de316565b831480156110ea57508082145b61113b576040805162461bcd60e51b815260206004820152601b60248201527f556e697377617056656e75653a2041525241595f4c454e475448530000000000604482015290519081900360640190fd5b606083604051908082528060200260200182016040528015611167578160200160208202803883390190505b509050606084604051908082528060200260200182016040528015611196578160200160208202803883390190505b50905060005b8581101561138a5760008c82815181106111b257fe5b6020026020010151905060006111c782610926565b905060008d84815181106111d757fe5b6020026020010151905060008e85600101815181106111f257fe5b6020026020010151905060006112088584611e2e565b90508e868151811061121657fe5b6020026020010151811461125b5760405162461bcd60e51b81526004018080602001828103825260218152602001806128b56021913960400191505060405180910390fd5b60008f876001018151811061126c57fe5b6020026020010151905061127e61288c565b604051806080016040528086815260200185815260200183815260200142815250905060008060006112b08a856115dd565b925092509250808d8c815181106112c357fe5b602002602001018181525050888c8c815181106112dc57fe5b60200260200101906001600160a01b031690816001600160a01b0316815250506113388a6001600160a01b031663440f5fd26040518163ffffffff1660e01b815260040160206040518083038186803b158015610dfc57600080fd5b6113748a6001600160a01b0316632f310bad6040518163ffffffff1660e01b815260040160206040518083038186803b158015610dfc57600080fd5b50506001909801975061119c9650505050505050565b506113958183611f21565b61139d611b88565b5060019a9950505050505050505050565b845184518451600092919081831480156113d757506113d481600263ffffffff611de316565b82145b611428576040805162461bcd60e51b815260206004820152601b60248201527f556e697377617056656e75653a2041525241595f4c454e475448530000000000604482015290519081900360640190fd5b606083604051908082528060200260200182016040528015611454578160200160208202803883390190505b50905060005b848110156114b65760008b828151811061147057fe5b60200260200101519050600061148582610926565b90508084848151811061149457fe5b6001600160a01b0390921660209283029190910190910152505060010161145a565b506114c1818a61206c565b60005b8481101561139d5760008b82815181106114da57fe5b6020026020010151905060008b83815181106114f257fe5b6020026020010151905060008b848151811061150a57fe5b6020026020010151905060008c856001018151811061152557fe5b60200260200101519050600086868151811061153d57fe5b6020026020010151905061154f61288c565b60405180608001604052808681526020018581526020018481526020018e815250905061157c86826120b9565b5050600190960195506114c4945050505050565b6003546001600160a01b031681565b600260209081526000928352604080842090915290825290205460ff1681565b6004546001600160a01b031681565b6001546001600160a01b031681565b600080600080856001600160a01b031663440f5fd26040518163ffffffff1660e01b815260040160206040518083038186803b15801561161c57600080fd5b505afa158015611630573d6000803e3d6000fd5b505050506040513d602081101561164657600080fd5b505160408051632f310bad60e01b815290519192506000916001600160a01b03891691632f310bad916004808301926020929190829003018186803b15801561168e57600080fd5b505afa1580156116a2573d6000803e3d6000fd5b505050506040513d60208110156116b857600080fd5b505190506116c46124fa565b6116d48787600001513030612561565b6116e28287602001516125ea565b60006116f2888860000151611e2e565b905060006116ff89610f10565b604080516370a0823160e01b815230600482015290519192506001600160a01b038516916370a0823191602480820192602092909190829003018186803b15801561174957600080fd5b505afa15801561175d573d6000803e3d6000fd5b505050506040513d602081101561177357600080fd5b505182146117c1576040805162461bcd60e51b815260206004820152601660248201527556656e75653a2053484f52545f494d42414c414e434560501b604482015290519081900360640190fd5b60048054604080516370a0823160e01b81523093810193909352516001600160a01b039182169263e8e337009287928992918416916370a08231916024808301926020929190829003018186803b15801561181b57600080fd5b505afa15801561182f573d6000803e3d6000fd5b505050506040513d602081101561184557600080fd5b5051604080516370a0823160e01b815230600482015290516001600160a01b038b16916370a08231916024808301926020929190829003018186803b15801561188d57600080fd5b505afa1580156118a1573d6000803e3d6000fd5b505050506040513d60208110156118b757600080fd5b50516040808f015181516001600160e01b031960e089901b1681526001600160a01b039687166004820152949095166024850152604484019290925260648301526084820187905260a48201929092523060c48201524260e482015290516101048083019260609291908290030181600087803b15801561193757600080fd5b505af115801561194b573d6000803e3d6000fd5b505050506040513d606081101561196157600080fd5b50969995985093965093945050505050565b6040805160018082528183019092526060916020808301908038833901905050905082816000815181106119a357fe5b6001600160a01b039092166020928302919091019091015260408051600180825281830190925260609181602001602082028038833901905050905082816000815181106119ed57fe5b602002602001018181525050611a038282611f21565b50505050565b604080516370a0823160e01b815230600482015290516000916001600160a01b038416916370a0823191602480820192602092909190829003018186803b158015611a5357600080fd5b505afa158015611a67573d6000803e3d6000fd5b505050506040513d6020811015611a7d57600080fd5b505190508015610d6157816001600160a01b031663a9059cbb600160009054906101000a90046001600160a01b03166001600160a01b031663863dabb46040518163ffffffff1660e01b815260040160206040518083038186803b158015611ae457600080fd5b505afa158015611af8573d6000803e3d6000fd5b505050506040513d6020811015611b0e57600080fd5b5051604080516001600160e01b031960e085901b1681526001600160a01b039092166004830152602482018590525160448083019260209291908290030181600087803b158015611b5e57600080fd5b505af1158015611b72573d6000803e3d6000fd5b505050506040513d6020811015611a0357600080fd5b60008054604080516370a0823160e01b815230600482015290516001600160a01b03909216916370a0823191602480820192602092909190829003018186803b158015611bd457600080fd5b505afa158015611be8573d6000803e3d6000fd5b505050506040513d6020811015611bfe57600080fd5b505190508015611de0576000805460408051632e1a7d4d60e01b81526004810185905290516001600160a01b0390921692632e1a7d4d9260248084019382900301818387803b158015611c5057600080fd5b505af1158015611c64573d6000803e3d6000fd5b505050506000600160009054906101000a90046001600160a01b03166001600160a01b031663863dabb46040518163ffffffff1660e01b815260040160206040518083038186803b158015611cb857600080fd5b505afa158015611ccc573d6000803e3d6000fd5b505050506040513d6020811015611ce257600080fd5b50516040805160008152602081019182905280516001600160a01b0390931692859290819081908082805b60208310611d2c5780518252601f199092019160209182019101611d0d565b6001836020036101000a03801982511681845116808217855250505050505090500191505060006040518083038185875af1925050503d8060008114611d8e576040519150601f19603f3d011682016040523d82523d6000602084013e611d93565b606091505b5050905080610d61576040805162461bcd60e51b815260206004820152601460248201527356656e75653a2053454e445f4554485f4241434b60601b604482015290519081900360640190fd5b50565b6000611e2583836040518060400160405280601a81526020017f536166654d6174683a206469766973696f6e206279207a65726f000000000000815250612661565b90505b92915050565b6000806110b9846001600160a01b031663b592a1386040518163ffffffff1660e01b815260040160206040518083038186803b158015611e6d57600080fd5b505afa158015611e81573d6000803e3d6000fd5b505050506040513d6020811015611e9757600080fd5b505160408051627f0cfd60e11b81529051611f15916001600160a01b0389169162fe19fa91600480820192602092909190829003018186803b158015611edc57600080fd5b505afa158015611ef0573d6000803e3d6000fd5b505050506040513d6020811015611f0657600080fd5b5051869063ffffffff61270316565b9063ffffffff611de316565b6001546040805163218f6aed60e21b815290516001600160a01b039092169163a13aaded91839163863dabb491600480820192602092909190829003018186803b158015611f6e57600080fd5b505afa158015611f82573d6000803e3d6000fd5b505050506040513d6020811015611f9857600080fd5b50516040516001600160e01b031960e084901b1681526001600160a01b038216600482019081526060602483019081528751606484015287518893889392916044820191608401906020878101910280838360005b83811015612005578181015183820152602001611fed565b50505050905001838103825284818151815260200191508051906020019060200280838360005b8381101561204457818101518382015260200161202c565b5050505090500195505050505050602060405180830381600087803b158015611b5e57600080fd5b6001546040805163218f6aed60e21b815290516001600160a01b0390921691634cec9ce391839163863dabb491600480820192602092909190829003018186803b158015611f6e57600080fd5b60008060006120c785610f10565b905060008590506000816001600160a01b0316632f310bad6040518163ffffffff1660e01b815260040160206040518083038186803b15801561210957600080fd5b505afa15801561211d573d6000803e3d6000fd5b505050506040513d602081101561213357600080fd5b505160408051632207afe960e11b815290519192506000916001600160a01b0385169163440f5fd2916004808301926020929190829003018186803b15801561217b57600080fd5b505afa15801561218f573d6000803e3d6000fd5b505050506040513d60208110156121a557600080fd5b505160208801516040808a01518a51600480548451635d5155ef60e11b81526001600160a01b038a81169382019390935282881660248201526044810184905260648101879052608481018590523060a48201524260c482015285519798509596939592946000948594939092169263baa2abde9260e4808301939282900301818787803b15801561223657600080fd5b505af115801561224a573d6000803e3d6000fd5b505050506040513d604081101561226057600080fd5b5080516020909101519092509050600061227a898461275c565b90506122878e823061280b565b604080516370a0823160e01b815230600482015290516000916001600160a01b038a16916370a0823191602480820192602092909190829003018186803b1580156122d157600080fd5b505afa1580156122e5573d6000803e3d6000fd5b505050506040513d60208110156122fb57600080fd5b5051604080516370a0823160e01b815230600482015290519192506000916001600160a01b038c16916370a08231916024808301926020929190829003018186803b15801561234957600080fd5b505afa15801561235d573d6000803e3d6000fd5b505050506040513d602081101561237357600080fd5b50519050838210156123c4576040805162461bcd60e51b815260206004820152601560248201527415995b9d594e8815539111549316525391d7d05355605a1b604482015290519081900360640190fd5b8481101561240c576040805162461bcd60e51b815260206004820152601060248201526f15995b9d594e8814d213d49517d0535560821b604482015290519081900360640190fd5b604080516370a0823160e01b8152306004820152905187916001600160a01b038f16916370a0823191602480820192602092909190829003018186803b15801561245557600080fd5b505afa158015612469573d6000803e3d6000fd5b505050506040513d602081101561247f57600080fd5b505110156124cb576040805162461bcd60e51b815260206004820152601460248201527315995b9d594e8813125455525112551657d0535560621b604482015290519081900360640190fd5b6124d48c611a09565b6124dd89611a09565b6124e5611b88565b909f909e509c50505050505050505050505050565b341561255f576000805460408051630d0e30db60e41b815290516001600160a01b039092169263d0e30db0923492600480820193929182900301818588803b15801561254557600080fd5b505af1158015612559573d6000803e3d6000fd5b50505050505b565b8215611a03576001546040805163024dade560e41b81526001600160a01b0387811660048301526024820187905285811660448301528481166064830152915191909216916324dade5091608480830192600092919082900301818387803b1580156125cc57600080fd5b505af11580156125e0573d6000803e3d6000fd5b5050505050505050565b8015610d6157600154604080516357d4d5b760e01b81526001600160a01b03858116600483015260248201859052915191909216916357d4d5b791604480830192600092919082900301818387803b15801561264557600080fd5b505af1158015612659573d6000803e3d6000fd5b505050505050565b600081836126ed5760405162461bcd60e51b81526004018080602001828103825283818151815260200191508051906020019080838360005b838110156126b257818101518382015260200161269a565b50505050905090810190601f1680156126df5780820380516001836020036101000a031916815260200191505b509250505060405180910390fd5b5060008385816126f957fe5b0495945050505050565b60008261271257506000611e28565b8282028284828161271f57fe5b0414611e255760405162461bcd60e51b81526004018080602001828103825260218152602001806128d66021913960400191505060405180910390fd5b6000806110b9846001600160a01b031662fe19fa6040518163ffffffff1660e01b815260040160206040518083038186803b15801561279a57600080fd5b505afa1580156127ae573d6000803e3d6000fd5b505050506040513d60208110156127c457600080fd5b5051604080516316b2542760e31b81529051611f15916001600160a01b0389169163b592a13891600480820192602092909190829003018186803b158015611edc57600080fd5b8115612887576001546040805163ae81cd2760e01b81526001600160a01b0386811660048301526024820186905284811660448301529151919092169163ae81cd2791606480830192600092919082900301818387803b15801561286e57600080fd5b505af1158015612882573d6000803e3d6000fd5b505050505b505050565b604051806080016040528060008152602001600081526020016000815260200160008152509056fe556e697377617056656e75653a2053484f52545f4f5054494f4e535f494e505554536166654d6174683a206d756c7469706c69636174696f6e206f766572666c6f77a26469706673582212200bf466cbd6921b736476792a09c5b1593af6de56b901cf4f128a82a0d3fa967464736f6c63430006020033",
  "linkReferences": {},
  "deployedLinkReferences": {}
}