{
  "_format": "hh-sol-artifact-1",
  "contractName": "House",
  "sourceName": "contracts/House.sol",
  "abi": [
    {
      "inputs": [
        {
          "internalType": "address",
          "name": "weth_",
          "type": "address"
        },
        {
          "internalType": "address",
          "name": "registry_",
          "type": "address"
        },
        {
          "internalType": "address",
          "name": "energy_",
          "type": "address"
        },
        {
          "internalType": "address",
          "name": "capitol_",
          "type": "address"
        }
      ],
      "stateMutability": "nonpayable",
      "type": "constructor"
    },
    {
      "anonymous": false,
      "inputs": [
        {
          "indexed": true,
          "internalType": "address",
          "name": "from",
          "type": "address"
        },
        {
          "indexed": true,
          "internalType": "address",
          "name": "optionToken",
          "type": "address"
        },
        {
          "indexed": false,
          "internalType": "uint256",
          "name": "quantity",
          "type": "uint256"
        }
      ],
      "name": "Closed",
      "type": "event"
    },
    {
      "anonymous": false,
      "inputs": [
        {
          "indexed": true,
          "internalType": "address",
          "name": "depositor",
          "type": "address"
        },
        {
          "indexed": true,
          "internalType": "address[]",
          "name": "tokens",
          "type": "address[]"
        },
        {
          "indexed": false,
          "internalType": "uint256[]",
          "name": "amounts",
          "type": "uint256[]"
        }
      ],
      "name": "CollateralDeposited",
      "type": "event"
    },
    {
      "anonymous": false,
      "inputs": [
        {
          "indexed": true,
          "internalType": "address",
          "name": "depositor",
          "type": "address"
        },
        {
          "indexed": true,
          "internalType": "address[]",
          "name": "tokens",
          "type": "address[]"
        },
        {
          "indexed": false,
          "internalType": "uint256[]",
          "name": "amounts",
          "type": "uint256[]"
        }
      ],
      "name": "CollateralWithdrawn",
      "type": "event"
    },
    {
      "anonymous": false,
      "inputs": [
        {
          "indexed": true,
          "internalType": "address",
          "name": "from",
          "type": "address"
        },
        {
          "indexed": true,
          "internalType": "address",
          "name": "optionAddress",
          "type": "address"
        },
        {
          "indexed": false,
          "internalType": "uint256",
          "name": "liquidity",
          "type": "uint256"
        }
      ],
      "name": "Deleveraged",
      "type": "event"
    },
    {
      "anonymous": false,
      "inputs": [
        {
          "indexed": true,
          "internalType": "address",
          "name": "from",
          "type": "address"
        },
        {
          "indexed": true,
          "internalType": "address",
          "name": "optionToken",
          "type": "address"
        },
        {
          "indexed": false,
          "internalType": "uint256",
          "name": "quantity",
          "type": "uint256"
        }
      ],
      "name": "Exercised",
      "type": "event"
    },
    {
      "anonymous": false,
      "inputs": [
        {
          "indexed": true,
          "internalType": "address",
          "name": "depositor",
          "type": "address"
        },
        {
          "indexed": true,
          "internalType": "address",
          "name": "optionAddress",
          "type": "address"
        },
        {
          "indexed": true,
          "internalType": "address",
          "name": "pool",
          "type": "address"
        },
        {
          "indexed": false,
          "internalType": "uint256",
          "name": "quantity",
          "type": "uint256"
        }
      ],
      "name": "Leveraged",
      "type": "event"
    },
    {
      "anonymous": false,
      "inputs": [
        {
          "indexed": true,
          "internalType": "address",
          "name": "from",
          "type": "address"
        },
        {
          "indexed": true,
          "internalType": "address",
          "name": "optionToken",
          "type": "address"
        },
        {
          "indexed": false,
          "internalType": "uint256",
          "name": "longQuantity",
          "type": "uint256"
        },
        {
          "indexed": false,
          "internalType": "uint256",
          "name": "shortQuantity",
          "type": "uint256"
        }
      ],
      "name": "Minted",
      "type": "event"
    },
    {
      "anonymous": false,
      "inputs": [
        {
          "indexed": true,
          "internalType": "address",
          "name": "from",
          "type": "address"
        },
        {
          "indexed": true,
          "internalType": "address",
          "name": "longOption",
          "type": "address"
        },
        {
          "indexed": true,
          "internalType": "address",
          "name": "shortOption",
          "type": "address"
        },
        {
          "indexed": false,
          "internalType": "uint256",
          "name": "quantity",
          "type": "uint256"
        }
      ],
      "name": "OpenedDebitSpread",
      "type": "event"
    },
    {
      "anonymous": false,
      "inputs": [
        {
          "indexed": true,
          "internalType": "address",
          "name": "previousOwner",
          "type": "address"
        },
        {
          "indexed": true,
          "internalType": "address",
          "name": "newOwner",
          "type": "address"
        }
      ],
      "name": "OwnershipTransferred",
      "type": "event"
    },
    {
      "anonymous": false,
      "inputs": [
        {
          "indexed": true,
          "internalType": "address",
          "name": "from",
          "type": "address"
        },
        {
          "indexed": true,
          "internalType": "address",
          "name": "optionToken",
          "type": "address"
        },
        {
          "indexed": false,
          "internalType": "uint256",
          "name": "quantity",
          "type": "uint256"
        }
      ],
      "name": "Redeemed",
      "type": "event"
    },
    {
      "anonymous": false,
      "inputs": [
        {
          "indexed": true,
          "internalType": "address",
          "name": "from",
          "type": "address"
        },
        {
          "indexed": true,
          "internalType": "address",
          "name": "optionAddress",
          "type": "address"
        },
        {
          "indexed": false,
          "internalType": "uint256",
          "name": "quantity",
          "type": "uint256"
        }
      ],
      "name": "VirtualMinted",
      "type": "event"
    },
    {
      "inputs": [
        {
          "internalType": "address",
          "name": "depositor",
          "type": "address"
        },
        {
          "internalType": "address[]",
          "name": "tokens",
          "type": "address[]"
        },
        {
          "internalType": "uint256[]",
          "name": "amounts",
          "type": "uint256[]"
        }
      ],
      "name": "addTokens",
      "outputs": [
        {
          "internalType": "bool",
          "name": "",
          "type": "bool"
        }
      ],
      "stateMutability": "nonpayable",
      "type": "function"
    },
    {
      "inputs": [
        {
          "internalType": "address",
          "name": "",
          "type": "address"
        },
        {
          "internalType": "address",
          "name": "",
          "type": "address"
        }
      ],
      "name": "bank",
      "outputs": [
        {
          "internalType": "uint256",
          "name": "",
          "type": "uint256"
        }
      ],
      "stateMutability": "view",
      "type": "function"
    },
    {
      "inputs": [
        {
          "internalType": "address",
          "name": "optionAddress",
          "type": "address"
        },
        {
          "internalType": "uint256",
          "name": "quantity",
          "type": "uint256"
        }
      ],
      "name": "calculateStrikePayment",
      "outputs": [
        {
          "internalType": "uint256",
          "name": "",
          "type": "uint256"
        }
      ],
      "stateMutability": "view",
      "type": "function"
    },
    {
      "inputs": [],
      "name": "capitol",
      "outputs": [
        {
          "internalType": "contract ICapitol",
          "name": "",
          "type": "address"
        }
      ],
      "stateMutability": "view",
      "type": "function"
    },
    {
      "inputs": [
        {
          "internalType": "address",
          "name": "",
          "type": "address"
        },
        {
          "internalType": "address",
          "name": "",
          "type": "address"
        }
      ],
      "name": "credit",
      "outputs": [
        {
          "internalType": "uint256",
          "name": "",
          "type": "uint256"
        }
      ],
      "stateMutability": "view",
      "type": "function"
    },
    {
      "inputs": [
        {
          "internalType": "address",
          "name": "depositor",
          "type": "address"
        },
        {
          "internalType": "address",
          "name": "token",
          "type": "address"
        }
      ],
      "name": "creditBalanceOf",
      "outputs": [
        {
          "internalType": "uint256",
          "name": "",
          "type": "uint256"
        }
      ],
      "stateMutability": "view",
      "type": "function"
    },
    {
      "inputs": [
        {
          "internalType": "address",
          "name": "",
          "type": "address"
        },
        {
          "internalType": "address",
          "name": "",
          "type": "address"
        }
      ],
      "name": "debit",
      "outputs": [
        {
          "internalType": "uint256",
          "name": "",
          "type": "uint256"
        }
      ],
      "stateMutability": "view",
      "type": "function"
    },
    {
      "inputs": [
        {
          "internalType": "address",
          "name": "depositor",
          "type": "address"
        },
        {
          "internalType": "address",
          "name": "token",
          "type": "address"
        }
      ],
      "name": "debitBalanceOf",
      "outputs": [
        {
          "internalType": "uint256",
          "name": "",
          "type": "uint256"
        }
      ],
      "stateMutability": "view",
      "type": "function"
    },
    {
      "inputs": [
        {
          "internalType": "address",
          "name": "optionAddress",
          "type": "address"
        }
      ],
      "name": "deployVirtualOption",
      "outputs": [
        {
          "internalType": "address",
          "name": "",
          "type": "address"
        }
      ],
      "stateMutability": "nonpayable",
      "type": "function"
    },
    {
      "inputs": [
        {
          "internalType": "address",
          "name": "depositor",
          "type": "address"
        },
        {
          "internalType": "address",
          "name": "longOption",
          "type": "address"
        },
        {
          "internalType": "uint256",
          "name": "quantity",
          "type": "uint256"
        },
        {
          "internalType": "address",
          "name": "router",
          "type": "address"
        },
        {
          "internalType": "bytes",
          "name": "params",
          "type": "bytes"
        }
      ],
      "name": "doublePosition",
      "outputs": [],
      "stateMutability": "nonpayable",
      "type": "function"
    },
    {
      "inputs": [
        {
          "internalType": "address",
          "name": "depositor",
          "type": "address"
        },
        {
          "internalType": "address",
          "name": "option",
          "type": "address"
        },
        {
          "internalType": "uint256",
          "name": "quantity",
          "type": "uint256"
        },
        {
          "internalType": "address",
          "name": "router",
          "type": "address"
        },
        {
          "internalType": "bytes",
          "name": "params",
          "type": "bytes"
        }
      ],
      "name": "doubleUnwind",
      "outputs": [],
      "stateMutability": "nonpayable",
      "type": "function"
    },
    {
      "inputs": [
        {
          "internalType": "address",
          "name": "receiver",
          "type": "address"
        },
        {
          "internalType": "uint256",
          "name": "quantity",
          "type": "uint256"
        }
      ],
      "name": "draw",
      "outputs": [
        {
          "internalType": "uint256",
          "name": "",
          "type": "uint256"
        }
      ],
      "stateMutability": "nonpayable",
      "type": "function"
    },
    {
      "inputs": [],
      "name": "energy",
      "outputs": [
        {
          "internalType": "contract IEnergy",
          "name": "",
          "type": "address"
        }
      ],
      "stateMutability": "view",
      "type": "function"
    },
    {
      "inputs": [
        {
          "internalType": "address",
          "name": "asset",
          "type": "address"
        },
        {
          "internalType": "address",
          "name": "virtualAsset",
          "type": "address"
        }
      ],
      "name": "issueVirtual",
      "outputs": [],
      "stateMutability": "nonpayable",
      "type": "function"
    },
    {
      "inputs": [
        {
          "internalType": "address",
          "name": "longOption",
          "type": "address"
        },
        {
          "internalType": "address",
          "name": "shortOption",
          "type": "address"
        },
        {
          "internalType": "uint256",
          "name": "quantity",
          "type": "uint256"
        },
        {
          "internalType": "address",
          "name": "receiver",
          "type": "address"
        }
      ],
      "name": "openDebitSpread",
      "outputs": [],
      "stateMutability": "nonpayable",
      "type": "function"
    },
    {
      "inputs": [],
      "name": "owner",
      "outputs": [
        {
          "internalType": "address",
          "name": "",
          "type": "address"
        }
      ],
      "stateMutability": "view",
      "type": "function"
    },
    {
      "inputs": [
        {
          "internalType": "address",
          "name": "depositor",
          "type": "address"
        },
        {
          "internalType": "address",
          "name": "longOption",
          "type": "address"
        },
        {
          "internalType": "uint256",
          "name": "quantity",
          "type": "uint256"
        },
        {
          "internalType": "address",
          "name": "router",
          "type": "address"
        },
        {
          "internalType": "bytes",
          "name": "params",
          "type": "bytes"
        }
      ],
      "name": "quadPosition",
      "outputs": [],
      "stateMutability": "nonpayable",
      "type": "function"
    },
    {
      "inputs": [],
      "name": "registry",
      "outputs": [
        {
          "internalType": "contract IRegistry",
          "name": "",
          "type": "address"
        }
      ],
      "stateMutability": "view",
      "type": "function"
    },
    {
      "inputs": [
        {
          "internalType": "address",
          "name": "depositor",
          "type": "address"
        },
        {
          "internalType": "address[]",
          "name": "tokens",
          "type": "address[]"
        },
        {
          "internalType": "uint256[]",
          "name": "amounts",
          "type": "uint256[]"
        }
      ],
      "name": "removeTokens",
      "outputs": [
        {
          "internalType": "bool",
          "name": "",
          "type": "bool"
        }
      ],
      "stateMutability": "nonpayable",
      "type": "function"
    },
    {
      "inputs": [],
      "name": "renounceOwnership",
      "outputs": [],
      "stateMutability": "nonpayable",
      "type": "function"
    },
    {
      "inputs": [
        {
          "internalType": "contract IOption",
          "name": "optionToken",
          "type": "address"
        },
        {
          "internalType": "uint256",
          "name": "closeQuantity",
          "type": "uint256"
        },
        {
          "internalType": "address",
          "name": "receiver",
          "type": "address"
        }
      ],
      "name": "safeClose",
      "outputs": [
        {
          "internalType": "uint256",
          "name": "",
          "type": "uint256"
        },
        {
          "internalType": "uint256",
          "name": "",
          "type": "uint256"
        },
        {
          "internalType": "uint256",
          "name": "",
          "type": "uint256"
        }
      ],
      "stateMutability": "nonpayable",
      "type": "function"
    },
    {
      "inputs": [
        {
          "internalType": "contract IOption",
          "name": "optionToken",
          "type": "address"
        },
        {
          "internalType": "uint256",
          "name": "closeQuantity",
          "type": "uint256"
        },
        {
          "internalType": "address",
          "name": "receiver",
          "type": "address"
        }
      ],
      "name": "safeCloseForETH",
      "outputs": [
        {
          "internalType": "uint256",
          "name": "",
          "type": "uint256"
        },
        {
          "internalType": "uint256",
          "name": "",
          "type": "uint256"
        },
        {
          "internalType": "uint256",
          "name": "",
          "type": "uint256"
        }
      ],
      "stateMutability": "nonpayable",
      "type": "function"
    },
    {
      "inputs": [
        {
          "internalType": "contract IOption",
          "name": "optionToken",
          "type": "address"
        },
        {
          "internalType": "uint256",
          "name": "exerciseQuantity",
          "type": "uint256"
        },
        {
          "internalType": "address",
          "name": "receiver",
          "type": "address"
        }
      ],
      "name": "safeExercise",
      "outputs": [
        {
          "internalType": "uint256",
          "name": "",
          "type": "uint256"
        },
        {
          "internalType": "uint256",
          "name": "",
          "type": "uint256"
        }
      ],
      "stateMutability": "nonpayable",
      "type": "function"
    },
    {
      "inputs": [
        {
          "internalType": "contract IOption",
          "name": "optionToken",
          "type": "address"
        },
        {
          "internalType": "uint256",
          "name": "exerciseQuantity",
          "type": "uint256"
        },
        {
          "internalType": "address",
          "name": "receiver",
          "type": "address"
        }
      ],
      "name": "safeExerciseForETH",
      "outputs": [
        {
          "internalType": "uint256",
          "name": "",
          "type": "uint256"
        },
        {
          "internalType": "uint256",
          "name": "",
          "type": "uint256"
        }
      ],
      "stateMutability": "nonpayable",
      "type": "function"
    },
    {
      "inputs": [
        {
          "internalType": "contract IOption",
          "name": "optionToken",
          "type": "address"
        },
        {
          "internalType": "address",
          "name": "receiver",
          "type": "address"
        }
      ],
      "name": "safeExerciseWithETH",
      "outputs": [
        {
          "internalType": "uint256",
          "name": "",
          "type": "uint256"
        },
        {
          "internalType": "uint256",
          "name": "",
          "type": "uint256"
        }
      ],
      "stateMutability": "payable",
      "type": "function"
    },
    {
      "inputs": [
        {
          "internalType": "contract IOption",
          "name": "optionToken",
          "type": "address"
        },
        {
          "internalType": "uint256",
          "name": "mintQuantity",
          "type": "uint256"
        },
        {
          "internalType": "address",
          "name": "receiver",
          "type": "address"
        }
      ],
      "name": "safeMint",
      "outputs": [
        {
          "internalType": "uint256",
          "name": "",
          "type": "uint256"
        },
        {
          "internalType": "uint256",
          "name": "",
          "type": "uint256"
        }
      ],
      "stateMutability": "nonpayable",
      "type": "function"
    },
    {
      "inputs": [
        {
          "internalType": "contract IOption",
          "name": "optionToken",
          "type": "address"
        },
        {
          "internalType": "address",
          "name": "receiver",
          "type": "address"
        }
      ],
      "name": "safeMintWithETH",
      "outputs": [
        {
          "internalType": "uint256",
          "name": "",
          "type": "uint256"
        },
        {
          "internalType": "uint256",
          "name": "",
          "type": "uint256"
        }
      ],
      "stateMutability": "payable",
      "type": "function"
    },
    {
      "inputs": [
        {
          "internalType": "contract IOption",
          "name": "optionToken",
          "type": "address"
        },
        {
          "internalType": "uint256",
          "name": "redeemQuantity",
          "type": "uint256"
        },
        {
          "internalType": "address",
          "name": "receiver",
          "type": "address"
        }
      ],
      "name": "safeRedeem",
      "outputs": [
        {
          "internalType": "uint256",
          "name": "",
          "type": "uint256"
        }
      ],
      "stateMutability": "nonpayable",
      "type": "function"
    },
    {
      "inputs": [
        {
          "internalType": "contract IOption",
          "name": "optionToken",
          "type": "address"
        },
        {
          "internalType": "uint256",
          "name": "redeemQuantity",
          "type": "uint256"
        },
        {
          "internalType": "address",
          "name": "receiver",
          "type": "address"
        }
      ],
      "name": "safeRedeemForETH",
      "outputs": [
        {
          "internalType": "uint256",
          "name": "",
          "type": "uint256"
        }
      ],
      "stateMutability": "nonpayable",
      "type": "function"
    },
    {
      "inputs": [
        {
          "internalType": "contract IOption",
          "name": "optionToken",
          "type": "address"
        },
        {
          "internalType": "uint256",
          "name": "unwindQuantity",
          "type": "uint256"
        },
        {
          "internalType": "address",
          "name": "receiver",
          "type": "address"
        }
      ],
      "name": "safeUnwind",
      "outputs": [
        {
          "internalType": "uint256",
          "name": "",
          "type": "uint256"
        },
        {
          "internalType": "uint256",
          "name": "",
          "type": "uint256"
        },
        {
          "internalType": "uint256",
          "name": "",
          "type": "uint256"
        }
      ],
      "stateMutability": "nonpayable",
      "type": "function"
    },
    {
      "inputs": [
        {
          "internalType": "address",
          "name": "newOwner",
          "type": "address"
        }
      ],
      "name": "transferOwnership",
      "outputs": [],
      "stateMutability": "nonpayable",
      "type": "function"
    },
    {
      "inputs": [
        {
          "internalType": "address",
          "name": "optionAddress",
          "type": "address"
        },
        {
          "internalType": "uint256",
          "name": "quantity",
          "type": "uint256"
        },
        {
          "internalType": "address",
          "name": "receiver",
          "type": "address"
        }
      ],
      "name": "virtualExercise",
      "outputs": [],
      "stateMutability": "nonpayable",
      "type": "function"
    },
    {
      "inputs": [
        {
          "internalType": "address",
          "name": "optionAddress",
          "type": "address"
        },
        {
          "internalType": "uint256",
          "name": "quantity",
          "type": "uint256"
        },
        {
          "internalType": "address",
          "name": "receiver",
          "type": "address"
        }
      ],
      "name": "virtualMint",
      "outputs": [
        {
          "internalType": "address",
          "name": "",
          "type": "address"
        }
      ],
      "stateMutability": "nonpayable",
      "type": "function"
    },
    {
      "inputs": [
        {
          "internalType": "address",
          "name": "from",
          "type": "address"
        },
        {
          "internalType": "address",
          "name": "optionAddress",
          "type": "address"
        },
        {
          "internalType": "uint256",
          "name": "quantity",
          "type": "uint256"
        },
        {
          "internalType": "address",
          "name": "receiver",
          "type": "address"
        }
      ],
      "name": "virtualMintFrom",
      "outputs": [
        {
          "internalType": "address",
          "name": "",
          "type": "address"
        }
      ],
      "stateMutability": "nonpayable",
      "type": "function"
    },
    {
      "inputs": [
        {
          "internalType": "address",
          "name": "",
          "type": "address"
        }
      ],
      "name": "virtualOptions",
      "outputs": [
        {
          "internalType": "address",
          "name": "",
          "type": "address"
        }
      ],
      "stateMutability": "view",
      "type": "function"
    },
    {
      "inputs": [],
      "name": "weth",
      "outputs": [
        {
          "internalType": "contract IWETH",
          "name": "",
          "type": "address"
        }
      ],
      "stateMutability": "view",
      "type": "function"
    },
    {
      "stateMutability": "payable",
      "type": "receive"
    }
  ],
  "bytecode": "0x60806040523480156200001157600080fd5b506040516200529138038062005291833981810160405260808110156200003757600080fd5b5080516020820151604083015160609093015191929091818484806000620000676001600160e01b036200016316565b600080546001600160a01b0319166001600160a01b0383169081178255604051929350917f8be0079c531659141344cd1fd0a4f28419497f9722a3daafe3b4186f6b6457e0908290a35060018055600280546001600160a01b0319166001600160a01b0392831617905560055416156200011a576040805162461bcd60e51b815260206004820152600f60248201526e11549497d253925512505312569151608a1b604482015290519081900360640190fd5b50600580546001600160a01b03199081166001600160a01b0393841617909155600680548216938316939093179092556008805490921692169190911790555062000167915050565b3390565b61511a80620001776000396000f3fe6080604052600436106102125760003560e01c8063715018a611610118578063a1d8778f116100a0578063b8a6bb3b1161006f578063b8a6bb3b14610cea578063c9c9163e14610d2d578063cc1f0d2d14610d70578063f0ca1d5614610dab578063f2fde38b14610df45761022d565b8063a1d8778f14610c1c578063a751820e14610c5f578063aa84924414610c92578063b6b865d514610ca75761022d565b806380e42f8e116100e757806380e42f8e14610a305780638549780b14610a5e5780638da5cb5b14610a8c5780639b12699114610aa1578063a13aaded14610adc5761022d565b8063715018a6146108ec57806378764985146109015780637b103999146109445780637cb40c0b146109595761022d565b80633c51df7c1161019b5780634a03707c1161016a5780634a03707c146106a65780634cec9ce3146106df57806350e2f0ba1461083357806369a067b8146108765780636db8ce24146108a95761022d565b80633c51df7c146105d25780633dd5cd931461061b5780633fc8cef31461065657806340e67a821461066b5761022d565b8063154fa089116101e2578063154fa089146103d15780631646f4dc1461043257806320e469d6146105095780633218a3ad1461054c578063381024bf146105975761022d565b8062cbf59114610232578063045bf4cd14610263578063087b06321461029e5780630c36b906146102fa5761022d565b3661022d576005546001600160a01b0316331461022b57fe5b005b600080fd5b34801561023e57600080fd5b50610247610e27565b604080516001600160a01b039092168252519081900360200190f35b34801561026f57600080fd5b5061022b6004803603604081101561028657600080fd5b506001600160a01b0381358116916020013516610e36565b3480156102aa57600080fd5b506102e1600480360360608110156102c157600080fd5b506001600160a01b03813581169160208101359160409091013516610ecd565b6040805192835260208301919091528051918290030190f35b34801561030657600080fd5b5061022b600480360360a081101561031d57600080fd5b6001600160a01b0382358116926020810135821692604082013592606083013516919081019060a081016080820135600160201b81111561035d57600080fd5b82018360208201111561036f57600080fd5b803590602001918460018302840111600160201b8311171561039057600080fd5b91908080601f0160208091040260200160405190810160405280939291908181526020018383808284376000920191909152509295506114bf945050505050565b3480156103dd57600080fd5b50610414600480360360608110156103f457600080fd5b506001600160a01b038135811691602081013591604090910135166115e4565b60408051938452602084019290925282820152519081900360600190f35b34801561043e57600080fd5b5061022b600480360360a081101561045557600080fd5b6001600160a01b0382358116926020810135821692604082013592606083013516919081019060a081016080820135600160201b81111561049557600080fd5b8201836020820111156104a757600080fd5b803590602001918460018302840111600160201b831117156104c857600080fd5b91908080601f0160208091040260200160405190810160405280939291908181526020018383808284376000920191909152509295506115f0945050505050565b34801561051557600080fd5b506102e16004803603606081101561052c57600080fd5b506001600160a01b03813581169160208101359160409091013516611611565b34801561055857600080fd5b506105856004803603604081101561056f57600080fd5b506001600160a01b0381351690602001356118dc565b60408051918252519081900360200190f35b3480156105a357600080fd5b50610585600480360360408110156105ba57600080fd5b506001600160a01b03813581169160200135166119e4565b3480156105de57600080fd5b50610247600480360360808110156105f557600080fd5b506001600160a01b03813581169160208101358216916040820135916060013516611a01565b34801561062757600080fd5b506105856004803603604081101561063e57600080fd5b506001600160a01b0381358116916020013516611a57565b34801561066257600080fd5b50610247611a83565b34801561067757600080fd5b506105856004803603604081101561068e57600080fd5b506001600160a01b0381358116916020013516611a92565b3480156106b257600080fd5b50610585600480360360408110156106c957600080fd5b506001600160a01b038135169060200135611aaf565b3480156106eb57600080fd5b5061081f6004803603606081101561070257600080fd5b6001600160a01b038235169190810190604081016020820135600160201b81111561072c57600080fd5b82018360208201111561073e57600080fd5b803590602001918460208302840111600160201b8311171561075f57600080fd5b9190808060200260200160405190810160405280939291908181526020018383602002808284376000920191909152509295949360208101935035915050600160201b8111156107ae57600080fd5b8201836020820111156107c057600080fd5b803590602001918460208302840111600160201b831117156107e157600080fd5b919080806020026020016040519081016040528093929190818152602001838360200280828437600092019190915250929550611b3b945050505050565b604080519115158252519081900360200190f35b34801561083f57600080fd5b506104146004803603606081101561085657600080fd5b506001600160a01b03813581169160208101359160409091013516611c2e565b34801561088257600080fd5b506102476004803603602081101561089957600080fd5b50356001600160a01b0316611cb3565b3480156108b557600080fd5b506102e1600480360360608110156108cc57600080fd5b506001600160a01b03813581169160208101359160409091013516611e31565b3480156108f857600080fd5b5061022b611f68565b34801561090d57600080fd5b506102476004803603606081101561092457600080fd5b506001600160a01b0381358116916020810135916040909101351661201c565b34801561095057600080fd5b506102476120a2565b34801561096557600080fd5b5061022b600480360360a081101561097c57600080fd5b6001600160a01b0382358116926020810135821692604082013592606083013516919081019060a081016080820135600160201b8111156109bc57600080fd5b8201836020820111156109ce57600080fd5b803590602001918460018302840111600160201b831117156109ef57600080fd5b91908080601f0160208091040260200160405190810160405280939291908181526020018383808284376000920191909152509295506120b1945050505050565b6102e160048036036040811015610a4657600080fd5b506001600160a01b03813581169160200135166120be565b6102e160048036036040811015610a7457600080fd5b506001600160a01b03813581169160200135166123b3565b348015610a9857600080fd5b5061024761259f565b348015610aad57600080fd5b5061058560048036036040811015610ac457600080fd5b506001600160a01b03813581169160200135166125ae565b348015610ae857600080fd5b5061081f60048036036060811015610aff57600080fd5b6001600160a01b038235169190810190604081016020820135600160201b811115610b2957600080fd5b820183602082011115610b3b57600080fd5b803590602001918460208302840111600160201b83111715610b5c57600080fd5b9190808060200260200160405190810160405280939291908181526020018383602002808284376000920191909152509295949360208101935035915050600160201b811115610bab57600080fd5b820183602082011115610bbd57600080fd5b803590602001918460208302840111600160201b83111715610bde57600080fd5b9190808060200260200160405190810160405280939291908181526020018383602002808284376000920191909152509295506125da945050505050565b348015610c2857600080fd5b5061058560048036036060811015610c3f57600080fd5b506001600160a01b038135811691602081013591604090910135166126b9565b348015610c6b57600080fd5b5061024760048036036020811015610c8257600080fd5b50356001600160a01b0316612a69565b348015610c9e57600080fd5b50610247612a84565b348015610cb357600080fd5b5061022b60048036036060811015610cca57600080fd5b506001600160a01b03813581169160208101359160409091013516612a93565b348015610cf657600080fd5b5061041460048036036060811015610d0d57600080fd5b506001600160a01b03813581169160208101359160409091013516612f79565b348015610d3957600080fd5b5061058560048036036060811015610d5057600080fd5b506001600160a01b038135811691602081013591604090910135166134be565b348015610d7c57600080fd5b5061058560048036036040811015610d9357600080fd5b506001600160a01b0381358116916020013516613528565b348015610db757600080fd5b5061022b60048036036080811015610dce57600080fd5b506001600160a01b03813581169160208101358216916040820135916060013516613545565b348015610e0057600080fd5b5061022b60048036036020811015610e1757600080fd5b50356001600160a01b0316613a4b565b6008546001600160a01b031681565b6040805163485cc95560e01b81526001600160a01b03848116600483015230602483015291519183169163485cc9559160448082019260009290919082900301818387803b158015610e8757600080fd5b505af1158015610e9b573d6000803e3d6000fd5b505050506001600160a01b03918216600090815260046020526040902080546001600160a01b03191691909216179055565b6000808360008111610f11576040805162461bcd60e51b81526020600482015260086024820152674552525f5a45524f60c01b604482015290519081900360640190fd5b6001600160a01b038087166000818152600360209081526040808320548151632207afe960e11b8152915195169492939263440f5fd292600480840193919291829003018186803b158015610f6557600080fd5b505afa158015610f79573d6000803e3d6000fd5b505050506040513d6020811015610f8f57600080fd5b50516040805163a1a4076160e01b815290519192506000916001600160a01b038b169163a1a40761916004808301926020929190829003018186803b158015610fd757600080fd5b505afa158015610feb573d6000803e3d6000fd5b505050506040513d602081101561100157600080fd5b505190506000611011848a613b55565b604080516323b872dd60e01b81523360048201526001600160a01b03871660248201819052604482018d9052915192935090916323b872dd916064808201926020929091908290030181600087803b15801561106c57600080fd5b505af1158015611080573d6000803e3d6000fd5b505050506040513d602081101561109657600080fd5b506110a1905061508b565b506001600160a01b038083166000908152600460208181526040808420815180840183529054861680825282516340c10f1960e01b8152968b1694870194909452602486018790529051909492936340c10f19936044808201949392918390030190829087803b15801561111457600080fd5b505af1158015611128573d6000803e3d6000fd5b505050506040513d602081101561113e57600080fd5b50506040805160008082526020820190925281906001600160a01b0388169063787eae309030908f906040518463ffffffff1660e01b815260040180846001600160a01b03166001600160a01b0316815260200183815260200180602001828103825283818151815260200191508051906020019080838360005b838110156111d15781810151838201526020016111b9565b50505050905090810190601f1680156111fe5780820380516001836020036101000a031916815260200191505b509450505050506040805180830381600087803b15801561121e57600080fd5b505af1158015611232573d6000803e3d6000fd5b505050506040513d604081101561124857600080fd5b508051602090910151909250905061125e61508b565b60046000886001600160a01b03166001600160a01b031681526020019081526020016000206040518060200160405290816000820160009054906101000a90046001600160a01b03166001600160a01b03166001600160a01b031681525050905080600001516001600160a01b0316639dc29fac308f6040518363ffffffff1660e01b815260040180836001600160a01b03166001600160a01b0316815260200182815260200192505050602060405180830381600087803b15801561132357600080fd5b505af1158015611337573d6000803e3d6000fd5b505050506040513d602081101561134d57600080fd5b5050604080516323b872dd60e01b81523360048201523060248201526044810187905290516001600160a01b038816916323b872dd9160648083019260209291908290030181600087803b1580156113a457600080fd5b505af11580156113b8573d6000803e3d6000fd5b505050506040513d60208110156113ce57600080fd5b810190808051906020019092919050505050866001600160a01b031663a9059cbb8d8f6040518363ffffffff1660e01b815260040180836001600160a01b03166001600160a01b0316815260200182815260200192505050602060405180830381600087803b15801561144057600080fd5b505af1158015611454573d6000803e3d6000fd5b505050506040513d602081101561146a57600080fd5b5050604080518e815290516001600160a01b038a169133917f3cea488905b3fa93b6aaaf21e913395e548b6e79dbe6099a527f6aa8059b23d19181900360200190a350909c909b509950505050505050505050565b60006114d1848063ffffffff613c3c16565b90506114de858230613c9d565b5061154e86866001600160a01b031663440f5fd26040518163ffffffff1660e01b815260040160206040518083038186803b15801561151c57600080fd5b505afa158015611530573d6000803e3d6000fd5b505050506040513d602081101561154657600080fd5b505186613eb6565b60065460408051631280dc1f60e21b81523060048201526024810187905290516001600160a01b0390921691634a03707c916044808201926020929091908290030181600087803b1580156115a257600080fd5b505af11580156115b6573d6000803e3d6000fd5b505050506040513d60208110156115cc57600080fd5b506115dc90508686838686613f39565b505050505050565b50600092839250829150565b6115fc85858530611a01565b5061160a8585858585613f39565b5050505050565b6000808360008111611655576040805162461bcd60e51b81526020600482015260086024820152674552525f5a45524f60c01b604482015290519081900360640190fd5b6000866001600160a01b031663440f5fd26040518163ffffffff1660e01b815260040160206040518083038186803b15801561169057600080fd5b505afa1580156116a4573d6000803e3d6000fd5b505050506040513d60208110156116ba57600080fd5b5051604080516323b872dd60e01b81523360048201523060248201526044810189905290519192506001600160a01b038316916323b872dd916064808201926020929091908290030181600087803b15801561171557600080fd5b505af1158015611729573d6000803e3d6000fd5b505050506040513d602081101561173f57600080fd5b50506001600160a01b038088166000908152600360205260409020541661176461508b565b506001600160a01b038083166000908152600460208181526040808420815180840183529054861680825282516340c10f1960e01b815296881694870194909452602486018d90529051909492936340c10f19936044808201949392918390030190829087803b1580156117d757600080fd5b505af11580156117eb573d6000803e3d6000fd5b505050506040513d602081101561180157600080fd5b50506001600160a01b038216337f03f17d66ad3bf18e9412eb06582908831508cdb9b8da9cddb1431f645a5b86328a61183a8d82613b55565b6040805192835260208301919091528051918290030190a360408051633ea6b5f160e21b81526001600160a01b03898116600483015282519085169263fa9ad7c492602480820193918290030181600087803b15801561189957600080fd5b505af11580156118ad573d6000803e3d6000fd5b505050506040513d60408110156118c357600080fd5b508051602090910151909a909950975050505050505050565b600080836001600160a01b031663b592a1386040518163ffffffff1660e01b815260040160206040518083038186803b15801561191857600080fd5b505afa15801561192c573d6000803e3d6000fd5b505050506040513d602081101561194257600080fd5b505160408051627f0cfd60e11b815290519192506000916001600160a01b0387169162fe19fa916004808301926020929190829003018186803b15801561198857600080fd5b505afa15801561199c573d6000803e3d6000fd5b505050506040513d60208110156119b257600080fd5b5051905060006119d8836119cc878563ffffffff61442416565b9063ffffffff61447d16565b93505050505b92915050565b600960209081526000928352604080842090915290825290205481565b600080611a0f858585613c9d565b9050611a4e86866001600160a01b031663440f5fd26040518163ffffffff1660e01b815260040160206040518083038186803b15801561151c57600080fd5b95945050505050565b6001600160a01b0380821660009081526009602090815260408083209386168352929052205492915050565b6005546001600160a01b031681565b600760209081526000928352604080842090915290825290205481565b60065460408051631280dc1f60e21b81526001600160a01b0385811660048301526024820185905291516000939290921691634a03707c9160448082019260209290919082900301818787803b158015611b0857600080fd5b505af1158015611b1c573d6000803e3d6000fd5b505050506040513d6020811015611b3257600080fd5b50519392505050565b6000611b4a84848460016144bf565b50825160005b81811015611c22576000858281518110611b6657fe5b602002602001015190506000858381518110611b7e57fe5b60200260200101519050816001600160a01b031663a9059cbb89836040518363ffffffff1660e01b815260040180836001600160a01b03166001600160a01b0316815260200182815260200192505050602060405180830381600087803b158015611be857600080fd5b505af1158015611bfc573d6000803e3d6000fd5b505050506040513d6020811015611c1257600080fd5b505060019092019150611b509050565b50600195945050505050565b60008060008460008111611c74576040805162461bcd60e51b81526020600482015260086024820152674552525f5a45524f60c01b604482015290519081900360640190fd5b6000806000611c848a8a30612f79565b6005549295509093509150611ca3906001600160a01b0316898b6146eb565b9199909850909650945050505050565b600080600080600080866001600160a01b031663a5ea11da6040518163ffffffff1660e01b815260040160c06040518083038186803b158015611cf557600080fd5b505afa158015611d09573d6000803e3d6000fd5b505050506040513d60c0811015611d1f57600080fd5b5080516020808301516060840151608085015160a0909501516002546001600160a01b03808716600090815260048088526040808320548489168452818420548251639180928f60e01b815291861693820193909352918416602483015260448201879052606482018b90526084820186905251989e50959c50939a5096985090965090941692639180928f9260a48084019391929182900301818787803b158015611dca57600080fd5b505af1158015611dde573d6000803e3d6000fd5b505050506040513d6020811015611df457600080fd5b50516001600160a01b03988916600090815260036020526040902080546001600160a01b0319169982169990991790985550959695505050505050565b6000808360008111611e75576040805162461bcd60e51b81526020600482015260086024820152674552525f5a45524f60c01b604482015290519081900360640190fd5b6000866001600160a01b031663440f5fd26040518163ffffffff1660e01b815260040160206040518083038186803b158015611eb057600080fd5b505afa158015611ec4573d6000803e3d6000fd5b505050506040513d6020811015611eda57600080fd5b50516005549091506001600160a01b03808316911614611f30576040805162461bcd60e51b815260206004820152600c60248201526b08aa4a4be9c9ea8beae8aa8960a31b604482015290519081900360640190fd5b600080611f3e898930610ecd565b6005549193509150611f5a906001600160a01b0316888a6146eb565b909890975095505050505050565b611f706147f5565b6000546001600160a01b03908116911614611fd2576040805162461bcd60e51b815260206004820181905260248201527f4f776e61626c653a2063616c6c6572206973206e6f7420746865206f776e6572604482015290519081900360640190fd5b600080546040516001600160a01b03909116907f8be0079c531659141344cd1fd0a4f28419497f9722a3daafe3b4186f6b6457e0908390a3600080546001600160a01b0319169055565b60008061202a858585613c9d565b905061209a856001600160a01b031663440f5fd26040518163ffffffff1660e01b815260040160206040518083038186803b15801561206857600080fd5b505afa15801561207c573d6000803e3d6000fd5b505050506040513d602081101561209257600080fd5b5051856147f9565b949350505050565b6002546001600160a01b031681565b61160a8585858585614878565b6000803460008111612102576040805162461bcd60e51b81526020600482015260086024820152674552525f5a45524f60c01b604482015290519081900360640190fd5b6000856001600160a01b031663a1a407616040518163ffffffff1660e01b815260040160206040518083038186803b15801561213d57600080fd5b505afa158015612151573d6000803e3d6000fd5b505050506040513d602081101561216757600080fd5b50516005549091506001600160a01b038083169116146121bd576040805162461bcd60e51b815260206004820152600c60248201526b08aa4a4be9c9ea8beae8aa8960a31b604482015290519081900360640190fd5b3460006121ca8883614bee565b6005549091506121e4906001600160a01b03168934614c9d565b604080516323b872dd60e01b81523360048201526001600160a01b038a16602482018190526044820184905291516323b872dd916064808201926020929091908290030181600087803b15801561223a57600080fd5b505af115801561224e573d6000803e3d6000fd5b505050506040513d602081101561226457600080fd5b50506040805182815290516001600160a01b038a169133917f3cea488905b3fa93b6aaaf21e913395e548b6e79dbe6099a527f6aa8059b23d19181900360200190a36040805160008082526020820192839052630787eae360e41b83526001600160a01b038a81166024840190815260448401869052606060648501908152845160848601819052928e169563787eae30958e9589959194939260a486019290918190849084905b8381101561232457818101518382015260200161230c565b50505050905090810190601f1680156123515780820380516001836020036101000a031916815260200191505b509450505050506040805180830381600087803b15801561237157600080fd5b505af1158015612385573d6000803e3d6000fd5b505050506040513d604081101561239b57600080fd5b50805160209091015190999098509650505050505050565b60008034600081116123f7576040805162461bcd60e51b81526020600482015260086024820152674552525f5a45524f60c01b604482015290519081900360640190fd5b6000856001600160a01b031663440f5fd26040518163ffffffff1660e01b815260040160206040518083038186803b15801561243257600080fd5b505afa158015612446573d6000803e3d6000fd5b505050506040513d602081101561245c57600080fd5b50516005549091506001600160a01b038083169116146124b2576040805162461bcd60e51b815260206004820152600c60248201526b08aa4a4be9c9ea8beae8aa8960a31b604482015290519081900360640190fd5b6005546124c9906001600160a01b03168734614c9d565b6001600160a01b038616337f03f17d66ad3bf18e9412eb06582908831508cdb9b8da9cddb1431f645a5b8632346125008a82613b55565b6040805192835260208301919091528051918290030190a360408051633ea6b5f160e21b81526001600160a01b03878116600483015282519089169263fa9ad7c492602480820193918290030181600087803b15801561255f57600080fd5b505af1158015612573573d6000803e3d6000fd5b505050506040513d604081101561258957600080fd5b5080516020909101519097909650945050505050565b6000546001600160a01b031690565b6001600160a01b038082166000908152600a602090815260408083209386168352929052205492915050565b8151600090815b818110156126ab5760008582815181106125f757fe5b60200260200101519050600085838151811061260f57fe5b602090810291909101810151604080516323b872dd60e01b81526001600160a01b038c81166004830152306024830152604482018490529151929450908516926323b872dd926064808401938290030181600087803b15801561267157600080fd5b505af1158015612685573d6000803e3d6000fd5b505050506040513d602081101561269b57600080fd5b5050600190920191506125e19050565b50611a4e8585856000614d42565b600082600081116126fc576040805162461bcd60e51b81526020600482015260086024820152674552525f5a45524f60c01b604482015290519081900360640190fd5b6001600160a01b03808616600090815260036020908152604091829020548251632f310bad60e01b815292519316928392632f310bad926004808301939192829003018186803b15801561274f57600080fd5b505afa158015612763573d6000803e3d6000fd5b505050506040513d602081101561277957600080fd5b5051604080516323b872dd60e01b81523360048201526001600160a01b03848116602483015260448201899052915191909216916323b872dd9160648083019260209291908290030181600087803b1580156127d457600080fd5b505af11580156127e8573d6000803e3d6000fd5b505050506040513d60208110156127fe57600080fd5b50506040805163a1a4076160e01b815290516000916001600160a01b0389169163a1a4076191600480820192602092909190829003018186803b15801561284457600080fd5b505afa158015612858573d6000803e3d6000fd5b505050506040513d602081101561286e57600080fd5b5051905061287a61508b565b506001600160a01b038082166000908152600460208181526040808420815180840183529054861681528151635e86929d60e01b8152309481019490945290519094871692635e86929d92602480830193919282900301818787803b1580156128e257600080fd5b505af11580156128f6573d6000803e3d6000fd5b505050506040513d602081101561290c57600080fd5b5051825160408051632770a7eb60e21b8152306004820152602481018c905290519293506001600160a01b0390911691639dc29fac916044808201926020929091908290030181600087803b15801561296457600080fd5b505af1158015612978573d6000803e3d6000fd5b505050506040513d602081101561298e57600080fd5b50506040805189815290516001600160a01b038b169133917f27d4634c833b7622a0acddbf7f746183625f105945e95c723ad1d5a9f2a0b6fc9181900360200190a3826001600160a01b031663a9059cbb88836040518363ffffffff1660e01b815260040180836001600160a01b03166001600160a01b0316815260200182815260200192505050602060405180830381600087803b158015612a3057600080fd5b505af1158015612a44573d6000803e3d6000fd5b505050506040513d6020811015612a5a57600080fd5b50909998505050505050505050565b6003602052600090815260409020546001600160a01b031681565b6006546001600160a01b031681565b6001600160a01b038084166000908152600360205260409020541680612af3576040805162461bcd60e51b815260206004820152601060248201526f11549497d393d517d111541313d6515160821b604482015290519081900360640190fd5b6000846001600160a01b031663440f5fd26040518163ffffffff1660e01b815260040160206040518083038186803b158015612b2e57600080fd5b505afa158015612b42573d6000803e3d6000fd5b505050506040513d6020811015612b5857600080fd5b50516040805163a1a4076160e01b815290519192506000916001600160a01b0388169163a1a40761916004808301926020929190829003018186803b158015612ba057600080fd5b505afa158015612bb4573d6000803e3d6000fd5b505050506040513d6020811015612bca57600080fd5b5051604080516323b872dd60e01b81523360048201526001600160a01b0386166024820181905260448201899052915192935090916323b872dd916064808201926020929091908290030181600087803b158015612c2757600080fd5b505af1158015612c3b573d6000803e3d6000fd5b505050506040513d6020811015612c5157600080fd5b5060009050612c6087876118dc565b6001600160a01b0380841660009081526004602081815260408084205481516340c10f1960e01b81528b871694810194909452602484018790529051959650909316936340c10f199360448084019491938390030190829087803b158015612cc757600080fd5b505af1158015612cdb573d6000803e3d6000fd5b505050506040513d6020811015612cf157600080fd5b50506040805160008082526020820192839052630787eae360e41b83523060248301818152604484018b90526060606485019081528451608486018190526001600160a01b038b169663787eae309694958e9594939260a4860192918190849084905b83811015612d6c578181015183820152602001612d54565b50505050905090810190601f168015612d995780820380516001836020036101000a031916815260200191505b509450505050506040805180830381600087803b158015612db957600080fd5b505af1158015612dcd573d6000803e3d6000fd5b505050506040513d6040811015612de357600080fd5b50506001600160a01b038084166000908152600460208181526040808420548151632770a7eb60e21b81523094810194909452602484018c90529051941693639dc29fac936044808501948390030190829087803b158015612e4457600080fd5b505af1158015612e58573d6000803e3d6000fd5b505050506040513d6020811015612e6e57600080fd5b50506040805163a9059cbb60e01b81526001600160a01b0387811660048301526024820189905291519185169163a9059cbb916044808201926020929091908290030181600087803b158015612ec357600080fd5b505af1158015612ed7573d6000803e3d6000fd5b505050506040513d6020811015612eed57600080fd5b5050604080516323b872dd60e01b81523360048201523060248201526044810183905290516001600160a01b038416916323b872dd9160648083019260209291908290030181600087803b158015612f4457600080fd5b505af1158015612f58573d6000803e3d6000fd5b505050506040513d6020811015612f6e57600080fd5b505050505050505050565b60008060008460008111612fbf576040805162461bcd60e51b81526020600482015260086024820152674552525f5a45524f60c01b604482015290519081900360640190fd5b6001600160a01b0380881660009081526003602052604081205490911690612fe78989613b55565b9050816001600160a01b0316632f310bad6040518163ffffffff1660e01b815260040160206040518083038186803b15801561302257600080fd5b505afa158015613036573d6000803e3d6000fd5b505050506040513d602081101561304c57600080fd5b5051604080516323b872dd60e01b81523360048201526001600160a01b03858116602483015260448201859052915191909216916323b872dd9160648083019260209291908290030181600087803b1580156130a757600080fd5b505af11580156130bb573d6000803e3d6000fd5b505050506040513d60208110156130d157600080fd5b50506040805162972d6f60e61b8152905142916001600160a01b038516916325cb5bc091600480820192602092909190829003018186803b15801561311557600080fd5b505afa158015613129573d6000803e3d6000fd5b505050506040513d602081101561313f57600080fd5b5051106131c957604080516323b872dd60e01b81523360048201526001600160a01b03841660248201819052604482018b905291516323b872dd916064808201926020929091908290030181600087803b15801561319c57600080fd5b505af11580156131b0573d6000803e3d6000fd5b505050506040513d60208110156131c657600080fd5b50505b6000806000846001600160a01b03166383499805306040518263ffffffff1660e01b815260040180826001600160a01b03166001600160a01b03168152602001915050606060405180830381600087803b15801561322657600080fd5b505af115801561323a573d6000803e3d6000fd5b505050506040513d606081101561325057600080fd5b8101908080519060200190929190805190602001909291908051906020019092919050505092509250925060008c6001600160a01b031663440f5fd26040518163ffffffff1660e01b815260040160206040518083038186803b1580156132b657600080fd5b505afa1580156132ca573d6000803e3d6000fd5b505050506040513d60208110156132e057600080fd5b505190506132ec61508b565b60046000836001600160a01b03166001600160a01b031681526020019081526020016000206040518060200160405290816000820160009054906101000a90046001600160a01b03166001600160a01b03166001600160a01b031681525050905080600001516001600160a01b0316639dc29fac308f6040518363ffffffff1660e01b815260040180836001600160a01b03166001600160a01b0316815260200182815260200192505050602060405180830381600087803b1580156133b157600080fd5b505af11580156133c5573d6000803e3d6000fd5b505050506040513d60208110156133db57600080fd5b5050604080518e815290516001600160a01b0389169133917f62d095e2c4513ab737ede7cbd30334eccb10424cbc543ebb5c458b5174cddcd59181900360200190a3816001600160a01b031663a9059cbb8d856040518363ffffffff1660e01b815260040180836001600160a01b03166001600160a01b0316815260200182815260200192505050602060405180830381600087803b15801561347d57600080fd5b505af1158015613491573d6000803e3d6000fd5b505050506040513d60208110156134a757600080fd5b50949e939d50919b50919950505050505050505050565b60008260008111613501576040805162461bcd60e51b81526020600482015260086024820152674552525f5a45524f60c01b604482015290519081900360640190fd5b600061350e8686306126b9565b600554909150611a4e906001600160a01b031685876146eb565b600a60209081526000928352604080842090915290825290205481565b6001600160a01b038085166000908152600360209081526040808320548785168452818420548251627f0cfd60e11b8152925191861695169392859262fe19fa9260048083019392829003018186803b1580156135a157600080fd5b505afa1580156135b5573d6000803e3d6000fd5b505050506040513d60208110156135cb57600080fd5b505160408051627f0cfd60e11b815290519192506000916001600160a01b0385169162fe19fa916004808301926020929190829003018186803b15801561361157600080fd5b505afa158015613625573d6000803e3d6000fd5b505050506040513d602081101561363b57600080fd5b5051905081811015613688576040805162461bcd60e51b815260206004820152601160248201527011549497d0d49151125517d4d414915051607a1b604482015290519081900360640190fd5b600061369a828463ffffffff614f4d16565b90506000600460008a6001600160a01b031663440f5fd26040518163ffffffff1660e01b815260040160206040518083038186803b1580156136db57600080fd5b505afa1580156136ef573d6000803e3d6000fd5b505050506040513d602081101561370557600080fd5b50516001600160a01b03908116825260208281019390935260409182016000908120805484516340c10f1960e01b81528b85166004820152602481018f90529451919650909216936340c10f19936044808201949293918390030190829087803b15801561377257600080fd5b505af1158015613786573d6000803e3d6000fd5b505050506040513d602081101561379c57600080fd5b505060408051633ea6b5f160e21b815230600482015281516001600160a01b0388169263fa9ad7c492602480820193918290030181600087803b1580156137e257600080fd5b505af11580156137f6573d6000803e3d6000fd5b505050506040513d604081101561380c57600080fd5b50506040805163a9059cbb60e01b81526001600160a01b038981166004830152602482018b905291519187169163a9059cbb916044808201926020929091908290030181600087803b15801561386157600080fd5b505af1158015613875573d6000803e3d6000fd5b505050506040513d602081101561388b57600080fd5b505060408051632f310bad60e01b815290516001600160a01b03871691632f310bad916004808301926020929190829003018186803b1580156138cd57600080fd5b505afa1580156138e1573d6000803e3d6000fd5b505050506040513d60208110156138f757600080fd5b50516040805163a9059cbb60e01b81526001600160a01b038a81166004830152602482018690529151919092169163a9059cbb9160448083019260209291908290030181600087803b15801561394c57600080fd5b505af1158015613960573d6000803e3d6000fd5b505050506040513d602081101561397657600080fd5b5050604080516323b872dd60e01b8152336004820152306024820152604481018a905290516001600160a01b038816916323b872dd9160648083019260209291908290030181600087803b1580156139cd57600080fd5b505af11580156139e1573d6000803e3d6000fd5b505050506040513d60208110156139f757600080fd5b50506040805189815290516001600160a01b03808c1692908d169133917f33a45968f4205599a1893a1cca6f79ccfbb725c57197feee1fb493c45f3f376c919081900360200190a450505050505050505050565b613a536147f5565b6000546001600160a01b03908116911614613ab5576040805162461bcd60e51b815260206004820181905260248201527f4f776e61626c653a2063616c6c6572206973206e6f7420746865206f776e6572604482015290519081900360640190fd5b6001600160a01b038116613afa5760405162461bcd60e51b815260040180806020018281038252602681526020018061509e6026913960400191505060405180910390fd5b600080546040516001600160a01b03808516939216917f8be0079c531659141344cd1fd0a4f28419497f9722a3daafe3b4186f6b6457e091a3600080546001600160a01b0319166001600160a01b0392909216919091179055565b60008061209a846001600160a01b031663b592a1386040518163ffffffff1660e01b815260040160206040518083038186803b158015613b9457600080fd5b505afa158015613ba8573d6000803e3d6000fd5b505050506040513d6020811015613bbe57600080fd5b505160408051627f0cfd60e11b815290516119cc916001600160a01b0389169162fe19fa91600480820192602092909190829003018186803b158015613c0357600080fd5b505afa158015613c17573d6000803e3d6000fd5b505050506040513d6020811015613c2d57600080fd5b5051869063ffffffff61442416565b600082820183811015613c96576040805162461bcd60e51b815260206004820152601b60248201527f536166654d6174683a206164646974696f6e206f766572666c6f770000000000604482015290519081900360640190fd5b9392505050565b6001600160a01b0380841660009081526003602052604081205490911680613cff576040805162461bcd60e51b815260206004820152601060248201526f11549497d393d517d111541313d6515160821b604482015290519081900360640190fd5b6000856001600160a01b031663440f5fd26040518163ffffffff1660e01b815260040160206040518083038186803b158015613d3a57600080fd5b505afa158015613d4e573d6000803e3d6000fd5b505050506040513d6020811015613d6457600080fd5b50516001600160a01b038082166000908152600460208181526040808420805482516340c10f1960e01b81528a881695810195909552602485018d90529151969750959416936340c10f19936044808501948390030190829087803b158015613dcc57600080fd5b505af1158015613de0573d6000803e3d6000fd5b505050506040513d6020811015613df657600080fd5b505060408051633ea6b5f160e21b81526001600160a01b03878116600483015282519086169263fa9ad7c492602480820193918290030181600087803b158015613e3f57600080fd5b505af1158015613e53573d6000803e3d6000fd5b505050506040513d6040811015613e6957600080fd5b50506040805187815290516001600160a01b0389169133917fe368fed5c4ce1d1a4b7bad8fcb733fa62ac9d46e8f4d8a400c6d8bf07b16a3649181900360200190a3509095945050505050565b604080516323b872dd60e01b81526001600160a01b038581166004830152306024830152604482018490529151918416916323b872dd916064808201926020929091908290030181600087803b158015613f0f57600080fd5b505af1158015613f23573d6000803e3d6000fd5b505050506040513d602081101561160a57600080fd5b60085460408051637da56fa360e01b81523360048201819052915191926001600160a01b031691637da56fa391602480820192602092909190829003018186803b158015613f8657600080fd5b505afa158015613f9a573d6000803e3d6000fd5b505050506040513d6020811015613fb057600080fd5b5051613ff9576040805162461bcd60e51b8152602060048201526013602482015272121bdd5cd94e881393d517d1539113d494d151606a1b604482015290519081900360640190fd5b6001600160a01b038086166000908152600360209081526040808320548151632f310bad60e01b815291519416938492632f310bad9260048082019391829003018186803b15801561404a57600080fd5b505afa15801561405e573d6000803e3d6000fd5b505050506040513d602081101561407457600080fd5b505160408051632207afe960e11b815290519192506000916001600160a01b038a169163440f5fd2916004808301926020929190829003018186803b1580156140bc57600080fd5b505afa1580156140d0573d6000803e3d6000fd5b505050506040513d60208110156140e657600080fd5b5051604080516302aca45560e31b81526001600160a01b038b1660048201529051919250600091339163156522a8916024808301926020929190829003018186803b15801561413457600080fd5b505afa158015614148573d6000803e3d6000fd5b505050506040513d602081101561415e57600080fd5b50516040805163095ea7b360e01b81526001600160a01b038a81166004830152600019602483015291519293509085169163095ea7b3916044808201926020929091908290030181600087803b1580156141b757600080fd5b505af11580156141cb573d6000803e3d6000fd5b505050506040513d60208110156141e157600080fd5b50506040805163095ea7b360e01b81526001600160a01b038981166004830152600019602483015291519184169163095ea7b3916044808201926020929091908290030181600087803b15801561423757600080fd5b505af115801561424b573d6000803e3d6000fd5b505050506040513d602081101561426157600080fd5b505060405186516000916060916001600160a01b038b16918a91819060208401908083835b602083106142a55780518252601f199092019160209182019101614286565b6001836020036101000a0380198251168184511680821785525050505050509050019150506000604051808303816000865af19150503d8060008114614307576040519150601f19603f3d011682016040523d82523d6000602084013e61430c565b606091505b50915091508161435b576040805162461bcd60e51b815260206004820152601560248201527411549497d413d3d317d1115413d4d25517d1905253605a1b604482015290519081900360640190fd5b600080600083806020019051606081101561437557600080fd5b508051602082015160409283015183516001808252818601909552929650909450925060609181602001602082028038833901905050905086816000815181106143bb57fe5b6001600160a01b0390921660209283029190910190910152604080516001808252818301909252606091816020016020820280388339019050509050828160008151811061440557fe5b6020026020010181815250505050505050505050505050505050505050565b600082614433575060006119de565b8282028284828161444057fe5b0414613c965760405162461bcd60e51b81526004018080602001828103825260218152602001806150c46021913960400191505060405180910390fd5b6000613c9683836040518060400160405280601a81526020017f536166654d6174683a206469766973696f6e206279207a65726f000000000000815250614f8f565b8251825160009190808214614515576040805162461bcd60e51b8152602060048201526017602482015276090deeae6ca7440a082a4829a8aa88aa4be988a9c8ea89604b1b604482015290519081900360640190fd5b60005b8281101561461e57600087828151811061452e57fe5b60200260200101519050600087838151811061454657fe5b6020026020010151905086156145b7576001600160a01b038083166000908152600960209081526040808320938e168352929052205461458c908263ffffffff614f4d16565b6001600160a01b038084166000908152600960209081526040808320938f1683529290522055614614565b6001600160a01b038083166000908152600a60209081526040808320938e16835292905220546145ed908263ffffffff614f4d16565b6001600160a01b038084166000908152600a60209081526040808320938f16835292905220555b5050600101614518565b508560405180828051906020019060200280838360005b8381101561464d578181015183820152602001614635565b505050509050019150506040518091039020876001600160a01b03167f967a74aa54af7b3f31499bda6b7e0ccea0c6a3312d3856a00b80c4efe7e8ee1d876040518080602001828103825283818151815260200191508051906020019060200280838360005b838110156146cb5781810151838201526020016146b3565b505050509050019250505060405180910390a35060019695505050505050565b826001600160a01b0316632e1a7d4d826040518263ffffffff1660e01b815260040180828152602001915050600060405180830381600087803b15801561473157600080fd5b505af1158015614745573d6000803e3d6000fd5b5050604051600092506001600160a01b038516915083908381818185875af1925050503d8060008114614794576040519150601f19603f3d011682016040523d82523d6000602084013e614799565b606091505b50509050806147ef576040805162461bcd60e51b815260206004820152601e60248201527f5072696d697469766556313a204552525f53454e44494e475f45544845520000604482015290519081900360640190fd5b50505050565b3390565b604080516323b872dd60e01b81523360048201523060248201526044810183905290516001600160a01b038416916323b872dd9160648083019260209291908290030181600087803b15801561484e57600080fd5b505af1158015614862573d6000803e3d6000fd5b505050506040513d60208110156147ef57600080fd5b60085460408051637da56fa360e01b81523360048201819052915191926001600160a01b031691637da56fa391602480820192602092909190829003018186803b1580156148c557600080fd5b505afa1580156148d9573d6000803e3d6000fd5b505050506040513d60208110156148ef57600080fd5b5051614938576040805162461bcd60e51b8152602060048201526013602482015272121bdd5cd94e881393d517d1539113d494d151606a1b604482015290519081900360640190fd5b604080516302aca45560e31b81526001600160a01b03871660048201529051600091339163156522a891602480820192602092909190829003018186803b15801561498257600080fd5b505afa158015614996573d6000803e3d6000fd5b505050506040513d60208110156149ac57600080fd5b505160408051600180825281830190925291925090606090826020808301908038833901905050905082816000815181106149e357fe5b6001600160a01b03909216602092830291909101909101526040805160018082528183019092526060918160200160208202803883390190505090508281600081518110614a2d57fe5b602002602001018181525050614a468a838360006144bf565b5060006060886001600160a01b0316886040518082805190602001908083835b60208310614a855780518252601f199092019160209182019101614a66565b6001836020036101000a0380198251168184511680821785525050505050509050019150506000604051808303816000865af19150503d8060008114614ae7576040519150601f19603f3d011682016040523d82523d6000602084013e614aec565b606091505b509150915081614b3c576040805162461bcd60e51b815260206004820152601660248201527511549497d413d3d317d5d2551211149055d7d190525360521b604482015290519081900360640190fd5b6060818060200190516020811015614b5357600080fd5b8101908080516040519392919084600160201b821115614b7257600080fd5b908301906020820185811115614b8757600080fd5b82518660208202830111600160201b82111715614ba357600080fd5b82525081516020918201928201910280838360005b83811015614bd0578181015183820152602001614bb8565b50505050905001604052505050905050505050505050505050505050565b60008061209a846001600160a01b031662fe19fa6040518163ffffffff1660e01b815260040160206040518083038186803b158015614c2c57600080fd5b505afa158015614c40573d6000803e3d6000fd5b505050506040513d6020811015614c5657600080fd5b5051604080516316b2542760e31b815290516119cc916001600160a01b0389169163b592a13891600480820192602092909190829003018186803b158015613c0357600080fd5b826001600160a01b031663d0e30db0826040518263ffffffff1660e01b81526004016000604051808303818588803b158015614cd857600080fd5b505af1158015614cec573d6000803e3d6000fd5b50506040805163a9059cbb60e01b81526001600160a01b038781166004830152602482018790529151918816945063a9059cbb935060448082019350602092918290030181600087803b158015613f0f57600080fd5b8251825160009190808214614d98576040805162461bcd60e51b8152602060048201526017602482015276090deeae6ca7440a082a4829a8aa88aa4be988a9c8ea89604b1b604482015290519081900360640190fd5b60005b82811015614ea1576000878281518110614db157fe5b602002602001015190506000878381518110614dc957fe5b602002602001015190508615614e3a576001600160a01b038083166000908152600960209081526040808320938e1683529290522054614e0f908263ffffffff613c3c16565b6001600160a01b038084166000908152600960209081526040808320938f1683529290522055614e97565b6001600160a01b038083166000908152600a60209081526040808320938e1683529290522054614e70908263ffffffff613c3c16565b6001600160a01b038084166000908152600a60209081526040808320938f16835292905220555b5050600101614d9b565b508560405180828051906020019060200280838360005b83811015614ed0578181015183820152602001614eb8565b505050509050019150506040518091039020876001600160a01b03167f03d2c553108d1d6c9f8177c130891da141436a3b48d8feddfdc4895671c22d3787604051808060200182810382528381815181526020019150805190602001906020028083836000838110156146cb5781810151838201526020016146b3565b6000613c9683836040518060400160405280601e81526020017f536166654d6174683a207375627472616374696f6e206f766572666c6f770000815250615031565b6000818361501b5760405162461bcd60e51b81526004018080602001828103825283818151815260200191508051906020019080838360005b83811015614fe0578181015183820152602001614fc8565b50505050905090810190601f16801561500d5780820380516001836020036101000a031916815260200191505b509250505060405180910390fd5b50600083858161502757fe5b0495945050505050565b600081848411156150835760405162461bcd60e51b8152602060048201818152835160248401528351909283926044909101919085019080838360008315614fe0578181015183820152602001614fc8565b505050900390565b6040805160208101909152600081529056fe4f776e61626c653a206e6577206f776e657220697320746865207a65726f2061646472657373536166654d6174683a206d756c7469706c69636174696f6e206f766572666c6f77a264697066735822122030410a9b124fd9b2b211310ccbc4b77f782e405c65461f67c6df96e9b573a03164736f6c63430006020033",
  "linkReferences": {},
  "deployedLinkReferences": {}
}