{
  "_format": "hh-sol-artifact-1",
  "contractName": "House",
  "sourceName": "contracts/House.sol",
  "abi": [
    {
      "inputs": [
        {
          "internalType": "address",
          "name": "weth_",
          "type": "address"
        },
        {
          "internalType": "address",
          "name": "registry_",
          "type": "address"
        },
        {
          "internalType": "address",
          "name": "capitol_",
          "type": "address"
        }
      ],
      "stateMutability": "nonpayable",
      "type": "constructor"
    },
    {
      "anonymous": false,
      "inputs": [
        {
          "indexed": true,
          "internalType": "address",
          "name": "from",
          "type": "address"
        },
        {
          "indexed": true,
          "internalType": "address",
          "name": "optionToken",
          "type": "address"
        },
        {
          "indexed": false,
          "internalType": "uint256",
          "name": "quantity",
          "type": "uint256"
        }
      ],
      "name": "Closed",
      "type": "event"
    },
    {
      "anonymous": false,
      "inputs": [
        {
          "indexed": true,
          "internalType": "address",
          "name": "depositor",
          "type": "address"
        },
        {
          "indexed": true,
          "internalType": "address[]",
          "name": "tokens",
          "type": "address[]"
        },
        {
          "indexed": false,
          "internalType": "uint256[]",
          "name": "amounts",
          "type": "uint256[]"
        }
      ],
      "name": "CollateralDeposited",
      "type": "event"
    },
    {
      "anonymous": false,
      "inputs": [
        {
          "indexed": true,
          "internalType": "address",
          "name": "depositor",
          "type": "address"
        },
        {
          "indexed": true,
          "internalType": "address[]",
          "name": "tokens",
          "type": "address[]"
        },
        {
          "indexed": false,
          "internalType": "uint256[]",
          "name": "amounts",
          "type": "uint256[]"
        }
      ],
      "name": "CollateralWithdrawn",
      "type": "event"
    },
    {
      "anonymous": false,
      "inputs": [
        {
          "indexed": true,
          "internalType": "address",
          "name": "from",
          "type": "address"
        },
        {
          "indexed": true,
          "internalType": "address",
          "name": "optionAddress",
          "type": "address"
        },
        {
          "indexed": false,
          "internalType": "uint256",
          "name": "liquidity",
          "type": "uint256"
        }
      ],
      "name": "Deleveraged",
      "type": "event"
    },
    {
      "anonymous": false,
      "inputs": [
        {
          "indexed": true,
          "internalType": "address",
          "name": "from",
          "type": "address"
        },
        {
          "indexed": true,
          "internalType": "address",
          "name": "optionToken",
          "type": "address"
        },
        {
          "indexed": false,
          "internalType": "uint256",
          "name": "quantity",
          "type": "uint256"
        }
      ],
      "name": "Exercised",
      "type": "event"
    },
    {
      "anonymous": false,
      "inputs": [
        {
          "indexed": true,
          "internalType": "address",
          "name": "depositor",
          "type": "address"
        },
        {
          "indexed": true,
          "internalType": "address",
          "name": "optionAddress",
          "type": "address"
        },
        {
          "indexed": true,
          "internalType": "address",
          "name": "pool",
          "type": "address"
        },
        {
          "indexed": false,
          "internalType": "uint256",
          "name": "quantity",
          "type": "uint256"
        }
      ],
      "name": "Leveraged",
      "type": "event"
    },
    {
      "anonymous": false,
      "inputs": [
        {
          "indexed": true,
          "internalType": "address",
          "name": "from",
          "type": "address"
        },
        {
          "indexed": true,
          "internalType": "address",
          "name": "optionToken",
          "type": "address"
        },
        {
          "indexed": false,
          "internalType": "uint256",
          "name": "longQuantity",
          "type": "uint256"
        },
        {
          "indexed": false,
          "internalType": "uint256",
          "name": "shortQuantity",
          "type": "uint256"
        }
      ],
      "name": "Minted",
      "type": "event"
    },
    {
      "anonymous": false,
      "inputs": [
        {
          "indexed": true,
          "internalType": "address",
          "name": "from",
          "type": "address"
        },
        {
          "indexed": true,
          "internalType": "address",
          "name": "longOption",
          "type": "address"
        },
        {
          "indexed": true,
          "internalType": "address",
          "name": "shortOption",
          "type": "address"
        },
        {
          "indexed": false,
          "internalType": "uint256",
          "name": "quantity",
          "type": "uint256"
        }
      ],
      "name": "OpenedDebitSpread",
      "type": "event"
    },
    {
      "anonymous": false,
      "inputs": [
        {
          "indexed": true,
          "internalType": "address",
          "name": "previousOwner",
          "type": "address"
        },
        {
          "indexed": true,
          "internalType": "address",
          "name": "newOwner",
          "type": "address"
        }
      ],
      "name": "OwnershipTransferred",
      "type": "event"
    },
    {
      "anonymous": false,
      "inputs": [
        {
          "indexed": true,
          "internalType": "address",
          "name": "from",
          "type": "address"
        },
        {
          "indexed": true,
          "internalType": "address",
          "name": "optionToken",
          "type": "address"
        },
        {
          "indexed": false,
          "internalType": "uint256",
          "name": "quantity",
          "type": "uint256"
        }
      ],
      "name": "Redeemed",
      "type": "event"
    },
    {
      "anonymous": false,
      "inputs": [
        {
          "indexed": true,
          "internalType": "address",
          "name": "from",
          "type": "address"
        },
        {
          "indexed": true,
          "internalType": "address",
          "name": "optionAddress",
          "type": "address"
        },
        {
          "indexed": false,
          "internalType": "uint256",
          "name": "quantity",
          "type": "uint256"
        }
      ],
      "name": "VirtualMinted",
      "type": "event"
    },
    {
      "inputs": [],
      "name": "CALLER",
      "outputs": [
        {
          "internalType": "address",
          "name": "",
          "type": "address"
        }
      ],
      "stateMutability": "view",
      "type": "function"
    },
    {
      "inputs": [],
      "name": "accelerator",
      "outputs": [
        {
          "internalType": "contract Accelerator",
          "name": "",
          "type": "address"
        }
      ],
      "stateMutability": "view",
      "type": "function"
    },
    {
      "inputs": [
        {
          "internalType": "address",
          "name": "depositor",
          "type": "address"
        },
        {
          "internalType": "address[]",
          "name": "tokens",
          "type": "address[]"
        },
        {
          "internalType": "uint256[]",
          "name": "amounts",
          "type": "uint256[]"
        }
      ],
      "name": "addTokens",
      "outputs": [
        {
          "internalType": "bool",
          "name": "",
          "type": "bool"
        }
      ],
      "stateMutability": "nonpayable",
      "type": "function"
    },
    {
      "inputs": [
        {
          "internalType": "address",
          "name": "optionAddress",
          "type": "address"
        },
        {
          "internalType": "uint256",
          "name": "quantity",
          "type": "uint256"
        }
      ],
      "name": "calculateStrikePayment",
      "outputs": [
        {
          "internalType": "uint256",
          "name": "",
          "type": "uint256"
        }
      ],
      "stateMutability": "view",
      "type": "function"
    },
    {
      "inputs": [],
      "name": "capitol",
      "outputs": [
        {
          "internalType": "contract ICapitol",
          "name": "",
          "type": "address"
        }
      ],
      "stateMutability": "view",
      "type": "function"
    },
    {
      "inputs": [
        {
          "internalType": "address",
          "name": "",
          "type": "address"
        },
        {
          "internalType": "address",
          "name": "",
          "type": "address"
        }
      ],
      "name": "credit",
      "outputs": [
        {
          "internalType": "uint256",
          "name": "",
          "type": "uint256"
        }
      ],
      "stateMutability": "view",
      "type": "function"
    },
    {
      "inputs": [
        {
          "internalType": "address",
          "name": "depositor",
          "type": "address"
        },
        {
          "internalType": "address",
          "name": "token",
          "type": "address"
        }
      ],
      "name": "creditBalanceOf",
      "outputs": [
        {
          "internalType": "uint256",
          "name": "",
          "type": "uint256"
        }
      ],
      "stateMutability": "view",
      "type": "function"
    },
    {
      "inputs": [
        {
          "internalType": "address",
          "name": "",
          "type": "address"
        },
        {
          "internalType": "address",
          "name": "",
          "type": "address"
        }
      ],
      "name": "debit",
      "outputs": [
        {
          "internalType": "uint256",
          "name": "",
          "type": "uint256"
        }
      ],
      "stateMutability": "view",
      "type": "function"
    },
    {
      "inputs": [
        {
          "internalType": "address",
          "name": "depositor",
          "type": "address"
        },
        {
          "internalType": "address",
          "name": "token",
          "type": "address"
        }
      ],
      "name": "debitBalanceOf",
      "outputs": [
        {
          "internalType": "uint256",
          "name": "",
          "type": "uint256"
        }
      ],
      "stateMutability": "view",
      "type": "function"
    },
    {
      "inputs": [
        {
          "internalType": "address",
          "name": "optionAddress",
          "type": "address"
        }
      ],
      "name": "deployVirtualOption",
      "outputs": [
        {
          "internalType": "address",
          "name": "",
          "type": "address"
        }
      ],
      "stateMutability": "nonpayable",
      "type": "function"
    },
    {
      "inputs": [
        {
          "internalType": "address",
          "name": "depositor",
          "type": "address"
        },
        {
          "internalType": "address",
          "name": "longOption",
          "type": "address"
        },
        {
          "internalType": "uint256",
          "name": "quantity",
          "type": "uint256"
        },
        {
          "internalType": "address",
          "name": "router",
          "type": "address"
        },
        {
          "internalType": "bytes",
          "name": "params",
          "type": "bytes"
        }
      ],
      "name": "doublePosition",
      "outputs": [],
      "stateMutability": "nonpayable",
      "type": "function"
    },
    {
      "inputs": [
        {
          "internalType": "address",
          "name": "depositor",
          "type": "address"
        },
        {
          "internalType": "address",
          "name": "option",
          "type": "address"
        },
        {
          "internalType": "uint256",
          "name": "quantity",
          "type": "uint256"
        },
        {
          "internalType": "address",
          "name": "router",
          "type": "address"
        },
        {
          "internalType": "bytes",
          "name": "params",
          "type": "bytes"
        }
      ],
      "name": "doubleUnwind",
      "outputs": [],
      "stateMutability": "nonpayable",
      "type": "function"
    },
    {
      "inputs": [
        {
          "internalType": "address",
          "name": "venue",
          "type": "address"
        },
        {
          "internalType": "bytes",
          "name": "params",
          "type": "bytes"
        }
      ],
      "name": "execute",
      "outputs": [
        {
          "internalType": "bool",
          "name": "",
          "type": "bool"
        }
      ],
      "stateMutability": "payable",
      "type": "function"
    },
    {
      "inputs": [
        {
          "internalType": "address",
          "name": "target",
          "type": "address"
        },
        {
          "internalType": "bytes",
          "name": "params",
          "type": "bytes"
        }
      ],
      "name": "executeCall",
      "outputs": [],
      "stateMutability": "payable",
      "type": "function"
    },
    {
      "inputs": [
        {
          "internalType": "address",
          "name": "asset",
          "type": "address"
        },
        {
          "internalType": "address",
          "name": "virtualAsset",
          "type": "address"
        }
      ],
      "name": "issueVirtual",
      "outputs": [],
      "stateMutability": "nonpayable",
      "type": "function"
    },
    {
      "inputs": [
        {
          "internalType": "address",
          "name": "longOption",
          "type": "address"
        },
        {
          "internalType": "address",
          "name": "shortOption",
          "type": "address"
        },
        {
          "internalType": "uint256",
          "name": "quantity",
          "type": "uint256"
        },
        {
          "internalType": "address",
          "name": "receiver",
          "type": "address"
        }
      ],
      "name": "openDebitSpread",
      "outputs": [],
      "stateMutability": "nonpayable",
      "type": "function"
    },
    {
      "inputs": [],
      "name": "owner",
      "outputs": [
        {
          "internalType": "address",
          "name": "",
          "type": "address"
        }
      ],
      "stateMutability": "view",
      "type": "function"
    },
    {
      "inputs": [],
      "name": "registry",
      "outputs": [
        {
          "internalType": "contract IRegistry",
          "name": "",
          "type": "address"
        }
      ],
      "stateMutability": "view",
      "type": "function"
    },
    {
      "inputs": [
        {
          "internalType": "address",
          "name": "withdrawee",
          "type": "address"
        },
        {
          "internalType": "address[]",
          "name": "tokens",
          "type": "address[]"
        },
        {
          "internalType": "uint256[]",
          "name": "amounts",
          "type": "uint256[]"
        }
      ],
      "name": "removeTokens",
      "outputs": [
        {
          "internalType": "bool",
          "name": "",
          "type": "bool"
        }
      ],
      "stateMutability": "nonpayable",
      "type": "function"
    },
    {
      "inputs": [],
      "name": "renounceOwnership",
      "outputs": [],
      "stateMutability": "nonpayable",
      "type": "function"
    },
    {
      "inputs": [
        {
          "internalType": "contract IOption",
          "name": "optionToken",
          "type": "address"
        },
        {
          "internalType": "uint256",
          "name": "closeQuantity",
          "type": "uint256"
        },
        {
          "internalType": "address",
          "name": "receiver",
          "type": "address"
        }
      ],
      "name": "safeClose",
      "outputs": [
        {
          "internalType": "uint256",
          "name": "",
          "type": "uint256"
        },
        {
          "internalType": "uint256",
          "name": "",
          "type": "uint256"
        },
        {
          "internalType": "uint256",
          "name": "",
          "type": "uint256"
        }
      ],
      "stateMutability": "nonpayable",
      "type": "function"
    },
    {
      "inputs": [
        {
          "internalType": "contract IOption",
          "name": "optionToken",
          "type": "address"
        },
        {
          "internalType": "uint256",
          "name": "closeQuantity",
          "type": "uint256"
        },
        {
          "internalType": "address",
          "name": "receiver",
          "type": "address"
        }
      ],
      "name": "safeCloseForETH",
      "outputs": [
        {
          "internalType": "uint256",
          "name": "",
          "type": "uint256"
        },
        {
          "internalType": "uint256",
          "name": "",
          "type": "uint256"
        },
        {
          "internalType": "uint256",
          "name": "",
          "type": "uint256"
        }
      ],
      "stateMutability": "nonpayable",
      "type": "function"
    },
    {
      "inputs": [
        {
          "internalType": "contract IOption",
          "name": "optionToken",
          "type": "address"
        },
        {
          "internalType": "uint256",
          "name": "exerciseQuantity",
          "type": "uint256"
        },
        {
          "internalType": "address",
          "name": "receiver",
          "type": "address"
        }
      ],
      "name": "safeExercise",
      "outputs": [
        {
          "internalType": "uint256",
          "name": "",
          "type": "uint256"
        },
        {
          "internalType": "uint256",
          "name": "",
          "type": "uint256"
        }
      ],
      "stateMutability": "nonpayable",
      "type": "function"
    },
    {
      "inputs": [
        {
          "internalType": "contract IOption",
          "name": "optionToken",
          "type": "address"
        },
        {
          "internalType": "uint256",
          "name": "exerciseQuantity",
          "type": "uint256"
        },
        {
          "internalType": "address",
          "name": "receiver",
          "type": "address"
        }
      ],
      "name": "safeExerciseForETH",
      "outputs": [
        {
          "internalType": "uint256",
          "name": "",
          "type": "uint256"
        },
        {
          "internalType": "uint256",
          "name": "",
          "type": "uint256"
        }
      ],
      "stateMutability": "nonpayable",
      "type": "function"
    },
    {
      "inputs": [
        {
          "internalType": "contract IOption",
          "name": "optionToken",
          "type": "address"
        },
        {
          "internalType": "address",
          "name": "receiver",
          "type": "address"
        }
      ],
      "name": "safeExerciseWithETH",
      "outputs": [
        {
          "internalType": "uint256",
          "name": "",
          "type": "uint256"
        },
        {
          "internalType": "uint256",
          "name": "",
          "type": "uint256"
        }
      ],
      "stateMutability": "payable",
      "type": "function"
    },
    {
      "inputs": [
        {
          "internalType": "contract IOption",
          "name": "optionToken",
          "type": "address"
        },
        {
          "internalType": "uint256",
          "name": "mintQuantity",
          "type": "uint256"
        },
        {
          "internalType": "address",
          "name": "receiver",
          "type": "address"
        }
      ],
      "name": "safeMint",
      "outputs": [
        {
          "internalType": "uint256",
          "name": "",
          "type": "uint256"
        },
        {
          "internalType": "uint256",
          "name": "",
          "type": "uint256"
        }
      ],
      "stateMutability": "nonpayable",
      "type": "function"
    },
    {
      "inputs": [
        {
          "internalType": "contract IOption",
          "name": "optionToken",
          "type": "address"
        },
        {
          "internalType": "address",
          "name": "receiver",
          "type": "address"
        }
      ],
      "name": "safeMintWithETH",
      "outputs": [
        {
          "internalType": "uint256",
          "name": "",
          "type": "uint256"
        },
        {
          "internalType": "uint256",
          "name": "",
          "type": "uint256"
        }
      ],
      "stateMutability": "payable",
      "type": "function"
    },
    {
      "inputs": [
        {
          "internalType": "contract IOption",
          "name": "optionToken",
          "type": "address"
        },
        {
          "internalType": "uint256",
          "name": "redeemQuantity",
          "type": "uint256"
        },
        {
          "internalType": "address",
          "name": "receiver",
          "type": "address"
        }
      ],
      "name": "safeRedeem",
      "outputs": [
        {
          "internalType": "uint256",
          "name": "",
          "type": "uint256"
        }
      ],
      "stateMutability": "nonpayable",
      "type": "function"
    },
    {
      "inputs": [
        {
          "internalType": "contract IOption",
          "name": "optionToken",
          "type": "address"
        },
        {
          "internalType": "uint256",
          "name": "redeemQuantity",
          "type": "uint256"
        },
        {
          "internalType": "address",
          "name": "receiver",
          "type": "address"
        }
      ],
      "name": "safeRedeemForETH",
      "outputs": [
        {
          "internalType": "uint256",
          "name": "",
          "type": "uint256"
        }
      ],
      "stateMutability": "nonpayable",
      "type": "function"
    },
    {
      "inputs": [
        {
          "internalType": "contract IOption",
          "name": "optionToken",
          "type": "address"
        },
        {
          "internalType": "uint256",
          "name": "unwindQuantity",
          "type": "uint256"
        },
        {
          "internalType": "address",
          "name": "receiver",
          "type": "address"
        }
      ],
      "name": "safeUnwind",
      "outputs": [
        {
          "internalType": "uint256",
          "name": "",
          "type": "uint256"
        },
        {
          "internalType": "uint256",
          "name": "",
          "type": "uint256"
        },
        {
          "internalType": "uint256",
          "name": "",
          "type": "uint256"
        }
      ],
      "stateMutability": "nonpayable",
      "type": "function"
    },
    {
      "inputs": [
        {
          "internalType": "address",
          "name": "token",
          "type": "address"
        },
        {
          "internalType": "uint256",
          "name": "quantity",
          "type": "uint256"
        }
      ],
      "name": "takeTokensFromUser",
      "outputs": [],
      "stateMutability": "nonpayable",
      "type": "function"
    },
    {
      "inputs": [
        {
          "internalType": "address",
          "name": "newOwner",
          "type": "address"
        }
      ],
      "name": "transferOwnership",
      "outputs": [],
      "stateMutability": "nonpayable",
      "type": "function"
    },
    {
      "inputs": [
        {
          "internalType": "address",
          "name": "optionAddress",
          "type": "address"
        },
        {
          "internalType": "uint256",
          "name": "quantity",
          "type": "uint256"
        },
        {
          "internalType": "address",
          "name": "receiver",
          "type": "address"
        }
      ],
      "name": "virtualExercise",
      "outputs": [],
      "stateMutability": "nonpayable",
      "type": "function"
    },
    {
      "inputs": [
        {
          "internalType": "address",
          "name": "optionAddress",
          "type": "address"
        },
        {
          "internalType": "uint256",
          "name": "quantity",
          "type": "uint256"
        },
        {
          "internalType": "address",
          "name": "receiver",
          "type": "address"
        }
      ],
      "name": "virtualMint",
      "outputs": [
        {
          "internalType": "address",
          "name": "",
          "type": "address"
        }
      ],
      "stateMutability": "nonpayable",
      "type": "function"
    },
    {
      "inputs": [
        {
          "internalType": "address",
          "name": "from",
          "type": "address"
        },
        {
          "internalType": "address",
          "name": "optionAddress",
          "type": "address"
        },
        {
          "internalType": "uint256",
          "name": "quantity",
          "type": "uint256"
        },
        {
          "internalType": "address",
          "name": "receiver",
          "type": "address"
        }
      ],
      "name": "virtualMintFrom",
      "outputs": [
        {
          "internalType": "address",
          "name": "",
          "type": "address"
        }
      ],
      "stateMutability": "nonpayable",
      "type": "function"
    },
    {
      "inputs": [
        {
          "internalType": "address",
          "name": "",
          "type": "address"
        }
      ],
      "name": "virtualOptions",
      "outputs": [
        {
          "internalType": "address",
          "name": "",
          "type": "address"
        }
      ],
      "stateMutability": "view",
      "type": "function"
    },
    {
      "inputs": [],
      "name": "weth",
      "outputs": [
        {
          "internalType": "contract IWETH",
          "name": "",
          "type": "address"
        }
      ],
      "stateMutability": "view",
      "type": "function"
    },
    {
      "stateMutability": "payable",
      "type": "receive"
    }
  ],
  "bytecode": "0x60806040523480156200001157600080fd5b506040516200559338038062005593833981810160405260608110156200003757600080fd5b50805160208201516040909201519091908282806000620000606001600160e01b036200019916565b600080546001600160a01b0319166001600160a01b0383169081178255604051929350917f8be0079c531659141344cd1fd0a4f28419497f9722a3daafe3b4186f6b6457e0908290a35060018055600280546001600160a01b0319166001600160a01b03928316179055600554161562000113576040805162461bcd60e51b815260206004820152600f60248201526e11549497d253925512505312569151608a1b604482015290519081900360640190fd5b50600580546001600160a01b03199081166001600160a01b03938416179091556006805490911691831691909117905560405162000151906200019d565b604051809103906000f0801580156200016e573d6000803e3d6000fd5b50600780546001600160a01b0319166001600160a01b039290921691909117905550620001ab915050565b3390565b6101e880620053ab83390190565b6151f080620001bb6000396000f3fe60806040526004361061021d5760003560e01c8063715018a611610123578063a13aaded116100ab578063bca8c7b51161006f578063bca8c7b514610cb9578063c9c9163e14610d37578063cc1f0d2d14610d7a578063f0ca1d5614610db5578063f2fde38b14610dfe57610238565b8063a13aaded14610a7d578063a1d8778f14610bbd578063a751820e14610c00578063b6b865d514610c33578063b8a6bb3b14610c7657610238565b806380e42f8e116100f257806380e42f8e146109bc5780638549780b146109ea578063863dabb414610a185780638da5cb5b14610a2d5780639b12699114610a4257610238565b8063715018a614610878578063787649851461088d5780637b103999146108d05780637cb40c0b146108e557610238565b8063381024bf116101a65780634cec9ce3116101755780634cec9ce31461064657806350e2f0ba1461078657806357d4d5b7146107c957806369a067b8146108025780636db8ce241461083557610238565b8063381024bf146105725780633c51df7c146105ad5780633dd5cd93146105f65780633fc8cef31461063157610238565b80631646f4dc116101ed5780631646f4dc146103665780631c05ca8d1461043d5780631cff79cd1461045257806320e469d6146104e45780633218a3ad1461052757610238565b8062cbf5911461023d578063045bf4cd1461026e578063087b0632146102a9578063154fa0891461030557610238565b36610238576005546001600160a01b0316331461023657fe5b005b600080fd5b34801561024957600080fd5b50610252610e31565b604080516001600160a01b039092168252519081900360200190f35b34801561027a57600080fd5b506102366004803603604081101561029157600080fd5b506001600160a01b0381358116916020013516610e40565b3480156102b557600080fd5b506102ec600480360360608110156102cc57600080fd5b506001600160a01b03813581169160208101359160409091013516610ed7565b6040805192835260208301919091528051918290030190f35b34801561031157600080fd5b506103486004803603606081101561032857600080fd5b506001600160a01b038135811691602081013591604090910135166114c9565b60408051938452602084019290925282820152519081900360600190f35b34801561037257600080fd5b50610236600480360360a081101561038957600080fd5b6001600160a01b0382358116926020810135821692604082013592606083013516919081019060a081016080820135600160201b8111156103c957600080fd5b8201836020820111156103db57600080fd5b803590602001918460018302840111600160201b831117156103fc57600080fd5b91908080601f0160208091040260200160405190810160405280939291908181526020018383808284376000920191909152509295506114d5945050505050565b34801561044957600080fd5b506102526114f6565b6104d06004803603604081101561046857600080fd5b6001600160a01b038235169190810190604081016020820135600160201b81111561049257600080fd5b8201836020820111156104a457600080fd5b803590602001918460018302840111600160201b831117156104c557600080fd5b509092509050611505565b604080519115158252519081900360200190f35b3480156104f057600080fd5b506102ec6004803603606081101561050757600080fd5b506001600160a01b0381358116916020810135916040909101351661161c565b34801561053357600080fd5b506105606004803603604081101561054a57600080fd5b506001600160a01b0381351690602001356118e7565b60408051918252519081900360200190f35b34801561057e57600080fd5b506105606004803603604081101561059557600080fd5b506001600160a01b03813581169160200135166119ef565b3480156105b957600080fd5b50610252600480360360808110156105d057600080fd5b506001600160a01b03813581169160208101358216916040820135916060013516611a0c565b34801561060257600080fd5b506105606004803603604081101561061957600080fd5b506001600160a01b0381358116916020013516611a94565b34801561063d57600080fd5b50610252611ac0565b34801561065257600080fd5b506104d06004803603606081101561066957600080fd5b6001600160a01b038235169190810190604081016020820135600160201b81111561069357600080fd5b8201836020820111156106a557600080fd5b803590602001918460208302840111600160201b831117156106c657600080fd5b9190808060200260200160405190810160405280939291908181526020018383602002808284376000920191909152509295949360208101935035915050600160201b81111561071557600080fd5b82018360208201111561072757600080fd5b803590602001918460208302840111600160201b8311171561074857600080fd5b919080806020026020016040519081016040528093929190818152602001838360200280828437600092019190915250929550611acf945050505050565b34801561079257600080fd5b50610348600480360360608110156107a957600080fd5b506001600160a01b03813581169160208101359160409091013516611bc2565b3480156107d557600080fd5b50610236600480360360408110156107ec57600080fd5b506001600160a01b038135169060200135611c47565b34801561080e57600080fd5b506102526004803603602081101561082557600080fd5b50356001600160a01b0316611cd0565b34801561084157600080fd5b506102ec6004803603606081101561085857600080fd5b506001600160a01b03813581169160208101359160409091013516611e4e565b34801561088457600080fd5b50610236611f85565b34801561089957600080fd5b50610252600480360360608110156108b057600080fd5b506001600160a01b03813581169160208101359160409091013516612039565b3480156108dc57600080fd5b506102526120bf565b3480156108f157600080fd5b50610236600480360360a081101561090857600080fd5b6001600160a01b0382358116926020810135821692604082013592606083013516919081019060a081016080820135600160201b81111561094857600080fd5b82018360208201111561095a57600080fd5b803590602001918460018302840111600160201b8311171561097b57600080fd5b91908080601f0160208091040260200160405190810160405280939291908181526020018383808284376000920191909152509295506120ce945050505050565b6102ec600480360360408110156109d257600080fd5b506001600160a01b03813581169160200135166120db565b6102ec60048036036040811015610a0057600080fd5b506001600160a01b03813581169160200135166123d0565b348015610a2457600080fd5b506102526125bc565b348015610a3957600080fd5b506102526125cb565b348015610a4e57600080fd5b5061056060048036036040811015610a6557600080fd5b506001600160a01b03813581169160200135166125da565b348015610a8957600080fd5b506104d060048036036060811015610aa057600080fd5b6001600160a01b038235169190810190604081016020820135600160201b811115610aca57600080fd5b820183602082011115610adc57600080fd5b803590602001918460208302840111600160201b83111715610afd57600080fd5b9190808060200260200160405190810160405280939291908181526020018383602002808284376000920191909152509295949360208101935035915050600160201b811115610b4c57600080fd5b820183602082011115610b5e57600080fd5b803590602001918460208302840111600160201b83111715610b7f57600080fd5b919080806020026020016040519081016040528093929190818152602001838360200280828437600092019190915250929550612606945050505050565b348015610bc957600080fd5b5061056060048036036060811015610be057600080fd5b506001600160a01b038135811691602081013591604090910135166126e2565b348015610c0c57600080fd5b5061025260048036036020811015610c2357600080fd5b50356001600160a01b0316612a92565b348015610c3f57600080fd5b5061023660048036036060811015610c5657600080fd5b506001600160a01b03813581169160208101359160409091013516612aad565b348015610c8257600080fd5b5061034860048036036060811015610c9957600080fd5b506001600160a01b03813581169160208101359160409091013516612f93565b61023660048036036040811015610ccf57600080fd5b6001600160a01b038235169190810190604081016020820135600160201b811115610cf957600080fd5b820183602082011115610d0b57600080fd5b803590602001918460018302840111600160201b83111715610d2c57600080fd5b5090925090506134d8565b348015610d4357600080fd5b5061056060048036036060811015610d5a57600080fd5b506001600160a01b038135811691602081013591604090910135166135be565b348015610d8657600080fd5b5061056060048036036040811015610d9d57600080fd5b506001600160a01b0381358116916020013516613628565b348015610dc157600080fd5b5061023660048036036080811015610dd857600080fd5b506001600160a01b03813581169160208101358216916040820135916060013516613645565b348015610e0a57600080fd5b5061023660048036036020811015610e2157600080fd5b50356001600160a01b0316613b4b565b6006546001600160a01b031681565b6040805163485cc95560e01b81526001600160a01b03848116600483015230602483015291519183169163485cc9559160448082019260009290919082900301818387803b158015610e9157600080fd5b505af1158015610ea5573d6000803e3d6000fd5b505050506001600160a01b03918216600090815260046020526040902080546001600160a01b03191691909216179055565b6000808360008111610f1b576040805162461bcd60e51b81526020600482015260086024820152674552525f5a45524f60c01b604482015290519081900360640190fd5b6001600160a01b038087166000818152600360209081526040808320548151632207afe960e11b8152915195169492939263440f5fd292600480840193919291829003018186803b158015610f6f57600080fd5b505afa158015610f83573d6000803e3d6000fd5b505050506040513d6020811015610f9957600080fd5b50516040805163a1a4076160e01b815290519192506000916001600160a01b038b169163a1a40761916004808301926020929190829003018186803b158015610fe157600080fd5b505afa158015610ff5573d6000803e3d6000fd5b505050506040513d602081101561100b57600080fd5b50519050600061101b848a613c55565b604080516323b872dd60e01b81523360048201526001600160a01b03871660248201819052604482018d9052915192935090916323b872dd916064808201926020929091908290030181600087803b15801561107657600080fd5b505af115801561108a573d6000803e3d6000fd5b505050506040513d60208110156110a057600080fd5b506110ab9050615161565b506001600160a01b038083166000908152600460208181526040808420815180840183529054861680825282516340c10f1960e01b8152968b1694870194909452602486018790529051909492936340c10f19936044808201949392918390030190829087803b15801561111e57600080fd5b505af1158015611132573d6000803e3d6000fd5b505050506040513d602081101561114857600080fd5b50506040805160008082526020820190925281906001600160a01b0388169063787eae309030908f906040518463ffffffff1660e01b815260040180846001600160a01b03166001600160a01b0316815260200183815260200180602001828103825283818151815260200191508051906020019080838360005b838110156111db5781810151838201526020016111c3565b50505050905090810190601f1680156112085780820380516001836020036101000a031916815260200191505b509450505050506040805180830381600087803b15801561122857600080fd5b505af115801561123c573d6000803e3d6000fd5b505050506040513d604081101561125257600080fd5b5080516020909101519092509050611268615161565b60046000886001600160a01b03166001600160a01b031681526020019081526020016000206040518060200160405290816000820160009054906101000a90046001600160a01b03166001600160a01b03166001600160a01b031681525050905080600001516001600160a01b0316639dc29fac308f6040518363ffffffff1660e01b815260040180836001600160a01b03166001600160a01b0316815260200182815260200192505050602060405180830381600087803b15801561132d57600080fd5b505af1158015611341573d6000803e3d6000fd5b505050506040513d602081101561135757600080fd5b5050604080516323b872dd60e01b81523360048201523060248201526044810187905290516001600160a01b038816916323b872dd9160648083019260209291908290030181600087803b1580156113ae57600080fd5b505af11580156113c2573d6000803e3d6000fd5b505050506040513d60208110156113d857600080fd5b810190808051906020019092919050505050866001600160a01b031663a9059cbb8d8f6040518363ffffffff1660e01b815260040180836001600160a01b03166001600160a01b0316815260200182815260200192505050602060405180830381600087803b15801561144a57600080fd5b505af115801561145e573d6000803e3d6000fd5b505050506040513d602081101561147457600080fd5b5050604080518e815290516001600160a01b038a169133917f3cea488905b3fa93b6aaaf21e913395e548b6e79dbe6099a527f6aa8059b23d19181900360200190a350909c909b509950505050505050505050565b50600092839250829150565b6114e185858530611a0c565b506114ef8585858585613d3c565b5050505050565b6007546001600160a01b031681565b60006002600154141561155f576040805162461bcd60e51b815260206004820152601f60248201527f5265656e7472616e637947756172643a207265656e7472616e742063616c6c00604482015290519081900360640190fd5b6002600155600880546001600160a01b031916331790556007546040805163bca8c7b560e01b81526001600160a01b0387811660048301908152602483019384526044830187905293169263bca8c7b5928892889288929091606401848480828437600081840152601f19601f820116905080830192505050945050505050600060405180830381600087803b1580156115f857600080fd5b505af115801561160c573d6000803e3d6000fd5b5050600180555090949350505050565b6000808360008111611660576040805162461bcd60e51b81526020600482015260086024820152674552525f5a45524f60c01b604482015290519081900360640190fd5b6000866001600160a01b031663440f5fd26040518163ffffffff1660e01b815260040160206040518083038186803b15801561169b57600080fd5b505afa1580156116af573d6000803e3d6000fd5b505050506040513d60208110156116c557600080fd5b5051604080516323b872dd60e01b81523360048201523060248201526044810189905290519192506001600160a01b038316916323b872dd916064808201926020929091908290030181600087803b15801561172057600080fd5b505af1158015611734573d6000803e3d6000fd5b505050506040513d602081101561174a57600080fd5b50506001600160a01b038088166000908152600360205260409020541661176f615161565b506001600160a01b038083166000908152600460208181526040808420815180840183529054861680825282516340c10f1960e01b815296881694870194909452602486018d90529051909492936340c10f19936044808201949392918390030190829087803b1580156117e257600080fd5b505af11580156117f6573d6000803e3d6000fd5b505050506040513d602081101561180c57600080fd5b50506001600160a01b038216337f03f17d66ad3bf18e9412eb06582908831508cdb9b8da9cddb1431f645a5b86328a6118458d82613c55565b6040805192835260208301919091528051918290030190a360408051633ea6b5f160e21b81526001600160a01b03898116600483015282519085169263fa9ad7c492602480820193918290030181600087803b1580156118a457600080fd5b505af11580156118b8573d6000803e3d6000fd5b505050506040513d60408110156118ce57600080fd5b508051602090910151909a909950975050505050505050565b600080836001600160a01b031663b592a1386040518163ffffffff1660e01b815260040160206040518083038186803b15801561192357600080fd5b505afa158015611937573d6000803e3d6000fd5b505050506040513d602081101561194d57600080fd5b505160408051627f0cfd60e11b815290519192506000916001600160a01b0387169162fe19fa916004808301926020929190829003018186803b15801561199357600080fd5b505afa1580156119a7573d6000803e3d6000fd5b505050506040513d60208110156119bd57600080fd5b5051905060006119e3836119d7878563ffffffff61422716565b9063ffffffff61428716565b93505050505b92915050565b600960209081526000928352604080842090915290825290205481565b600080611a1a8585856142c9565b9050611a8b86866001600160a01b031663440f5fd26040518163ffffffff1660e01b815260040160206040518083038186803b158015611a5957600080fd5b505afa158015611a6d573d6000803e3d6000fd5b505050506040513d6020811015611a8357600080fd5b5051866144e2565b95945050505050565b6001600160a01b0380821660009081526009602090815260408083209386168352929052205492915050565b6005546001600160a01b031681565b6000611ade848484600161453b565b50825160005b81811015611bb6576000858281518110611afa57fe5b602002602001015190506000858381518110611b1257fe5b60200260200101519050816001600160a01b031663a9059cbb89836040518363ffffffff1660e01b815260040180836001600160a01b03166001600160a01b0316815260200182815260200192505050602060405180830381600087803b158015611b7c57600080fd5b505af1158015611b90573d6000803e3d6000fd5b505050506040513d6020811015611ba657600080fd5b505060019092019150611ae49050565b50600195945050505050565b60008060008460008111611c08576040805162461bcd60e51b81526020600482015260086024820152674552525f5a45524f60c01b604482015290519081900360640190fd5b6000806000611c188a8a30612f93565b6005549295509093509150611c37906001600160a01b0316898b614767565b9199909850909650945050505050565b600854604080516323b872dd60e01b81526001600160a01b039283166004820181905233602483015260448201859052915191928516916323b872dd916064808201926020929091908290030181600087803b158015611ca657600080fd5b505af1158015611cba573d6000803e3d6000fd5b505050506040513d60208110156114ef57600080fd5b600080600080600080866001600160a01b031663a5ea11da6040518163ffffffff1660e01b815260040160c06040518083038186803b158015611d1257600080fd5b505afa158015611d26573d6000803e3d6000fd5b505050506040513d60c0811015611d3c57600080fd5b5080516020808301516060840151608085015160a0909501516002546001600160a01b03808716600090815260048088526040808320548489168452818420548251639180928f60e01b815291861693820193909352918416602483015260448201879052606482018b90526084820186905251989e50959c50939a5096985090965090941692639180928f9260a48084019391929182900301818787803b158015611de757600080fd5b505af1158015611dfb573d6000803e3d6000fd5b505050506040513d6020811015611e1157600080fd5b50516001600160a01b03988916600090815260036020526040902080546001600160a01b0319169982169990991790985550959695505050505050565b6000808360008111611e92576040805162461bcd60e51b81526020600482015260086024820152674552525f5a45524f60c01b604482015290519081900360640190fd5b6000866001600160a01b031663440f5fd26040518163ffffffff1660e01b815260040160206040518083038186803b158015611ecd57600080fd5b505afa158015611ee1573d6000803e3d6000fd5b505050506040513d6020811015611ef757600080fd5b50516005549091506001600160a01b03808316911614611f4d576040805162461bcd60e51b815260206004820152600c60248201526b08aa4a4be9c9ea8beae8aa8960a31b604482015290519081900360640190fd5b600080611f5b898930610ed7565b6005549193509150611f77906001600160a01b0316888a614767565b909890975095505050505050565b611f8d614871565b6000546001600160a01b03908116911614611fef576040805162461bcd60e51b815260206004820181905260248201527f4f776e61626c653a2063616c6c6572206973206e6f7420746865206f776e6572604482015290519081900360640190fd5b600080546040516001600160a01b03909116907f8be0079c531659141344cd1fd0a4f28419497f9722a3daafe3b4186f6b6457e0908390a3600080546001600160a01b0319169055565b6000806120478585856142c9565b90506120b7856001600160a01b031663440f5fd26040518163ffffffff1660e01b815260040160206040518083038186803b15801561208557600080fd5b505afa158015612099573d6000803e3d6000fd5b505050506040513d60208110156120af57600080fd5b505185614875565b949350505050565b6002546001600160a01b031681565b6114ef85858585856148f4565b600080346000811161211f576040805162461bcd60e51b81526020600482015260086024820152674552525f5a45524f60c01b604482015290519081900360640190fd5b6000856001600160a01b031663a1a407616040518163ffffffff1660e01b815260040160206040518083038186803b15801561215a57600080fd5b505afa15801561216e573d6000803e3d6000fd5b505050506040513d602081101561218457600080fd5b50516005549091506001600160a01b038083169116146121da576040805162461bcd60e51b815260206004820152600c60248201526b08aa4a4be9c9ea8beae8aa8960a31b604482015290519081900360640190fd5b3460006121e78883614c6a565b600554909150612201906001600160a01b03168934614d19565b604080516323b872dd60e01b81523360048201526001600160a01b038a16602482018190526044820184905291516323b872dd916064808201926020929091908290030181600087803b15801561225757600080fd5b505af115801561226b573d6000803e3d6000fd5b505050506040513d602081101561228157600080fd5b50506040805182815290516001600160a01b038a169133917f3cea488905b3fa93b6aaaf21e913395e548b6e79dbe6099a527f6aa8059b23d19181900360200190a36040805160008082526020820192839052630787eae360e41b83526001600160a01b038a81166024840190815260448401869052606060648501908152845160848601819052928e169563787eae30958e9589959194939260a486019290918190849084905b83811015612341578181015183820152602001612329565b50505050905090810190601f16801561236e5780820380516001836020036101000a031916815260200191505b509450505050506040805180830381600087803b15801561238e57600080fd5b505af11580156123a2573d6000803e3d6000fd5b505050506040513d60408110156123b857600080fd5b50805160209091015190999098509650505050505050565b6000803460008111612414576040805162461bcd60e51b81526020600482015260086024820152674552525f5a45524f60c01b604482015290519081900360640190fd5b6000856001600160a01b031663440f5fd26040518163ffffffff1660e01b815260040160206040518083038186803b15801561244f57600080fd5b505afa158015612463573d6000803e3d6000fd5b505050506040513d602081101561247957600080fd5b50516005549091506001600160a01b038083169116146124cf576040805162461bcd60e51b815260206004820152600c60248201526b08aa4a4be9c9ea8beae8aa8960a31b604482015290519081900360640190fd5b6005546124e6906001600160a01b03168734614d19565b6001600160a01b038616337f03f17d66ad3bf18e9412eb06582908831508cdb9b8da9cddb1431f645a5b86323461251d8a82613c55565b6040805192835260208301919091528051918290030190a360408051633ea6b5f160e21b81526001600160a01b03878116600483015282519089169263fa9ad7c492602480820193918290030181600087803b15801561257c57600080fd5b505af1158015612590573d6000803e3d6000fd5b505050506040513d60408110156125a657600080fd5b5080516020909101519097909650945050505050565b6008546001600160a01b031681565b6000546001600160a01b031690565b6001600160a01b038082166000908152600a602090815260408083209386168352929052205492915050565b8151600090815b818110156126d457600085828151811061262357fe5b60200260200101519050600085838151811061263b57fe5b602090810291909101810151604080516323b872dd60e01b81523360048201523060248201526044810183905290519193506001600160a01b038516926323b872dd926064808401938290030181600087803b15801561269a57600080fd5b505af11580156126ae573d6000803e3d6000fd5b505050506040513d60208110156126c457600080fd5b50506001909201915061260d9050565b50611a8b8585856000614dbe565b60008260008111612725576040805162461bcd60e51b81526020600482015260086024820152674552525f5a45524f60c01b604482015290519081900360640190fd5b6001600160a01b03808616600090815260036020908152604091829020548251632f310bad60e01b815292519316928392632f310bad926004808301939192829003018186803b15801561277857600080fd5b505afa15801561278c573d6000803e3d6000fd5b505050506040513d60208110156127a257600080fd5b5051604080516323b872dd60e01b81523360048201526001600160a01b03848116602483015260448201899052915191909216916323b872dd9160648083019260209291908290030181600087803b1580156127fd57600080fd5b505af1158015612811573d6000803e3d6000fd5b505050506040513d602081101561282757600080fd5b50506040805163a1a4076160e01b815290516000916001600160a01b0389169163a1a4076191600480820192602092909190829003018186803b15801561286d57600080fd5b505afa158015612881573d6000803e3d6000fd5b505050506040513d602081101561289757600080fd5b505190506128a3615161565b506001600160a01b038082166000908152600460208181526040808420815180840183529054861681528151635e86929d60e01b8152309481019490945290519094871692635e86929d92602480830193919282900301818787803b15801561290b57600080fd5b505af115801561291f573d6000803e3d6000fd5b505050506040513d602081101561293557600080fd5b5051825160408051632770a7eb60e21b8152306004820152602481018c905290519293506001600160a01b0390911691639dc29fac916044808201926020929091908290030181600087803b15801561298d57600080fd5b505af11580156129a1573d6000803e3d6000fd5b505050506040513d60208110156129b757600080fd5b50506040805189815290516001600160a01b038b169133917f27d4634c833b7622a0acddbf7f746183625f105945e95c723ad1d5a9f2a0b6fc9181900360200190a3826001600160a01b031663a9059cbb88836040518363ffffffff1660e01b815260040180836001600160a01b03166001600160a01b0316815260200182815260200192505050602060405180830381600087803b158015612a5957600080fd5b505af1158015612a6d573d6000803e3d6000fd5b505050506040513d6020811015612a8357600080fd5b50909998505050505050505050565b6003602052600090815260409020546001600160a01b031681565b6001600160a01b038084166000908152600360205260409020541680612b0d576040805162461bcd60e51b815260206004820152601060248201526f11549497d393d517d111541313d6515160821b604482015290519081900360640190fd5b6000846001600160a01b031663440f5fd26040518163ffffffff1660e01b815260040160206040518083038186803b158015612b4857600080fd5b505afa158015612b5c573d6000803e3d6000fd5b505050506040513d6020811015612b7257600080fd5b50516040805163a1a4076160e01b815290519192506000916001600160a01b0388169163a1a40761916004808301926020929190829003018186803b158015612bba57600080fd5b505afa158015612bce573d6000803e3d6000fd5b505050506040513d6020811015612be457600080fd5b5051604080516323b872dd60e01b81523360048201526001600160a01b0386166024820181905260448201899052915192935090916323b872dd916064808201926020929091908290030181600087803b158015612c4157600080fd5b505af1158015612c55573d6000803e3d6000fd5b505050506040513d6020811015612c6b57600080fd5b5060009050612c7a87876118e7565b6001600160a01b0380841660009081526004602081815260408084205481516340c10f1960e01b81528b871694810194909452602484018790529051959650909316936340c10f199360448084019491938390030190829087803b158015612ce157600080fd5b505af1158015612cf5573d6000803e3d6000fd5b505050506040513d6020811015612d0b57600080fd5b50506040805160008082526020820192839052630787eae360e41b83523060248301818152604484018b90526060606485019081528451608486018190526001600160a01b038b169663787eae309694958e9594939260a4860192918190849084905b83811015612d86578181015183820152602001612d6e565b50505050905090810190601f168015612db35780820380516001836020036101000a031916815260200191505b509450505050506040805180830381600087803b158015612dd357600080fd5b505af1158015612de7573d6000803e3d6000fd5b505050506040513d6040811015612dfd57600080fd5b50506001600160a01b038084166000908152600460208181526040808420548151632770a7eb60e21b81523094810194909452602484018c90529051941693639dc29fac936044808501948390030190829087803b158015612e5e57600080fd5b505af1158015612e72573d6000803e3d6000fd5b505050506040513d6020811015612e8857600080fd5b50506040805163a9059cbb60e01b81526001600160a01b0387811660048301526024820189905291519185169163a9059cbb916044808201926020929091908290030181600087803b158015612edd57600080fd5b505af1158015612ef1573d6000803e3d6000fd5b505050506040513d6020811015612f0757600080fd5b5050604080516323b872dd60e01b81523360048201523060248201526044810183905290516001600160a01b038416916323b872dd9160648083019260209291908290030181600087803b158015612f5e57600080fd5b505af1158015612f72573d6000803e3d6000fd5b505050506040513d6020811015612f8857600080fd5b505050505050505050565b60008060008460008111612fd9576040805162461bcd60e51b81526020600482015260086024820152674552525f5a45524f60c01b604482015290519081900360640190fd5b6001600160a01b03808816600090815260036020526040812054909116906130018989613c55565b9050816001600160a01b0316632f310bad6040518163ffffffff1660e01b815260040160206040518083038186803b15801561303c57600080fd5b505afa158015613050573d6000803e3d6000fd5b505050506040513d602081101561306657600080fd5b5051604080516323b872dd60e01b81523360048201526001600160a01b03858116602483015260448201859052915191909216916323b872dd9160648083019260209291908290030181600087803b1580156130c157600080fd5b505af11580156130d5573d6000803e3d6000fd5b505050506040513d60208110156130eb57600080fd5b50506040805162972d6f60e61b8152905142916001600160a01b038516916325cb5bc091600480820192602092909190829003018186803b15801561312f57600080fd5b505afa158015613143573d6000803e3d6000fd5b505050506040513d602081101561315957600080fd5b5051106131e357604080516323b872dd60e01b81523360048201526001600160a01b03841660248201819052604482018b905291516323b872dd916064808201926020929091908290030181600087803b1580156131b657600080fd5b505af11580156131ca573d6000803e3d6000fd5b505050506040513d60208110156131e057600080fd5b50505b6000806000846001600160a01b03166383499805306040518263ffffffff1660e01b815260040180826001600160a01b03166001600160a01b03168152602001915050606060405180830381600087803b15801561324057600080fd5b505af1158015613254573d6000803e3d6000fd5b505050506040513d606081101561326a57600080fd5b8101908080519060200190929190805190602001909291908051906020019092919050505092509250925060008c6001600160a01b031663440f5fd26040518163ffffffff1660e01b815260040160206040518083038186803b1580156132d057600080fd5b505afa1580156132e4573d6000803e3d6000fd5b505050506040513d60208110156132fa57600080fd5b50519050613306615161565b60046000836001600160a01b03166001600160a01b031681526020019081526020016000206040518060200160405290816000820160009054906101000a90046001600160a01b03166001600160a01b03166001600160a01b031681525050905080600001516001600160a01b0316639dc29fac308f6040518363ffffffff1660e01b815260040180836001600160a01b03166001600160a01b0316815260200182815260200192505050602060405180830381600087803b1580156133cb57600080fd5b505af11580156133df573d6000803e3d6000fd5b505050506040513d60208110156133f557600080fd5b5050604080518e815290516001600160a01b0389169133917f62d095e2c4513ab737ede7cbd30334eccb10424cbc543ebb5c458b5174cddcd59181900360200190a3816001600160a01b031663a9059cbb8d856040518363ffffffff1660e01b815260040180836001600160a01b03166001600160a01b0316815260200182815260200192505050602060405180830381600087803b15801561349757600080fd5b505af11580156134ab573d6000803e3d6000fd5b505050506040513d60208110156134c157600080fd5b50949e939d50919b50919950505050505050505050565b60006060846001600160a01b0316348585604051808383808284376040519201945060009350909150508083038185875af1925050503d806000811461353a576040519150601f19603f3d011682016040523d82523d6000602084013e61353f565b606091505b509150915081801561356d57508051158061356d575080806020019051602081101561356a57600080fd5b50515b6114ef576040805162461bcd60e51b815260206004820152601b60248201527f416363656c657261746f723a20455845435554494f4e5f4641494c0000000000604482015290519081900360640190fd5b60008260008111613601576040805162461bcd60e51b81526020600482015260086024820152674552525f5a45524f60c01b604482015290519081900360640190fd5b600061360e8686306126e2565b600554909150611a8b906001600160a01b03168587614767565b600a60209081526000928352604080842090915290825290205481565b6001600160a01b038085166000908152600360209081526040808320548785168452818420548251627f0cfd60e11b8152925191861695169392859262fe19fa9260048083019392829003018186803b1580156136a157600080fd5b505afa1580156136b5573d6000803e3d6000fd5b505050506040513d60208110156136cb57600080fd5b505160408051627f0cfd60e11b815290519192506000916001600160a01b0385169162fe19fa916004808301926020929190829003018186803b15801561371157600080fd5b505afa158015613725573d6000803e3d6000fd5b505050506040513d602081101561373b57600080fd5b5051905081811015613788576040805162461bcd60e51b815260206004820152601160248201527011549497d0d49151125517d4d414915051607a1b604482015290519081900360640190fd5b600061379a828463ffffffff614fc916565b90506000600460008a6001600160a01b031663440f5fd26040518163ffffffff1660e01b815260040160206040518083038186803b1580156137db57600080fd5b505afa1580156137ef573d6000803e3d6000fd5b505050506040513d602081101561380557600080fd5b50516001600160a01b03908116825260208281019390935260409182016000908120805484516340c10f1960e01b81528b85166004820152602481018f90529451919650909216936340c10f19936044808201949293918390030190829087803b15801561387257600080fd5b505af1158015613886573d6000803e3d6000fd5b505050506040513d602081101561389c57600080fd5b505060408051633ea6b5f160e21b815230600482015281516001600160a01b0388169263fa9ad7c492602480820193918290030181600087803b1580156138e257600080fd5b505af11580156138f6573d6000803e3d6000fd5b505050506040513d604081101561390c57600080fd5b50506040805163a9059cbb60e01b81526001600160a01b038981166004830152602482018b905291519187169163a9059cbb916044808201926020929091908290030181600087803b15801561396157600080fd5b505af1158015613975573d6000803e3d6000fd5b505050506040513d602081101561398b57600080fd5b505060408051632f310bad60e01b815290516001600160a01b03871691632f310bad916004808301926020929190829003018186803b1580156139cd57600080fd5b505afa1580156139e1573d6000803e3d6000fd5b505050506040513d60208110156139f757600080fd5b50516040805163a9059cbb60e01b81526001600160a01b038a81166004830152602482018690529151919092169163a9059cbb9160448083019260209291908290030181600087803b158015613a4c57600080fd5b505af1158015613a60573d6000803e3d6000fd5b505050506040513d6020811015613a7657600080fd5b5050604080516323b872dd60e01b8152336004820152306024820152604481018a905290516001600160a01b038816916323b872dd9160648083019260209291908290030181600087803b158015613acd57600080fd5b505af1158015613ae1573d6000803e3d6000fd5b505050506040513d6020811015613af757600080fd5b50506040805189815290516001600160a01b03808c1692908d169133917f33a45968f4205599a1893a1cca6f79ccfbb725c57197feee1fb493c45f3f376c919081900360200190a450505050505050505050565b613b53614871565b6000546001600160a01b03908116911614613bb5576040805162461bcd60e51b815260206004820181905260248201527f4f776e61626c653a2063616c6c6572206973206e6f7420746865206f776e6572604482015290519081900360640190fd5b6001600160a01b038116613bfa5760405162461bcd60e51b81526004018080602001828103825260268152602001806151746026913960400191505060405180910390fd5b600080546040516001600160a01b03808516939216917f8be0079c531659141344cd1fd0a4f28419497f9722a3daafe3b4186f6b6457e091a3600080546001600160a01b0319166001600160a01b0392909216919091179055565b6000806120b7846001600160a01b031663b592a1386040518163ffffffff1660e01b815260040160206040518083038186803b158015613c9457600080fd5b505afa158015613ca8573d6000803e3d6000fd5b505050506040513d6020811015613cbe57600080fd5b505160408051627f0cfd60e11b815290516119d7916001600160a01b0389169162fe19fa91600480820192602092909190829003018186803b158015613d0357600080fd5b505afa158015613d17573d6000803e3d6000fd5b505050506040513d6020811015613d2d57600080fd5b5051869063ffffffff61422716565b60065460408051637da56fa360e01b81523360048201819052915191926001600160a01b031691637da56fa391602480820192602092909190829003018186803b158015613d8957600080fd5b505afa158015613d9d573d6000803e3d6000fd5b505050506040513d6020811015613db357600080fd5b5051613dfc576040805162461bcd60e51b8152602060048201526013602482015272121bdd5cd94e881393d517d1539113d494d151606a1b604482015290519081900360640190fd5b6001600160a01b038086166000908152600360209081526040808320548151632f310bad60e01b815291519416938492632f310bad9260048082019391829003018186803b158015613e4d57600080fd5b505afa158015613e61573d6000803e3d6000fd5b505050506040513d6020811015613e7757600080fd5b505160408051632207afe960e11b815290519192506000916001600160a01b038a169163440f5fd2916004808301926020929190829003018186803b158015613ebf57600080fd5b505afa158015613ed3573d6000803e3d6000fd5b505050506040513d6020811015613ee957600080fd5b5051604080516302aca45560e31b81526001600160a01b038b1660048201529051919250600091339163156522a8916024808301926020929190829003018186803b158015613f3757600080fd5b505afa158015613f4b573d6000803e3d6000fd5b505050506040513d6020811015613f6157600080fd5b50516040805163095ea7b360e01b81526001600160a01b038a81166004830152600019602483015291519293509085169163095ea7b3916044808201926020929091908290030181600087803b158015613fba57600080fd5b505af1158015613fce573d6000803e3d6000fd5b505050506040513d6020811015613fe457600080fd5b50506040805163095ea7b360e01b81526001600160a01b038981166004830152600019602483015291519184169163095ea7b3916044808201926020929091908290030181600087803b15801561403a57600080fd5b505af115801561404e573d6000803e3d6000fd5b505050506040513d602081101561406457600080fd5b505060405186516000916060916001600160a01b038b16918a91819060208401908083835b602083106140a85780518252601f199092019160209182019101614089565b6001836020036101000a0380198251168184511680821785525050505050509050019150506000604051808303816000865af19150503d806000811461410a576040519150601f19603f3d011682016040523d82523d6000602084013e61410f565b606091505b50915091508161415e576040805162461bcd60e51b815260206004820152601560248201527411549497d413d3d317d1115413d4d25517d1905253605a1b604482015290519081900360640190fd5b600080600083806020019051606081101561417857600080fd5b508051602082015160409283015183516001808252818601909552929650909450925060609181602001602082028038833901905050905086816000815181106141be57fe5b6001600160a01b0390921660209283029190910190910152604080516001808252818301909252606091816020016020820280388339019050509050828160008151811061420857fe5b6020026020010181815250505050505050505050505050505050505050565b600082614236575060006119e9565b8282028284828161424357fe5b04146142805760405162461bcd60e51b815260040180806020018281038252602181526020018061519a6021913960400191505060405180910390fd5b9392505050565b600061428083836040518060400160405280601a81526020017f536166654d6174683a206469766973696f6e206279207a65726f00000000000081525061500b565b6001600160a01b038084166000908152600360205260408120549091168061432b576040805162461bcd60e51b815260206004820152601060248201526f11549497d393d517d111541313d6515160821b604482015290519081900360640190fd5b6000856001600160a01b031663440f5fd26040518163ffffffff1660e01b815260040160206040518083038186803b15801561436657600080fd5b505afa15801561437a573d6000803e3d6000fd5b505050506040513d602081101561439057600080fd5b50516001600160a01b038082166000908152600460208181526040808420805482516340c10f1960e01b81528a881695810195909552602485018d90529151969750959416936340c10f19936044808501948390030190829087803b1580156143f857600080fd5b505af115801561440c573d6000803e3d6000fd5b505050506040513d602081101561442257600080fd5b505060408051633ea6b5f160e21b81526001600160a01b03878116600483015282519086169263fa9ad7c492602480820193918290030181600087803b15801561446b57600080fd5b505af115801561447f573d6000803e3d6000fd5b505050506040513d604081101561449557600080fd5b50506040805187815290516001600160a01b0389169133917fe368fed5c4ce1d1a4b7bad8fcb733fa62ac9d46e8f4d8a400c6d8bf07b16a3649181900360200190a3509095945050505050565b604080516323b872dd60e01b81526001600160a01b038581166004830152306024830152604482018490529151918416916323b872dd916064808201926020929091908290030181600087803b158015611ca657600080fd5b8251825160009190808214614591576040805162461bcd60e51b8152602060048201526017602482015276090deeae6ca7440a082a4829a8aa88aa4be988a9c8ea89604b1b604482015290519081900360640190fd5b60005b8281101561469a5760008782815181106145aa57fe5b6020026020010151905060008783815181106145c257fe5b602002602001015190508615614633576001600160a01b038083166000908152600960209081526040808320938e1683529290522054614608908263ffffffff614fc916565b6001600160a01b038084166000908152600960209081526040808320938f1683529290522055614690565b6001600160a01b038083166000908152600a60209081526040808320938e1683529290522054614669908263ffffffff614fc916565b6001600160a01b038084166000908152600a60209081526040808320938f16835292905220555b5050600101614594565b508560405180828051906020019060200280838360005b838110156146c95781810151838201526020016146b1565b505050509050019150506040518091039020876001600160a01b03167f967a74aa54af7b3f31499bda6b7e0ccea0c6a3312d3856a00b80c4efe7e8ee1d876040518080602001828103825283818151815260200191508051906020019060200280838360005b8381101561474757818101518382015260200161472f565b505050509050019250505060405180910390a35060019695505050505050565b826001600160a01b0316632e1a7d4d826040518263ffffffff1660e01b815260040180828152602001915050600060405180830381600087803b1580156147ad57600080fd5b505af11580156147c1573d6000803e3d6000fd5b5050604051600092506001600160a01b038516915083908381818185875af1925050503d8060008114614810576040519150601f19603f3d011682016040523d82523d6000602084013e614815565b606091505b505090508061486b576040805162461bcd60e51b815260206004820152601e60248201527f5072696d697469766556313a204552525f53454e44494e475f45544845520000604482015290519081900360640190fd5b50505050565b3390565b604080516323b872dd60e01b81523360048201523060248201526044810183905290516001600160a01b038416916323b872dd9160648083019260209291908290030181600087803b1580156148ca57600080fd5b505af11580156148de573d6000803e3d6000fd5b505050506040513d602081101561486b57600080fd5b60065460408051637da56fa360e01b81523360048201819052915191926001600160a01b031691637da56fa391602480820192602092909190829003018186803b15801561494157600080fd5b505afa158015614955573d6000803e3d6000fd5b505050506040513d602081101561496b57600080fd5b50516149b4576040805162461bcd60e51b8152602060048201526013602482015272121bdd5cd94e881393d517d1539113d494d151606a1b604482015290519081900360640190fd5b604080516302aca45560e31b81526001600160a01b03871660048201529051600091339163156522a891602480820192602092909190829003018186803b1580156149fe57600080fd5b505afa158015614a12573d6000803e3d6000fd5b505050506040513d6020811015614a2857600080fd5b50516040805160018082528183019092529192509060609082602080830190803883390190505090508281600081518110614a5f57fe5b6001600160a01b03909216602092830291909101909101526040805160018082528183019092526060918160200160208202803883390190505090508281600081518110614aa957fe5b602002602001018181525050614ac28a8383600061453b565b5060006060886001600160a01b0316886040518082805190602001908083835b60208310614b015780518252601f199092019160209182019101614ae2565b6001836020036101000a0380198251168184511680821785525050505050509050019150506000604051808303816000865af19150503d8060008114614b63576040519150601f19603f3d011682016040523d82523d6000602084013e614b68565b606091505b509150915081614bb8576040805162461bcd60e51b815260206004820152601660248201527511549497d413d3d317d5d2551211149055d7d190525360521b604482015290519081900360640190fd5b6060818060200190516020811015614bcf57600080fd5b8101908080516040519392919084600160201b821115614bee57600080fd5b908301906020820185811115614c0357600080fd5b82518660208202830111600160201b82111715614c1f57600080fd5b82525081516020918201928201910280838360005b83811015614c4c578181015183820152602001614c34565b50505050905001604052505050905050505050505050505050505050565b6000806120b7846001600160a01b031662fe19fa6040518163ffffffff1660e01b815260040160206040518083038186803b158015614ca857600080fd5b505afa158015614cbc573d6000803e3d6000fd5b505050506040513d6020811015614cd257600080fd5b5051604080516316b2542760e31b815290516119d7916001600160a01b0389169163b592a13891600480820192602092909190829003018186803b158015613d0357600080fd5b826001600160a01b031663d0e30db0826040518263ffffffff1660e01b81526004016000604051808303818588803b158015614d5457600080fd5b505af1158015614d68573d6000803e3d6000fd5b50506040805163a9059cbb60e01b81526001600160a01b038781166004830152602482018790529151918816945063a9059cbb935060448082019350602092918290030181600087803b158015611ca657600080fd5b8251825160009190808214614e14576040805162461bcd60e51b8152602060048201526017602482015276090deeae6ca7440a082a4829a8aa88aa4be988a9c8ea89604b1b604482015290519081900360640190fd5b60005b82811015614f1d576000878281518110614e2d57fe5b602002602001015190506000878381518110614e4557fe5b602002602001015190508615614eb6576001600160a01b038083166000908152600960209081526040808320938e1683529290522054614e8b908263ffffffff6150ad16565b6001600160a01b038084166000908152600960209081526040808320938f1683529290522055614f13565b6001600160a01b038083166000908152600a60209081526040808320938e1683529290522054614eec908263ffffffff6150ad16565b6001600160a01b038084166000908152600a60209081526040808320938f16835292905220555b5050600101614e17565b508560405180828051906020019060200280838360005b83811015614f4c578181015183820152602001614f34565b505050509050019150506040518091039020876001600160a01b03167f03d2c553108d1d6c9f8177c130891da141436a3b48d8feddfdc4895671c22d37876040518080602001828103825283818151815260200191508051906020019060200280838360008381101561474757818101518382015260200161472f565b600061428083836040518060400160405280601e81526020017f536166654d6174683a207375627472616374696f6e206f766572666c6f770000815250615107565b600081836150975760405162461bcd60e51b81526004018080602001828103825283818151815260200191508051906020019080838360005b8381101561505c578181015183820152602001615044565b50505050905090810190601f1680156150895780820380516001836020036101000a031916815260200191505b509250505060405180910390fd5b5060008385816150a357fe5b0495945050505050565b600082820183811015614280576040805162461bcd60e51b815260206004820152601b60248201527f536166654d6174683a206164646974696f6e206f766572666c6f770000000000604482015290519081900360640190fd5b600081848411156151595760405162461bcd60e51b815260206004820181815283516024840152835190928392604490910191908501908083836000831561505c578181015183820152602001615044565b505050900390565b6040805160208101909152600081529056fe4f776e61626c653a206e6577206f776e657220697320746865207a65726f2061646472657373536166654d6174683a206d756c7469706c69636174696f6e206f766572666c6f77a2646970667358221220f592334cca1253f6305d41ca7a73238d4b40c4b22bfdcee6612acb208fdba47264736f6c63430006020033608060405234801561001057600080fd5b506101c8806100206000396000f3fe60806040526004361061001e5760003560e01c8063bca8c7b514610023575b600080fd5b6100a36004803603604081101561003957600080fd5b6001600160a01b03823516919081019060408101602082013564010000000081111561006457600080fd5b82018360208201111561007657600080fd5b8035906020019184600183028401116401000000008311171561009857600080fd5b5090925090506100a5565b005b60006060846001600160a01b0316348585604051808383808284376040519201945060009350909150508083038185875af1925050503d8060008114610107576040519150601f19603f3d011682016040523d82523d6000602084013e61010c565b606091505b509150915081801561013a57508051158061013a575080806020019051602081101561013757600080fd5b50515b61018b576040805162461bcd60e51b815260206004820152601b60248201527f416363656c657261746f723a20455845435554494f4e5f4641494c0000000000604482015290519081900360640190fd5b505050505056fea2646970667358221220cde3b918b02bb39a27bf1c284ba5bfddd1cb8e138ae55152210dc4cddc67bd6164736f6c63430006020033",
  "linkReferences": {},
  "deployedLinkReferences": {}
}