{
  "_format": "hh-sol-artifact-1",
  "contractName": "House",
  "sourceName": "contracts/House.sol",
  "abi": [
    {
      "inputs": [
        {
          "internalType": "address",
          "name": "weth_",
          "type": "address"
        },
        {
          "internalType": "address",
          "name": "registry_",
          "type": "address"
        },
        {
          "internalType": "address",
          "name": "capitol_",
          "type": "address"
        }
      ],
      "stateMutability": "nonpayable",
      "type": "constructor"
    },
    {
      "anonymous": false,
      "inputs": [
        {
          "indexed": true,
          "internalType": "address",
          "name": "from",
          "type": "address"
        },
        {
          "indexed": true,
          "internalType": "address",
          "name": "optionToken",
          "type": "address"
        },
        {
          "indexed": false,
          "internalType": "uint256",
          "name": "quantity",
          "type": "uint256"
        }
      ],
      "name": "Closed",
      "type": "event"
    },
    {
      "anonymous": false,
      "inputs": [
        {
          "indexed": true,
          "internalType": "address",
          "name": "depositor",
          "type": "address"
        },
        {
          "indexed": true,
          "internalType": "address[]",
          "name": "tokens",
          "type": "address[]"
        },
        {
          "indexed": false,
          "internalType": "uint256[]",
          "name": "amounts",
          "type": "uint256[]"
        }
      ],
      "name": "CollateralDeposited",
      "type": "event"
    },
    {
      "anonymous": false,
      "inputs": [
        {
          "indexed": true,
          "internalType": "address",
          "name": "depositor",
          "type": "address"
        },
        {
          "indexed": true,
          "internalType": "address[]",
          "name": "tokens",
          "type": "address[]"
        },
        {
          "indexed": false,
          "internalType": "uint256[]",
          "name": "amounts",
          "type": "uint256[]"
        }
      ],
      "name": "CollateralWithdrawn",
      "type": "event"
    },
    {
      "anonymous": false,
      "inputs": [
        {
          "indexed": true,
          "internalType": "address",
          "name": "from",
          "type": "address"
        },
        {
          "indexed": true,
          "internalType": "address",
          "name": "optionAddress",
          "type": "address"
        },
        {
          "indexed": false,
          "internalType": "uint256",
          "name": "liquidity",
          "type": "uint256"
        }
      ],
      "name": "Deleveraged",
      "type": "event"
    },
    {
      "anonymous": false,
      "inputs": [
        {
          "indexed": true,
          "internalType": "address",
          "name": "from",
          "type": "address"
        },
        {
          "indexed": true,
          "internalType": "address",
          "name": "optionToken",
          "type": "address"
        },
        {
          "indexed": false,
          "internalType": "uint256",
          "name": "quantity",
          "type": "uint256"
        }
      ],
      "name": "Exercised",
      "type": "event"
    },
    {
      "anonymous": false,
      "inputs": [
        {
          "indexed": true,
          "internalType": "address",
          "name": "depositor",
          "type": "address"
        },
        {
          "indexed": true,
          "internalType": "address",
          "name": "optionAddress",
          "type": "address"
        },
        {
          "indexed": true,
          "internalType": "address",
          "name": "pool",
          "type": "address"
        },
        {
          "indexed": false,
          "internalType": "uint256",
          "name": "quantity",
          "type": "uint256"
        }
      ],
      "name": "Leveraged",
      "type": "event"
    },
    {
      "anonymous": false,
      "inputs": [
        {
          "indexed": true,
          "internalType": "address",
          "name": "from",
          "type": "address"
        },
        {
          "indexed": true,
          "internalType": "address",
          "name": "optionToken",
          "type": "address"
        },
        {
          "indexed": false,
          "internalType": "uint256",
          "name": "longQuantity",
          "type": "uint256"
        },
        {
          "indexed": false,
          "internalType": "uint256",
          "name": "shortQuantity",
          "type": "uint256"
        }
      ],
      "name": "Minted",
      "type": "event"
    },
    {
      "anonymous": false,
      "inputs": [
        {
          "indexed": true,
          "internalType": "address",
          "name": "from",
          "type": "address"
        },
        {
          "indexed": true,
          "internalType": "address",
          "name": "longOption",
          "type": "address"
        },
        {
          "indexed": true,
          "internalType": "address",
          "name": "shortOption",
          "type": "address"
        },
        {
          "indexed": false,
          "internalType": "uint256",
          "name": "quantity",
          "type": "uint256"
        }
      ],
      "name": "OpenedDebitSpread",
      "type": "event"
    },
    {
      "anonymous": false,
      "inputs": [
        {
          "indexed": true,
          "internalType": "address",
          "name": "previousOwner",
          "type": "address"
        },
        {
          "indexed": true,
          "internalType": "address",
          "name": "newOwner",
          "type": "address"
        }
      ],
      "name": "OwnershipTransferred",
      "type": "event"
    },
    {
      "anonymous": false,
      "inputs": [
        {
          "indexed": true,
          "internalType": "address",
          "name": "from",
          "type": "address"
        },
        {
          "indexed": true,
          "internalType": "address",
          "name": "optionToken",
          "type": "address"
        },
        {
          "indexed": false,
          "internalType": "uint256",
          "name": "quantity",
          "type": "uint256"
        }
      ],
      "name": "Redeemed",
      "type": "event"
    },
    {
      "anonymous": false,
      "inputs": [
        {
          "indexed": true,
          "internalType": "address",
          "name": "from",
          "type": "address"
        },
        {
          "indexed": true,
          "internalType": "address",
          "name": "optionAddress",
          "type": "address"
        },
        {
          "indexed": false,
          "internalType": "uint256",
          "name": "quantity",
          "type": "uint256"
        }
      ],
      "name": "VirtualMinted",
      "type": "event"
    },
    {
      "inputs": [],
      "name": "CALLER",
      "outputs": [
        {
          "internalType": "address",
          "name": "",
          "type": "address"
        }
      ],
      "stateMutability": "view",
      "type": "function"
    },
    {
      "inputs": [],
      "name": "accelerator",
      "outputs": [
        {
          "internalType": "contract Accelerator",
          "name": "",
          "type": "address"
        }
      ],
      "stateMutability": "view",
      "type": "function"
    },
    {
      "inputs": [
        {
          "internalType": "address",
          "name": "depositor",
          "type": "address"
        },
        {
          "internalType": "address[]",
          "name": "tokens",
          "type": "address[]"
        },
        {
          "internalType": "uint256[]",
          "name": "amounts",
          "type": "uint256[]"
        }
      ],
      "name": "addTokens",
      "outputs": [
        {
          "internalType": "bool",
          "name": "",
          "type": "bool"
        }
      ],
      "stateMutability": "nonpayable",
      "type": "function"
    },
    {
      "inputs": [
        {
          "internalType": "address",
          "name": "optionAddress",
          "type": "address"
        },
        {
          "internalType": "uint256",
          "name": "quantity",
          "type": "uint256"
        }
      ],
      "name": "calculateStrikePayment",
      "outputs": [
        {
          "internalType": "uint256",
          "name": "",
          "type": "uint256"
        }
      ],
      "stateMutability": "view",
      "type": "function"
    },
    {
      "inputs": [],
      "name": "capitol",
      "outputs": [
        {
          "internalType": "contract ICapitol",
          "name": "",
          "type": "address"
        }
      ],
      "stateMutability": "view",
      "type": "function"
    },
    {
      "inputs": [
        {
          "internalType": "address",
          "name": "",
          "type": "address"
        },
        {
          "internalType": "address",
          "name": "",
          "type": "address"
        }
      ],
      "name": "credit",
      "outputs": [
        {
          "internalType": "uint256",
          "name": "",
          "type": "uint256"
        }
      ],
      "stateMutability": "view",
      "type": "function"
    },
    {
      "inputs": [
        {
          "internalType": "address",
          "name": "depositor",
          "type": "address"
        },
        {
          "internalType": "address",
          "name": "token",
          "type": "address"
        }
      ],
      "name": "creditBalanceOf",
      "outputs": [
        {
          "internalType": "uint256",
          "name": "",
          "type": "uint256"
        }
      ],
      "stateMutability": "view",
      "type": "function"
    },
    {
      "inputs": [
        {
          "internalType": "address",
          "name": "",
          "type": "address"
        },
        {
          "internalType": "address",
          "name": "",
          "type": "address"
        }
      ],
      "name": "debit",
      "outputs": [
        {
          "internalType": "uint256",
          "name": "",
          "type": "uint256"
        }
      ],
      "stateMutability": "view",
      "type": "function"
    },
    {
      "inputs": [
        {
          "internalType": "address",
          "name": "depositor",
          "type": "address"
        },
        {
          "internalType": "address",
          "name": "token",
          "type": "address"
        }
      ],
      "name": "debitBalanceOf",
      "outputs": [
        {
          "internalType": "uint256",
          "name": "",
          "type": "uint256"
        }
      ],
      "stateMutability": "view",
      "type": "function"
    },
    {
      "inputs": [
        {
          "internalType": "address",
          "name": "optionAddress",
          "type": "address"
        }
      ],
      "name": "deployVirtualOption",
      "outputs": [
        {
          "internalType": "address",
          "name": "",
          "type": "address"
        }
      ],
      "stateMutability": "nonpayable",
      "type": "function"
    },
    {
      "inputs": [
        {
          "internalType": "address",
          "name": "venue",
          "type": "address"
        },
        {
          "internalType": "bytes",
          "name": "params",
          "type": "bytes"
        }
      ],
      "name": "execute",
      "outputs": [
        {
          "internalType": "bool",
          "name": "",
          "type": "bool"
        }
      ],
      "stateMutability": "payable",
      "type": "function"
    },
    {
      "inputs": [
        {
          "internalType": "address",
          "name": "target",
          "type": "address"
        },
        {
          "internalType": "bytes",
          "name": "params",
          "type": "bytes"
        }
      ],
      "name": "executeCall",
      "outputs": [],
      "stateMutability": "payable",
      "type": "function"
    },
    {
      "inputs": [
        {
          "internalType": "address",
          "name": "asset",
          "type": "address"
        },
        {
          "internalType": "address",
          "name": "virtualAsset",
          "type": "address"
        }
      ],
      "name": "issueVirtual",
      "outputs": [],
      "stateMutability": "nonpayable",
      "type": "function"
    },
    {
      "inputs": [
        {
          "internalType": "address",
          "name": "longOption",
          "type": "address"
        },
        {
          "internalType": "address",
          "name": "shortOption",
          "type": "address"
        },
        {
          "internalType": "uint256",
          "name": "quantity",
          "type": "uint256"
        },
        {
          "internalType": "address",
          "name": "receiver",
          "type": "address"
        }
      ],
      "name": "openDebitSpread",
      "outputs": [],
      "stateMutability": "nonpayable",
      "type": "function"
    },
    {
      "inputs": [],
      "name": "owner",
      "outputs": [
        {
          "internalType": "address",
          "name": "",
          "type": "address"
        }
      ],
      "stateMutability": "view",
      "type": "function"
    },
    {
      "inputs": [],
      "name": "registry",
      "outputs": [
        {
          "internalType": "contract IRegistry",
          "name": "",
          "type": "address"
        }
      ],
      "stateMutability": "view",
      "type": "function"
    },
    {
      "inputs": [
        {
          "internalType": "address",
          "name": "withdrawee",
          "type": "address"
        },
        {
          "internalType": "address[]",
          "name": "tokens",
          "type": "address[]"
        },
        {
          "internalType": "uint256[]",
          "name": "amounts",
          "type": "uint256[]"
        }
      ],
      "name": "removeTokens",
      "outputs": [
        {
          "internalType": "bool",
          "name": "",
          "type": "bool"
        }
      ],
      "stateMutability": "nonpayable",
      "type": "function"
    },
    {
      "inputs": [],
      "name": "renounceOwnership",
      "outputs": [],
      "stateMutability": "nonpayable",
      "type": "function"
    },
    {
      "inputs": [
        {
          "internalType": "contract IOption",
          "name": "optionToken",
          "type": "address"
        },
        {
          "internalType": "uint256",
          "name": "closeQuantity",
          "type": "uint256"
        },
        {
          "internalType": "address",
          "name": "receiver",
          "type": "address"
        }
      ],
      "name": "safeClose",
      "outputs": [
        {
          "internalType": "uint256",
          "name": "",
          "type": "uint256"
        },
        {
          "internalType": "uint256",
          "name": "",
          "type": "uint256"
        },
        {
          "internalType": "uint256",
          "name": "",
          "type": "uint256"
        }
      ],
      "stateMutability": "nonpayable",
      "type": "function"
    },
    {
      "inputs": [
        {
          "internalType": "contract IOption",
          "name": "optionToken",
          "type": "address"
        },
        {
          "internalType": "uint256",
          "name": "closeQuantity",
          "type": "uint256"
        },
        {
          "internalType": "address",
          "name": "receiver",
          "type": "address"
        }
      ],
      "name": "safeCloseForETH",
      "outputs": [
        {
          "internalType": "uint256",
          "name": "",
          "type": "uint256"
        },
        {
          "internalType": "uint256",
          "name": "",
          "type": "uint256"
        },
        {
          "internalType": "uint256",
          "name": "",
          "type": "uint256"
        }
      ],
      "stateMutability": "nonpayable",
      "type": "function"
    },
    {
      "inputs": [
        {
          "internalType": "contract IOption",
          "name": "optionToken",
          "type": "address"
        },
        {
          "internalType": "uint256",
          "name": "exerciseQuantity",
          "type": "uint256"
        },
        {
          "internalType": "address",
          "name": "receiver",
          "type": "address"
        }
      ],
      "name": "safeExercise",
      "outputs": [
        {
          "internalType": "uint256",
          "name": "",
          "type": "uint256"
        },
        {
          "internalType": "uint256",
          "name": "",
          "type": "uint256"
        }
      ],
      "stateMutability": "nonpayable",
      "type": "function"
    },
    {
      "inputs": [
        {
          "internalType": "contract IOption",
          "name": "optionToken",
          "type": "address"
        },
        {
          "internalType": "uint256",
          "name": "exerciseQuantity",
          "type": "uint256"
        },
        {
          "internalType": "address",
          "name": "receiver",
          "type": "address"
        }
      ],
      "name": "safeExerciseForETH",
      "outputs": [
        {
          "internalType": "uint256",
          "name": "",
          "type": "uint256"
        },
        {
          "internalType": "uint256",
          "name": "",
          "type": "uint256"
        }
      ],
      "stateMutability": "nonpayable",
      "type": "function"
    },
    {
      "inputs": [
        {
          "internalType": "contract IOption",
          "name": "optionToken",
          "type": "address"
        },
        {
          "internalType": "address",
          "name": "receiver",
          "type": "address"
        }
      ],
      "name": "safeExerciseWithETH",
      "outputs": [
        {
          "internalType": "uint256",
          "name": "",
          "type": "uint256"
        },
        {
          "internalType": "uint256",
          "name": "",
          "type": "uint256"
        }
      ],
      "stateMutability": "payable",
      "type": "function"
    },
    {
      "inputs": [
        {
          "internalType": "contract IOption",
          "name": "optionToken",
          "type": "address"
        },
        {
          "internalType": "uint256",
          "name": "mintQuantity",
          "type": "uint256"
        },
        {
          "internalType": "address",
          "name": "receiver",
          "type": "address"
        }
      ],
      "name": "safeMint",
      "outputs": [
        {
          "internalType": "uint256",
          "name": "",
          "type": "uint256"
        },
        {
          "internalType": "uint256",
          "name": "",
          "type": "uint256"
        }
      ],
      "stateMutability": "nonpayable",
      "type": "function"
    },
    {
      "inputs": [
        {
          "internalType": "contract IOption",
          "name": "optionToken",
          "type": "address"
        },
        {
          "internalType": "address",
          "name": "receiver",
          "type": "address"
        }
      ],
      "name": "safeMintWithETH",
      "outputs": [
        {
          "internalType": "uint256",
          "name": "",
          "type": "uint256"
        },
        {
          "internalType": "uint256",
          "name": "",
          "type": "uint256"
        }
      ],
      "stateMutability": "payable",
      "type": "function"
    },
    {
      "inputs": [
        {
          "internalType": "contract IOption",
          "name": "optionToken",
          "type": "address"
        },
        {
          "internalType": "uint256",
          "name": "redeemQuantity",
          "type": "uint256"
        },
        {
          "internalType": "address",
          "name": "receiver",
          "type": "address"
        }
      ],
      "name": "safeRedeem",
      "outputs": [
        {
          "internalType": "uint256",
          "name": "",
          "type": "uint256"
        }
      ],
      "stateMutability": "nonpayable",
      "type": "function"
    },
    {
      "inputs": [
        {
          "internalType": "contract IOption",
          "name": "optionToken",
          "type": "address"
        },
        {
          "internalType": "uint256",
          "name": "redeemQuantity",
          "type": "uint256"
        },
        {
          "internalType": "address",
          "name": "receiver",
          "type": "address"
        }
      ],
      "name": "safeRedeemForETH",
      "outputs": [
        {
          "internalType": "uint256",
          "name": "",
          "type": "uint256"
        }
      ],
      "stateMutability": "nonpayable",
      "type": "function"
    },
    {
      "inputs": [
        {
          "internalType": "contract IOption",
          "name": "optionToken",
          "type": "address"
        },
        {
          "internalType": "uint256",
          "name": "unwindQuantity",
          "type": "uint256"
        },
        {
          "internalType": "address",
          "name": "receiver",
          "type": "address"
        }
      ],
      "name": "safeUnwind",
      "outputs": [
        {
          "internalType": "uint256",
          "name": "",
          "type": "uint256"
        },
        {
          "internalType": "uint256",
          "name": "",
          "type": "uint256"
        },
        {
          "internalType": "uint256",
          "name": "",
          "type": "uint256"
        }
      ],
      "stateMutability": "nonpayable",
      "type": "function"
    },
    {
      "inputs": [
        {
          "internalType": "address",
          "name": "token",
          "type": "address"
        },
        {
          "internalType": "uint256",
          "name": "quantity",
          "type": "uint256"
        }
      ],
      "name": "takeTokensFromUser",
      "outputs": [],
      "stateMutability": "nonpayable",
      "type": "function"
    },
    {
      "inputs": [
        {
          "internalType": "address",
          "name": "newOwner",
          "type": "address"
        }
      ],
      "name": "transferOwnership",
      "outputs": [],
      "stateMutability": "nonpayable",
      "type": "function"
    },
    {
      "inputs": [
        {
          "internalType": "address",
          "name": "optionAddress",
          "type": "address"
        },
        {
          "internalType": "uint256",
          "name": "quantity",
          "type": "uint256"
        },
        {
          "internalType": "address",
          "name": "receiver",
          "type": "address"
        }
      ],
      "name": "virtualExercise",
      "outputs": [],
      "stateMutability": "nonpayable",
      "type": "function"
    },
    {
      "inputs": [
        {
          "internalType": "address",
          "name": "optionAddress",
          "type": "address"
        },
        {
          "internalType": "uint256",
          "name": "quantity",
          "type": "uint256"
        },
        {
          "internalType": "address",
          "name": "receiver",
          "type": "address"
        }
      ],
      "name": "virtualMint",
      "outputs": [
        {
          "internalType": "address",
          "name": "",
          "type": "address"
        }
      ],
      "stateMutability": "nonpayable",
      "type": "function"
    },
    {
      "inputs": [
        {
          "internalType": "address",
          "name": "from",
          "type": "address"
        },
        {
          "internalType": "address",
          "name": "optionAddress",
          "type": "address"
        },
        {
          "internalType": "uint256",
          "name": "quantity",
          "type": "uint256"
        },
        {
          "internalType": "address",
          "name": "receiver",
          "type": "address"
        }
      ],
      "name": "virtualMintFrom",
      "outputs": [
        {
          "internalType": "address",
          "name": "",
          "type": "address"
        }
      ],
      "stateMutability": "nonpayable",
      "type": "function"
    },
    {
      "inputs": [
        {
          "internalType": "address",
          "name": "",
          "type": "address"
        }
      ],
      "name": "virtualOptions",
      "outputs": [
        {
          "internalType": "address",
          "name": "",
          "type": "address"
        }
      ],
      "stateMutability": "view",
      "type": "function"
    },
    {
      "inputs": [],
      "name": "weth",
      "outputs": [
        {
          "internalType": "contract IWETH",
          "name": "",
          "type": "address"
        }
      ],
      "stateMutability": "view",
      "type": "function"
    },
    {
      "stateMutability": "payable",
      "type": "receive"
    }
  ],
  "bytecode": "0x60806040523480156200001157600080fd5b5060405162004b4738038062004b47833981810160405260608110156200003757600080fd5b50805160208201516040909201519091908282806000620000606001600160e01b036200019916565b600080546001600160a01b0319166001600160a01b0383169081178255604051929350917f8be0079c531659141344cd1fd0a4f28419497f9722a3daafe3b4186f6b6457e0908290a35060018055600280546001600160a01b0319166001600160a01b03928316179055600554161562000113576040805162461bcd60e51b815260206004820152600f60248201526e11549497d253925512505312569151608a1b604482015290519081900360640190fd5b50600580546001600160a01b03199081166001600160a01b03938416179091556006805490911691831691909117905560405162000151906200019d565b604051809103906000f0801580156200016e573d6000803e3d6000fd5b50600780546001600160a01b0319166001600160a01b039290921691909117905550620001ab915050565b3390565b6101e8806200495f83390190565b6147a480620001bb6000396000f3fe6080604052600436106102075760003560e01c8063715018a611610118578063a1d8778f116100a0578063bca8c7b51161006f578063bca8c7b514610af5578063c9c9163e14610b73578063cc1f0d2d14610bb6578063f0ca1d5614610bf1578063f2fde38b14610c3a57610222565b8063a1d8778f146109f9578063a751820e14610a3c578063b6b865d514610a6f578063b8a6bb3b14610ab257610222565b80638549780b116100e75780638549780b14610826578063863dabb4146108545780638da5cb5b146108695780639b1269911461087e578063a13aaded146108b957610222565b8063715018a61461078b57806378764985146107a05780637b103999146107e357806380e42f8e146107f857610222565b8063381024bf1161019b5780634cec9ce31161016a5780634cec9ce31461055957806350e2f0ba1461069957806357d4d5b7146106dc57806369a067b8146107155780636db8ce241461074857610222565b8063381024bf146104855780633c51df7c146104c05780633dd5cd93146105095780633fc8cef31461054457610222565b80631c05ca8d116101d75780631c05ca8d146103505780631cff79cd1461036557806320e469d6146103f75780633218a3ad1461043a57610222565b8062cbf59114610227578063045bf4cd14610258578063087b063214610293578063154fa089146102ef57610222565b36610222576005546001600160a01b0316331461022057fe5b005b600080fd5b34801561023357600080fd5b5061023c610c6d565b604080516001600160a01b039092168252519081900360200190f35b34801561026457600080fd5b506102206004803603604081101561027b57600080fd5b506001600160a01b0381358116916020013516610c7c565b34801561029f57600080fd5b506102d6600480360360608110156102b657600080fd5b506001600160a01b03813581169160208101359160409091013516610d13565b6040805192835260208301919091528051918290030190f35b3480156102fb57600080fd5b506103326004803603606081101561031257600080fd5b506001600160a01b03813581169160208101359160409091013516611305565b60408051938452602084019290925282820152519081900360600190f35b34801561035c57600080fd5b5061023c611311565b6103e36004803603604081101561037b57600080fd5b6001600160a01b038235169190810190604081016020820135600160201b8111156103a557600080fd5b8201836020820111156103b757600080fd5b803590602001918460018302840111600160201b831117156103d857600080fd5b509092509050611320565b604080519115158252519081900360200190f35b34801561040357600080fd5b506102d66004803603606081101561041a57600080fd5b506001600160a01b03813581169160208101359160409091013516611437565b34801561044657600080fd5b506104736004803603604081101561045d57600080fd5b506001600160a01b038135169060200135611702565b60408051918252519081900360200190f35b34801561049157600080fd5b50610473600480360360408110156104a857600080fd5b506001600160a01b038135811691602001351661180a565b3480156104cc57600080fd5b5061023c600480360360808110156104e357600080fd5b506001600160a01b03813581169160208101358216916040820135916060013516611827565b34801561051557600080fd5b506104736004803603604081101561052c57600080fd5b506001600160a01b03813581169160200135166118af565b34801561055057600080fd5b5061023c6118db565b34801561056557600080fd5b506103e36004803603606081101561057c57600080fd5b6001600160a01b038235169190810190604081016020820135600160201b8111156105a657600080fd5b8201836020820111156105b857600080fd5b803590602001918460208302840111600160201b831117156105d957600080fd5b9190808060200260200160405190810160405280939291908181526020018383602002808284376000920191909152509295949360208101935035915050600160201b81111561062857600080fd5b82018360208201111561063a57600080fd5b803590602001918460208302840111600160201b8311171561065b57600080fd5b9190808060200260200160405190810160405280939291908181526020018383602002808284376000920191909152509295506118ea945050505050565b3480156106a557600080fd5b50610332600480360360608110156106bc57600080fd5b506001600160a01b038135811691602081013591604090910135166119dd565b3480156106e857600080fd5b50610220600480360360408110156106ff57600080fd5b506001600160a01b038135169060200135611a62565b34801561072157600080fd5b5061023c6004803603602081101561073857600080fd5b50356001600160a01b0316611af2565b34801561075457600080fd5b506102d66004803603606081101561076b57600080fd5b506001600160a01b03813581169160208101359160409091013516611c70565b34801561079757600080fd5b50610220611da7565b3480156107ac57600080fd5b5061023c600480360360608110156107c357600080fd5b506001600160a01b03813581169160208101359160409091013516611e5b565b3480156107ef57600080fd5b5061023c611ee1565b6102d66004803603604081101561080e57600080fd5b506001600160a01b0381358116916020013516611ef0565b6102d66004803603604081101561083c57600080fd5b506001600160a01b03813581169160200135166121e5565b34801561086057600080fd5b5061023c6123d1565b34801561087557600080fd5b5061023c6123e0565b34801561088a57600080fd5b50610473600480360360408110156108a157600080fd5b506001600160a01b03813581169160200135166123ef565b3480156108c557600080fd5b506103e3600480360360608110156108dc57600080fd5b6001600160a01b038235169190810190604081016020820135600160201b81111561090657600080fd5b82018360208201111561091857600080fd5b803590602001918460208302840111600160201b8311171561093957600080fd5b9190808060200260200160405190810160405280939291908181526020018383602002808284376000920191909152509295949360208101935035915050600160201b81111561098857600080fd5b82018360208201111561099a57600080fd5b803590602001918460208302840111600160201b831117156109bb57600080fd5b91908080602002602001604051908101604052809392919081815260200183836020028082843760009201919091525092955061241b945050505050565b348015610a0557600080fd5b5061047360048036036060811015610a1c57600080fd5b506001600160a01b038135811691602081013591604090910135166124f7565b348015610a4857600080fd5b5061023c60048036036020811015610a5f57600080fd5b50356001600160a01b03166128a7565b348015610a7b57600080fd5b5061022060048036036060811015610a9257600080fd5b506001600160a01b038135811691602081013591604090910135166128c2565b348015610abe57600080fd5b5061033260048036036060811015610ad557600080fd5b506001600160a01b03813581169160208101359160409091013516612da8565b61022060048036036040811015610b0b57600080fd5b6001600160a01b038235169190810190604081016020820135600160201b811115610b3557600080fd5b820183602082011115610b4757600080fd5b803590602001918460018302840111600160201b83111715610b6857600080fd5b5090925090506132ed565b348015610b7f57600080fd5b5061047360048036036060811015610b9657600080fd5b506001600160a01b038135811691602081013591604090910135166133d3565b348015610bc257600080fd5b5061047360048036036040811015610bd957600080fd5b506001600160a01b038135811691602001351661343d565b348015610bfd57600080fd5b5061022060048036036080811015610c1457600080fd5b506001600160a01b0381358116916020810135821691604082013591606001351661345a565b348015610c4657600080fd5b5061022060048036036020811015610c5d57600080fd5b50356001600160a01b0316613960565b6006546001600160a01b031681565b6040805163485cc95560e01b81526001600160a01b03848116600483015230602483015291519183169163485cc9559160448082019260009290919082900301818387803b158015610ccd57600080fd5b505af1158015610ce1573d6000803e3d6000fd5b505050506001600160a01b03918216600090815260046020526040902080546001600160a01b03191691909216179055565b6000808360008111610d57576040805162461bcd60e51b81526020600482015260086024820152674552525f5a45524f60c01b604482015290519081900360640190fd5b6001600160a01b038087166000818152600360209081526040808320548151632207afe960e11b8152915195169492939263440f5fd292600480840193919291829003018186803b158015610dab57600080fd5b505afa158015610dbf573d6000803e3d6000fd5b505050506040513d6020811015610dd557600080fd5b50516040805163a1a4076160e01b815290519192506000916001600160a01b038b169163a1a40761916004808301926020929190829003018186803b158015610e1d57600080fd5b505afa158015610e31573d6000803e3d6000fd5b505050506040513d6020811015610e4757600080fd5b505190506000610e57848a613a6a565b604080516323b872dd60e01b81523360048201526001600160a01b03871660248201819052604482018d9052915192935090916323b872dd916064808201926020929091908290030181600087803b158015610eb257600080fd5b505af1158015610ec6573d6000803e3d6000fd5b505050506040513d6020811015610edc57600080fd5b50610ee79050614715565b506001600160a01b038083166000908152600460208181526040808420815180840183529054861680825282516340c10f1960e01b8152968b1694870194909452602486018790529051909492936340c10f19936044808201949392918390030190829087803b158015610f5a57600080fd5b505af1158015610f6e573d6000803e3d6000fd5b505050506040513d6020811015610f8457600080fd5b50506040805160008082526020820190925281906001600160a01b0388169063787eae309030908f906040518463ffffffff1660e01b815260040180846001600160a01b03166001600160a01b0316815260200183815260200180602001828103825283818151815260200191508051906020019080838360005b83811015611017578181015183820152602001610fff565b50505050905090810190601f1680156110445780820380516001836020036101000a031916815260200191505b509450505050506040805180830381600087803b15801561106457600080fd5b505af1158015611078573d6000803e3d6000fd5b505050506040513d604081101561108e57600080fd5b50805160209091015190925090506110a4614715565b60046000886001600160a01b03166001600160a01b031681526020019081526020016000206040518060200160405290816000820160009054906101000a90046001600160a01b03166001600160a01b03166001600160a01b031681525050905080600001516001600160a01b0316639dc29fac308f6040518363ffffffff1660e01b815260040180836001600160a01b03166001600160a01b0316815260200182815260200192505050602060405180830381600087803b15801561116957600080fd5b505af115801561117d573d6000803e3d6000fd5b505050506040513d602081101561119357600080fd5b5050604080516323b872dd60e01b81523360048201523060248201526044810187905290516001600160a01b038816916323b872dd9160648083019260209291908290030181600087803b1580156111ea57600080fd5b505af11580156111fe573d6000803e3d6000fd5b505050506040513d602081101561121457600080fd5b810190808051906020019092919050505050866001600160a01b031663a9059cbb8d8f6040518363ffffffff1660e01b815260040180836001600160a01b03166001600160a01b0316815260200182815260200192505050602060405180830381600087803b15801561128657600080fd5b505af115801561129a573d6000803e3d6000fd5b505050506040513d60208110156112b057600080fd5b5050604080518e815290516001600160a01b038a169133917f3cea488905b3fa93b6aaaf21e913395e548b6e79dbe6099a527f6aa8059b23d19181900360200190a350909c909b509950505050505050505050565b50600092839250829150565b6007546001600160a01b031681565b60006002600154141561137a576040805162461bcd60e51b815260206004820152601f60248201527f5265656e7472616e637947756172643a207265656e7472616e742063616c6c00604482015290519081900360640190fd5b6002600155600880546001600160a01b031916331790556007546040805163bca8c7b560e01b81526001600160a01b0387811660048301908152602483019384526044830187905293169263bca8c7b5928892889288929091606401848480828437600081840152601f19601f820116905080830192505050945050505050600060405180830381600087803b15801561141357600080fd5b505af1158015611427573d6000803e3d6000fd5b5050600180555090949350505050565b600080836000811161147b576040805162461bcd60e51b81526020600482015260086024820152674552525f5a45524f60c01b604482015290519081900360640190fd5b6000866001600160a01b031663440f5fd26040518163ffffffff1660e01b815260040160206040518083038186803b1580156114b657600080fd5b505afa1580156114ca573d6000803e3d6000fd5b505050506040513d60208110156114e057600080fd5b5051604080516323b872dd60e01b81523360048201523060248201526044810189905290519192506001600160a01b038316916323b872dd916064808201926020929091908290030181600087803b15801561153b57600080fd5b505af115801561154f573d6000803e3d6000fd5b505050506040513d602081101561156557600080fd5b50506001600160a01b038088166000908152600360205260409020541661158a614715565b506001600160a01b038083166000908152600460208181526040808420815180840183529054861680825282516340c10f1960e01b815296881694870194909452602486018d90529051909492936340c10f19936044808201949392918390030190829087803b1580156115fd57600080fd5b505af1158015611611573d6000803e3d6000fd5b505050506040513d602081101561162757600080fd5b50506001600160a01b038216337f03f17d66ad3bf18e9412eb06582908831508cdb9b8da9cddb1431f645a5b86328a6116608d82613a6a565b6040805192835260208301919091528051918290030190a360408051633ea6b5f160e21b81526001600160a01b03898116600483015282519085169263fa9ad7c492602480820193918290030181600087803b1580156116bf57600080fd5b505af11580156116d3573d6000803e3d6000fd5b505050506040513d60408110156116e957600080fd5b508051602090910151909a909950975050505050505050565b600080836001600160a01b031663b592a1386040518163ffffffff1660e01b815260040160206040518083038186803b15801561173e57600080fd5b505afa158015611752573d6000803e3d6000fd5b505050506040513d602081101561176857600080fd5b505160408051627f0cfd60e11b815290519192506000916001600160a01b0387169162fe19fa916004808301926020929190829003018186803b1580156117ae57600080fd5b505afa1580156117c2573d6000803e3d6000fd5b505050506040513d60208110156117d857600080fd5b5051905060006117fe836117f2878563ffffffff613b5116565b9063ffffffff613bb116565b93505050505b92915050565b600960209081526000928352604080842090915290825290205481565b600080611835858585613bf3565b90506118a686866001600160a01b031663440f5fd26040518163ffffffff1660e01b815260040160206040518083038186803b15801561187457600080fd5b505afa158015611888573d6000803e3d6000fd5b505050506040513d602081101561189e57600080fd5b505186613e0c565b95945050505050565b6001600160a01b0380821660009081526009602090815260408083209386168352929052205492915050565b6005546001600160a01b031681565b60006118f98484846001613e65565b50825160005b818110156119d157600085828151811061191557fe5b60200260200101519050600085838151811061192d57fe5b60200260200101519050816001600160a01b031663a9059cbb89836040518363ffffffff1660e01b815260040180836001600160a01b03166001600160a01b0316815260200182815260200192505050602060405180830381600087803b15801561199757600080fd5b505af11580156119ab573d6000803e3d6000fd5b505050506040513d60208110156119c157600080fd5b5050600190920191506118ff9050565b50600195945050505050565b60008060008460008111611a23576040805162461bcd60e51b81526020600482015260086024820152674552525f5a45524f60c01b604482015290519081900360640190fd5b6000806000611a338a8a30612da8565b6005549295509093509150611a52906001600160a01b0316898b614091565b9199909850909650945050505050565b600854604080516323b872dd60e01b81526001600160a01b039283166004820181905233602483015260448201859052915191928516916323b872dd916064808201926020929091908290030181600087803b158015611ac157600080fd5b505af1158015611ad5573d6000803e3d6000fd5b505050506040513d6020811015611aeb57600080fd5b5050505050565b600080600080600080866001600160a01b031663a5ea11da6040518163ffffffff1660e01b815260040160c06040518083038186803b158015611b3457600080fd5b505afa158015611b48573d6000803e3d6000fd5b505050506040513d60c0811015611b5e57600080fd5b5080516020808301516060840151608085015160a0909501516002546001600160a01b03808716600090815260048088526040808320548489168452818420548251639180928f60e01b815291861693820193909352918416602483015260448201879052606482018b90526084820186905251989e50959c50939a5096985090965090941692639180928f9260a48084019391929182900301818787803b158015611c0957600080fd5b505af1158015611c1d573d6000803e3d6000fd5b505050506040513d6020811015611c3357600080fd5b50516001600160a01b03988916600090815260036020526040902080546001600160a01b0319169982169990991790985550959695505050505050565b6000808360008111611cb4576040805162461bcd60e51b81526020600482015260086024820152674552525f5a45524f60c01b604482015290519081900360640190fd5b6000866001600160a01b031663440f5fd26040518163ffffffff1660e01b815260040160206040518083038186803b158015611cef57600080fd5b505afa158015611d03573d6000803e3d6000fd5b505050506040513d6020811015611d1957600080fd5b50516005549091506001600160a01b03808316911614611d6f576040805162461bcd60e51b815260206004820152600c60248201526b08aa4a4be9c9ea8beae8aa8960a31b604482015290519081900360640190fd5b600080611d7d898930610d13565b6005549193509150611d99906001600160a01b0316888a614091565b909890975095505050505050565b611daf61419b565b6000546001600160a01b03908116911614611e11576040805162461bcd60e51b815260206004820181905260248201527f4f776e61626c653a2063616c6c6572206973206e6f7420746865206f776e6572604482015290519081900360640190fd5b600080546040516001600160a01b03909116907f8be0079c531659141344cd1fd0a4f28419497f9722a3daafe3b4186f6b6457e0908390a3600080546001600160a01b0319169055565b600080611e69858585613bf3565b9050611ed9856001600160a01b031663440f5fd26040518163ffffffff1660e01b815260040160206040518083038186803b158015611ea757600080fd5b505afa158015611ebb573d6000803e3d6000fd5b505050506040513d6020811015611ed157600080fd5b50518561419f565b949350505050565b6002546001600160a01b031681565b6000803460008111611f34576040805162461bcd60e51b81526020600482015260086024820152674552525f5a45524f60c01b604482015290519081900360640190fd5b6000856001600160a01b031663a1a407616040518163ffffffff1660e01b815260040160206040518083038186803b158015611f6f57600080fd5b505afa158015611f83573d6000803e3d6000fd5b505050506040513d6020811015611f9957600080fd5b50516005549091506001600160a01b03808316911614611fef576040805162461bcd60e51b815260206004820152600c60248201526b08aa4a4be9c9ea8beae8aa8960a31b604482015290519081900360640190fd5b346000611ffc888361421e565b600554909150612016906001600160a01b031689346142cd565b604080516323b872dd60e01b81523360048201526001600160a01b038a16602482018190526044820184905291516323b872dd916064808201926020929091908290030181600087803b15801561206c57600080fd5b505af1158015612080573d6000803e3d6000fd5b505050506040513d602081101561209657600080fd5b50506040805182815290516001600160a01b038a169133917f3cea488905b3fa93b6aaaf21e913395e548b6e79dbe6099a527f6aa8059b23d19181900360200190a36040805160008082526020820192839052630787eae360e41b83526001600160a01b038a81166024840190815260448401869052606060648501908152845160848601819052928e169563787eae30958e9589959194939260a486019290918190849084905b8381101561215657818101518382015260200161213e565b50505050905090810190601f1680156121835780820380516001836020036101000a031916815260200191505b509450505050506040805180830381600087803b1580156121a357600080fd5b505af11580156121b7573d6000803e3d6000fd5b505050506040513d60408110156121cd57600080fd5b50805160209091015190999098509650505050505050565b6000803460008111612229576040805162461bcd60e51b81526020600482015260086024820152674552525f5a45524f60c01b604482015290519081900360640190fd5b6000856001600160a01b031663440f5fd26040518163ffffffff1660e01b815260040160206040518083038186803b15801561226457600080fd5b505afa158015612278573d6000803e3d6000fd5b505050506040513d602081101561228e57600080fd5b50516005549091506001600160a01b038083169116146122e4576040805162461bcd60e51b815260206004820152600c60248201526b08aa4a4be9c9ea8beae8aa8960a31b604482015290519081900360640190fd5b6005546122fb906001600160a01b031687346142cd565b6001600160a01b038616337f03f17d66ad3bf18e9412eb06582908831508cdb9b8da9cddb1431f645a5b8632346123328a82613a6a565b6040805192835260208301919091528051918290030190a360408051633ea6b5f160e21b81526001600160a01b03878116600483015282519089169263fa9ad7c492602480820193918290030181600087803b15801561239157600080fd5b505af11580156123a5573d6000803e3d6000fd5b505050506040513d60408110156123bb57600080fd5b5080516020909101519097909650945050505050565b6008546001600160a01b031681565b6000546001600160a01b031690565b6001600160a01b038082166000908152600a602090815260408083209386168352929052205492915050565b8151600090815b818110156124e957600085828151811061243857fe5b60200260200101519050600085838151811061245057fe5b602090810291909101810151604080516323b872dd60e01b81523360048201523060248201526044810183905290519193506001600160a01b038516926323b872dd926064808401938290030181600087803b1580156124af57600080fd5b505af11580156124c3573d6000803e3d6000fd5b505050506040513d60208110156124d957600080fd5b5050600190920191506124229050565b506118a68585856000614372565b6000826000811161253a576040805162461bcd60e51b81526020600482015260086024820152674552525f5a45524f60c01b604482015290519081900360640190fd5b6001600160a01b03808616600090815260036020908152604091829020548251632f310bad60e01b815292519316928392632f310bad926004808301939192829003018186803b15801561258d57600080fd5b505afa1580156125a1573d6000803e3d6000fd5b505050506040513d60208110156125b757600080fd5b5051604080516323b872dd60e01b81523360048201526001600160a01b03848116602483015260448201899052915191909216916323b872dd9160648083019260209291908290030181600087803b15801561261257600080fd5b505af1158015612626573d6000803e3d6000fd5b505050506040513d602081101561263c57600080fd5b50506040805163a1a4076160e01b815290516000916001600160a01b0389169163a1a4076191600480820192602092909190829003018186803b15801561268257600080fd5b505afa158015612696573d6000803e3d6000fd5b505050506040513d60208110156126ac57600080fd5b505190506126b8614715565b506001600160a01b038082166000908152600460208181526040808420815180840183529054861681528151635e86929d60e01b8152309481019490945290519094871692635e86929d92602480830193919282900301818787803b15801561272057600080fd5b505af1158015612734573d6000803e3d6000fd5b505050506040513d602081101561274a57600080fd5b5051825160408051632770a7eb60e21b8152306004820152602481018c905290519293506001600160a01b0390911691639dc29fac916044808201926020929091908290030181600087803b1580156127a257600080fd5b505af11580156127b6573d6000803e3d6000fd5b505050506040513d60208110156127cc57600080fd5b50506040805189815290516001600160a01b038b169133917f27d4634c833b7622a0acddbf7f746183625f105945e95c723ad1d5a9f2a0b6fc9181900360200190a3826001600160a01b031663a9059cbb88836040518363ffffffff1660e01b815260040180836001600160a01b03166001600160a01b0316815260200182815260200192505050602060405180830381600087803b15801561286e57600080fd5b505af1158015612882573d6000803e3d6000fd5b505050506040513d602081101561289857600080fd5b50909998505050505050505050565b6003602052600090815260409020546001600160a01b031681565b6001600160a01b038084166000908152600360205260409020541680612922576040805162461bcd60e51b815260206004820152601060248201526f11549497d393d517d111541313d6515160821b604482015290519081900360640190fd5b6000846001600160a01b031663440f5fd26040518163ffffffff1660e01b815260040160206040518083038186803b15801561295d57600080fd5b505afa158015612971573d6000803e3d6000fd5b505050506040513d602081101561298757600080fd5b50516040805163a1a4076160e01b815290519192506000916001600160a01b0388169163a1a40761916004808301926020929190829003018186803b1580156129cf57600080fd5b505afa1580156129e3573d6000803e3d6000fd5b505050506040513d60208110156129f957600080fd5b5051604080516323b872dd60e01b81523360048201526001600160a01b0386166024820181905260448201899052915192935090916323b872dd916064808201926020929091908290030181600087803b158015612a5657600080fd5b505af1158015612a6a573d6000803e3d6000fd5b505050506040513d6020811015612a8057600080fd5b5060009050612a8f8787611702565b6001600160a01b0380841660009081526004602081815260408084205481516340c10f1960e01b81528b871694810194909452602484018790529051959650909316936340c10f199360448084019491938390030190829087803b158015612af657600080fd5b505af1158015612b0a573d6000803e3d6000fd5b505050506040513d6020811015612b2057600080fd5b50506040805160008082526020820192839052630787eae360e41b83523060248301818152604484018b90526060606485019081528451608486018190526001600160a01b038b169663787eae309694958e9594939260a4860192918190849084905b83811015612b9b578181015183820152602001612b83565b50505050905090810190601f168015612bc85780820380516001836020036101000a031916815260200191505b509450505050506040805180830381600087803b158015612be857600080fd5b505af1158015612bfc573d6000803e3d6000fd5b505050506040513d6040811015612c1257600080fd5b50506001600160a01b038084166000908152600460208181526040808420548151632770a7eb60e21b81523094810194909452602484018c90529051941693639dc29fac936044808501948390030190829087803b158015612c7357600080fd5b505af1158015612c87573d6000803e3d6000fd5b505050506040513d6020811015612c9d57600080fd5b50506040805163a9059cbb60e01b81526001600160a01b0387811660048301526024820189905291519185169163a9059cbb916044808201926020929091908290030181600087803b158015612cf257600080fd5b505af1158015612d06573d6000803e3d6000fd5b505050506040513d6020811015612d1c57600080fd5b5050604080516323b872dd60e01b81523360048201523060248201526044810183905290516001600160a01b038416916323b872dd9160648083019260209291908290030181600087803b158015612d7357600080fd5b505af1158015612d87573d6000803e3d6000fd5b505050506040513d6020811015612d9d57600080fd5b505050505050505050565b60008060008460008111612dee576040805162461bcd60e51b81526020600482015260086024820152674552525f5a45524f60c01b604482015290519081900360640190fd5b6001600160a01b0380881660009081526003602052604081205490911690612e168989613a6a565b9050816001600160a01b0316632f310bad6040518163ffffffff1660e01b815260040160206040518083038186803b158015612e5157600080fd5b505afa158015612e65573d6000803e3d6000fd5b505050506040513d6020811015612e7b57600080fd5b5051604080516323b872dd60e01b81523360048201526001600160a01b03858116602483015260448201859052915191909216916323b872dd9160648083019260209291908290030181600087803b158015612ed657600080fd5b505af1158015612eea573d6000803e3d6000fd5b505050506040513d6020811015612f0057600080fd5b50506040805162972d6f60e61b8152905142916001600160a01b038516916325cb5bc091600480820192602092909190829003018186803b158015612f4457600080fd5b505afa158015612f58573d6000803e3d6000fd5b505050506040513d6020811015612f6e57600080fd5b505110612ff857604080516323b872dd60e01b81523360048201526001600160a01b03841660248201819052604482018b905291516323b872dd916064808201926020929091908290030181600087803b158015612fcb57600080fd5b505af1158015612fdf573d6000803e3d6000fd5b505050506040513d6020811015612ff557600080fd5b50505b6000806000846001600160a01b03166383499805306040518263ffffffff1660e01b815260040180826001600160a01b03166001600160a01b03168152602001915050606060405180830381600087803b15801561305557600080fd5b505af1158015613069573d6000803e3d6000fd5b505050506040513d606081101561307f57600080fd5b8101908080519060200190929190805190602001909291908051906020019092919050505092509250925060008c6001600160a01b031663440f5fd26040518163ffffffff1660e01b815260040160206040518083038186803b1580156130e557600080fd5b505afa1580156130f9573d6000803e3d6000fd5b505050506040513d602081101561310f57600080fd5b5051905061311b614715565b60046000836001600160a01b03166001600160a01b031681526020019081526020016000206040518060200160405290816000820160009054906101000a90046001600160a01b03166001600160a01b03166001600160a01b031681525050905080600001516001600160a01b0316639dc29fac308f6040518363ffffffff1660e01b815260040180836001600160a01b03166001600160a01b0316815260200182815260200192505050602060405180830381600087803b1580156131e057600080fd5b505af11580156131f4573d6000803e3d6000fd5b505050506040513d602081101561320a57600080fd5b5050604080518e815290516001600160a01b0389169133917f62d095e2c4513ab737ede7cbd30334eccb10424cbc543ebb5c458b5174cddcd59181900360200190a3816001600160a01b031663a9059cbb8d856040518363ffffffff1660e01b815260040180836001600160a01b03166001600160a01b0316815260200182815260200192505050602060405180830381600087803b1580156132ac57600080fd5b505af11580156132c0573d6000803e3d6000fd5b505050506040513d60208110156132d657600080fd5b50949e939d50919b50919950505050505050505050565b60006060846001600160a01b0316348585604051808383808284376040519201945060009350909150508083038185875af1925050503d806000811461334f576040519150601f19603f3d011682016040523d82523d6000602084013e613354565b606091505b5091509150818015613382575080511580613382575080806020019051602081101561337f57600080fd5b50515b611aeb576040805162461bcd60e51b815260206004820152601b60248201527f416363656c657261746f723a20455845435554494f4e5f4641494c0000000000604482015290519081900360640190fd5b60008260008111613416576040805162461bcd60e51b81526020600482015260086024820152674552525f5a45524f60c01b604482015290519081900360640190fd5b60006134238686306124f7565b6005549091506118a6906001600160a01b03168587614091565b600a60209081526000928352604080842090915290825290205481565b6001600160a01b038085166000908152600360209081526040808320548785168452818420548251627f0cfd60e11b8152925191861695169392859262fe19fa9260048083019392829003018186803b1580156134b657600080fd5b505afa1580156134ca573d6000803e3d6000fd5b505050506040513d60208110156134e057600080fd5b505160408051627f0cfd60e11b815290519192506000916001600160a01b0385169162fe19fa916004808301926020929190829003018186803b15801561352657600080fd5b505afa15801561353a573d6000803e3d6000fd5b505050506040513d602081101561355057600080fd5b505190508181101561359d576040805162461bcd60e51b815260206004820152601160248201527011549497d0d49151125517d4d414915051607a1b604482015290519081900360640190fd5b60006135af828463ffffffff61457d16565b90506000600460008a6001600160a01b031663440f5fd26040518163ffffffff1660e01b815260040160206040518083038186803b1580156135f057600080fd5b505afa158015613604573d6000803e3d6000fd5b505050506040513d602081101561361a57600080fd5b50516001600160a01b03908116825260208281019390935260409182016000908120805484516340c10f1960e01b81528b85166004820152602481018f90529451919650909216936340c10f19936044808201949293918390030190829087803b15801561368757600080fd5b505af115801561369b573d6000803e3d6000fd5b505050506040513d60208110156136b157600080fd5b505060408051633ea6b5f160e21b815230600482015281516001600160a01b0388169263fa9ad7c492602480820193918290030181600087803b1580156136f757600080fd5b505af115801561370b573d6000803e3d6000fd5b505050506040513d604081101561372157600080fd5b50506040805163a9059cbb60e01b81526001600160a01b038981166004830152602482018b905291519187169163a9059cbb916044808201926020929091908290030181600087803b15801561377657600080fd5b505af115801561378a573d6000803e3d6000fd5b505050506040513d60208110156137a057600080fd5b505060408051632f310bad60e01b815290516001600160a01b03871691632f310bad916004808301926020929190829003018186803b1580156137e257600080fd5b505afa1580156137f6573d6000803e3d6000fd5b505050506040513d602081101561380c57600080fd5b50516040805163a9059cbb60e01b81526001600160a01b038a81166004830152602482018690529151919092169163a9059cbb9160448083019260209291908290030181600087803b15801561386157600080fd5b505af1158015613875573d6000803e3d6000fd5b505050506040513d602081101561388b57600080fd5b5050604080516323b872dd60e01b8152336004820152306024820152604481018a905290516001600160a01b038816916323b872dd9160648083019260209291908290030181600087803b1580156138e257600080fd5b505af11580156138f6573d6000803e3d6000fd5b505050506040513d602081101561390c57600080fd5b50506040805189815290516001600160a01b03808c1692908d169133917f33a45968f4205599a1893a1cca6f79ccfbb725c57197feee1fb493c45f3f376c919081900360200190a450505050505050505050565b61396861419b565b6000546001600160a01b039081169116146139ca576040805162461bcd60e51b815260206004820181905260248201527f4f776e61626c653a2063616c6c6572206973206e6f7420746865206f776e6572604482015290519081900360640190fd5b6001600160a01b038116613a0f5760405162461bcd60e51b81526004018080602001828103825260268152602001806147286026913960400191505060405180910390fd5b600080546040516001600160a01b03808516939216917f8be0079c531659141344cd1fd0a4f28419497f9722a3daafe3b4186f6b6457e091a3600080546001600160a01b0319166001600160a01b0392909216919091179055565b600080611ed9846001600160a01b031663b592a1386040518163ffffffff1660e01b815260040160206040518083038186803b158015613aa957600080fd5b505afa158015613abd573d6000803e3d6000fd5b505050506040513d6020811015613ad357600080fd5b505160408051627f0cfd60e11b815290516117f2916001600160a01b0389169162fe19fa91600480820192602092909190829003018186803b158015613b1857600080fd5b505afa158015613b2c573d6000803e3d6000fd5b505050506040513d6020811015613b4257600080fd5b5051869063ffffffff613b5116565b600082613b6057506000611804565b82820282848281613b6d57fe5b0414613baa5760405162461bcd60e51b815260040180806020018281038252602181526020018061474e6021913960400191505060405180910390fd5b9392505050565b6000613baa83836040518060400160405280601a81526020017f536166654d6174683a206469766973696f6e206279207a65726f0000000000008152506145bf565b6001600160a01b0380841660009081526003602052604081205490911680613c55576040805162461bcd60e51b815260206004820152601060248201526f11549497d393d517d111541313d6515160821b604482015290519081900360640190fd5b6000856001600160a01b031663440f5fd26040518163ffffffff1660e01b815260040160206040518083038186803b158015613c9057600080fd5b505afa158015613ca4573d6000803e3d6000fd5b505050506040513d6020811015613cba57600080fd5b50516001600160a01b038082166000908152600460208181526040808420805482516340c10f1960e01b81528a881695810195909552602485018d90529151969750959416936340c10f19936044808501948390030190829087803b158015613d2257600080fd5b505af1158015613d36573d6000803e3d6000fd5b505050506040513d6020811015613d4c57600080fd5b505060408051633ea6b5f160e21b81526001600160a01b03878116600483015282519086169263fa9ad7c492602480820193918290030181600087803b158015613d9557600080fd5b505af1158015613da9573d6000803e3d6000fd5b505050506040513d6040811015613dbf57600080fd5b50506040805187815290516001600160a01b0389169133917fe368fed5c4ce1d1a4b7bad8fcb733fa62ac9d46e8f4d8a400c6d8bf07b16a3649181900360200190a3509095945050505050565b604080516323b872dd60e01b81526001600160a01b038581166004830152306024830152604482018490529151918416916323b872dd916064808201926020929091908290030181600087803b158015611ac157600080fd5b8251825160009190808214613ebb576040805162461bcd60e51b8152602060048201526017602482015276090deeae6ca7440a082a4829a8aa88aa4be988a9c8ea89604b1b604482015290519081900360640190fd5b60005b82811015613fc4576000878281518110613ed457fe5b602002602001015190506000878381518110613eec57fe5b602002602001015190508615613f5d576001600160a01b038083166000908152600960209081526040808320938e1683529290522054613f32908263ffffffff61457d16565b6001600160a01b038084166000908152600960209081526040808320938f1683529290522055613fba565b6001600160a01b038083166000908152600a60209081526040808320938e1683529290522054613f93908263ffffffff61457d16565b6001600160a01b038084166000908152600a60209081526040808320938f16835292905220555b5050600101613ebe565b508560405180828051906020019060200280838360005b83811015613ff3578181015183820152602001613fdb565b505050509050019150506040518091039020876001600160a01b03167f967a74aa54af7b3f31499bda6b7e0ccea0c6a3312d3856a00b80c4efe7e8ee1d876040518080602001828103825283818151815260200191508051906020019060200280838360005b83811015614071578181015183820152602001614059565b505050509050019250505060405180910390a35060019695505050505050565b826001600160a01b0316632e1a7d4d826040518263ffffffff1660e01b815260040180828152602001915050600060405180830381600087803b1580156140d757600080fd5b505af11580156140eb573d6000803e3d6000fd5b5050604051600092506001600160a01b038516915083908381818185875af1925050503d806000811461413a576040519150601f19603f3d011682016040523d82523d6000602084013e61413f565b606091505b5050905080614195576040805162461bcd60e51b815260206004820152601e60248201527f5072696d697469766556313a204552525f53454e44494e475f45544845520000604482015290519081900360640190fd5b50505050565b3390565b604080516323b872dd60e01b81523360048201523060248201526044810183905290516001600160a01b038416916323b872dd9160648083019260209291908290030181600087803b1580156141f457600080fd5b505af1158015614208573d6000803e3d6000fd5b505050506040513d602081101561419557600080fd5b600080611ed9846001600160a01b031662fe19fa6040518163ffffffff1660e01b815260040160206040518083038186803b15801561425c57600080fd5b505afa158015614270573d6000803e3d6000fd5b505050506040513d602081101561428657600080fd5b5051604080516316b2542760e31b815290516117f2916001600160a01b0389169163b592a13891600480820192602092909190829003018186803b158015613b1857600080fd5b826001600160a01b031663d0e30db0826040518263ffffffff1660e01b81526004016000604051808303818588803b15801561430857600080fd5b505af115801561431c573d6000803e3d6000fd5b50506040805163a9059cbb60e01b81526001600160a01b038781166004830152602482018790529151918816945063a9059cbb935060448082019350602092918290030181600087803b158015611ac157600080fd5b82518251600091908082146143c8576040805162461bcd60e51b8152602060048201526017602482015276090deeae6ca7440a082a4829a8aa88aa4be988a9c8ea89604b1b604482015290519081900360640190fd5b60005b828110156144d15760008782815181106143e157fe5b6020026020010151905060008783815181106143f957fe5b60200260200101519050861561446a576001600160a01b038083166000908152600960209081526040808320938e168352929052205461443f908263ffffffff61466116565b6001600160a01b038084166000908152600960209081526040808320938f16835292905220556144c7565b6001600160a01b038083166000908152600a60209081526040808320938e16835292905220546144a0908263ffffffff61466116565b6001600160a01b038084166000908152600a60209081526040808320938f16835292905220555b50506001016143cb565b508560405180828051906020019060200280838360005b838110156145005781810151838201526020016144e8565b505050509050019150506040518091039020876001600160a01b03167f03d2c553108d1d6c9f8177c130891da141436a3b48d8feddfdc4895671c22d378760405180806020018281038252838181518152602001915080519060200190602002808383600083811015614071578181015183820152602001614059565b6000613baa83836040518060400160405280601e81526020017f536166654d6174683a207375627472616374696f6e206f766572666c6f7700008152506146bb565b6000818361464b5760405162461bcd60e51b81526004018080602001828103825283818151815260200191508051906020019080838360005b838110156146105781810151838201526020016145f8565b50505050905090810190601f16801561463d5780820380516001836020036101000a031916815260200191505b509250505060405180910390fd5b50600083858161465757fe5b0495945050505050565b600082820183811015613baa576040805162461bcd60e51b815260206004820152601b60248201527f536166654d6174683a206164646974696f6e206f766572666c6f770000000000604482015290519081900360640190fd5b6000818484111561470d5760405162461bcd60e51b81526020600482018181528351602484015283519092839260449091019190850190808383600083156146105781810151838201526020016145f8565b505050900390565b6040805160208101909152600081529056fe4f776e61626c653a206e6577206f776e657220697320746865207a65726f2061646472657373536166654d6174683a206d756c7469706c69636174696f6e206f766572666c6f77a2646970667358221220df631b82e7029f47a1c1f4677c576b1c74e4ad2ed5507dcaaa0021a5a83f21a364736f6c63430006020033608060405234801561001057600080fd5b506101c8806100206000396000f3fe60806040526004361061001e5760003560e01c8063bca8c7b514610023575b600080fd5b6100a36004803603604081101561003957600080fd5b6001600160a01b03823516919081019060408101602082013564010000000081111561006457600080fd5b82018360208201111561007657600080fd5b8035906020019184600183028401116401000000008311171561009857600080fd5b5090925090506100a5565b005b60006060846001600160a01b0316348585604051808383808284376040519201945060009350909150508083038185875af1925050503d8060008114610107576040519150601f19603f3d011682016040523d82523d6000602084013e61010c565b606091505b509150915081801561013a57508051158061013a575080806020019051602081101561013757600080fd5b50515b61018b576040805162461bcd60e51b815260206004820152601b60248201527f416363656c657261746f723a20455845435554494f4e5f4641494c0000000000604482015290519081900360640190fd5b505050505056fea2646970667358221220752d42aafdab896259c595fbc5c5732c364f698dc5db7064172c71796ada9bcb64736f6c63430006020033",
  "linkReferences": {},
  "deployedLinkReferences": {}
}