{
  "_format": "hh-sol-artifact-1",
  "contractName": "VERC20",
  "sourceName": "contracts/VERC20.sol",
  "abi": [
    {
      "anonymous": false,
      "inputs": [
        {
          "indexed": true,
          "internalType": "address",
          "name": "owner",
          "type": "address"
        },
        {
          "indexed": true,
          "internalType": "address",
          "name": "spender",
          "type": "address"
        },
        {
          "indexed": false,
          "internalType": "uint256",
          "name": "value",
          "type": "uint256"
        }
      ],
      "name": "Approval",
      "type": "event"
    },
    {
      "anonymous": false,
      "inputs": [
        {
          "indexed": true,
          "internalType": "address",
          "name": "from",
          "type": "address"
        },
        {
          "indexed": true,
          "internalType": "address",
          "name": "to",
          "type": "address"
        },
        {
          "indexed": false,
          "internalType": "uint256",
          "name": "value",
          "type": "uint256"
        }
      ],
      "name": "Transfer",
      "type": "event"
    },
    {
      "inputs": [],
      "name": "DOMAIN_SEPARATOR",
      "outputs": [
        {
          "internalType": "bytes32",
          "name": "",
          "type": "bytes32"
        }
      ],
      "stateMutability": "view",
      "type": "function"
    },
    {
      "inputs": [],
      "name": "PERMIT_TYPEHASH",
      "outputs": [
        {
          "internalType": "bytes32",
          "name": "",
          "type": "bytes32"
        }
      ],
      "stateMutability": "view",
      "type": "function"
    },
    {
      "inputs": [
        {
          "internalType": "address",
          "name": "",
          "type": "address"
        },
        {
          "internalType": "address",
          "name": "",
          "type": "address"
        }
      ],
      "name": "allowance",
      "outputs": [
        {
          "internalType": "uint256",
          "name": "",
          "type": "uint256"
        }
      ],
      "stateMutability": "view",
      "type": "function"
    },
    {
      "inputs": [
        {
          "internalType": "address",
          "name": "spender",
          "type": "address"
        },
        {
          "internalType": "uint256",
          "name": "value",
          "type": "uint256"
        }
      ],
      "name": "approve",
      "outputs": [
        {
          "internalType": "bool",
          "name": "",
          "type": "bool"
        }
      ],
      "stateMutability": "nonpayable",
      "type": "function"
    },
    {
      "inputs": [
        {
          "internalType": "address",
          "name": "",
          "type": "address"
        }
      ],
      "name": "balanceOf",
      "outputs": [
        {
          "internalType": "uint256",
          "name": "",
          "type": "uint256"
        }
      ],
      "stateMutability": "view",
      "type": "function"
    },
    {
      "inputs": [
        {
          "internalType": "address",
          "name": "to",
          "type": "address"
        },
        {
          "internalType": "uint256",
          "name": "quantity",
          "type": "uint256"
        }
      ],
      "name": "burn",
      "outputs": [
        {
          "internalType": "bool",
          "name": "",
          "type": "bool"
        }
      ],
      "stateMutability": "nonpayable",
      "type": "function"
    },
    {
      "inputs": [],
      "name": "decimals",
      "outputs": [
        {
          "internalType": "uint8",
          "name": "",
          "type": "uint8"
        }
      ],
      "stateMutability": "view",
      "type": "function"
    },
    {
      "inputs": [],
      "name": "house",
      "outputs": [
        {
          "internalType": "contract IHouse",
          "name": "",
          "type": "address"
        }
      ],
      "stateMutability": "view",
      "type": "function"
    },
    {
      "inputs": [
        {
          "internalType": "address",
          "name": "asset",
          "type": "address"
        },
        {
          "internalType": "address",
          "name": "houseAddress",
          "type": "address"
        }
      ],
      "name": "initialize",
      "outputs": [],
      "stateMutability": "nonpayable",
      "type": "function"
    },
    {
      "inputs": [
        {
          "internalType": "address",
          "name": "to",
          "type": "address"
        },
        {
          "internalType": "uint256",
          "name": "quantity",
          "type": "uint256"
        }
      ],
      "name": "mint",
      "outputs": [
        {
          "internalType": "bool",
          "name": "",
          "type": "bool"
        }
      ],
      "stateMutability": "nonpayable",
      "type": "function"
    },
    {
      "inputs": [],
      "name": "name",
      "outputs": [
        {
          "internalType": "string",
          "name": "",
          "type": "string"
        }
      ],
      "stateMutability": "view",
      "type": "function"
    },
    {
      "inputs": [
        {
          "internalType": "address",
          "name": "",
          "type": "address"
        }
      ],
      "name": "nonces",
      "outputs": [
        {
          "internalType": "uint256",
          "name": "",
          "type": "uint256"
        }
      ],
      "stateMutability": "view",
      "type": "function"
    },
    {
      "inputs": [
        {
          "internalType": "address",
          "name": "owner",
          "type": "address"
        },
        {
          "internalType": "address",
          "name": "spender",
          "type": "address"
        },
        {
          "internalType": "uint256",
          "name": "value",
          "type": "uint256"
        },
        {
          "internalType": "uint256",
          "name": "deadline",
          "type": "uint256"
        },
        {
          "internalType": "uint8",
          "name": "v",
          "type": "uint8"
        },
        {
          "internalType": "bytes32",
          "name": "r",
          "type": "bytes32"
        },
        {
          "internalType": "bytes32",
          "name": "s",
          "type": "bytes32"
        }
      ],
      "name": "permit",
      "outputs": [],
      "stateMutability": "nonpayable",
      "type": "function"
    },
    {
      "inputs": [],
      "name": "symbol",
      "outputs": [
        {
          "internalType": "string",
          "name": "",
          "type": "string"
        }
      ],
      "stateMutability": "view",
      "type": "function"
    },
    {
      "inputs": [],
      "name": "totalSupply",
      "outputs": [
        {
          "internalType": "uint256",
          "name": "",
          "type": "uint256"
        }
      ],
      "stateMutability": "view",
      "type": "function"
    },
    {
      "inputs": [
        {
          "internalType": "address",
          "name": "to",
          "type": "address"
        },
        {
          "internalType": "uint256",
          "name": "value",
          "type": "uint256"
        }
      ],
      "name": "transfer",
      "outputs": [
        {
          "internalType": "bool",
          "name": "",
          "type": "bool"
        }
      ],
      "stateMutability": "nonpayable",
      "type": "function"
    },
    {
      "inputs": [
        {
          "internalType": "address",
          "name": "from",
          "type": "address"
        },
        {
          "internalType": "address",
          "name": "to",
          "type": "address"
        },
        {
          "internalType": "uint256",
          "name": "value",
          "type": "uint256"
        }
      ],
      "name": "transferFrom",
      "outputs": [
        {
          "internalType": "bool",
          "name": "",
          "type": "bool"
        }
      ],
      "stateMutability": "nonpayable",
      "type": "function"
    }
  ],
  "bytecode": "0x608060408190524690806052610d538239604080519182900360520182208282018252600c83526b5072696d697469766520563160a01b6020938401528151808301835260018152603160f81b908401528151808401919091527f662beda4fa4ec91056b67d9dd233c1a4363ea4b40c5c0824ddaa9721dfc09545818301527fc89efdaa54c0f20c7adf612882df0950f5a951637e0307cdcb4c672f298b8bc6606082015260808101949094523060a0808601919091528151808603909101815260c09094019052825192019190912060035550610c71806100e26000396000f3fe608060405234801561001057600080fd5b506004361061010b5760003560e01c8063485cc955116100a25780639dc29fac116100715780639dc29fac146102fb578063a9059cbb14610327578063d505accf14610353578063dd62ed3e146103a4578063ff9b3acf146103d25761010b565b8063485cc9551461027757806370a08231146102a75780637ecebe00146102cd57806395d89b41146102f35761010b565b806330adf81f116100de57806330adf81f1461021d578063313ce567146102255780633644e5151461024357806340c10f191461024b5761010b565b806306fdde0314610110578063095ea7b31461018d57806318160ddd146101cd57806323b872dd146101e7575b600080fd5b6101186103f6565b6040805160208082528351818301528351919283929083019185019080838360005b8381101561015257818101518382015260200161013a565b50505050905090810190601f16801561017f5780820380516001836020036101000a031916815260200191505b509250505060405180910390f35b6101b9600480360360408110156101a357600080fd5b506001600160a01b03813516906020013561041e565b604080519115158252519081900360200190f35b6101d5610434565b60408051918252519081900360200190f35b6101b9600480360360608110156101fd57600080fd5b506001600160a01b0381358116916020810135909116906040013561043a565b6101d56104d4565b61022d6104f8565b6040805160ff9092168252519081900360200190f35b6101d56104fd565b6101b96004803603604081101561026157600080fd5b506001600160a01b038135169060200135610503565b6102a56004803603604081101561028d57600080fd5b506001600160a01b038135811691602001351661055f565b005b6101d5600480360360208110156102bd57600080fd5b50356001600160a01b03166105d2565b6101d5600480360360208110156102e357600080fd5b50356001600160a01b03166105e4565b6101186105f6565b6101b96004803603604081101561031157600080fd5b506001600160a01b038135169060200135610618565b6101b96004803603604081101561033d57600080fd5b506001600160a01b038135169060200135610674565b6102a5600480360360e081101561036957600080fd5b506001600160a01b03813581169160208101359091169060408101359060608101359060ff6080820135169060a08101359060c00135610681565b6101d5600480360360408110156103ba57600080fd5b506001600160a01b0381358116916020013516610885565b6103da6108a2565b604080516001600160a01b039092168252519081900360200190f35b6040518060400160405280600c81526020016b5072696d697469766520563160a01b81525081565b600061042b3384846108b1565b50600192915050565b60005481565b6001600160a01b0383166000908152600260209081526040808320338452909152812054600019146104bf576001600160a01b038416600090815260026020908152604080832033845290915290205461049a908363ffffffff61091316565b6001600160a01b03851660009081526002602090815260408083203384529091529020555b6104ca84848461095c565b5060019392505050565b7f6e71edae12b1b97f4d1f60370fef10105fa2faae0126114a169c64845d6126c981565b601281565b60035481565b6005546000906001600160a01b03163314610555576040805162461bcd60e51b815260206004820152600d60248201526c4552525f4e4f545f484f55534560981b604482015290519081900360640190fd5b61042b8383610a16565b6005546001600160a01b0316156105af576040805162461bcd60e51b815260206004820152600f60248201526e11549497d253951252505312569151608a1b604482015290519081900360640190fd5b600580546001600160a01b0319166001600160a01b039290921691909117905550565b60016020526000908152604090205481565b60046020526000908152604090205481565b6040518060400160405280600681526020016550524d2d563160d01b81525081565b6005546000906001600160a01b0316331461066a576040805162461bcd60e51b815260206004820152600d60248201526c4552525f4e4f545f484f55534560981b604482015290519081900360640190fd5b61042b8383610aac565b600061042b33848461095c565b428410156106cd576040805162461bcd60e51b8152602060048201526014602482015273141c9a5b5a5d1a5d99558c4e881156141254915160621b604482015290519081900360640190fd5b6003546001600160a01b0380891660008181526004602090815260408083208054600180820190925582517f6e71edae12b1b97f4d1f60370fef10105fa2faae0126114a169c64845d6126c98186015280840196909652958d166060860152608085018c905260a085019590955260c08085018b90528151808603909101815260e08501825280519083012061190160f01b6101008601526101028501969096526101228085019690965280518085039096018652610142840180825286519683019690962095839052610162840180825286905260ff89166101828501526101a284018890526101c28401879052519193926101e280820193601f1981019281900390910190855afa1580156107e8573d6000803e3d6000fd5b5050604051601f1901519150506001600160a01b0381161580159061081e5750886001600160a01b0316816001600160a01b0316145b61086f576040805162461bcd60e51b815260206004820152601e60248201527f5072696d697469766556313a20494e56414c49445f5349474e41545552450000604482015290519081900360640190fd5b61087a8989896108b1565b505050505050505050565b600260209081526000928352604080842090915290825290205481565b6005546001600160a01b031681565b6001600160a01b03808416600081815260026020908152604080832094871680845294825291829020859055815185815291517f8c5be1e5ebec7d5bd14f71427d1e84f3dd0314c0f7b2291e5b200ac8c7c3b9259281900390910190a3505050565b600061095583836040518060400160405280601e81526020017f536166654d6174683a207375627472616374696f6e206f766572666c6f770000815250610b4a565b9392505050565b6001600160a01b038316600090815260016020526040902054610985908263ffffffff61091316565b6001600160a01b0380851660009081526001602052604080822093909355908416815220546109ba908263ffffffff610be116565b6001600160a01b0380841660008181526001602090815260409182902094909455805185815290519193928716927fddf252ad1be2c89b69c2b068fc378daa952ba7f163c4a11628f55a4df523b3ef92918290030190a3505050565b600054610a29908263ffffffff610be116565b60009081556001600160a01b038316815260016020526040902054610a54908263ffffffff610be116565b6001600160a01b03831660008181526001602090815260408083209490945583518581529351929391927fddf252ad1be2c89b69c2b068fc378daa952ba7f163c4a11628f55a4df523b3ef9281900390910190a35050565b6001600160a01b038216600090815260016020526040902054610ad5908263ffffffff61091316565b6001600160a01b03831660009081526001602052604081209190915554610b02908263ffffffff61091316565b60009081556040805183815290516001600160a01b038516917fddf252ad1be2c89b69c2b068fc378daa952ba7f163c4a11628f55a4df523b3ef919081900360200190a35050565b60008184841115610bd95760405162461bcd60e51b81526004018080602001828103825283818151815260200191508051906020019080838360005b83811015610b9e578181015183820152602001610b86565b50505050905090810190601f168015610bcb5780820380516001836020036101000a031916815260200191505b509250505060405180910390fd5b505050900390565b600082820183811015610955576040805162461bcd60e51b815260206004820152601b60248201527f536166654d6174683a206164646974696f6e206f766572666c6f770000000000604482015290519081900360640190fdfea26469706673582212200980ad407fba5a6b03e2b9f100aeeab221b5f504e519a5e8946f5536a6af8ce064736f6c63430006020033454950373132446f6d61696e28737472696e67206e616d652c737472696e672076657273696f6e2c75696e7432353620636861696e49642c6164647265737320766572696679696e67436f6e747261637429",
  "linkReferences": {},
  "deployedLinkReferences": {}
}